:020000040800F2
:1000000000000320BD0F0008192B00081B2B00085F
:100010001D2B00081F2B0008212B000800000000EA
:1000200000000000000000000000000081890008BE
:10003000232B000800000000118A0008758A0008C0
:100040000D1000080D1000080D1000080D1000081C
:100050000D1000080D1000080D1000080D1000080C
:100060000D1000080D1000080D1000080D100008FC
:100070000D1000080D1000080D1000080D100008EC
:100080000D1000080D1000080D1000080D100008DC
:100090000D1000080D1000080D1000080D100008CC
:1000A0000D1000080D1000080D1000080D100008BC
:1000B0000D1000080D1000080D1000080D100008AC
:1000C0000D1000080D1000080D1000080D1000089C
:1000D0000D1000080D1000080D1000080D1000088C
:1000E0000D1000080D1000080D1000080D1000087C
:1000F0000D1000080D1000080D1000080D1000086C
:100100000D1000080D1000080D1000080D1000085B
:10011000252B00080D100008312B00080D100008D9
:100120000D1000080D1000080D1000080D1000083B
:100130000D1000080D1000080D1000080D1000082B
:100140000D1000080D1000080D1000080D1000081B
:100150000D1000080D1000080D1000080D1000080B
:100160000D1000080D1000080D1000080D100008FB
:100170000D1000080D1000080D1000080000000010
:100180000D1000080D1000080D1000080D100008DB
:100190000D1000080D1000080D1000080D100008CB
:0C01A0003D2B00080D100008492B000842
:1001B00010B5054C237833B9044B13B10448AFF3A1
:1001C00000800123237010BDDC020020000000002D
:1001D000180E020808B5034B1BB103490348AFF3DF
:1001E000008008BD00000000E0020020180E020898
:1001F00001F0FF01102A2BDB10F0070F08D010F8D8
:10020000013B013A8B422DD010F0070F42B3F6D1DB
:10021000F0B441EA012141EA014122F007047FF0F4
:1002200000070023F0E80256083C85EA010586EA4B
:10023000010685FA47F5A3FA87F586FA47F6A5FA87
:1002400087F68EB9EED1F0BC01F0FF0102F0070293
:1002500032B110F8013B013A83EA010313B1F8D13E
:100260000020704701387047002D06BF354603381F
:10027000073815F0010F07D1013015F4807F02BF58
:10028000013015F4C03F0130F0BC0138704700BFA9
:10029000034613F8012B002AFBD1181A01387047C6
:1002A00081F0004102E000BF83F0004330B54FEA27
:1002B00041044FEA430594EA050F08BF90EA020F94
:1002C0001FBF54EA000C55EA020C7FEA645C7FEA27
:1002D000655C00F0E2804FEA5454D4EB5555B8BF4A
:1002E0006D420CDD2C4480EA020281EA030382EABB
:1002F000000083EA010180EA020281EA0303362D4D
:1003000088BF30BD11F0004F4FEA01314FF4801C1F
:100310004CEA113102D0404261EB410113F0004F31
:100320004FEA03334CEA133302D0524263EB4303E8
:1003300094EA050F00F0A780A4F10104D5F1200E86
:100340000DDB02FA0EFC22FA05F2801841F10001E1
:1003500003FA0EF2801843FA05F359410EE0A5F1B5
:1003600020050EF1200E012A03FA0EFC28BF4CF0E6
:10037000020C43FA05F3C01851EBE37101F000459C
:1003800007D54FF0000EDCF1000C7EEB00006EEBA9
:100390000101B1F5801F1BD3B1F5001F0CD3490833
:1003A0005FEA30004FEA3C0C04F101044FEA44528A
:1003B00012F5800F80F09A80BCF1004F08BF5FEA11
:1003C000500C50F1000041EB045141EA050130BDF1
:1003D0005FEA4C0C404141EB0101013C28BFB1F503
:1003E000801FE9D291F0000F04BF01460020B1FA4E
:1003F00081F308BF2033A3F10B03B3F120020CDA21
:100400000C3208DD02F1140CC2F10C0201FA0CF0FE
:1004100021FA02F10CE002F11402D8BFC2F1200C63
:1004200001FA02F120FA0CFCDCBF41EA0C01904019
:10043000E41AA2BF01EB0451294330BD6FEA040462
:100440001F3C1CDA0C340EDC04F11404C4F120024D
:1004500020FA04F001FA02F340EA030021FA04F35F
:1004600045EA030130BDC4F10C04C4F1200220FAB6
:1004700002F001FA04F340EA0300294630BD21FAF4
:1004800004F0294630BD94F0000F83F4801306BFBA
:1004900081F480110134013D4EE77FEA645C18BFAE
:1004A0007FEA655C29D094EA050F08BF90EA020F45
:1004B00005D054EA000C04BF1946104630BD91EA3D
:1004C000030F1EBF0021002030BD5FEA545C05D140
:1004D0004000494128BF41F0004130BD14F580047F
:1004E0003CBF01F5801130BD01F0004545F0FE41F3
:1004F00041F470014FF0000030BD7FEA645C1ABF28
:10050000194610467FEA655C1CBF0B46024650EA5E
:10051000013406BF52EA033591EA030F41F400218A
:1005200030BD00BF90F0000F04BF0021704730B510
:100530004FF4806404F132044FF000054FF00001E5
:1005400050E700BF90F0000F04BF0021704730B5A6
:100550004FF4806404F1320410F0004548BF40427B
:100560004FF000013EE700BF42004FEAE2014FEAD0
:1005700031014FEA02701FBF12F07F4393F07F4FAB
:1005800081F06051704732F07F4208BF704793F0AE
:100590007F4F04BF41F40021704730B54FF46074C1
:1005A00001F0004521F000411CE700BF50EA0102C4
:1005B00008BF704730B54FF000050AE050EA01026D
:1005C00008BF704730B511F0004502D5404261EBDD
:1005D00041014FF4806404F132045FEA915C3FF41E
:1005E000D8AE4FF003025FEADC0C18BF03325FEABB
:1005F000DC0C18BF033202EBDC02C2F1200300FA6C
:1006000003FC20FA02F001FA03FE40EA0E0021FA90
:1006100002F11444BDE600BF70B54FF0FF0C4CF47E
:10062000E06C1CEA11541DBF1CEA135594EA0C0F30
:1006300095EA0C0F00F0DEF82C4481EA030621EA6B
:100640004C5123EA4C5350EA013518BF52EA0335A6
:1006500041F4801143F4801338D0A0FB02CE4FF058
:100660000005E1FB02E506F00042E0FB03E54FF088
:100670000006E1FB03569CF0000F18BF4EF0010E80
:10068000A4F1FF04B6F5007F64F5407404D25FEA7C
:100690004E0E6D4146EB060642EAC62141EA55512F
:1006A0004FEAC52040EA5E504FEACE2EB4F1FD0C71
:1006B00088BFBCF5E06F1ED8BEF1004F08BF5FEAEF
:1006C000500E50F1000041EB045170BD06F00046A1
:1006D00046EA010140EA020081EA0301B4EB5C044E
:1006E000C2BFD4EB0C0541EA045170BD41F4801146
:1006F0004FF0000E013C00F3AB8014F1360FDEBF6B
:10070000002001F0004170BDC4F10004203C35DA46
:100710000C341BDC04F11404C4F1200500FA05F3C9
:1007200020FA04F001FA05F240EA020001F000426A
:1007300021F0004110EBD37021FA04F642EB0601E0
:100740005EEA430E08BF20EAD37070BDC4F10C040A
:10075000C4F1200500FA04F320FA05F001FA04F2CE
:1007600040EA020001F0004110EBD37041F10001BA
:100770005EEA430E08BF20EAD37070BDC4F12005C5
:1007800000FA05F24EEA020E20FA04F301FA05F22D
:1007900043EA020321FA04F001F0004121FA04F2D5
:1007A00020EA020000EBD3705EEA430E08BF20EAA5
:1007B000D37070BD94F0000F0FD101F000464000DF
:1007C00041EB010111F4801F08BF013CF7D041EA61
:1007D000060195F0000F18BF704703F00046520065
:1007E00043EB030313F4801F08BF013DF7D043EA36
:1007F0000603704794EA0C0F0CEA135518BF95EAEC
:100800000C0F0CD050EA410618BF52EA4306D1D172
:1008100081EA030101F000414FF0000070BD50EA91
:10082000410606BF1046194652EA430619D094EA1B
:100830000C0F02D150EA013613D195EA0C0F05D105
:1008400052EA03361CBF104619460AD181EA030159
:1008500001F0004141F0FE4141F470014FF0000011
:1008600070BD41F0FE4141F4780170BD70B54FF0AC
:10087000FF0C4CF4E06C1CEA11541DBF1CEA13552C
:1008800094EA0C0F95EA0C0F00F0A7F8A4EB05040E
:1008900081EA030E52EA03354FEA013100F0888005
:1008A0004FEA03334FF0805545EA131343EA1263CE
:1008B0004FEA022245EA111545EA10654FEA002683
:1008C0000EF000419D4208BF964244F1FD0404F53C
:1008D000407402D25B084FEA3202B61A65EB030598
:1008E0005B084FEA32024FF480104FF4002CB6EB55
:1008F000020E75EB030E22BFB61A754640EA0C00D5
:100900005B084FEA3202B6EB020E75EB030E22BF14
:10091000B61A754640EA5C005B084FEA3202B6EB55
:10092000020E75EB030E22BFB61A754640EA9C0014
:100930005B084FEA3202B6EB020E75EB030E22BFE4
:10094000B61A754640EADC0055EA060E18D04FEAA2
:10095000051545EA16754FEA06164FEAC30343EA42
:1009600052734FEAC2025FEA1C1CC0D111F4801F0F
:100970000BD141EA00014FF000004FF0004CB6E708
:1009800011F4801F04BF01430020B4F1FD0C88BFA7
:10099000BCF5E06F3FF6AFAEB5EB030C04BFB6EBB2
:1009A000020C5FEA500C50F1000041EB045170BDA5
:1009B0000EF0004E4EEA113114EB5C04C2BFD4EBD2
:1009C0000C0541EA045170BD41F480114FF0000E56
:1009D000013C90E645EA060E8DE60CEA135594EAD2
:1009E0000C0F08BF95EA0C0F3FF43BAF94EA0C0FD5
:1009F0000AD150EA01347FF434AF95EA0C0F7FF44A
:100A000025AF104619462CE795EA0C0F06D152EA9D
:100A100003353FF4FDAE1046194622E750EA410681
:100A200018BF52EA43067FF4C5AE50EA41047FF492
:100A30000DAF52EA43057FF4EBAE12E74FF0FF3CF7
:100A400006E000BF4FF0010C02E000BF4FF0010CC8
:100A50004DF804CD4FEA410C7FEA6C5C4FEA430C41
:100A600018BF7FEA6C5C1BD001B050EA410C0CBF90
:100A700052EA430C91EA030F02BF90EA020F0020F2
:100A8000704710F1000F91EA030F58BF994208BF59
:100A900090422CBFD8176FEAE37040F00100704716
:100AA0004FEA410C7FEA6C5C02D150EA013C07D16D
:100AB0004FEA430C7FEA6C5CD6D152EA033CD3D0B8
:100AC0005DF8040B704700BF8446104662468C46B2
:100AD0001946634600E000BF01B5FFF7B7FF0028E5
:100AE00048BF10F1000F01BD4DF808EDFFF7F4FF0E
:100AF0000CBF012000205DF808FB00BF4DF808ED99
:100B0000FFF7EAFF34BF012000205DF808FB00BFBB
:100B10004DF808EDFFF7E0FF94BF012000205DF8DD
:100B200008FB00BF4DF808EDFFF7CEFF94BF012092
:100B300000205DF808FB00BF4DF808EDFFF7C4FF8B
:100B400034BF012000205DF808FB00BF4FEA410CD4
:100B50007FEA6C5C02D150EA013C0AD14FEA430CB7
:100B60007FEA6C5C02D152EA033C02D14FF00000F4
:100B700070474FF0010070474A0011D212F5001281
:100B800011D20DD56FF47873B3EB62520ED44FEAE5
:100B9000C12343F0004343EA505323FA02F0704765
:100BA0004FF00000704750EA013002D14FF0FF30A3
:100BB00070474FF0000070474FEA4102B2F1E04346
:100BC00024BFB3F5001CDCF1FE5C0DD901F0004C34
:100BD0004FEAC0024CEA5070B2F1004F40EB830084
:100BE00008BF20F00100704711F0804F21D113F1B0
:100BF0003872BCBF01F00040704741F480114FEAE9
:100C00005252C2F11802C2F1200C10FA0CF320FA71
:100C100002F018BF40F001004FEAC1234FEAD3238E
:100C200003FA0CFC40EA0C0023FA02F34FEA4303F8
:100C3000CCE77FEA625307D150EA01331EBF4FF081
:100C4000FE4040F44000704701F0004040F0FE409C
:100C500040F40000704700BF53B94AB9002908BFEB
:100C600000281CBF4FF0FF314FF0FF3000F0A4B957
:100C7000ADF1080C6DE904CE00F03CF8DDF804E0BD
:100C8000DDE9022304B0704738B500220023044692
:100C90000D46FFF733FF28B920462946BDE8384006
:100CA00000F00AB8204605F1004100F005F8404286
:100CB00061EB410138BD00BFD0B50C4B00220646A8
:100CC0000F46FFF7A9FCFFF757FF0446FFF72AFC82
:100CD000074B0022FFF7A0FC02460B463046394680
:100CE000FFF7E2FAFFF748FF2146D0BD0000F03DD4
:100CF0000000F0412DE9F047089D04468C46002B8A
:100D000040F083808A42174647D9B2FA82F242B154
:100D1000C2F1200024FA00F09140974040EA010C13
:100D200094404FEA1748230CBCFBF8F61FFA87FEE5
:100D300008FB16C143EA014306FB0EF1994209D9AB
:100D4000FB1806F1FF3080F01981994240F21681BC
:100D5000023E3B445B1AA4B2B3FBF8F008FB10332D
:100D600044EA034400FB0EFEA64509D93C1900F1F4
:100D7000FF3380F00581A64540F2028102383C44F1
:100D800040EA0640A4EB0E0400261DB1D440002327
:100D9000C5E900433146BDE8F08702B9FFDEB2FA8B
:100DA00082F2002A50D1CB1B4FEA174E1FFA87F868
:100DB0000126B3FBFEFC210C0EFB1C3341EA034170
:100DC00008FB0CF38B4207D979180CF1FF3002D2E3
:100DD0008B4200F2E9808446C91AA3B2B1FBFEF04F
:100DE0000EFB101143EA014408FB00F8A04507D9A7
:100DF0003C1900F1FF3302D2A04500F2D980184619
:100E0000A4EB080440EA0C40BFE78B4209D9002D4F
:100E100000F0B1800026C5E9000130463146BDE84A
:100E2000F087B3FA83F6002E4AD18B4202D3824276
:100E300000F2B880841A61EB030101208C46002D7A
:100E4000A8D0C5E9004CA5E7C2F1200320FA03F6BB
:100E5000974001FA02F04FEA174ED9403043030C95
:100E6000B1FBFEF61FFA87F80EFB161143EA0143A9
:100E700006FB08F1994204FA02F409D9FB1806F1BD
:100E8000FF3C80F08D80994240F28A80023E3B44D4
:100E90005B1A81B2B3FBFEF00EFB103341EA034153
:100EA00000FB08F38B4207D9791800F1FF3C73D29D
:100EB0008B4271D902383944CB1A40EA064678E7AA
:100EC000C6F1200C03FA06F422FA0CF31C4320FAB4
:100ED0000CF701FA06F34FEA144E21FA0CF11F4306
:100EE0003B0CB1FBFEF91FFA84F80EFB191143EA23
:100EF000014109FB08FA8A4502FA06F200FA06F3F4
:100F000008D9611809F1FF3048D28A4546D9A9F1BC
:100F100002092144A1EB0A01BFB2B1FBFEF00EFBB6
:100F2000101147EA014700FB08F8B84507D9E7194F
:100F300000F1FF312ED2B8452CD90238274440EABF
:100F40000940A7EB0807A0FB02894F45C646494662
:100F50001AD317D05DB1B3EB0E0267EB010707FAA6
:100F60000CFCF2404CEA0202F740C5E900270026DB
:100F70003146BDE8F0872E4628460BE70646E9E6EF
:100F80001846FDE64345E5D2B8EB020E69EB0401D5
:100F90000138DFE70846D2E760468DE78146B9E7CA
:100FA000664675E730464AE7ACF1020C394413E770
:100FB00002383C4424E700BF704700BFDFF834D05C
:100FC000002103E00C4B5B58435004310B480C4BA1
:100FD00042189A42F6D30B4A02E0002342F8043B3F
:100FE000094B9A42F9D304F0B7FD1CF0FFFE00F064
:100FF0000BFE704700000320CCED05080000002028
:10100000DC020020DC020020643F0020FEE700F04C
:101010000BBC00F079BC704710B5042104461BF0EE
:10102000BAFD204610BD000038B50C4B0C4C1880A2
:101030000C4B822019806368984740F61103984250
:101040000AD1094D23682C60822098472B688220A2
:10105000DB689847002038BD0120FCE7F80200203B
:1010600050000020FA020020FC0200204FF4A07182
:10107000F020FFF7D9BF0000F7B52D4D2B680446CF
:101080001B698220984780B22080002843D02B68BB
:101090000DF106025B6901A982209847BDF8062080
:1010A000A2F5B47292B20A2A37D90B23B2FBF3F23B
:1010B000204B1B889A4201D95A1E92B2BDF80430C7
:1010C00040F6B8318B422AD8C3F571630E339BB218
:1010D0000F21B3FBF1F3184909888B4201D94B1E4C
:1010E0009BB2164E164D30682F68834281B28CBF7A
:1010F000591AC91AB8B2BA428CBF101A801A89B2EA
:1011000080B201440529C8BF33603368C8BF2A6074
:1011100063802B68A38003B0F0BD0022CEE7C3F547
:101120006D6308339BB20E2BD2D80023D9E700BFE2
:10113000FC020020FA020020F80200200003002038
:101140000403002037B568460D461446FFF794FFA8
:10115000BDF8000030B1BDF802302B60BDF804309E
:101160002360012003B030BD7047704770470123F2
:1011700080F8741080F875307047002070470020A8
:101180007047836B0BB10846184770474FF6FF70E6
:101190007047406803689B691847704770477047FD
:1011A00000F054BC08B503680446DB6F9847236819
:1011B00020465B6F984700F0EDF823682046DB6E11
:1011C0009847292000F08AFF00F0E4F823682046C1
:1011D000DB6E9847F8E710B504460AF03BFB23683E
:1011E0002046D3F8A430BDE81040184700F020BCDA
:1011F00000F024BC00F048BC00F0F6BB00F048BC96
:1012000000F050BC00F0FABB08B531B90A4B0B4AEC
:101210000B484FF42B711CF0A5FCC0E90F12003AEB
:101220000849436418BF01220A70003B064A18BFF0
:101230000123137008BD00BF880E0208C00E02080B
:101240000E0F02088E3900208F39002008B5094B97
:101250001B888B4203D8084B1B88934205D9074B48
:10126000074A08489E211CF07DFC074B1980074B5C
:101270001A8008BD8439002086390020530F0208E7
:10128000B60F02080E0F02088A3900208C390020A0
:1012900009F07EBC10B57C2104461BF07CFC204686
:1012A00010BD90F877301BB1406803681B68184781
:1012B0001846704710B590F8341090F874400C4BF5
:1012C0008C421A7809D03AB90A4A0B49148808881E
:1012D00010800C8001221A7010BD002AFCD0054A33
:1012E00005491488088810800C800022F3E700BFAD
:1012F000883900208439002086390020012108B572
:101300000022084607F0E2F80A4B186028B90A4B99
:101310000A4A29210A481CF025FC00220421012048
:1013200007F09AF9074B186018B9074B034A2D21AB
:10133000F0E708BD0C030020CC10020815110208CC
:10134000441102080803002094110208024B4FF0D8
:10135000FF31186807F010B90C030020014B186822
:1013600007F044B90C030020024B0021186807F075
:1013700003B900BF0C030020FFF7F0BF0348044986
:10138000006800231A4607F0ADB900BF080300202B
:101390000400002013B5084C00231A4601A9206858
:1013A00007F0E2F920684FF0FF33002201A907F0AF
:1013B000DBF902B010BD00BF0803002003685B6CBE
:1013C00018470120704703689B6A184782B00023C2
:1013D00001930D4B1A6B42F400021A631A6B02F46C
:1013E00000020192019A1A6942F400021A611A6914
:1013F00022F400021A61054B054A1A61054B4FF0B1
:1014000080629A6002B0704700380240FC3D0020C4
:101410002114000800E100E040F2EF3070470000C6
:10142000024B1B68586803685B69184790390020B5
:1014300008B50B280BD8DFE800F01206100A0A0ADC
:101440000A0808080808012008BD0520FCE7054B2C
:10145000054A064867211CF085FB0020F4E70220BE
:10146000F2E700BFD6110208F11102083B12020890
:1014700008B50A2809D8DFE800F010060E080808A9
:10148000080606060600012008BD054B054A064869
:1014900088211CF067FB0020F6E70220F4E700BF7C
:1014A000D6110208891202083B1202082DE9F843FE
:1014B00091F81D800C464046FFF7BAFFA77F05460E
:1014C0003846FFF7B5FF06463846FFF7D1FFA18A39
:1014D000628B4B4B521A1A649A61228B521A1A6110
:1014E000E28A586342EA01425A6421696268D96318
:1014F000DA60D4F800C094F81C90BCF1800F4FEA79
:1015000009629E4630D014D8BCF1200F45EA020093
:1015100068D0BCF1400F65D0BCF1040F20D0384B2F
:101520002A4342F40032B845DA6148D140F2012240
:1015300014E0BCF5807F07D0BCF5007FEFD142F40A
:10154000003242F0090203E042F4003242F00A02A3
:10155000DA61E2681A625E6259612A4A1A604CE0F6
:1015600040F40030D861F6E7A0682A4342F4003224
:10157000041DDC62DA6102785E62596142B1012ABF
:101580001FD0214B214A22484FF489711CF0EAFAFE
:101590004288D969501E21F47F4222F0100242EAAB
:1015A0000022DA610124164BDA6942F02002DA6186
:1015B000DA699206FCD410229A60002CCDD1154A2B
:1015C000CCE74288D969501E21F47F4222F01002F4
:1015D00042EA0022B9F1FF0442F0100218BF0124D0
:1015E000DA61E0E7074B40F40030CEF81C00CEF89B
:1015F0002460CEF81410CEF80030BDE8F88300BFA8
:1016000000B0024001020200D4120208EE120208E9
:101610003B1202080102010038B50C46887FFFF733
:1016200027FFA58AE18A164B628B586341EA054180
:101630005964521B2169D9631A642568082D0ED19B
:101640009A611A615862207F0E4A42EA0062DA61AA
:10165000E2681A620C4A5961D9601A6038BD0022EA
:10166000D8611A61E1680A0A480902F4784200F474
:10167000FC600243C1F3C4010A439A63034AECE7E6
:1016800000B0024009000100010202000102030053
:10169000054B0360054B4FF08062C3F88820BFF311
:1016A0004F8FBFF36F8F70473413020800E100E0E3
:1016B00010B50446FFF7ECFF20464FF442611BF0E3
:1016C0006AFA204610BD000070B5044625460A4B54
:1016D0000C30002660602672667245F8203B60225E
:1016E00029460AF0EDF904F54263EE602035AB427D
:1016F000FBD1204670BD00BF3413020801207047A3
:101700000C2070470C2303FB0100083070470C23AA
:1017100003FB0100083070470120704741F6680064
:10172000704741F6680303FB01000830704741F63B
:10173000680303FB01000830704701207047102048
:10174000704700EB01100830704700EB01100830C3
:101750007047084601F022BB10B5034B03600446F6
:1017600008F048FF204610BDEC13020810B50446EF
:10177000FFF7F2FF204614211BF00DFA204610BDA2
:1017800010B5034B0360044608F034FF204610BD3B
:10179000B813020810B50446FFF7F2FF204641F6E1
:1017A00070011BF0F8F9204610BD000010B5034B86
:1017B0000360044608F01EFF204610BD8413020893
:1017C00010B50446FFF7F2FF204618211BF0E3F99D
:1017D000204610BD10B5094B0360044600F5C45007
:1017E0001C30FFF7B9FF04F12C00FFF7C9FF04F12B
:1017F0001400FFF7DBFF204610BD00BF20140208D5
:1018000008B50248FFF7E6FF08BD00BF140300203B
:1018100010B50446FFF7DEFF204641F610211BF00D
:10182000BAF9204610BD00002DE9F34101F0F8F9A6
:10183000054601F0F9F900240146234628462246D0
:1018400000940FF057F9244B244A254D1A60204686
:1018500001F0D2FD23480FF08FF82B78BFF35B8F98
:10186000DB0733D428461BF098F978B31E4C1F4F82
:101870001F4B236007F11C0604F1140004F12C082F
:101880006060C4F80880E760266108F0B5FE194B77
:101890006361404608F0B0FE174BE362384608F03B
:1018A000ABFE164B3B6007F1140003F0C5F822466F
:1018B00007F11401304603F0A3F8304601F06EFA48
:1018C00028461BF076F90E481CF06AF90D4802B064
:1018D000BDE8F041FFF764BCEC390020C4290020CA
:1018E000100300200800002014030020B01B00207B
:1018F0002014020884130208B8130208EC1302082B
:1019000001180008482900200148FFF74BBC00BF20
:101910004829002070B5244C244E254B254D2360CA
:101920003046FFF7D1FE284612F0B4F9224B234887
:10193000DC6000224FF48071C3E91212204C21496F
:101940000360F020C3E9191220804FF080711E4C13
:1019500059670121C3E90422C3E90622C3E9082229
:10196000C3E90E22C3E91022C3E91422C3E91622F7
:101970001A8583F82A20DA621A861A6683F86C20A0
:101980001A67C3E9016583F8781020800F4C83F84B
:1019900034104FF4A07020800D4C20800D48027050
:1019A0000D4A1A6070BD00BF241D0020281D0020B4
:1019B000780E0208C829002048290020903900200C
:1019C00084390020010000018A3900208639002076
:1019D0008C39002088390020041002080148FFF7E4
:1019E00057BE00BF281D0020034B902283F85A23C6
:1019F00083F85823704700BF00E100E0094A0A4914
:101A0000D3680A48C3F30A03013B9BB20B801169F8
:101A1000C1F30A01013901801364536B43F00103E0
:101A20005363704700680140422A0020402A00208A
:101A3000014B986A704700BF84680140024B012245
:101A4000996243F8602C70478468014070B5044681
:101A500009F0F3F823681D6E0CF08CF8014620465F
:101A6000A8472368054AD3F884502046AC46002393
:101A7000BDE87040A2F51631604700BF005802D0A3
:101A800009F0C2B809F0CCB809F088B809F0E3B998
:101A9000034B4FF080629A604FF080729A607047FB
:101AA00000E100E0084B4FF08062C3F88820BFF3EC
:101AB0004F8FBFF36F8F4FF08072C3F88820BFF352
:101AC0004F8FBFF36F8F704700E100E0134B144A54
:101AD0001B6C11888B4210B5124C13D1124B198814
:101AE00005F0C0F8226892F86630013382F866305B
:101AF000FFF744FC206809F0ADFEBDE8104000206F
:101B0000FFF732BB05F0AEF80020FFF72EFB206890
:101B10000368BDE810401B6A184700BF0068014019
:101B2000422A002090390020402A002007B5064BA9
:101B3000ADF806001B68054801220DF1060105F00D
:101B4000A0FD03B05DF804FB10000020843C0020E1
:101B5000F0B5A1B0102200210AA81CF08DF91422C2
:101B6000002103A81CF088F90021302214A81CF0E1
:101B700083F90024224B01941A6C42F080521A64BB
:101B80001B6C03F080530193019B1E4B02941A6857
:101B900042F440421A601B6803F44043029301225E
:101BA000029B4FF48033CDE9082302254FF48003D4
:101BB000CDE90E5308274FF4A873042608A8CDE9F1
:101BC00010731295139605F06BF80F23CDE90335CA
:101BD0004FF4A0514FF48053CDE9061303A805211B
:101BE000059405F033FAC023189314A84FF400337A
:101BF00014971A961D9305F003FB21B0F0BD00BFAA
:101C0000003802400070004080B59AB003F0B2FF87
:101C1000FFF79EFF142200210DA800241CF02CF9D0
:101C2000C54B00941A6BC548C54D42F020021A639B
:101C30001A6B02F020020092009A01941A6B42F093
:101C400080021A631A6B02F080020192019A0294D8
:101C50001A6B42F004021A631A6B02F00402029239
:101C6000029A03941A6B42F001021A631A6B02F093
:101C700001020392039A04941A6B42F002021A635F
:101C80001A6B02F002020492049A05941A6B42F055
:101C900040021A631A6B02F040020592059A0694FC
:101CA0001A6B42F010021A631A6B02F010020692CD
:101CB000069A07941A6B42F008021A631B6B03F032
:101CC0000803079322460421079B04F0EDF92246FE
:101CD0009C484FF44051012604F0E6F902274FF0EA
:101CE000040896480F940DA9CDE90D86109704F0CD
:101CF000F1F80DA94FF440539248CDE90D36CDE9E6
:101D00000F4704F0E7F89048904B036003F0C4FFDE
:101D10008F4A904B2C62C5E9002328464FF480433C
:101D2000C5E90434C5E90244C5E9064404F09EFB54
:101D30001021284604F0DAFD2146284604F0F5FD7E
:101D40008548864984624FF48273C0E900134FF4DA
:101D500000751823C0E906530A23814DC362C0E908
:101D60000244C0E90444C0E9084405F04DFC7D4B41
:101D70000D974FF0100CC5E900364023C5E904C3A8
:101D80004FF4C073C5E906344FF40063C5E9083465
:101D90004FF40053AB624FF0030A07230DA9284606
:101DA000CDE90E3810934FF00809C5E90248CDE996
:101DB00011A7139705F04EFB4FF6FF7209A92846AD
:101DC000CDE90A96089409960C9405F063FB304619
:101DD00003F0FCFE4FF6FF7209A92846CDE9097908
:101DE000CDE90B6405F056FB4FF6FF7209A92846B2
:101DF000CDE909A9CDE90B8405F04CFB4FF40C7338
:101E00000893089B0C934FF6FF7209A92846CDE969
:101E100009890B9605F03EFB40F26A51284605F011
:101E200050FB342221460DEB02001CF025F84E4DEC
:101E30004E4BAC86C5E900340923C5E905361D23A0
:101E400040F20D1EC5E9073A40F24313C5E909E324
:101E500040F2171840F247132846C5E90B83C5E93D
:101E600002442C6185F8364004F004FEFF21F02284
:101E70004FF00508CDE912144FF480614FF4A073C0
:101E8000CDE90E24CDE91418CDE916420DA922465C
:101E90002846CDE91037364D18930D94ADF86440BF
:101EA0008DF8664004F0B1FE324B2B601B68DFF802
:101EB000E89098472B68304DDB6898472F4BC5E971
:101EC0000A47C5E90C442846C5E90034C5E902744F
:101ED00003F004FF3146284603F0B8FF28484FF4CA
:101EE00016530C25C0E90093C0E90554C0E902442B
:101EF0000461C46105F0CCFFFFF789F806F03CFAF5
:101F0000204A3146404606F0A7FB1F4B1F4A186087
:101F10003146404606F0A0FB1D4B2946186022467C
:101F2000304606F0A5FF1B4B294618602246304676
:101F300006F09EFF32E000BF003802400008024079
:101F4000303C0020000C0240E03C00200030024009
:101F5000005C0040A0860100843C0020005001404D
:101F6000703E0020400100A0F43C002000680140C9
:101F7000442A002018000020FC3D002000B0024050
:101F8000BC3D00208C1402089C3D0020A4140208D3
:101F9000B43D0020AC2B0020004C00400C4B0D4AFF
:101FA000186021460C480D4D06F020FA0C4A2860B6
:101FB00021460C4806F01AFA0B4B064A18602146D7
:101FC000054806F013FA286006F0F0F9FEE700BFB6
:101FD000B02B0020BC1402083D240008E83C00207F
:101FE0006814020813100008B83D002070477047BD
:101FF0007FB5094B8DF817201B6802930DF117026E
:102000000123009201930A460146044804F0D6FADF
:1020100007B05DF804FB00BF0C000020303C00203E
:102020007FB500238DF81730084B1B6802930A46D2
:1020300001230DF11701009101930146044804F0BA
:102040004DFB9DF8170007B05DF804FB0C00002065
:10205000303C00201FB5084C24680092CDE90134C3
:102060000A4601230146054804F038FB003818BF32
:10207000012004B010BD00BF0C000020303C002047
:1020800003F0A4BD08B506480022042104F00CF8B2
:10209000BDE8084002480122042104F005B800BF51
:1020A0000008024038B50B4D044601220A484FF49F
:1020B000005103F0F9FF00220421284603F0F4FF49
:1020C0002046FFF733FD28460122BDE838400421B1
:1020D00003F0EABF00080240000C024038B50B4D87
:1020E000044600220A484FF4005103F0DDFF0022AD
:1020F0000421284603F0D8FF2046FFF717FD2846A5
:102100000122BDE83840042103F0CEBF00080240A0
:10211000000C0240F7B5144E144F05460C463046ED
:102120000022042103F0C0FF00224FF40051384682
:1021300003F0BAFF2846FFF7F9FC0D4B0D481B686A
:10214000224601A905F030FC384601224FF4005127
:10215000019C03F0A9FF30460122042103F0A4FFF3
:10216000204603B0F0BD00BF00080240000C024052
:1021700010000020843C002003F028BD002238B568
:1021800013468A4213DB1D099F2B03F00F0394BFF4
:10219000303537350220092B94BF03F1300403F1A9
:1021A00037041BF04BFEEDB20570447038BD845C03
:1021B0001B1BDBB20132E4E770B5551A04460E462C
:1021C000681C1BF03BFEA11900239D4200DA70BD84
:1021D00011F8012BC2540133F7E738B5FDEEC07A90
:1021E000642317EE905A95FBF3F56B432DED028BAC
:1021F00008EE103AB8EEC88A0A2330EE480A0420E6
:10220000FDEEC07A303517EE904A94FBF3F4634349
:1022100008EE103AB8EEC88A303430EE488A1BF027
:102220000DFEFDEEC88AF2EE047A18EE903AF8EE52
:10223000E88A303338EE688A837028EE278A057082
:10224000BDEEC88A447018EE103A3033C370BDEC4E
:10225000028B38BD38B5FDEEC07A642317EE902AA4
:1022600092FBF3F253432DED028B08EE103AB8EED9
:10227000C88A022030EE488A0A24FDEEC87A17EE9A
:10228000905A1BF0DBFD95FBF4F505F1300303706C
:1022900004FB05F300EE103AB8EEC00A38EE408AAF
:1022A000BDEEC88A18EE103A30334370BDEC028B95
:1022B00038BD2DE9FF4104AC04E907001C46019B31
:1022C0000A9EF3B93123022563703F232A46A37087
:1022D000257001212046FFF76FFF29460646FFF7CC
:1022E0004DFF0378E3704378237103230546637140
:1022F00030461BF0ABFD284604B0BDE8F0411BF0B2
:10230000A5BD012B46D19DED020AFFF766FF9DEDAD
:10231000030A0546FFF79EFF0223237031236370F3
:102320005423A3702B78E3706B782371AB786371BF
:102330002E23A371EB78E371462323720378637233
:102340004378A3722346522203F80B2F0746721ECE
:102350000F3612F8011F03F8011FB242F9D11B22F8
:1023600001212046FFF728FF1B218046FFF706FFCB
:1023700003782377437863770323A37706462846B9
:102380001BF064FD38461BF061FD30461BF05EFD1E
:102390004046B1E704B0BDE8F08100002DE9F3410B
:1023A000804606200C4615461BF048FD07460320D4
:1023B0001BF044FDE379019363790093064623798A
:1023C000E278184938461CF0B5F9A37A627A1649C2
:1023D00030461CF0AFF938461BF0E8FB51EC100B0F
:1023E000FEF7EAFBC8F8040030461BF0DFFB51ECB7
:1023F000100BFEF7E1FBC8F8080038461BF026FD7D
:1024000030461BF023FD4DB104F11F03013D2F3475
:1024100013F8012F05F8012FA342F9D102B0BDE84E
:10242000F08100BF2C1402083614020800231A465B
:102430008B4200DB7047C2540133F9E72DE9F04FBE
:10244000574D584CDFF8788100264FF0FF3389B0A4
:102450002B6026603746AA46534B52491868DFF86E
:1024600064B1002206F0D4FE04AB009394E80700A8
:102470004E4BFFF71EFF2368002B4CD1DFF848912D
:102480004A494B484FF4FA73062205F02FFD3322D8
:1024900047484FF4FA73494605F084FD454A1060F9
:1024A00078BB2860039004AA49465046FFF776FFA0
:1024B0002F2201214846FFF77FFE2F210646FFF716
:1024C0005DFECBF8000030461BF0C0FC3A4A99F89C
:1024D0003010039B117099F8311051701E46DBF8D3
:1024E000000008B11BF0B2FC344800234FF4FA722C
:1024F0005146006806F024FD4FF47A7005F0CCFFD9
:10250000AAE70136092EEADD4FF0FF332B600023E6
:102510006B60AB60E3E7012BE1D1244924484FF421
:102520007A731F2205F0E2FC4FF4FA63062241465B
:102530001F4805F037FD0137002241465046FFF79E
:102540002DFF0A2F0ADD1D486FF0EF032B60006896
:1025500000234FF4FA72514606F0F2FC98F802108C
:10256000062907D100230027404627606360A36047
:10257000FFF75CFF022201214046FFF71DFE02210A
:102580008146FFF7FBFDCBF8000048461BF05EFCE0
:10259000094B98F803201A7098F804205A709EE7A7
:1025A000A83D0020C43E0020B02B0020A43E002007
:1025B000BC3D0020F03C0020EC3C0020AC2B002077
:1025C000A03D0020DC3C00203C3E00200268034B84
:1025D0009A4201D103F0E8BA704700BF00100040F2
:1025E00082B00E4B00220092596C41F48041596434
:1025F000596C01F48041009100990192196C41F0ED
:10260000805119641B6C03F080530193019B0F21CF
:102610006FF0010002B003F0FFBA00BF00380240C3
:102620000268094B9A4282B00BD100230193074BF9
:102630001A6B42F480521A631B6B03F480530193AC
:10264000019B02B0704700BF0030024000380240DA
:1026500007B50F4B02689A4216D10022A3F5F0434A
:102660000192196B41F4000119631B6B03F4000321
:10267000019305215A20019B03F0CEFA5A2003B0A2
:102680005DF804EB03F0FABA03B05DF804FB00BF99
:1026900000B002402DE9F043044689B01422002125
:1026A00003A81BF0E9FB2268244B9A4243D1244C37
:1026B000244800250095236B43F004032363236B18
:1026C00003F004030093009B0195236B43F0010387
:1026D0002363236B03F001030193019B4FF0120965
:1026E0004FF400734FF001080327042603A9CDE936
:1026F0000339CDE90587079603F0ECFB4FF48073AF
:102700001148079603A9CDE90339CDE9058703F000
:10271000E1FB0295236C43F400032364236C03F470
:1027200000030293029B236A43F400032362236A9B
:1027300023F40003236209B0BDE8F083005C00408D
:10274000003802400008024000000240F0B5044694
:102750008DB01422002107A81BF08EFB2268574B76
:102760009A4240F0A98003F55043002400945A6C2B
:10277000534842F080625A645A6C02F080620092C0
:10278000009A01941A6B42F020021A631A6B02F04D
:1027900020020192019A02941A6B42F001021A631C
:1027A0001A6B02F001020292029A03941A6B42F031
:1027B00002021A631A6B02F002020392039A049453
:1027C0001A6B42F040021A631A6B02F04002049244
:1027D000049A05941A6B42F004021A631A6B02F011
:1027E00004020592059A06941A6B42F008021A63D5
:1027F0001B6B03F00803069302250E26069B0B961F
:102800004FF4806307A9CDE90735CDE9094503F009
:1028100061FB41F658032B480B9607A9CDE9073514
:102820000927CDE9094503F055FB032326480B97FB
:1028300007A9CDE90735CDE9094503F04BFB4FF476
:10284000706321480B9607A9CDE90735CDE9094505
:1028500003F040FB4FF40C631C480B9607A9CDE92D
:102860000735CDE9094503F035FBC02318480B9621
:1028700007A9CDE90735CDE9094503F02BFB08236E
:1028800014480B9607A9CDE90735CDE9094503F0B2
:1028900021FB4FF4A0530D480B9707A9CDE907354D
:1028A000CDE9094503F016FB58202246052103F027
:1028B000B3F9582003F0E2F90DB0F0BD0068014013
:1028C00000140240000002400004024000180240D0
:1028D00000080240000C024010B5044688B01422E3
:1028E000002103A81BF0C8FA2268154B9A4224D194
:1028F00003F5684300220192596C41F48011596438
:10290000596C01F48011019101990292196B41F007
:10291000200119631B6B059203F0200302934FF40F
:102920006071029B0223CDE9031303200523CDE947
:10293000060303A9034803F0CDFA08B010BD00BF99
:10294000005001400014024010B5044688B0142223
:10295000002103A81BF090FA2268184B9A422BD151
:1029600003F5F633002401941A6C154842F4002252
:102970001A641A6C02F400220192019A02941A6BF2
:1029800042F001021A631B6B03F001030293029BE6
:1029900002220323CDE903320122CDE9052303A955
:1029A0000823079303F096FA34202246052103F00A
:1029B00033F9342003F062F908B010BD004C004038
:1029C000000002402DE9F0412C4B1C6886B0002C21
:1029D00050D14FF00108C3F80080294B00949A6B46
:1029E000284842EA08029A639B6B039403EA0803AF
:1029F0000093022703260C25009B01A94FF63F03F5
:102A0000CDE90137CDE9046503F064FA1E48059568
:102A100001A9CDE90187CDE9034603F05BFA48F24D
:102A200033131A48059501A9CDE90137CDE90346CD
:102A300003F050FA4FF683731548059501A9CDE9C7
:102A40000137CDE9034603F045FA4CF20373114810
:102A5000059501A9CDE90137CDE9034603F03AFA1E
:102A600060230D48059501A9CDE90137CDE903465D
:102A700003F030FA06B0BDE8F08100BF482A00201C
:102A800000380240001402400008024000180240D2
:102A900000100240000C02400004024030B5014624
:102AA00089B00022362003F0B7F8362003F0E6F8AC
:102AB0000025154B02951A6C144C42F010021A6452
:102AC0001B6C03F01003029301A903A8029B04F0FE
:102AD00079FB04F057FB0E4B236040F2E733E360D1
:102AE00040000C4BB0FBF3F00138606020462561DC
:102AF000A56005F00DF920B9204604F0EDFF09B0FE
:102B000030BD0120FBE700BF00380240D03E00206E
:102B10000010004040420F007047FEE7FEE7FEE76E
:102B2000FEE77047014805F0DBBA00BFBC3D00205E
:102B3000014804F0E5BF00BFD03E0020014804F08A
:102B400007B800BFF43C0020014803F0F5B800BF0F
:102B5000FC3D00200120704708B51BF039F8162312
:102B600003604FF0FF3008BD08B51BF031F81623A5
:102B70000360FEE770B50E4614460025A54201DB52
:102B8000204670BDAFF3008070550135F6E770B593
:102B90000E4614460025A54201DB204670BD705D3F
:102BA000AFF300800135F6E74FF0FF3070474FF488
:102BB00000534B6000207047012070470020704791
:102BC000704710B50421044619F0E5FF204610BDFA
:102BD00008B5062921D8DFE801F004080C10141804
:102BE0001C0000F055FC006808BD00F051FC406876
:102BF000FAE700F04DFC8068F6E700F049FCC06899
:102C0000F2E700F045FC0069EEE700F041FC4069A6
:102C1000EAE700F03DFC8069E6E70020E4E7000019
:102C200000487047F41402081120704713B50024BF
:102C300051B1036801948DF8034001AA9C680DF11D
:102C40000303A04702B010BD0846FBE74089704768
:102C5000808970478088704783798088184480B263
:102C60007047C07900F07F007047C079C009704795
:102C7000704710B50821044619F08DFF204610BD9D
:102C8000704700F596730868496803C3704770473A
:102C90007047416070477047012303727047704767
:102CA000704710B4C26841685410034601EB6200DB
:102CB000D20748BF0A599B685DF8044B48BFD358F8
:102CC000184743682BB183682BB9C06800F0010036
:102CD0007047184670470120704710B50C21044614
:102CE00019F059FF204610BD10B51021044619F007
:102CF00052FF204610BD10B54FF4AC71044619F0D8
:102D00004AFF204610BD10B50AF034FF0368BDE845
:102D100010401B6B184710B50446D0F83C0158B161
:102D20000368DB68984738B1D4F83C0103689B68B6
:102D300098470023C4F83C3110BD0000F8B50446A4
:102D400017460E460AF036FF104B0025C4E95476AC
:102D50000F4E1C60C4E952550E4B306823600E4B79
:102D6000C4E95035036801219B68C4E94E55984772
:102D7000284600F041FB336893F876200AB1D86CFE
:102D800000B9986812F0D1FD2046F8BDDC3900206A
:102D900090390020A019020888190208064BC0F8D3
:102DA00048310023C0F84C3100F5A073C0F844014D
:102DB000C0F83C31704700BFFD2E00082DE9F84FE8
:102DC00007469068DDF828A0994603681B6A884684
:102DD0001446984741F66703984205D8414B424A4A
:102DE000A32142481AF0BEFE606803681B6A984738
:102DF0000F2803D83E4B3C4AA421F2E7E068036861
:102E00001B6A98470B2803D83A4B374AA521E8E7B5
:102E10000AF0B0FE0AF0B4FED9F8000010B1036861
:102E2000DB689847D9F8000010B103681B68984721
:102E3000386810B103685B699847D8F8000010B192
:102E400003685B689847386810B103681B68984747
:102E5000D8F8000010B103689B689847E0680368E1
:102E600000215B6A98474FF0000B234B0360054637
:102E7000C0F804B080F808B0A068036859465B6ADF
:102E80009847064602F0C6FA6068036859465B6ACE
:102E900098473146044602F0B7F9C9F80050C8F81F
:102EA00000403E60E4B1231DCAF804303368C4F822
:102EB00008A03046DB68F4639847236820461B6807
:102EC0009847294630460CF021FA2B6828461B69A2
:102ED00098472B6828465B6998472046BDE8F88FDD
:102EE0002346E1E758160208E6160208F017020822
:102EF00037180208DA180208E419020807B5D0F8F2
:102F000054310093D0F85021044B00F59C710448D3
:102F1000FFF754FF03B05DF804FB00BFD039002079
:102F2000CC390020006A7047406A704770478B8830
:102F300080690A68DB0A50F823001044704710B516
:102F4000C2B1137BB3B1547BD27A240204F4E0649F
:102F50001443C26998B202EB840213888B4202D1F7
:102F600092F9020010BD05D8013880B20432002861
:102F7000F3D1F7E70020F5E710B52821044619F052
:102F80000AFE204610BD000030B589B00446BDF8E9
:102F900050500695BDF84C5005959DF8405004954D
:102FA0009DF83C5003959DF8385002959DF834509B
:102FB00001959DF8305000950BF008FE064B2360FC
:102FC000119BA361129BE361159B2362169B6362B5
:102FD000204609B030BD00BF081A02087047000043
:102FE00030B5154D2C78BFF35B8F14F001048DB014
:102FF0001FD1284619F0D1FDD8B13F2307930F4BBD
:1030000006930F4B0F4910480894CDE90443012261
:103010000423CDE90132CDE909440C23192203949C
:103020000094FFF7B1FF284619F0C3FD07481AF0D6
:10303000B7FD05480DB030BD4C2A002034710208A0
:10304000507102081C6D0208502A0020DD2F000874
:103050007047000030B5154D2C78BFF35B8F14F02E
:1030600001048DB01FD1284619F097FDD8B13F2338
:1030700007930F4B06930F4B0F4910480894CDE967
:10308000044301220423CDE90132CDE909440E2392
:103090000B2203940094FFF777FF284619F089FD6F
:1030A00007481AF07DFD05480DB030BD782A002094
:1030B00038710208547102087C6E02087C2A0020D4
:1030C000513000087047000030B5154D2C78BFF323
:1030D0005B8F14F001048DB01ED1284619F05DFD00
:1030E000D0B13F2307930F4B06930F4B0F49104866
:1030F0000894CDE904430823CDE9004313221C239F
:10310000CDE90944CDE90244FFF73EFF284619F016
:1031100050FD08481AF044FD05480DB030BD00BF11
:10312000A42A00203C71020858710208186F020896
:10313000A82A0020C53000087047000030B5164DA1
:103140002C78BFF35B8F14F001048DB020D128469A
:1031500019F023FDE0B13F230793104B0693104B6A
:10316000104911480894CDE9044301220423CDE914
:1031700001320523009310221823CDE9094403945A
:10318000FFF702FF284619F014FD08481AF008FD61
:1031900005480DB030BD00BFD02A002040710208A4
:1031A0005C71020824700208D42A0020393100081A
:1031B0007047000030B5154D2C78BFF35B8F14F0CD
:1031C00001048DB01ED1284619F0E7FCD0B13F2391
:1031D00007930F4B06930F4B0F4910480894012299
:1031E000CDE904430423CDE90132CDE909440A23A2
:1031F00003940094FFF7C8FE284619F0DAFC08484B
:103200001AF0CEFC05480DB030BD00BFFC2A0020EE
:10321000447102086071020804710208002B00204A
:10322000B13100087047000030B5154D2C78BFF360
:103230005B8F14F001048DB01ED1284619F0ADFC4F
:10324000D0B13F2307930F4B06930F4B0F49104804
:1032500008940122CDE904430423CDE90132CDE9EC
:103260000944142303940094FFF78EFE284619F0B6
:10327000A0FC08481AF094FC05480DB030BD00BF12
:10328000282B00204871020864710208147102089A
:103290002C2B0020253200087047000030B5154D5A
:1032A0002C78BFF35B8F14F001048DB01ED128463B
:1032B00019F073FCD0B13F2307930F4B06930F4BCC
:1032C0000F49104808940122CDE904430423CDE9B5
:1032D0000132CDE90944282303940094FFF754FEFA
:1032E000284619F066FC08481AF05AFC05480DB04B
:1032F00030BD00BF542B00204C71020868710208D9
:1033000024710208582B00209932000800207047D1
:10331000002070470EB403B503AB002153F8042B13
:1033200001930BF089FA02B05DF804EB03B070472B
:103330000CB407B504AB53F8042B01930BF07CFAE3
:1033400003B05DF804EB02B070470000436C10B5A9
:10335000044673B3038F2BB9184B194AC02119487F
:103360001AF000FCC38E00EB43035B8C0BB30CF034
:103370003BFD238F012B03D8134B144AC521EEE7E5
:10338000E28E531C9BB2092B194688BFA3F10A0198
:1033900004EB410140F63F10498C814209D10A2BD0
:1033A00004EB420228BF002304EB4303508C5884F3
:1033B00051842046BDE810400CF0FABB581A0208B0
:1033C000611A02080C1B0208561B0208641B020843
:1033D0000CF0A6BB10B586B002AC84E806001A4615
:1033E0000AAB05930193099B00932146089B09F0C2
:1033F00038FF06B010BD000038B518BB124B13489B
:103400001B681349B3B11A689C681A4402605A6871
:103410001A440A601C440F4B00221A8000F038F84E
:10342000054600F033F80C4B1C600C4B1D600C4B38
:10343000188007E00B4B03600B4B0B600B4B1C68B9
:10344000002CE8D138BD00BF802B0020842B002049
:10345000882B00208C2B0020E0390020E839002048
:10346000E4390020147202086C7102083C730208EF
:10347000044B1B6853F82100034B1B6803EB40000F
:10348000704700BF882B0020842B00202A20704723
:1034900000487047902B002010B5FFF7C5FE0A4C7E
:1034A0002060FFF7FBFE6060FFF784FEA060FFF77F
:1034B0000BFEE060FFF742FE2061FFF7CBFD60618D
:1034C000FFF78EFDA06110BD902B002000207047FB
:1034D00081807047C180704701817047418170478A
:1034E0007047704770477047704710B4C4880368CE
:1034F000121B84881B6D091B12B25DF8044B09B2C4
:1035000018474FF6FF7383814FF0FF330362136850
:10351000C36110607047806A704790F825201AB127
:1035200090F8242002B1186070477047704710B5BA
:103530004FF42971044619F02EFB204610BD0000FF
:10354000074A02600022C0E90122C0E90322C0E963
:103550000522C0E907224FF480728284704700BFC1
:10356000C83A020870B503680446DB6A15469847F6
:103570002368294620461B6BBDE8704018470000B1
:1035800038B5262204460D4600211AF075FC204667
:10359000FFF7D6FF064B23602B88E384FF232046EA
:1035A00084F82830294608F0C8FD204638BD00BF01
:1035B0000438020810B52622044600211AF05CFCEB
:1035C0002046FFF7BDFF074B2360074BA3624FF672
:1035D000FF73A3854FF47F020023C4E90C322387D5
:1035E000204610BD50360208501602082DE9F04F53
:1035F0002DED068B044683B026460025FFF7A0FF7D
:103600005D4BA56246F82C3B4FF6FF776946304686
:10361000ADF80070FFF7B4FF04F15803694618468F
:1036200008EE103AADF80070FFF7AAFF04F184032A
:103630006946184608EE903AADF80070FFF7A0FF13
:1036400004F1B0036946184604F1DC0A09EE103AA9
:10365000ADF80070FFF794FF5046FFF7ABFFDFF8BF
:1036600038B1C4F8DCB004F58E731846C4F81851AC
:1036700004F5AC7909EE903A04F5CC78FFF79AFF9F
:103680004846FFF797FF04F5EC77C4F858B1C4F843
:1036900094514046FFF78EFFC4F898B1C4F8D45156
:1036A0003846FFF787FF04F50673C4F8D8B118460B
:1036B000C4F814520AEE103AFFF77CFF2F4BA360B8
:1036C000102240213046FFF74DFF07236946304660
:1036D00084F85150ADF8003008F02FFD052218EEA7
:1036E000100A2D21FFF73EFF4FF0060B18EE100ACF
:1036F000694684F87D50ADF800B008F01EFD052243
:1037000018EE900A1E21FFF72DFF18EE900A694669
:1037100084F8A950ADF800B008F00FFD052219EEAD
:10372000100A0F21FFF71EFF19EE100A694684F8F0
:10373000D550ADF800B008F000FD0F2240215046F2
:10374000FFF710FF4FF07F43C4F80C310C4BA4F887
:1037500010511B6804F5157B2BB90A4B0A4AAE21A0
:103760000A481AF0FFF90A4B1B88222B16D8094B7E
:10377000054AAF21F4E700BF4C1D020854002100A8
:10378000E0390020361C0208781C0208A61C02083A
:10379000E4390020ED1C02085C370208844B22212A
:1037A0001868FFF765FE834A03460A2158460DF064
:1037B000D5F8C4F818B1504608F062FB7E4B009370
:1037C000694621235046ADF8043008F076FB0F22FD
:1037D00019EE900A3B21FFF7C5FE774B00934FF09F
:1037E0007F41202319EE900AC4F84C11A4F85051DF
:1037F0006946ADF8043008F060FB2D212A464846A2
:10380000FFF7B0FE4FF07F41C4F888116B49A4F870
:103810008C510B6804F51A7B002B9ED068480388F6
:103820001F2BA4D9624A1F211068FFF721FE614AAD
:1038300003460A2158460DF091F8C4F894B1484661
:1038400008F01EFB4FF01E0B5B4B00936946484689
:10385000ADF804B008F031FB59462A464046FFF760
:1038600081FE5649A4F8CC510B684FF07F4CC4F848
:10387000C8C104F51F7B002B3FF46FAF504803888D
:10388000242B7FF674AF4A4A24211068FFF7F0FD1D
:10389000484A03460A2158460DF060F8C4F8D4B1EE
:1038A000404608F0EDFA444B009369461D2340461C
:1038B000ADF8043008F001FB0F212A463846FFF727
:1038C00051FE3E49A4F80C520B684FF07F4CC4F8EF
:1038D00008C204F5247B002B3FF43FAF384803882F
:1038E000232B7FF644AF324A23211068FFF7C0FD37
:1038F000304A03460A2158460DF030F83846C4F8DD
:1039000014B208F0BDFA2C4B009369461C233846CC
:10391000ADF8043008F0D1FA1AEE100A2A4629460A
:10392000FFF720FE4FF07F42234BC4F848221AEEE7
:10393000100A00936946292384F83D52A4F84C529A
:10394000ADF8043008F0B9FA3146204606F0CCFE56
:1039500018EE101A204606F0C7FE18EE901A204600
:1039600006F0C2FE19EE101A204606F0BDFE5146C2
:10397000204606F0B9FE19EE901A204606F0B4FE75
:103980004946204606F0B0FE4146204606F0ACFE11
:103990003946204606F0A8FE20461AEE101A06F018
:1039A000A3FE204603B0BDEC068BBDE8F08F00BF40
:1039B000EC3900203F1D020850160208E0390020B3
:1039C000E43900207047704710B5D021044619F043
:1039D000E2F8204610BD00002DE9F74F04462546C9
:1039E000FFF7AEFD0026344BA66245F82C3B4FF0A6
:1039F00026094A46314628461AF03EFA2846FFF77D
:103A00009FFD2E4BE36204F15808FF2304F1940755
:103A100084F8523066654046FFF7CCFD3846FFF724
:103A2000C9FD274BA360324631462846FFF79AFD71
:103A30002846F021FFF750FD28464FF4A071FFF70C
:103A40004DFD4FF0FF33DFF87CB0636568224046E0
:103A50005721FFF787FDDFF870A0C4F888B0252351
:103A600069464046A4F88C60ADF80430CDF800A05B
:103A700008F023FA852249463846FFF773FD694668
:103A80003846C4F8C4B0A4F8C860CDF800A0ADF8BA
:103A9000049008F012FA2946204606F025FE414619
:103AA000204606F021FE2046394606F01DFE20463F
:103AB00003B0BDE8F08F00BFDC1D0208F836020835
:103AC000F00040010000FFFF50160208683001F0CE
:103AD0001FBA000038B5084B0360084B83660446E4
:103AE0004FF47875635960191B68403D9847B5F5E8
:103AF000387FF7D1204638BD6C1E0208B825020871
:103B000010B50446FFF7E6FF204640F2444119F0A5
:103B100042F8204610BD00002DE9F341064600257D
:103B20002A4A85624FF48073C0E90155C0E9035504
:103B3000C0E90555C0E90755838446F82C2BA0F849
:103B40005030234BC3624FF6FF73DFF88C80A0F830
:103B5000583000F168074FF47F030446C0E90C5564
:103B6000C0E90E55C0E91055C0E91255C0F854809F
:103B7000C5650366A0F86450384601F005F9154B99
:103B8000A36030464421FFF7A3FC30460321FFF732
:103B9000A1FC4FF07F43E365694601233046A4F85A
:103BA0006050ADF80430CDF8008008F086F94FF48D
:103BB0000033E3663146204606F096FD204639463E
:103BC00006F092FD204602B0BDE8F0816C1E0208AE
:103BD00050360208560024005016020870477047FD
:103BE0007047704730B4C26844685510034604EB10
:103BF0006200D20748BF62599B6830BC48BFD358A7
:103C0000184743682BB183682BB9C06800F00100E6
:103C10007047184670470120704790F82D3080F8A3
:103C20009A3080F85C30704790F82D3080F85C3026
:103C300070470146343091F82C3013B1623108F0EE
:103C40007CBA6031FBE708B590F82C3033B1D0F87E
:103C5000A430C0F89430FFF7ECFF08BDD0F8A030D6
:103C6000F7E710B56421044618F095FF204610BD13
:103C700010B5A821044618F08EFF204610BD10B5DF
:103C80001021044618F087FF204610BD10B50446E9
:103C900000F5AC7001F0B8F904F29C50BDE810409A
:103CA00001F0B2B910B50446006B50B10368DB688F
:103CB000984730B1206B036821469B68BDE81040EF
:103CC000184710BD00F1B0028A4203D10368D3F84F
:103CD0008830184770470B7970B590F82C6004460F
:103CE0000D469BB98EB9B3FA83F35B0984F82C3087
:103CF00023682046D3F888309847236820465B69BC
:103D0000984716B12B79012B03D070BD002EFCD043
:103D1000E9E723682046D3F88430BDE870401847AF
:103D200070B5036804465B6B1546984723682946BF
:103D300020469B6BBDE8704018470B8870B5A0F813
:103D400060300546138825F8623F044628460CF08B
:103D5000E5FE064628460CF01BFF31B202B22046B3
:103D6000FFF7DEFF23682046D3F88830BDE87040B7
:103D7000184738B50446C025635960191B68403D93
:103D8000984715F1400FF7D1204638BD70B50B4B61
:103D90000B4E0C4D03600446C0F89C65C0F80456F9
:103DA00000F6BC00FFF7E5FFC4F85861C4F8C05145
:103DB00004F58F60FFF7DDFF204670BD4C20020840
:103DC0006C1E0208B825020810B50446FFF7DEFF96
:103DD00020464FF41F6118F0DEFE204610BD0000A3
:103DE000F7B50446FFF7ACFB4FF47F432646A385A7
:103DF0000123002584F824301E4BA562256346F874
:103E0000343B4FF6FF7701A93046ADF80470FFF759
:103E1000B7FB2A4629463046A4F86070A4F86270C1
:103E2000FFF7A0FB31462046264606F05DFC124B0C
:103E300046F8643B2622294630461AF01DF83046E3
:103E4000FFF77EFB0D4B63660D4BC4F88C304FF4CF
:103E50007F032046C4E92855A4F89070C4F8945014
:103E6000C4F89830A4F89C50314606F03DFC20463A
:103E700003B0F0BDFC1E0208981F0208503602086D
:103E8000501602082DE9F04F044687B0274600255A
:103E9000FFF756FB614BA56247F82C3B04F158092C
:103EA0004FF6FF7604A9384604F18408ADF8106097
:103EB000FFF766FB04A94846ADF81060FFF760FB0A
:103EC00004A9ADF81060404604F1B006FFF758FBB6
:103ED00004F5AC7B3046FFF783FF04F29C5A58464A
:103EE00001F0E0F8504601F0DDF84D4BC4F8E03940
:103EF0004C4BC4F8E8394C4BA3601E222946384687
:103F0000C4F8E449C4F8EC59FFF72CFB082304A9D2
:103F10003846ADF8103008F010F9252248466B21DC
:103F2000FFF720FB0A2304A94846ADF8103008F03B
:103F300004F9252240460721FFF714FB092304A9B1
:103F40004046ADF8103008F0F8F80B23ADF80C300F
:103F50000C230DEB030104AA3046ADF81030FFF737
:103F6000ECFE2A46294604F1E400FFF7FBFA2F4B4A
:103F7000049304F58A70062304A9ADF81430019067
:103F800007F09BFFB4F9BA20B4F9B8100198FFF715
:103F9000C7FE01982A462946FFF7E4FA01981E2237
:103FA000C821FFF7BDFE224B3046C4E95433FFF76A
:103FB0004AFE2A4629463046FFF7D4FA30461E22EA
:103FC000C821FFF7ADFE04F51E63C4F8E030584683
:103FD00025226B21FFF7C6FA252250460721FFF75D
:103FE000C1FA3946204606F07FFB4946204606F0D6
:103FF0007BFB4146204606F077FB3146204606F023
:1040000073FB5946204606F06FFB2046514606F0EA
:104010006BFB204607B0BDE8F08F00BF4C200208C4
:1040200034200208C53C0008C800500050160208A1
:104030000A0A0AFF70477047704770477047704719
:104040007047704770477047704730B4C268446823
:104050005510034604EB6200D20748BF62599B68C3
:1040600030BC48BFD358184743682BB183682BB97D
:10407000C06800F001007047184670470120704783
:1040800090F82D3080F8903080F85C30704710B593
:104090009421044618F07FFD204610BD10B5102174
:1040A000044618F078FD204610BD10B5044668306F
:1040B00094F82C303BB104F1660108F03EF820463C
:1040C000FFF7B7FD10BD04F16401F6E710B5044633
:1040D00000F53A7000F0F6FF04F6E44001F030FA23
:1040E00004F5B75000F07DFF04F5BD501030BDE879
:1040F000104001F09AB900F19802914202D1036890
:104100009B6B184700F59672914202D103685B6B76
:10411000F7E700F5E072914202D10368DB6AF0E74D
:1041200000F51572914202D103681B6BE9E77047F5
:104130000B88B0F908102DE9F041A0F8643013881D
:10414000A0F86630044601EBD17110461746C1F362
:104150004F050CF0E3FCB4F90A30804603EBD3734F
:104160003846C3F34F060CF013FDA5EB5801A6EB40
:10417000500212B204F1680009B2FFF7F3F92368A4
:104180002046D3F88830BDE8F041184738B50446DA
:104190001D46FFF7E7F9BDF9102029462046FFF735
:1041A000BFFD38BD10B526220446002119F064FE7B
:1041B0002046FFF7C5F9044B2360FF2384F826301F
:1041C0000023A362204610BDF836020870B50B4BE1
:1041D0000B4E0C4D03600446C0F8F464C0F85C5507
:1041E00000F61400FFF7C5FDC4F8B060C4F818511C
:1041F00004F57470FFF7BDFD204670BD142302085E
:104200006C220208B825020810B5094B0360094B5F
:10421000C0F8E43C044600F6E440FFF7D7FF064B45
:10422000C4F8E83204F53A70FFF7B0FD204610BD3F
:1042300098210208402A0208B027020810B5044657
:10424000FFF7E2FF204641F6640118F0A4FC204687
:1042500010BD10B50446FFF7B9FF20464FF41F61AB
:1042600018F099FC204610BDF7B50446FFF768F931
:104270004FF47F432646A3850123002784F824308A
:10428000174BA762276346F8343B4FF6FF7501A929
:104290003046ADF80450FFF773F93A4639463046D8
:1042A000A4F86050A4F86250FFF75CF9314620464C
:1042B00006F01AFA04F168060A4B236001A9A4F873
:1042C0006450A4F866503046ADF80450FFF758F932
:1042D0002046314606F008FA204603B0F0BD00BF84
:1042E000FC1E0208E02002082DE9F04F2DED048BA2
:1042F000044687B0A34600250AF05CFEAF4BE56399
:104300004BF8403B5846FFF74DFF04F16C0318464D
:1043100004F1980908EE103A04F59678FFF742FF89
:104320004846FFF7A1FF04F5E0774046FFF79CFF02
:1043300004F515763846FFF797FF3046FFF794FFF0
:1043400004F53A73184608EE903A00F021FF04F69F
:10435000E443184609EE103A04F5BD5A01F052F94B
:1043600004F5B7530AF1100A184609EE903A00F026
:1043700041FE504601F07CF841F65403E2180392E6
:104380008F4AE250039B8F4A5C6041F65C032946EA
:10439000E25004F5C3532A461D604FF4A073009306
:1043A0005846F023FFF7F2FE4FF07F43A3664FF429
:1043B000A07318EE100A00932A462946F023FFF74F
:1043C000E5FE4FF07F43C4F8943005AA012304A909
:1043D0004846ADF81430ADF81050FFF7AEFC2A4651
:1043E000294604F1CC00FFF7BDF80D2305AA04A966
:1043F0004846ADF81030ADF81430FFF799FE724B17
:10440000C4F804315022009248463C23DC22142197
:10441000FFF7BCFE039AC4F8C8200223ADF81030A1
:1044200005AA032304A94046ADF81430FFF785FC24
:104430002A46294604F5B070FFF794F810230DEBD7
:10444000030105AA4046ADF81030ADF81430FFF76F
:104450006FFE5D4BC4F898315023009340463C23D7
:10446000DC22A021FFF792FE039BC4F85C3105A972
:104470004FF005024FF00403ADF8142038460A4609
:1044800004A9ADF81030FFF758FC2A46294604F578
:10449000FA70FFF767F805A90F230A46384604A902
:1044A000ADF81030ADF81430FFF742FE1221C4F819
:1044B0002C122721009138464C23DC225221FFF791
:1044C00065FE039BC4F8F0314FF005024FF0040382
:1044D000ADF8142004A905AA3046ADF81030FFF756
:1044E0002CFC2A46294604F52270FFF73BF80E23E0
:1044F00005AA04A93046ADF81030ADF81430FFF726
:1045000017FE1223C4F8C0322723009330464C23F1
:1045100040F205125221FFF739FE039BC4F88432A2
:1045200018EE900A78221421FFF71CF8142219EED5
:10453000100A1146FFF716F819EE900A2A46294686
:10454000FFF710F841F205732A46E5545046251D41
:104550003C21FFF707F85946284606F0C5F818EE43
:10456000101A284606F0C0F84946284606F0BCF85E
:104570004146284606F0B8F83946284606F0B4F811
:104580003146284606F0B0F818EE901A284606F094
:10459000ABF819EE101A284606F0A6F819EE901A94
:1045A000284606F0A1F82846514606F09DF8204618
:1045B00007B0BDEC048BBDE8F08F00BF9821020866
:1045C00080210208F74000080A0014007047704775
:1045D00010B5A421044618F0DEFA204610BD0000F4
:1045E0002DE9F3414FF48073064600258384274B61
:1045F0008562C0E90155C0E90355C0E90555C0E928
:10460000075546F82C3B044604F168073046FEF790
:10461000D1FF3846FEF7CEFF1D4BA36030460A217E
:10462000FEF756FF30460121FEF754FF194BDFF825
:104630007080E36569462723304684F85150A4F81A
:104640006050ADF80430CDF8008007F036FC124B16
:10465000E366124BC4F8983069462823384684F83C
:104660008D50A4F89C50ADF80430CDF8008007F0D0
:1046700024FC3146204606F037F82046394606F03D
:1046800033F8204602B0BDE8F08100BFDC2102080B
:10469000780013000000FFFF0A00010037CF00FF81
:1046A00050160208683000F033BC000038B5084BE3
:1046B0000360084B836604464FF4787563596019AC
:1046C0001B68403D9847B5F5387FF7D1204638BD87
:1046D0006C220208B825020810B50446FFF7E6FF71
:1046E000204640F2444118F056FA204610BD000022
:1046F0002DE9F341064600252A4A85624FF480736E
:10470000C0E90155C0E90355C0E90555C0E90755A1
:10471000838446F82C2BA0F85030234BC3624FF60D
:10472000FF73DFF88C80A0F8583000F168074FF471
:104730007F030446C0E90C55C0E90E55C0E9105589
:10474000C0E91255C0F85480C5650366A0F86450EE
:10475000384600F019FB154BA36030464421FEF7A4
:10476000B7FE30460321FEF7B5FE4FF07F43E36509
:1047700069463046A4F86050CDF80080ADF804508A
:1047800007F09BFB4FF40033E3663146204605F00B
:10479000ABFF2046394605F0A7FF204602B0BDE832
:1047A000F08100BF6C220208503602085600240037
:1047B000501602087047704730B4C26844685510FC
:1047C000034604EB6200D20748BF62599B6830BCC5
:1047D00048BFD358184743682BB183682BB9C068CA
:1047E00000F001007047184670470120704710B56F
:1047F0001021044618F0CFF9204610BD10B504462C
:10480000B03000F03FFE04F2F440BDE8104000F08C
:1048100039BE00F638128A4203D10368D3F88830D3
:10482000184770472DE9F04F044687B0274600250A
:10483000FEF786FE624BA56247F82C3B04F158094F
:104840004FF6FF7604A9384604F18408ADF81060ED
:10485000FEF796FE04A9484604F1B00BADF81060CF
:10486000FEF78EFE04A9404604F2F44AADF810604B
:10487000FEF786FE584604F6381600F051FE504604
:1048800000F04EFE3046FFF7ABFA4E4BC4F8E0396D
:104890004D4BC4F8E8394D4BA3601E2229463846DB
:1048A000C4F8E449C4F8EC59FEF75CFE082304A9F7
:1048B0003846ADF8103007F040FC252248466B2101
:1048C000FEF750FE0A2304A94846ADF8103007F061
:1048D00034FC252240460721FEF744FE092304A9A3
:1048E0004046ADF8103007F028FC58462522072135
:1048F000FEF738FE504625226B21FEF733FE0B23D0
:10490000ADF80C300C230DEB030104AA3046ADF8D2
:104910001030FFF712FA2A46294604F66C10FEF70B
:1049200021FE2B4B049304F69C101B2304A9ADF825
:104930001430019007F0C1FAB4F94229B4F94019D2
:104940000198FFF7EDF901982A462946FEF70AFE7D
:1049500001981E22C821FFF7E3F91E4BC4F8D8398D
:10496000C4F8DC393046FFF76EF92A46294630464E
:10497000FEF7F8FD1E223046C821FFF7D1F904F5F5
:104980001E63C4F868393946204605F0ADFE494635
:10499000204605F0A9FE4146204605F0A5FE5946F1
:1049A000204605F0A1FE5146204605F09DFE20461A
:1049B000314605F099FE204607B0BDE8F08F00BFF4
:1049C00014230208FC22020813480008C800500003
:1049D000501602080A0A0AFF704710B54FF4AC716E
:1049E000044618F0D8F8204610BD10B50446D0F89B
:1049F000540100F02FF82046BDE8104008F08EBFAB
:104A000010B50446FEF79AF9014B2360204610BD0D
:104A1000A82302080B460649064801220A601A68C4
:104A20004A605B688B60002300681A4604F088BA0D
:104A3000C02B0020B02B0020044A054B026000224E
:104A400042604FF0FF321A60704700BFEC2302084B
:104A5000B42B0020F7B5194B194C054621461868B0
:104A6000002204F0D5FB216811F1F00F03D1686832
:104A700003681B699847216811F1FA0F03D1686830
:104A800003681B6998470F4E636832686868009333
:104A9000012AA3680193036807D127682FB9DB684F
:104AA00069469847376003B0F0BD69469B689847F0
:104AB0006868216803685B699847F4E7AC2B0020BD
:104AC000B42B00201400002038B5074B03600446C7
:104AD0004FF45E75635960191B68403D9847B5F502
:104AE0001E7FF7D1204638BDB8250208036870B58F
:104AF0000446D3F898300D469847D4F8D013D4F82C
:104B0000C83329445A1E9142C4F8D01302D1C4F8C4
:104B1000D03304E0D4F8CC335A1C9142F7D0236848
:104B20002046D3F89430BDE8704018474A1C10B5B1
:104B3000036804460BD0012902D1D3F8AC30984762
:104B400023682046D3F8B430BDE810401847D3F8A6
:104B5000B030F4E7036880EDF10AD3F8B4301847B9
:104B6000B0F8D03300EB83000123D0F8A40280F822
:104B7000253003685B691847B0F8D03300EB830039
:104B80000023D0F8A40280F8253003685B69184739
:104B9000B0F8D03300EB830310B50446D3F8A40279
:104BA000002380F8253003685B699847D4F8C83340
:104BB000C4F8D03310BD90EDF10A70470029C8BF8A
:104BC0000023C0E9F212C0F8D013C4BF80F841310D
:104BD00080F801317047C0EDF00A80EDEF0A7047B0
:104BE00010B50446FFF770FF20464FF4777117F0B9
:104BF000D2FF204610BD000010B50446D0F8D00307
:104C00000138FBF79FFC9FED0E0B41EC110B17F0E9
:104C1000EBFF51EC100BFBF7CFFF94EDF17A07EEB1
:104C2000900A77EE677A94EDEF7AF4EEC77AF1EEB8
:104C300010FAA8BFC4EDF17A10BD00BFAFF3008039
:104C40000000000000002440D0EDF17AB0EEE77AD9
:104C5000FDEEC77AF8B517EE903A6422B3FBF2F78F
:104C60007A4307EE902AF8EEE77A6FF0630277EE68
:104C7000677A0A21BDEEE77A02FB073317EE105A76
:104C80006FF0090695FBF1F506FB053601FB05F310
:104C900007EE103AB8EEC77A044677EEC77A07EE09
:104CA000106AB8EEC77A224A77EEC77AB2EE047A73
:104CB00067EE877A00F51570FDEEE77A17EE903A09
:104CC0000BF04CFE33461A4A0A2104F51A700BF019
:104CD00045FE2B46164A0A2104F51F700BF03EFED6
:104CE0003B46134A0A2104F524700BF037FED4ED3D
:104CF000F17AF5EEC07AF1EE10FA4CBF01230023F1
:104D000084F83D3204F5EC7009F0B7FE04F5CC7080
:104D100009F0B3FE04F5AC7009F0AFFE04F1DC005D
:104D200009F0ABFE04F50670BDE8F84009F0A5BE39
:104D3000F02302080000000010B50446D0F8D003AC
:104D40000138FBF7FFFB9FED0E0B41EC110B17F049
:104D50004BFF51EC100BFBF72FFFD4EDF17A07EE70
:104D6000100A77EE277A94EDF07AF4EEC77AF1EE36
:104D700010FA98BFC4EDF17A10BD00BFAFF3008008
:104D80000000000000002440F8B504461D4E1E4DF2
:104D9000FEF72CFC1D4B23600022A4F8B42204F57E
:104DA0002E7304F56E7001274FF6FF719A80DA803A
:104DB0001A815A819A81DA811A825A82DA611A84B6
:104DC0005A8483F8242083F825709E6299851A639B
:104DD0009A8683F8361083F8372083F8382083F8D2
:104DE00039201D60DA63C3E9052240338342DDD1F7
:104DF0006FF07F43A4F8B823C4F8D433A4F8D813D1
:104E00002046F8BD501602085C370208B825020893
:104E100003460A4610B5041DD1E9010184E80300E8
:104E2000D2E9030103F10C0484E80300D2E906018E
:104E3000D961116A1962918C546999840A4919607F
:104E40000A499962C3E90540918D9985116B1963EF
:104E5000918E9986D18ED986118F19870449196050
:104E6000D26BDA63184610BD5425020850160208AA
:104E70005C37020808B5038A032B06D9054B064A9E
:104E800006484FF4C17118F06DFE5A1C028240F8BA
:104E9000231008BDF3230208222402088A240208F2
:104EA000B0F80031032B10B50A4606D9154B164A47
:104EB00016484FF4C17118F055FE591CA0F80011A6
:104EC00000EB8313D2E901011C1D84E80300D2E941
:104ED000030103F10C0484E80300D2E90601D9615F
:104EE000116A1962918C9984918D9985116B54691D
:104EF0001963516B5963118FD26B1987C3E9054050
:104F0000DA6310BDF3230208D12402088A240208C0
:104F10002DE9F047044692B0002504F12C07FEF776
:104F200005FB04F1580A04F529703946C4F8D0533A
:104F3000019004F18409FFF79DFF01985146FFF7A6
:104F400099FF04F1B00801984946FFF793FF0198D3
:104F50004146FFF78FFF04F52E7604F1DC0102A82D
:104F6000FFF756FF02A93046FFF79AFF04F5AC7130
:104F700002A8FFF74DFF02A93046FFF791FF04F5A5
:104F8000CC7102A8FFF744FF02A93046FFF788FF63
:104F900004F5EC7102A8FFF73BFF02A93046FFF7CA
:104FA0007FFF0023C4F8C43323682046D3F8B4300D
:104FB0009847504684F87D5084F8A95084F8D5501D
:104FC00084F8515009F059FD484609F056FD404615
:104FD00009F053FD384609F050FD12B0BDE8F087E6
:104FE0007047FEF7F0BC10B5D021044617F0D3FD92
:104FF000204610BD10B50446FEF7EEFC014B2360C1
:10500000204610BD7826020813B50446FEF75EFD63
:1050100004F16800032201210190FFF7CFFDDFEDCD
:10502000050A9FED050A019802B0BDE81040FFF7A0
:10503000D2BD00BF0000C842000000006830FFF78A
:1050400075BD6830FFF752BD6830FFF789BD683025
:10505000FFF79EBD6830FFF77DBD6830FFF7ABBD41
:1050600038B5084B0360084B836604464FF47875E7
:10507000635960191B68403D9847B5F5387FF7D1F3
:10508000204638BD6C1E0208B825020810B504463B
:10509000FFF7E6FF204640F2444117F07CFD204632
:1050A00010BD000010B50446FEF736FD014B23602D
:1050B000204610BD08270208C0F8F4197047C0F850
:1050C000F819704710B50446FEF7E0FD002384F898
:1050D000F03910BD00F29C50FFF7B0BF00F29C50B9
:1050E000FFF7AFBF00F5AC70FFF7B4BF10B52DED03
:1050F000028B0446B0EE408A00F29C50FFF7AAFFF4
:10510000B0EE480ABDEC028B04F5AC70BDE810406F
:10511000FFF7A0BF00F29C50FFF79FBF90F8F03957
:1051200083F0010370B5044680F8F03900F29C5515
:105130006BB1D0F8F40990F8F0391BB10368D3F8DB
:10514000883098472846BDE87040FFF77DBF284665
:10515000FFF77DFFD4F8F8090368BDE870405B6C89
:105160001847000010B5034B03600446FEF70EFE1F
:10517000204610BDB027020810B50446FFF7F2FF25
:10518000204640F6FC1117F006FD204610BD000039
:1051900010B50446FEF776FE014B2360204610BD95
:1051A000B02702087047043870477047C06803682A
:1051B000DB6B1847A0F10400FFF7F8BFC068036875
:1051C0001B6C1847A0F10400FFF7F8BF8068036864
:1051D0001B681847C06803689B6C1847A0F104005F
:1051E000FFF7F8BFC0680368DB6C1847A0F1040044
:1051F000FFF7F8BF10B51021044617F0CCFC20468D
:1052000010BDA0F10400F5E710B500228260044A49
:10521000C16002F1080434320460426010BD00BF76
:1052200058280208704770B5044604F6E44604F5B1
:105230003A75FEF74BFF2946304600F07BF93146C0
:105240002846FFF739FF2146304600F076F921461F
:105250002846BDE87040FFF732BF38B591ED000A2F
:1052600004460D4600F6E44000F07CF995ED010A95
:1052700004F53A70BDE83840FFF738BF38B591ED16
:10528000000A04460D4600F6E44000F067F995ED8B
:10529000010A04F53A70BDE83840FFF723BF1FB597
:1052A000044600F6E44000F070F904F53A708DED24
:1052B000010AFFF72FFFE06B8DED020A036801A9D9
:1052C0009B69984704B010BD41F2D572002310B518
:1052D00080F8913080F80D3380F8093D80F8513125
:1052E00080F8BD3080F8E53180F87932835441F29E
:1052F000057301220446C2546C3009F0BEFB04F56C
:105300003A7009F0BAFB04F6E44009F0B6FB04F584
:10531000967009F0B2FB04F1980009F0AEFB04F5B9
:10532000E07009F0AAFB04F5157009F0A6FB04F57E
:10533000BD50103009F0A1FB04F5B750BDE8104096
:1053400009F09BBB00F5BD50103000F070B841F281
:10535000D463C35C23B1012100F6E44000F0F8B847
:1053600090F8D83C23B1012100F53A70FFF7B2BEA6
:10537000704741F2D463C35C2BB14FF0FF3100F6AC
:10538000E44000F0E5B890F8D83C2BB14FF0FF3185
:1053900000F53A70FFF79EBE704741F2D463C35CDC
:1053A0002BB14FF0FF3100F6E44000F0D4B890F894
:1053B000D83C2BB14FF0FF3100F53A70FFF78EBEAD
:1053C000704741F2D463C35C23B1012100F6E4408D
:1053D00000F0C1B890F8D83C23B1012100F53A7033
:1053E000FFF77CBE7047000010B5034B0360044616
:1053F000FEF70AFF204610BDAC28020810B504468F
:10540000FFF7F2FF204641F6680117F0C4FB204683
:1054100010BD000010B50446FEF766FF014B236087
:10542000204610BDAC2802087047FFF7D0B84B1CCF
:1054300010B504460FD021B980F85110012384F82B
:105440008D3004F12C0009F018FB04F16800BDE870
:10545000104009F012BB012380F851300023EEE721
:1054600010B5A421044617F096FB204610BD00009D
:1054700010B50446FFF7B4F8014B2360204610BD79
:105480000429020813B50446FFF70CF904F168007B
:10549000032200210190FFF791FBDFED050A9FED4C
:1054A000050A019802B0BDE81040FFF794BB00BFA9
:1054B000000048430000C8C26830FFF737BB6830BF
:1054C000FFF714BB6830FFF74BBB6830FFF760BBDA
:1054D0006830FFF73FBB6830FFF76DBB38B5084B4E
:1054E0000360084B836604464FF47875635960196E
:1054F0001B68403D9847B5F5387FF7D1204638BD49
:105500006C220208B825020810B50446FFF7E6FF32
:10551000204640F2444117F03EFB204610BD0000FB
:1055200010B50446FFF7E4F8014B2360204610BD98
:1055300098290208C0F8F4197047C0F8F8197047A4
:1055400010B50446FFF75AF9002384F8F03910BD6E
:10555000B030FFF7B1BFB030FFF7B1BF00F2F44099
:10556000FFF7B6BF10B52DED028B0446B0EE408AB2
:10557000B030FFF7ADFFB0EE480ABDEC028B04F28D
:10558000F440BDE81040FFF7A3BFB030FFF7A3BF62
:1055900090F8F03983F0010370B5044680F8F039D3
:1055A00000F1B0056BB1D0F8F40990F8F0391BB1F7
:1055B0000368D3F8883098472846BDE87040FFF765
:1055C00081BF2846FFF781FFD4F8F8090368BDE8DA
:1055D00070405B6C1847000010B5034B0360044635
:1055E000FEF7F4FD204610BD402A020810B504461F
:1055F000FFF7F2FF204640F6FC1117F0CCFA2046E8
:1056000010BD000010B50446FFF70CF9014B2360F4
:10561000204610BD402A0208F02070474FF4A070C9
:1056200070472920FCF75ABD2820FCF757BD08B564
:10563000FCF728FDCA20FCF751FDC320FCF732FD22
:105640000820FCF72FFD5020FCF72CFDCF20FCF7A5
:1056500045FD0020FCF726FDC120FCF723FD30208E
:10566000FCF720FDED20FCF739FD6420FCF71AFD66
:105670000320FCF717FD1220FCF714FD8120FCF736
:1056800011FDE820FCF72AFD8520FCF70BFD00202A
:10569000FCF708FD7820FCF705FDCB20FCF71EFD8C
:1056A0003920FCF7FFFC2C20FCF7FCFC0020FCF769
:1056B000F9FC3420FCF7F6FC0220FCF7F3FCF720A1
:1056C000FCF70CFD2020FCF7EDFCEA20FCF706FDC2
:1056D0000020FCF7E7FC0020FCF7E4FCB120FCF71D
:1056E000FDFC0020FCF7DEFC1B20FCF7DBFCB620F9
:1056F000FCF7F4FC0A20FCF7D5FCA220FCF7D2FC56
:10570000C020FCF7EBFC1020FCF7CCFCC120FCF720
:10571000E5FC1020FCF7C6FCC520FCF7DFFC4520AB
:10572000FCF7C0FC1520FCF7BDFCC720FCF7D6FC3D
:105730009020FCF7B7FC3620FCF7D0FCC820FCF723
:10574000B1FCF220FCF7CAFC0020FCF7ABFCB02057
:10575000FCF7C4FCC220FCF7A5FCB620FCF7BEFC9D
:105760000A20FCF79FFCA720FCF79CFC2720FCF7F5
:1057700099FC0420FCF796FC2A20FCF7AFFC0020E3
:10578000FCF790FC0020FCF78DFC0020FCF78AFC65
:10579000EF20FCF787FC2B20FCF7A0FC0020FCF797
:1057A00081FC0020FCF77EFC0120FCF77BFC3F2005
:1057B000FCF778FCF620FCF791FC0120FCF772FC6A
:1057C0000020FCF76FFC0620FCF76CFC2C20FCF79B
:1057D00085FCC820FCF7D0FC2620FCF77FFC0120CC
:1057E000FCF760FCE020FCF779FC0F20FCF75AFC8A
:1057F0002920FCF757FC2420FCF754FC0C20FCF774
:1058000051FC0E20FCF74EFC0920FCF74BFC4E200F
:10581000FCF748FC7820FCF745FC3C20FCF742FCF8
:105820000920FCF73FFC1320FCF73CFC0520FCF7AB
:1058300039FC1720FCF736FC1120FCF733FC002064
:10584000FCF730FCE120FCF749FC0020FCF72AFCC7
:105850001620FCF727FC1B20FCF724FC0420FCF797
:1058600021FC1120FCF71EFC0720FCF71BFC31205B
:10587000FCF718FC3320FCF715FC4220FCF712FC67
:105880000520FCF70FFC0C20FCF70CFC0A20FCF7B1
:1058900009FC2820FCF706FC2F20FCF703FC0F2056
:1058A000FCF700FC1120FCF719FCC820FCF764FC95
:1058B0002920FCF713FCBDE808402C20FCF70EBCA7
:1058C00008B5FCF7DFFB0321D320FCF723FC80B2F3
:1058D00008BD10B5C4B2022203212046FCF788FBA4
:1058E0000A20FCF7CDFB204600220321FCF780FBB9
:1058F000BDE810400220FCF7C3BB38B50446E4B253
:10590000FCF774FB00212046FCF78AFB01210546C9
:105910002046FCF785FB40EA052080B238BD10B573
:10592000C4B240212046FCF77BFB030607D54C217F
:105930002046FCF775FB003818BF012010BD01227E
:105940004B212046FCF754FB204600224B21FCF75C
:105950004FFB0020F2E773B50423C4B20E46154690
:10596000D7210DEB03022046FCF774FB019B1BBA09
:105970001A0DC3F30B23328020462B8001224B21CA
:10598000FCF736FB00224B212046FCF731FB02B02E
:1059900070BD000010B50A4B1A78904204460DD035
:1059A000597888420AD00AB141B901229C54FCF7C7
:1059B0001DFB2046BDE81040FFF78BBF10BD00BFA8
:1059C000CC2B002010B5C4B209212046FCF728FBDF
:1059D00040F00100C2B209212046BDE81040FCF7AA
:1059E00007BB10B5C4B209212046FCF719FB0921F9
:1059F00000F0FE022046BDE81040FCF7F9BA38B5C9
:105A0000C4B20D4620460A21FCF70AFB40EA050213
:105A1000D2B220460A21BDE83840FCF7E9BA07B502
:105A20000190FCF7E4FA01981F21FFF7E8FF0198C5
:105A300003B05DF804EBFFF7C5BF38B5C4B20D463F
:105A400020460A21FCF7ECFA20EA0502D2B22046F1
:105A50000A21BDE83840FCF7CBBA10B50446FFF781
:105A6000C0FF20461F21BDE81040FFF7E6BF10B57C
:105A7000C0B20C460B21FCF7D3FA204010BD1F2109
:105A8000FFF7F5BF0A46C0B20B21FCF7B1BA1F21E0
:105A9000FFF7F8BF38B5C4B20D4620461721FCF712
:105AA000BFFA20EA0502D2B220461721BDE83840ED
:105AB000FCF79EBA70B5C4B2064604212046FCF736
:105AC000AFFA042100F0FB0205462046FCF790FAED
:105AD0003046F021FFF7DEFF05F0F80220460421F2
