:020000040800F2
:100000000000032089050008591C00085B1C00083B
:100010005D1C00085F1C0008611C00080000000057
:100020000000000000000000000000001172000845
:10003000631C000800000000A1720008057300089E
:10004000D9050008D9050008D9050008D905000818
:10005000D9050008D9050008D9050008D905000808
:10006000D9050008D9050008D9050008D9050008F8
:10007000D9050008D9050008D9050008D9050008E8
:10008000D9050008D9050008D9050008D9050008D8
:10009000D9050008D9050008D9050008D9050008C8
:1000A000D9050008D9050008D9050008D9050008B8
:1000B000D9050008D9050008D9050008D9050008A8
:1000C000D9050008D9050008D9050008D905000898
:1000D000D9050008D9050008D9050008D905000888
:1000E000D9050008D9050008D9050008D905000878
:1000F000D9050008D9050008D9050008D905000868
:10010000D9050008D9050008D9050008D905000857
:10011000D9050008D9050008651C0008D9050008A4
:10012000D9050008D9050008D9050008D905000837
:10013000D9050008D9050008D9050008D905000827
:10014000D9050008D9050008D9050008D905000817
:10015000D9050008D9050008D9050008D905000807
:10016000D9050008D9050008D9050008D9050008F7
:10017000D9050008D9050008D905000800000000CD
:10018000D9050008D9050008D9050008D9050008D7
:10019000D9050008D9050008D9050008D9050008C7
:0C01A000711C0008D90500087D1C000837
:1001B00010B5054C237833B9044B13B10448AFF3A1
:1001C00000800123237010BD6401002000000000A6
:1001D000D0C4010808B5034B1BB103490348AFF372
:1001E000008008BD0000000068010020D0C40108A4
:1001F00001F0FF01102A2BDB10F0070F08D010F8D8
:10020000013B013A8B422DD010F0070F42B3F6D1DB
:10021000F0B441EA012141EA014122F007047FF0F4
:1002200000070023F0E80256083C85EA010586EA4B
:10023000010685FA47F5A3FA87F586FA47F6A5FA87
:1002400087F68EB9EED1F0BC01F0FF0102F0070293
:1002500032B110F8013B013A83EA010313B1F8D13E
:100260000020704701387047002D06BF354603381F
:10027000073815F0010F07D1013015F4807F02BF58
:10028000013015F4C03F0130F0BC0138704700BFA9
:1002900053B94AB9002908BF00281CBF4FF0FF31ED
:1002A0004FF0FF3000F06EB9ADF1080C6DE904CEEF
:1002B00000F006F8DDF804E0DDE9022304B0704741
:1002C0002DE9F047089D04468C46002B40F08380C2
:1002D0008A42174647D9B2FA82F242B1C2F12000EF
:1002E00024FA00F09140974040EA010C94404FEA14
:1002F0001748230CBCFBF8F61FFA87FE08FB16C153
:1003000043EA014306FB0EF1994209D9FB1806F1B5
:10031000FF3080F01981994240F21681023E3B4441
:100320005B1AA4B2B3FBF8F008FB103344EA0344B1
:1003300000FB0EFEA64509D93C1900F1FF3380F001
:100340000581A64540F2028102383C4440EA06405D
:10035000A4EB0E0400261DB1D4400023C5E90043E0
:100360003146BDE8F08702B9FFDEB2FA82F2002A18
:1003700050D1CB1B4FEA174E1FFA87F80126B3FB6B
:10038000FEFC210C0EFB1C3341EA034108FB0CF37D
:100390008B4207D979180CF1FF3002D28B4200F260
:1003A000E9808446C91AA3B2B1FBFEF00EFB10111E
:1003B00043EA014408FB00F8A04507D93C1900F1C5
:1003C000FF3302D2A04500F2D9801846A4EB0804FE
:1003D00040EA0C40BFE78B4209D9002D00F0B18004
:1003E0000026C5E9000130463146BDE8F087B3FA82
:1003F00083F6002E4AD18B4202D3824200F2B880AB
:10040000841A61EB030101208C46002DA8D0C5E9B8
:10041000004CA5E7C2F1200320FA03F6974001FA49
:1004200002F04FEA174ED9403043030CB1FBFEF601
:100430001FFA87F80EFB161143EA014306FB08F189
:10044000994204FA02F409D9FB1806F1FF3C80F046
:100450008D80994240F28A80023E3B445B1A81B211
:10046000B3FBFEF00EFB103341EA034100FB08F33F
:100470008B4207D9791800F1FF3C73D28B4271D9B6
:1004800002383944CB1A40EA064678E7C6F1200C18
:1004900003FA06F422FA0CF31C4320FA0CF701FAD3
:1004A00006F34FEA144E21FA0CF11F433B0CB1FB4B
:1004B000FEF91FFA84F80EFB191143EA014109FB0A
:1004C00008FA8A4502FA06F200FA06F308D961181A
:1004D00009F1FF3048D28A4546D9A9F102092144E1
:1004E000A1EB0A01BFB2B1FBFEF00EFB101147EA0F
:1004F000014700FB08F8B84507D9E71900F1FF31BB
:100500002ED2B8452CD90238274440EA0940A7EB3F
:100510000807A0FB02894F45C64649461AD317D0A3
:100520005DB1B3EB0E0267EB010707FA0CFCF2407A
:100530004CEA0202F740C5E9002700263146BDE833
:10054000F0872E4628460BE70646E9E61846FDE604
:100550004345E5D2B8EB020E69EB04010138DFE751
:100560000846D2E760468DE78146B9E7664675E7FB
:1005700030464AE7ACF1020C394413E702383C44F8
:1005800024E700BF704700BFDFF834D0002103E04C
:100590000C4B5B58435004310B480C4B42189A42A9
:1005A000F6D30B4A02E0002342F8043B094B9A427F
:1005B000F9D303F0D7FF1AF05BFF00F06BFE704732
:1005C00000000320A08B050800000020640100202B
:1005D00064010020503C0120FEE700F071BC00F0F7
:1005E000DFBC704710B5042104461AF0C8FE20464F
:1005F00010BD000038B50C4B0C4C18800C4B822001
:1006000019806368984740F6110398420AD1094D52
:1006100023682C60822098472B688220DB689847EB
:10062000002038BD0120FCE7800100204C000020A4
:1006300082010020840100204FF4A071F020FFF718
:10064000D9BF0000F7B52D4D2B6804461B698220E9
:10065000984780B22080002843D02B680DF1060215
:100660005B6901A982209847BDF80620A2F5B47203
:1006700092B20A2A37D90B23B2FBF3F2204B1B8824
:100680009A4201D95A1E92B2BDF8043040F6B831F0
:100690008B422AD8C3F571630E339BB20F21B3FB93
:1006A000F1F3184909888B4201D94B1E9BB2164EB3
:1006B000164D30682F68834281B28CBF591AC91A0F
:1006C000B8B2BA428CBF101A801A89B280B2014403
:1006D0000529C8BF33603368C8BF2A6063802B68B0
:1006E000A38003B0F0BD0022CEE7C3F56D630833ED
:1006F0009BB20E2BD2D80023D9E700BF8401002083
:100700008201002080010020880100208C0100204F
:1007100037B568460D461446FFF794FFBDF8000054
:1007200030B1BDF802302B60BDF8043023600120E9
:1007300003B030BD704770477047012380F87410D4
:1007400080F8753070470020704700207047836B39
:100750000BB10846184770474FF6FF707047406866
:1007600003689B69184770477047704700F0BABC30
:1007700008B503680446DB6F9847236820465B6F23
:10078000984700F023F923682046DB6E984729201C
:1007900000F098FF00F01AF923682046DB6E9847B6
:1007A000F8E710B5044609F049FC23682046D3F861
:1007B000A430BDE81040184700F086BC00F08ABCA9
:1007C00000F0AABC00F05CBC00F0A8BC00F0B0BC1B
:1007D00000F060BC08B531B90A4B0B4A0B484FF426
:1007E0002B711AF0FBFDC0E90F12003A084943646F
:1007F00018BF01220A70003B064A18BF012313707C
:1008000008BD00BF40C5010878C50108C6C501087C
:100810004A3701204B37012008B5094B1B888B4212
:1008200003D8084B1B88934205D9074B074A084851
:100830009E211AF0D3FD074B1980074B1A8008BD83
:1008400040370120423701200BC601086EC601085F
:10085000C6C50108463701204837012008F098BD79
:1008600010B57C2104461AF08AFD204610BD90F890
:1008700077301BB1406803681B68184718467047FB
:1008800010B590F8341090F874400C4B8C421A78E4
:1008900009D03AB90A4A0B491488088810800C809C
:1008A00001221A7010BD002AFCD0054A054914889F
:1008B000088810800C800022F3E700BF4437012035
:1008C0004037012042370120012108B500220846A7
:1008D00006F076F9064B4FF0FF31186006F0C6F9C6
:1008E00000220421012006F031FA024B186008BDF5
:1008F000940100209001002008B5074B186828B922
:10090000064B074A074831211AF068FDBDE8084048
:100910004FF0FF3106F0AAB99401002084C7010806
:1009200095C70108D2C7010808B5064B186828B951
:10093000054B064A06483A211AF050FDBDE808402A
:1009400006F0CEB99401002084C701081FC8010831
:10095000D2C7010808B5074B186828B9064B074AE3
:10096000074847211AF03AFDBDE80840002106F08B
:100970007DB900BF9401002084C701085CC801084C
:10098000D2C7010808B5064B186828B9054B064AB6
:10099000064854211AF022FDBDE8084006F0A0B92F
:1009A0009401002084C701089CC80108D2C701082F
:1009B000044B186820B1002303491A4606F00CBA0C
:1009C000704700BF900100200400002013B5084CC0
:1009D000206858B100231A4601A906F03FFA2068A2
:1009E0004FF0FF33002201A906F038FA02B010BD23
:1009F0009001002003685B6C184700207047036873
:100A00009B6A184740F26F307047000010B5074CE2
:100A1000074B2360204603F0ABFE064B2361064BD9
:100A20006361064B4FF080629A6010BD483B012025
:100A300000B002405D0A0008410A000800E100E041
:100A400008B5034A034B044836211AF0C7FC00BF1F
:100A5000E0C801081AF7010813C90108024B1B6816
:100A6000586803685B6918474C370120084B10B57C
:100A700003600446074803F045FF074B4FF08062D0
:100A8000C3F88820BFF34F8FBFF36F8F204610BD90
:100A900068C90108483B012000E100E010B50446A8
:100AA000FFF7E4FF20464FF442611AF068FC20464D
:100AB00010BD0000044B1B6893F876200AB1D86C77
:100AC00000B99868704700BF4C3701202DE9F74303
:100AD0000D68202D0C4600F0A180402D00F09E8076
:100AE0002A1F56425641B5F5807F00F09980A5F542
:100AF00000735D425D41FFF7DDFF03681B6A9847A5
:100B00002368B3F5807F014600F09C8000F28A8064
:100B1000202B00F09A80402B00F09780042B00F0EF
:100B2000888010290CBF4FF0020C4FF0010C0022FE
:100B30004D4BB4F81480D3F800E0678BDEF80090DA
:100B40005A60102929F440390CBF02200120A7EB7C
:100B5000080749EA02029860DF60CEF80020DEF85C
:100B60003420C3F82CC022F007020243CEF8342010
:100B7000DEF8402022F47F5222F03F023A43CEF8C2
:100B80004020228BA2EB08029A6206B99DB3227F15
:100B9000FF2A15BF4FF0020C4FF0000CC3E90CC246
:100BA000C3F830C00DB310294FEA026E50D1E1688E
:100BB0004FF01F0801EA0802C1F3C42CC2EB022265
:100BC000B2FBF8F242EA0E02CCEB0C2CC1F3451159
:100BD000BCFBF8FC42EA0C42C1EB01214FF03F0C98
:100BE000B1FBFCF142EA01225A63C3E9067000211D
:100BF0001D4803F047FF1C48012103F043FFA38A6F
:100C0000E28A06B945B3CDE9003223696168164826
:100C10001A4603F0F7FD03B0BDE8F083012666E74E
:100C2000012568E7B3F5007F7FF47BAF4FF0090C37
:100C300005E010280CBF4FF0020C4FF0010C4FF4F0
:100C4000003275E74FF00A0CF9E74FF0000CF6E7B9
:100C5000E2684EEA0202C7E7009261682269024830
:100C600003F0B2FDD7E700BF483B0120F7B50D46C2
:100C7000FFF720FF03681B6A98471028297F68D177
:100C8000EA6802F01F03C3EB03231F20B3FBF0F459
:100C9000C2F3C42344EA0164C3EB0323C2F3451245
:100CA000B3FBF0F344EA0344C2EB02223F230221E8
:100CB000B2FBF3F244EA02242B6828486E8B0268E8
:100CC000082BAB8AA6EB03061368C6600CBF4FF473
:100CD00000374FF4403723F440333B43C0E9017100
:100CE0001360536B23F007030B435363136C23F41C
:100CF0007F5323F03F033343B7F5003F13641CD108
:100D00000123C0E90C340923C0E90661C362002154
:100D100003F0B8FE0121114803F0B4FEB7F5003F1F
:100D2000AA8AE98A0DD12B690C48CDE900211A461F
:100D3000194603F067FD03B0F0BD0023C162836272
:100D4000E8E70091134621462A69044803F03CFD78
:100D5000F1E7EC6844EA01640121ADE7483B01207A
:100D600070B5044625460A4B0C300026606026729A
:100D7000667245F8203B6022294609F095FA04F591
:100D80004263EE602035AB42FBD1204670BD00BF10
:100D900068C90108012070470C2070470C2303FB31
:100DA0000100083070470C2303FB01000830704736
:100DB0000120704741F66400704741F6640303FB6D
:100DC00001000830704741F6640303FB010008305E
:100DD0007047012070471020704700EB0110083069
:100DE000704700EB011008307047084601F08AB8E0
:100DF00010B5034B0360044607F0FCFF204610BD0E
:100E000020CA010810B50446FFF7F2FF204614215E
:100E10001AF0B5FA204610BD10B5034B0360044626
:100E200007F0E8FF204610BDECC9010810B50446E4
:100E3000FFF7F2FF204641F66C011AF0A0FA2046B7
:100E400010BD000010B5034B0360044607F0D2FF4D
:100E5000204610BDB8C9010810B50446FFF7F2FFDF
:100E6000204618211AF08BFA204610BD10B5094B08
:100E70000360044600F5C4501830FFF7B9FF04F1D1
:100E80002C00FFF7C9FF04F11400FFF7DBFF204639
:100E900010BD00BF54CA010808B50248FFF7E6FFBD
:100EA00008BD00BF9C01002010B50446FFF7DEFF1F
:100EB000204641F608211AF062FA204610BD0000D3
:100EC0002DE9F34100F060FF054600F061FF0024CA
:100ED000014623462846224600940EF0FFF9244B93
:100EE000244A254D1A60204601F03AFB23480EF0B3
:100EF00037F92B78BFF35B8FDB0733D428461AF022
:100F000040FA78B31E4C1F4F1F4B236007F11806A1
:100F100004F1140004F12C086060C4F80880E76054
:100F2000266107F069FF194B6361404607F064FFD3
:100F3000174BE362384607F05FFF164B3B6007F143
:100F4000140002F0BDFC224607F11401304602F005
:100F5000ADFC304600F0D6FF28461AF01EFA0E48C7
:100F60001AF05AFA0D4802B0BDE8F041FFF7FEBB97
:100F7000A837012044280020980100200800002004
:100F80009C010020341A002054CA0108B8C9010885
:100F9000ECC9010820CA0108990E0008C8270020E2
:100FA0000148FFF7E5BB00BFC827002070B5244CFF
:100FB000244E254B254D23603046FFF7D1FE2846B1
:100FC00011F05CFA224B2348DC6000224FF4807160
:100FD000C3E91212204C21490360F020C3E9191221
:100FE00020804FF080711E4C59670121C3E9042213
:100FF000C3E90622C3E90822C3E90E22C3E910228D
:10100000C3E91422C3E916221A8583F82A20DA627A
:101010001A861A6683F86C201A67C3E9016583F89B
:10102000781020800F4C83F834104FF4A07020808B
:101030000D4C20800D4802700D4A1A6070BD00BF33
:10104000A41B0020A81B002030C501084828002050
:10105000C82700204C370120403701200100000143
:10106000463701204237012048370120443701200C
:10107000BCC601080148FFF7F9BC00BFA81B00204F
:10108000034B902283F85A2383F85823704700BFFC
:1010900000E100E0094A0A49D3680A48C3F30A0399
:1010A000013B9BB20B801169C1F30A010139018038
:1010B0001364536B43F001035363704700680140AE
:1010C000C2280020C0280020014B986A704700BF4A
:1010D00084680140024B0122996243F8602C7047FA
:1010E0008468014038B5044608F0A7F923681D6EEE
:1010F0000BF034F901462046A8472368054AD3F887
:101100008450A2F5163100232046A847002384F816
:101110004A3038BD005802D008F040B9034B4FF0B8
:1011200080629A604FF080729A60704700E100E040
:10113000084B4FF08062C3F88820BFF34F8FBFF396
:101140006F8F4FF08072C3F88820BFF34F8FBFF3CB
:101150006F8F704700E100E0134B144A1B6C11883D
:101160008B4210B5124C13D1124B198804F096FB28
:10117000226892F86630013382F86630FFF718FC77
:10118000206808F05BFFBDE810400020FFF7D2BAEE
:1011900004F084FB0020FFF7CEFA20680368BDE866
:1011A00010401B6A184700BF00680140C228002099
:1011B0004C370120C028002007B5064BADF80600CB
:1011C0001B68054801220DF1060105F066F803B021
:1011D0005DF804FB100000203C3A0120F0B5A1B0FE
:1011E000102200210AA81AF085F91422002103A870
:1011F0001AF080F90021302214A81AF07BF900249B
:10120000224B01941A6C42F080521A641B6C03F05A
:1012100080530193019B1E4B02941A6842F4404292
:101220001A601B6803F4404302930122029B4FF4AF
:101230008033CDE9082302254FF48003CDE90E5316
:1012400008274FF4A873042608A8CDE91073129557
:10125000139604F041FB0F23CDE903354FF4A05161
:101260004FF48053CDE9061303A80521059404F03B
:1012700009FDC023189314A84FF4003314971A964D
:101280001D9304F0C9FD21B0F0BD00BF003802403D
:101290000070004080B59AB003F072F9FFF79EFF2E
:1012A000142200210DA800241AF024F9B44B009454
:1012B0001A6BB448B44D42F020021A631A6B02F064
:1012C00020020092009A01941A6B42F080021A6385
:1012D0001A6B02F080020192019A02941A6B42F09A
:1012E00004021A631A6B02F004020292029A039437
:1012F0001A6B42F001021A631A6B02F001020392A8
:10130000039A04941A6B42F002021A631A6B02F0F9
:1013100002020492049A05941A6B42F040021A6386
:101320001A6B02F040020592059A06941A6B42F07D
:1013300010021A631A6B02F010020692069A0794C2
:101340001A6B42F008021A631B6B03F00803079341
:1013500022460421079B03F0C3FC22468B484FF42E
:10136000405103F0BDFC012602274FF004088548D8
:101370000F940DA9CDE90D86109703F0C7FB0DA9B9
:101380004FF440538148CDE90D36CDE90F4703F0C6
:10139000BDFB7F487F4B036003F098F97E4A7F4B8B
:1013A0002C62C5E9002328464FF48043C5E9043484
:1013B000C5E90244C5E9064403F074FE102128463D
:1013C00004F0B0F82146284604F0CBF8744875497B
:1013D00084624FF48273C0E900134FF40075182340
:1013E000C0E906530A23704DC362C0E90244C0E954
:1013F0000444C0E9084404F013FF6C4B0D974FF010
:10140000100CC5E900364023C5E904C34FF4C0738E
:10141000C5E906344FF40063C5E908344FF40053BE
:10142000AB624FF0030A07230DA92846CDE90E3819
:1014300010934FF00809C5E90248CDE911A71397A9
:1014400004F014FE4FF6FF7209A92846CDE90A966A
:10145000089409960C9404F029FE304603F0BCF879
:101460004FF6FF7209A92846CDE90979CDE90B6449
:1014700004F01CFE4FF6FF7209A92846CDE909A920
:10148000CDE90B8404F012FE4FF40C730893089B13
:101490000C934FF6FF7209A92846CDE909890B96EE
:1014A00004F004FE40F26A51284604F016FE34228D
:1014B00021460DEB02001AF01DF83D4D3D4BAC8668
:1014C000C5E900340923C5E905361D2340F20D1E88
:1014D000C5E9073A40F24313C5E909E3284640F25B
:1014E000471340F21718C5E90B83C5E902442C6184
:1014F00085F8364004F0DAF8FF21F022CDE9121425
:101500004FF4806905214FF4A073CDE90E24CDE995
:101510001491CDE916420DA922462846CDE910378F
:10152000254D18930D94ADF864408DF8664004F095
:1015300088F9224B2B601B6898472B68204DDB688D
:101540009847204BC5E90A47C5E90C442846C5E938
:101550000034C5E9027403F00BF93146284603F064
:1015600091FAFFF73AF805F09BFA174A1748214617
:1015700005F0D0FA164B186005F0ACFAFEE700BF94
:101580000038024000080240E8390120000C024007
:10159000943A012000300240005C0040A086010027
:1015A0003C3A012000500140883B0120400100A04E
:1015B0009C3A012000680140C4280020140000204B
:1015C000483B012000B002406CCA0108DF0500085A
:1015D000443B0120704770477FB5094B8DF81720B9
:1015E0001B6802930DF117020123009201930A4632
:1015F0000146044803F0FEFD07B05DF804FB00BFA0
:101600000C000020E83901207FB500238DF8173049
:10161000084B1B6802930A4601230DF11701009144
:1016200001930146044803F075FE9DF8170007B0CA
:101630005DF804FB0C000020E83901201FB5084CC0
:1016400024680092CDE901340A4601230146054889
:1016500003F060FE003818BF012004B010BD00BFC9
:101660000C000020E839012002F0B6BF08B506489A
:101670000022042103F034FBBDE8084002480122A7
:10168000042103F02DBB00BF0008024038B50B4D0C
:10169000044601220A484FF4005103F021FB0022C6
:1016A0000421284603F01CFB2046FFF785FD284651
:1016B0000122BDE83840042103F012BB00080240BB
:1016C000000C024038B50B4D044600220A484FF486
:1016D000005103F005FB00220421284603F000FB23
:1016E0002046FFF769FD28460122BDE83840042165
:1016F00003F0F6BA00080240000C0240F7B5144EA1
:10170000144F05460C4630460022042103F0E8FA47
:1017100000224FF40051384603F0E2FA2846FFF762
:101720004BFD0D4B0D481B68224601A904F048FFF4
:10173000384601224FF40051019C03F0D1FA3046A3
:101740000122042103F0CCFA204603B0F0BD00BF13
:1017500000080240000C0240100000203C3A01202A
:1017600002F03ABF0268034B9A4201D102F022BF55
:10177000704700BF0010004082B00E4B0022009264
:10178000596C41F480415964596C01F480410091D5
:1017900000990192196C41F0805119641B6C03F09F
:1017A00080530193019B0F216FF0010002B002F002
:1017B00039BF00BF003802400268094B9A4282B02C
:1017C0000BD100230193074B1A6B42F480521A632A
:1017D0001B6B03F480530193019B02B0704700BF61
:1017E000003002400038024007B50F4B02689A42B1
:1017F00016D10022A3F5F0430192196B41F40001C8
:1018000019631B6B03F40003019305215A20019B0C
:1018100002F008FF5A2003B05DF804EB02F034BF79
:1018200003B05DF804FB00BF00B002400268064B45
:101830009A4207D1054A136B23F4000313635A201D
:1018400002F030BF704700BF00B0024000380240D5
:101850002DE9F043044689B01422002103A819F0B1
:1018600049FE2268244B9A4243D1244C2448002547
:101870000095236B43F004032363236B03F00403FD
:101880000093009B0195236B43F001032363236BBB
:1018900003F001030193019B4FF012094FF4007311
:1018A0004FF001080327042603A9CDE90339CDE948
:1018B0000587079603F02AF94FF4807311480796BD
:1018C00003A9CDE90339CDE9058703F01FF9029596
:1018D000236C43F400032364236C03F4000302939A
:1018E000029B236A43F400032362236A23F4000368
:1018F000236209B0BDE8F083005C0040003802407C
:101900000008024000000240F0B504468DB01422E9
:10191000002107A819F0EEFD2268574B9A4240F0CB
:10192000A98003F55043002400945A6C534842F0B8
:1019300080625A645A6C02F080620092009A0194AC
:101940001A6B42F020021A631A6B02F02002019215
:10195000019A02941A6B42F001021A631A6B02F0A8
:1019600001020292029A03941A6B42F002021A6375
:101970001A6B02F002020392039A04941A6B42F06B
:1019800040021A631A6B02F040020492049A059412
:101990001A6B42F004021A631A6B02F004020592F9
:1019A000059A06941A6B42F008021A631B6B03F047
:1019B0000803069302250E26069B0B964FF48063C0
:1019C00007A9CDE90735CDE9094503F09FF841F6B0
:1019D00058032B480B9607A9CDE907350927CDE910
:1019E000094503F093F8032326480B9707A9CDE98F
:1019F0000735CDE9094503F089F84FF470632148B4
:101A00000B9607A9CDE90735CDE9094503F07EF826
:101A10004FF40C631C480B9607A9CDE90735CDE9B7
:101A2000094503F073F8C02318480B9607A9CDE9C0
:101A30000735CDE9094503F069F8082314480B96EA
:101A400007A9CDE90735CDE9094503F05FF84FF463
:101A5000A0530D480B9707A9CDE90735CDE90945F6
:101A600003F054F858202246052102F0DBFD5820EF
:101A700002F00AFE0DB0F0BD006801400014024003
:101A8000000002400004024000180240000802402A
:101A9000000C024010B5044688B01422002103A8AF
:101AA00019F028FD2268154B9A4224D103F56843AA
:101AB00000220192596C41F480115964596C01F46F
:101AC0008011019101990292196B41F02001196373
:101AD0001B6B059203F0200302934FF46071029B8D
:101AE0000223CDE9031303200523CDE9060303A94F
:101AF000034803F00BF808B010BD00BF00500140D0
:101B0000001402402DE9F0412C4B1C6886B0002CDB
:101B100050D14FF00108C3F80080294B00949A6B14
:101B2000284842EA08029A639B6B039403EA08037D
:101B30000093022703260C25009B01A94FF63F03C3
:101B4000CDE90137CDE9046502F0E0FF1E480595B7
:101B500001A9CDE90187CDE9034602F0D7FF48F29C
:101B600033131A48059501A9CDE90137CDE903469C
:101B700002F0CCFF4FF683731548059501A9CDE916
:101B80000137CDE9034602F0C1FF4CF2037311485F
:101B9000059501A9CDE90137CDE9034602F0B6FF6D
:101BA00060230D48059501A9CDE90137CDE903462C
:101BB00002F0ACFF06B0BDE8F08100BFC8280020ED
:101BC00000380240001402400008024000180240A1
:101BD00000100240000C02400004024030B50146F3
:101BE00089B00022362002F01DFD362002F04CFDA7
:101BF0000025154B02951A6C144C42F010021A6421
:101C00001B6C03F01003029301A903A8029B04F0CC
:101C1000E5F804F0D3F80E4B236040F2E733E360BD
:101C200040000C4BB0FBF3F00138606020462561AA
:101C3000A56004F079FE20B9204604F059FD09B0F2
:101C400030BD0120FBE700BF00380240BC3B012053
:101C50000010004040420F007047FEE7FEE7FEE73D
:101C6000FEE77047014804F057BD00BFBC3B0120B0
:101C7000014803F089BD00BF9C3A0120014802F0F1
:101C800077BE00BF483B01200120704708B519F01E
:101C9000D7FB162303604FF0FF3008BD08B519F0DD
:101CA000CFFB16230360FEE770B50E4614460025F1
:101CB000A54201DB204670BDAFF3008070550135B1
:101CC000F6E770B50E4614460025A54201DB204616
:101CD00070BD705DAFF300800135F6E74FF0FF3067
:101CE00070474FF400534B6000207047012070474D
:101CF0000020704708B50A4B1968024609B909491E
:101D000019601868694602448A4206D919F098FB9E
:101D10000C2303604FF0FF3008BD1A60FCE700BFE2
:101D2000CC280020503C0120704710B50421044607
:101D300019F025FB204610BD08B5062921D8DFE89B
:101D400001F004080C1014181C0000F055FC006889
:101D500008BD00F051FC4068FAE700F04DFC8068D7
:101D6000F6E700F049FCC068F2E700F045FC0069C6
:101D7000EEE700F041FC4069EAE700F03DFC8069D5
:101D8000E6E70020E4E7000000487047A4CA010825
:101D90000F20704713B5002451B1036801948DF8EA
:101DA000034001AA9C680DF10303A04702B010BDD7
:101DB0000846FBE7408970478089704780887047F4
:101DC00083798088184480B27047C07900F07F0022
:101DD0007047C079C0097047704710B508210446A4
:101DE00019F0CDFA204610BD704700F596730868CB
:101DF000496803C370477047704741607047704738
:101E00000123037270477047704710B4C26841687D
:101E10005410034601EB6200D20748BF0A599B6881
:101E20005DF8044B48BFD358184743682BB183680B
:101E30002BB9C06800F001007047184670470120B8
:101E4000704710B50C21044619F099FA204610BDD0
:101E500010B51021044619F092FA204610BD10B5B5
:101E60004FF4AC71044619F08AFA204610BD10B543
:101E70000AF074FA0368BDE810401B6B184710B5F0
:101E80000446D0F83C0158B10368DB68984738B184
:101E9000D4F83C0103689B6898470023C4F83C31A0
:101EA00010BD0000F8B5044617460E460AF076FA53
:101EB000104B0025C4E954760F4E1C60C4E95255FE
:101EC0000E4B306823600E4BC4E950350368012186
:101ED0009B68C4E94E559847284600F041FB33689B
:101EE00093F876200AB1D86C00B9986812F011F90D
:101EF0002046F8BD983701204C37012028CF010833
:101F000010CF0108064BC0F848310023C0F84C310F
:101F100000F5A073C0F84401C0F83C31704700BF21
:101F2000652000082DE9F84F07469068DDF828A0E5
:101F3000994603681B6A88461446984741F663032E
:101F4000984205D8414B424AA321424819F046FA2B
:101F5000606803681B6A98470F2803D83E4B3C4AC9
:101F6000A421F2E7E06803681B6A98470B2803D8AE
:101F70003A4B374AA521E8E70AF0F0F90AF0F4F9FC
:101F8000D9F8000010B10368DB689847D9F8000061
:101F900010B103681B689847386810B103685B6923
:101FA0009847D8F8000010B103685B689847386814
:101FB00010B103681B689847D8F8000010B1036897
:101FC0009B689847E068036800215B6A98474FF078
:101FD000000B234B03600546C0F804B080F808B03E
:101FE000A068036859465B6A9847064601F0A6FF59
:101FF0006068036859465B6A98473146044601F0B9
:102000002FFFC9F80050C8F800403E60E4B1231D1E
:10201000CAF800303368C4F808A03046DB68F463BF
:102020009847236820461B689847294630460BF09E
:1020300061FD2B6828461B6998472B6828465B6919
:1020400098472046BDE8F88F2346E1E7E0CB01083A
:102050006ECC010878CD0108BFCD010862CE010821
:102060006CCF010807B5D0F854310093D0F8502157
:10207000044B00F59C710448FFF754FF03B05DF872
:1020800004FB00BF8C37012088370120006A7047AD
:10209000406A704770478B8880690A68DB0A50F88D
:1020A00023001044704710B5C2B1137BB3B1547B09
:1020B000D27A240204F4E0641443C26998B202EBB9
:1020C000840213888B4202D192F9020010BD05D818
:1020D000013880B204320028F3D1F7E70020F5E799
:1020E00010B52821044619F04AF9204610BD000019
:1020F00030B589B00446BDF850500695BDF84C5037
:1021000005959DF8405004959DF83C5003959DF829
:10211000385002959DF8345001959DF83050009547
:102120000BF048F9064B2360119BA361129BE361FE
:10213000159B2362169B6362204609B030BD00BF29
:1021400090CF01087047000030B5154D2C78BFF3D3
:102150005B8F14F001048DB01FD1284619F011F9DE
:10216000D8B13F2307930F4B06930F4B0F491048ED
:102170000894CDE9044301220423CDE90132CDE9DD
:1021800009440C23032203940094FFF7B1FF28466F
:1021900019F003F9074819F03FF905480DB030BDB3
:1021A000D028002044130208601302086C110208B2
:1021B000D4280020452100087047000030B5154D97
:1021C0002C78BFF35B8F14F001048DB01ED128462C
:1021D00019F0D7F8D0B13F2307930F4B06930F4B5D
:1021E0000F49104808940422CDE904430123CDE9A6
:1021F0000123CDE909440E2303940094FFF778FFEF
:10220000284619F0CAF8084819F006F905480DB033
:1022100030BD00BFFC2800204813020864130208E8
:102220009811020800290020B92100087047000019
:1022300030B5154D2C78BFF35B8F14F001048DB0D1
:102240001ED1284619F09DF8D0B13F2307930F4BBC
:1022500006930F4B0F4910480894CDE90443082317
:10226000CDE900430A221C23CDE90944CDE902440B
:10227000FFF73EFF284619F090F8084819F0CCF80F
:1022800005480DB030BD00BF282900204C130208BE
:1022900068130208D01102082C2900202D22000802
:1022A0007047000030B5164D2C78BFF35B8F14F0EB
:1022B00001048DB020D1284619F063F8E0B13F2326
:1022C0000793104B0693104B104911480894CDE921
:1022D000044301220423CDE90132052300930D229A
:1022E0001823CDE909440394FFF702FF284619F0AB
:1022F00054F8084819F090F805480DB030BD00BFFB
:1023000054290020501302086C1302085C120208C2
:1023100058290020A12200087047000030B5154D53
:102320002C78BFF35B8F14F001048DB01ED12846CA
:1023300019F027F8D0B13F2307930F4B06930F4BAB
:102340000F49104808940122CDE904430423CDE944
:102350000132CDE909440A2303940094FFF7C8FE33
:10236000284619F01AF8084819F056F805480DB033
:1023700030BD00BF802900205413020870130208EA
:102380001413020884290020192300087047000054
:1023900030B5154D2C78BFF35B8F14F001048DB070
:1023A0001ED1284618F0EDFFD0B13F2307930F4B05
:1023B00006930F4B0F49104808940122CDE90443BE
:1023C0000423CDE90132CDE9094414230394009498
:1023D000FFF78EFE284618F0E0FF084819F01CF8B9
:1023E00005480DB030BD00BFAC29002058130208CD
:1023F0007413020824130208B02900208D2300085A
:102400007047000030B5154D2C78BFF35B8F14F08A
:1024100001048DB01ED1284618F0B3FFD0B13F2380
:1024200007930F4B06930F4B0F4910480894012256
:10243000CDE904430423CDE90132CDE90944282341
:1024400003940094FFF754FE284618F0A6FF0848AE
:1024500018F0E2FF05480DB030BD00BFD8290020BC
:102460005C1302087813020834130208DC290020E8
:102470000124000800207047002070470EB403B507
:1024800003AB002153F8042B01930AF0C9FD02B0FD
:102490005DF804EB03B070470CB407B504AB53F818
:1024A000042B01930AF0BCFD03B05DF804EB02B00D
:1024B00070470000436C10B5044673B3038F2BB90B
:1024C000184B194AC021194818F088FFC38E00EB39
:1024D00043035B8C0BB30CF07BF8238F012B03D8E9
:1024E000134B144AC521EEE7E28E531C9BB2092B15
:1024F000194688BFA3F10A0104EB410140F63F10E1
:10250000498C814209D10A2B04EB420228BF0023E7
:1025100004EB4303508C588451842046BDE810409E
:102520000BF03ABFE0CF0108E9CF010894D00108D1
:10253000DED00108ECD001080BF0E6BE10B586B085
:1025400002AC84E806001A460AAB05930193099B86
:1025500000932146089B09F078FA06B010BD0000F0
:1025600038B518BB124B13481B681349B3B11A682E
:102570009C681A4402605A681A440A601C440F4B53
:1025800000221A8000F038F8054600F033F80C4BB2
:102590001C600C4B1D600C4B188007E00B4B03605C
:1025A0000B4B0B600B4B1C68002CE8D138BD00BFF7
:1025B000042A0020082A00200C2A0020102A0020CB
:1025C0009C370120A4370120A037012008140208FD
:1025D0007C130208A8140208044B1B6853F821005E
:1025E000034B1B6803EB4000704700BF0C2A002020
:1025F000082A00202320704700487047142A002032
:1026000010B5FFF7C5FE0A4C2060FFF7FBFE6060C7
:10261000FFF784FEA060FFF70BFEE060FFF742FECD
:102620002061FFF7CBFD6061FFF78EFDA06110BD5B
:10263000142A00200020704781807047C1807047B5
:1026400001817047418170477047704770477047FC
:10265000704710B4C4880368121B84881B6D091B63
:1026600012B25DF8044B09B218474FF6FF7383812D
:102670004FF0FF3303621368C36110607047806AD4
:10268000704790F825201AB190F8242002B1186004
:1026900070477047704710B54FF41A71044618F030
:1026A0006EFE204610BD0000074A02600022C0E90D
:1026B0000122C0E90322C0E90522C0E907224FF444
:1026C00080728284704700BFC8ED010870B503684E
:1026D0000446DB6A154698472368294620461B6B4B
:1026E000BDE87040184770B504461D46BDF910603E
:1026F000FFF7ECFF2368294620465B6B9847236869
:10270000314620469B6BBDE87040184710B5262225
:102710000446002118F0EEFE2046FFF7C5FF044BEB
:102720002360FF2384F826300023A362204610BDD7
:10273000F8E9010810B526220446002118F0DAFE57
:102740002046FFF7B1FF074B2360074BA3624FF60C
:10275000FF73A3854FF47F020023C4E90C32238763
:10276000204610BD50E90108D8CB01082DE9F04FF3
:102770002DED048B044687B0A346FFF795FF002597
:10278000AF4BA5624BF82C3B5846FFF7BFFF04F157
:102790005803184608EE903AFFF7B8FF04F1840397
:1027A000184609EE103AFFF7B1FF04F1B0031846DE
:1027B00004F1DC0909EE903AFFF7A8FF4846FFF75D
:1027C000B9FFDFF8A4A2C4F8DCA004F58E731846A4
:1027D000C4F8185104F5AC7808EE103A04F5CC773B
:1027E000FFF7A8FF4046FFF7A5FF04F5EC76C4F815
:1027F00058A1C4F894513846FFF79CFFC4F898A13B
:10280000C4F8D4513046FFF795FF8E4BA3600C23DC
:10281000C4F8D8A100931022072331215846C4F8E8
:102820001452FFF760FFDFF844A2C4F854A0192344
:1028300018EE900A009304220F231E21FFF753FF86
:10284000192300930F23194619EE100AC4F880A02B
:102850000422FFF748FF192319EE900AC4F8ACA030
:10286000009304220F232946FFF73DFFC4F8D8A0A8
:102870000F2231214846FFF729FF4FF07F43C4F86C
:102880000C31714BA4F810511B6804F5067A2BB972
:102890006E4B6F4AAE216F4818F0A0FD6E4B1B883F
:1028A000222B03D86D4B6A4AAF21F4E76C4B2221EF
:1028B0001868FFF791FE6B4A03460A2150460CF058
:1028C00041FCC4F818A1484607F0CEFEDFF8A0A1ED
:1028D000CDF810A0212304A94846ADF8143007F024
:1028E000E0FE18EE100A0F222C21FFF7EFFE4FF04A
:1028F0007F42202318EE100AC4F84C2104A9A4F842
:102900005051ADF81430CDF810A007F0CAFE2A4699
:102910001E214046FFF7DAFE4FF07F42C4F88821BF
:1029200004F50B720392484AA4F88C511368002BEB
:10293000AED0494A13881F2BB4D9494B1F211868C0
:10294000FFF74AFE474A03460A2103980CF0FAFBB8
:10295000039BC4F89431404607F086FE1E2304A969
:102960004046ADF81430CDF810A007F09AFE2A4684
:102970000F213846FFF7AAFE4FF07F43C4F8C83155
:1029800004F51073C4F8D4313846A4F8CC51A4F837
:10299000405207F069FE1D2304A93846ADF81430F3
:1029A000CDF810A007F07DFE2A4629463046FFF7F5
:1029B0008DFE4FF07F43C4F8083204F51573C4F858
:1029C00014323046A4F80C52A4F8545207F04CFECE
:1029D0001C2304A93046ADF81430CDF810A007F040
:1029E00060FE5946204606F07FFA18EE901A2046FF
:1029F00006F07AFA19EE101A204606F075FA19EE6A
:102A0000901A204606F070FA4946204606F06CFA05
:102A100018EE101A204606F067FA4146204606F0E6
:102A200063FA3946204606F05FFA2046314606F042
:102A30005BFA204607B0BDEC048BBDE8F08F00BF09
:102A4000D4D20108450021009C370120BED10108E5
:102A500000D201082ED20108A037012075D201084A
:102A6000A8370120C7D201085CEA0108999999FFAB
:102A7000D8CB0108683000F0C1BF000038B50D4B5D
:102A800003600D4B8366044640F244456359601968
:102A90001B68403D9847B5F5517FF7D14FF4557508
:102AA000635960191B682C3D9847B5F5297FF7D10C
:102AB000204638BD64D3010868DA010810B5044621
:102AC000FFF7DCFF204640F2A44118F058FC2046F6
:102AD00010BD00002DE9F341064600252A4A856213
:102AE0004FF48073C0E90155C0E90355C0E90555AD
:102AF000C0E90755838446F82C2BA0F85030234BAF
:102B0000C3624FF6FF73DFF89080A0F8583000F1F1
:102B100068074FF47F030446C0E90C55C0E90E5521
:102B2000C0E91055C0E91255C0F85480C565036668
:102B3000A0F86450384601F05BF8154BA3603046AE
:102B40004421FFF779FD30460321FFF777FD4FF071
:102B50007F43E365694601233046A4F86050ADF831
:102B60000430CDF8008007F09CFD0A4BE366314647
:102B7000204606F0B9F92046394606F0B5F9204658
:102B800002B0BDE8F08100BF64D3010850E901083C
:102B9000560024000F000200D8CB01087047704790
:102BA0007047704730B4C26844685510034604EB60
:102BB0006200D20748BF62599B6830BC48BFD358F7
:102BC000184743682BB183682BB9C06800F0010037
:102BD0007047184670470120704790F82D3080F8F4
:102BE0009A3080F85C30704790F82D3080F85C3077
:102BF00070470146343091F82C3013B1623107F040
:102C000090BE6031FBE708B590F82C3033B1D0F8B6
:102C1000A430C0F89430FFF7ECFF08BDD0F8A03026
:102C2000F7E710B56421044618F0A9FB204610BD53
:102C300010B5A821044618F0A2FB204610BD10B51F
:102C40001021044618F09BFB204610BD10B5044629
:102C500000F5AC7001F094F804F2FC50BDE81040AF
:102C600001F08EB810B50446006B50B10368DB6804
:102C7000984730B1206B036821469B68BDE810403F
:102C8000184710BD00F1B0028A4203D10368D3F89F
:102C90008830184770470B7970B590F82C6004465F
:102CA0000D469BB98EB9B3FA83F35B0984F82C30D7
:102CB00023682046D3F888309847236820465B690C
:102CC000984716B12B79012B03D070BD002EFCD094
:102CD000E9E723682046D3F88430BDE87040184700
:102CE00070B5036804465B6B154698472368294610
:102CF00020469B6BBDE8704018470B8870B5A0F864
:102D000060300546138825F8623F044628460CF0DB
:102D1000F9FA064628460CF02FFB31B202B22046E3
:102D2000FFF7DEFF23682046D3F88830BDE8704007
:102D30001847000038B5262204460D46002118F039
:102D4000D9FB2046FFF7B0FC064B23602B88E384B9
:102D5000FF23204684F82830294607F0E2FD20466C
:102D600038BD00BF04EB010838B50C4B03600446C6
:102D70004FF47775635960191B68403D9847B5F566
:102D8000377FF7D14FF43B75635960191B682C3DB1
:102D90009847B5F50F7FF7D1204638BD68DA0108AE
:102DA00038B50446084B094D0360C0F8FC5500F2E5
:102DB0006460FFF7D9FFC4F8585104F5E070FFF7DD
:102DC000D3FF204638BD00BF44D5010864D30108B5
:102DD00010B50446FFF7E4FF20464FF42B6118F0CE
:102DE000CEFA204610BD10B50446FFF7BDFF2046C1
:102DF00040F23C4118F0C3FA204610BDF7B5044636
:102E0000FFF752FC4FF47F432646A385012300259C
:102E100084F824301E4BA562256346F8343B4FF6F8
:102E2000FF7701A93046ADF80470FFF783FF2A460B
:102E300029463046A4F86070A4F86270FFF746FC9B
:102E400031462046264606F04FF8124B46F8643BC2
:102E500026222946304618F04DFB3046FFF724FC69
:102E60000D4B63660D4BC4F88C304FF47F03204646
:102E7000C4E92855A4F89070C4F89450C4F8983068
:102E8000A4F89C50314606F02FF8204603B0F0BD60
:102E9000F4D3010890D4010850E90108D8CB010807
:102EA0002DE9F04F044687B027460025FFF7FCFBCD
:102EB000614BA56247F82C3B04F158094FF6FF76A9
:102EC00004A9384604F18408ADF81060FFF732FF1A
:102ED00004A94846ADF81060FFF72CFF04A9ADF82F
:102EE0001060404604F1B006FFF724FF04F5AC7B08
:102EF0003046FFF783FF04F2FC5A584600F060FFAB
:102F0000504600F05DFF4D4BC4F8A03A4C4BC4F85E
:102F1000A83A4C4BA3601E2229463846C4F8A44A5E
:102F2000C4F8AC5AFFF7D2FB062304A93846ADF823
:102F3000103007F0F6FC484625226B21FFF7C6FB50
:102F4000082204A94846ADF8102007F0EAFC252223
:102F500040460721FFF7BAFB4FF0070304A940469C
:102F6000ADF8103007F0DDFC0922ADF80C200A2284
:102F7000ADF8102003A904AA3046FFF7BEFE2A468A
:102F8000294604F1E400FFF7A1FB062304F58A704B
:102F90002D4AADF8143004A90492019007F081FB8A
:102FA000B4F9BA20B4F9B8100198FFF799FE019866
:102FB0002A462946FFF78AFB01981E22C821FFF7FF
:102FC0008FFE224B3046C4E95433FFF71CFE2A46DD
:102FD00029463046FFF77AFB30461E22C821FFF70C
:102FE0007FFE04F52A63C4F8E030584625226B21A1
:102FF000FFF76CFB252250460721FFF767FB394698
:10300000204605F071FF4946204605F06DFF414618
:10301000204605F069FF3146204605F065FF594618
:10302000204605F061FF2046514605F05DFF204631
:1030300007B0BDE8F08F00BF44D501082CD50108CA
:10304000852C0008C8005000D8CB01080A0A0AFFE6
:1030500070477047704770477047704770477047B8
:1030600070477047704730B4C268446855100346D3
:1030700004EB6200D20748BF62599B6830BC48BF6E
:10308000D358184743682BB183682BB9C06800F048
:1030900001007047184670470120704790F82D30A6
:1030A00080F8903080F85C30704710B59421044669
:1030B00018F065F9204610BD10B51021044618F02F
:1030C0005EF9204610BD10B50446683094F82C30E7
:1030D0003BB104F1660107F024FC2046FFF789FDAF
:1030E00010BD04F16401F6E710B5044600F53A702E
:1030F00000F077FE04F69C50BDE8104000F058BF89
:1031000000F19802914202D103689B6B184700F5C9
:103110009672914202D103685B6BF7E700F5E072AB
:10312000914202D10368DB6AF0E700F51572914223
:1031300002D103681B6BE9E770470B88B0F90810F0
:103140002DE9F041A0F864301388A0F866300446F9
:1031500001EBD17110461746C1F34F050CF0D2F8C0
:10316000B4F90A30804603EBD3733846C3F34F06F5
:103170000CF002F9A5EB5801A6EB500212B204F1D3
:10318000680009B2FFF7A2FA23682046D3F8883016
:10319000BDE8F0411847000038B50446084B094D1A
:1031A0000360C0F8545500F2BC50FFF7DDFDC4F8D1
:1031B000B05004F58C70FFF7D7FD204638BD00BF36
:1031C0007CD70108D4D6010810B5094B0360094B20
:1031D000C0F89C3D044600F69C50FFF7DDFF064B0F
:1031E000C4F8E83204F53A70FFF7DAFD204610BD66
:1031F00090D6010854DD0108ACDB010810B5044687
:10320000FFF7E2FF20464FF4C35118F0B8F820460C
:1032100010BD10B50446FFF7BFFF20464FF42B61E9
:1032200018F0ADF8204610BDF7B50446FFF73CFA9C
:103230004FF47F432646A3850123002784F82430DA
:10324000174BA762276346F8343B4FF6FF7501A979
:103250003046ADF80450FFF76DFD3A46394630462A
:10326000A4F86050A4F86250FFF730FA31462046C7
:1032700005F03AFE04F168060A4B236001A9A4F8A0
:103280006450A4F866503046ADF80450FFF752FD84
:103290002046314605F028FE204603B0F0BD00BFB1
:1032A000F4D30108D8D501082DE9F04F2DED048B9A
:1032B000044687B0A24600250AF070FA9B4BE563EE
:1032C0004AF8403B5046FFF721FA04F16C031846D8
:1032D00004F1980908EE103A04F59678FFF716FA0B
:1032E0004846FFF7A1FF04F5E0774046FFF79CFF53
:1032F00004F515763846FFF797FF3046FFF794FF41
:1033000004F53A73184608EE903A00F091FD04F681
:103310009C53184609EE103A00F07AFE41F650032D
:10332000E2180392824AE250039B824A5C6041F6B3
:1033300058034FF4A07BE25041F65C03CDF800B097
:10334000E5502A4629465046F023FFF7CCF94FF0C6
:103350007F4318EE100AA366CDF800B02A4629462E
:10336000F023FFF7C0F94FF07F43C4F8943005AA6B
:10337000012304A94846ADF81430ADF81050FFF70A
:10338000BCFC2A46294604F1CC00FFF79FF90B2329
:1033900005AA04A94846ADF81030ADF814304FF036
:1033A000500BFFF7CAFE644BC4F80431CDF800B0EF
:1033B00048463C23DC221421FFF795F9039AC4F810
:1033C000C8200223ADF8103005AA032304A9404603
:1033D000ADF81430FFF791FC2A46294604F5B07089
:1033E000FFF774F90E2305AA04A94046ADF8103082
:1033F000ADF81430FFF7A1FE4F4BC4F89831CDF86B
:1034000000B040463C23DC22A021FFF76CF9039B6F
:10341000C4F85C314FF0050B4FF0040305AA04A972
:103420003846ADF81030ADF814B0FFF766FC2A4608
:10343000294604F5FA70FFF749F90D2305AA04A9F6
:103440003846ADF81030ADF81430FFF776FE122292
:10345000C4F82C222722009238464C23DC22522129
:10346000FFF741F9039BC4F8F03105AA4FF00403BC
:1034700004A93046ADF81030ADF814B0FFF73DFCAC
:103480002A46294604F52270FFF720F90C2305AAE5
:1034900004A93046ADF81030ADF81430FFF74DFEFA
:1034A0001223C4F8C0322723009330464C2340F245
:1034B00005125221FFF717F9039BC4F8843218EE66
:1034C000900A78221421FFF701F914221146251DD4
:1034D00019EE100AFFF7FAF85146284605F004FDE8
:1034E00018EE101A284605F0FFFC4946284605F05C
:1034F000FBFC4146284605F0F7FC3946284605F016
:10350000F3FC3146284605F0EFFC18EE901A2846E9
:1035100005F0EAFC284619EE101A05F0E5FC2046F5
:1035200007B0BDEC048BBDE8F08F00BF90D601085A
:1035300078D60108013100080A001400683000F054
:103540005DBA000038B50D4B03600D4B8366044631
:1035500040F24445635960191B68403D9847B5F5F2
:10356000517FF7D14FF45575635960191B682C3D95
:103570009847B5F5297FF7D1204638BDD4D6010844
:1035800068DA010810B50446FFF7DCFF204640F278
:10359000A44117F0F4FE204610BD00002DE9F341D0
:1035A00006460025294A85624FF48073C0E901551B
:1035B000C0E90355C0E90555C0E90755838446F8BD
:1035C0002C2BA0F85030224BC3624FF6FF73DFF86C
:1035D0008C80A0F8583000F168074FF47F03044650
:1035E000C0E90C55C0E90E55C0E91055C0E91255A7
:1035F000C0F85480C5650366A0F86450384600F0F2
:10360000F7FA144BA36030464421FFF715F8304613
:103610000321FFF713F84FF07F43E3656946304617
:10362000A4F86050CDF80080ADF8045007F039F8E8
:10363000094BE3663146204605F056FC20463946E4
:1036400005F052FC204602B0BDE8F081D4D6010856
:1036500050E90108560024000F000200D8CB0108F1
:103660007047704730B4C26844685510034604EB95
:103670006200D20748BF62599B6830BC48BFD3582C
:10368000184743682BB183682BB9C06800F001006C
:103690007047184670470120704710B51021044646
:1036A00017F06DFE204610BD10B50446B03000F096
:1036B0004FFC04F25450BDE8104000F049BC00F645
:1036C000F8128A4203D10368D3F88830184770474C
:1036D0002DE9F04F044687B027460025FEF7E4FFAA
:1036E000624BA56247F82C3B04F158094FF6FF7670
:1036F00004A9384604F18408ADF81060FFF71AFBFE
:1037000004A9484604F1B00BADF81060FFF712FBB6
:1037100004A9404604F2545AADF81060FFF70AFBC2
:10372000584604F6F81600F039FC504600F036FC16
:103730003046FFF763FB4E4BC4F8A03A4D4BC4F83C
:10374000A83A4D4BA3601E2229463846C4F8A44A25
:10375000C4F8AC5AFEF7BAFF062304A93846ADF800
:10376000103007F0DEF8252248466B21FEF7AEFF49
:10377000082304A94846ADF8103007F0D2F82522F6
:1037800040460721FEF7A2FF072304A94046ADF8F3
:10379000103007F0C6F80723194658462522FEF7D1
:1037A00095FF504625226B21FEF790FF0923ADF8C7
:1037B0000C3004AA0A2303A93046ADF81030FFF7F5
:1037C0009CFA2A46294604F62C20FEF77FFF2B4B55
:1037D000049304F65C201B2304A9ADF81430019077
:1037E00006F05FFFB4F9022AB4F9001A0198FFF756
:1037F00077FA01982A462946FEF768FF01981E22AB
:10380000C821FFF76DFA1E4BC4F8983AC4F89C3AE9
:103810003046FFF7F8F92A4629463046FEF756FFAC
:103820001E223046C821FFF75BFA04F52A63C4F86C
:10383000283A3946204605F057FB4946204605F010
:1038400053FB4146204605F04FFB5946204605F004
:103850004BFB5146204605F047FB2046314605F01C
:1038600043FB204607B0BDE8F08F00BF7CD70108BE
:1038700064D70108BF360008C8005000D8CB010843
:103880000A0A0AFF704710B54FF4AC71044617F0EE
:1038900076FD204610BD10B50446D0F8540100F066
:1038A00012F82046BDE8104008F02CBC10B50446C4
:1038B000FEF7F8FA014B2360204610BD10D801082E
:1038C0000022026070477047D0F8383419444B1C0E
:1038D00003D10023C0F838347047042902D0C0F85F
:1038E000381470470323F5E74B1C30B41AD0012974
:1038F0000DD1D0F838341C1D9AB200EB8202D2F8F8
:103900002014092901F1010506D0C2F820540368EA
:1039100030BCD3F8A0301847022BF8D80133A342AB
:10392000EAD1F4E7D0F838341C1D9AB200EB8202D9
:10393000D2F820140139C2F82014013106D1591EE1
:10394000022903D90023C2F82034E0E701339C4266
:10395000EBD1DCE7FDEEC07A37B517EE901A6423A1
:1039600091FBF3F14B4307EE903AF8EEE77A0A2326
:1039700030EE670AFDEEC07A17EE902A92FBF3F262
:1039800003FB02F407EE904AF8EEE77A046830EEA3
:10399000670AFDEEC07AB8EEE77A30EE470ABDEE70
:1039A000C00A10EE105A6B430093D4F8884017EE0B
:1039B000903AA04703B030BD10B4C0F82434019B46
:1039C000C0F8203403685DF8044BD3F8A030C0F889
:1039D0002C14C0F828241847B0F838342C2202FBE5
:1039E00003034FF0FF32C3F8902270470023C0F862
:1039F00038344FF07F43C0F890327047FEF74ABE2C
:103A000010B50D4A044671230A2100F506700BF02B
:103A100099FB04F5EC7009F024FC04F5CC7009F076
:103A200020FC04F5AC7009F01CFC04F1DC00BDE8DE
:103A3000104009F016BC00BFC7D2010803460A4671
:103A400010B5041DD1E9010184E80300D2E90301A6
:103A500003F10C0484E80300D2E906015469D9613A
:103A6000C3E90540116A1962918C9984044919606F
:103A700092F82610926A83F826109A62184610BDB2
:103A8000F8E9010803460A4610B5041DD1E9010111
:103A900084E80300D2E9030103F10C0484E8030085
:103AA000D2E90601D961116A1962918C546999842D
:103AB0000A4919600A499962C3E90540918D9985BF
:103AC000116B1963918E9986D18ED986118F1987C2
:103AD00004491960D26BDA63184610BD04DA010894
:103AE000D8CB01085CEA0108B0F8B020032A10B571
:103AF0000C4606D9144B154A15484FF4C17117F0FE
:103B00006DFC531CA0F8B0302C2303FB0203D1E959
:103B100001011A1D82E80300D4E9030103F10C023C
:103B200082E80300D4E90612DA61226A1A62A28CE2
:103B300060699A8494F8262083F82620A26A9A6203
:103B4000C3E9050110BD00BF4CD801087BD80108AE
:103B5000E0D80108B0F80031032B10B50A4606D9A9
:103B6000154B164A16484FF4C17117F037FC591C13
:103B7000A0F8001100EB8313D2E901011C1D84E8B9
:103B80000300D2E9030103F10C0484E80300D2E945
:103B90000601D961116A1962918C9984918D998578
:103BA000116B54691963516B5963118FD26B19876B
:103BB000C3E90540DA6310BD4CD8010827D90108D4
:103BC000E0D8010808B5038A032B06D9054B064A3D
:103BD00006484FF4C17117F001FC5A1C028240F8EC
:103BE000231008BD4CD80108A0D90108E0D801086D
:103BF000F0B5044691B0FEF7B9FD04F51A765C4BBA
:103C00005C4D236004F54671334600220127FF20F6
:103C10009A80DA801A815A819A81DA811A825A82CC
:103C2000DA611A845A8483F8242083F825701D6091
:103C300083F826009A62C3E905222C338B42E7D130
:103C400004F54775DFF834C14B4FA4F818232B4611
:103C500004F21C4000224FF0010E4FF6FF719A80D3
:103C6000DA801A815A819A81DA811A825A82DA615B
:103C70001A845A8483F8242083F825E0C3F828C0E6
:103C800099851A639A8683F8361083F8372083F86B
:103C9000382083F839201F60DA63C3E905224033F6
:103CA0008342DCD1A4F81C24A4F83024C4F83424C2
:103CB000C4F8382404F12C016846FFF7BFFE6946BA
:103CC0003046FFF711FF04F158016846FFF7B6FED2
:103CD00069463046FFF708FF04F184016846FFF7A4
:103CE000ADFE69463046FFF7FFFE04F1B0016846BD
:103CF000FFF7A4FE69463046FFF7F6FE04F1DC014B
:103D00006846FFF7BFFE69462846FFF723FF04F524
:103D1000AC716846FFF7B6FE69462846FFF71AFF02
:103D200004F5CC716846FFF7ADFE69462846FFF7FB
:103D300011FF04F5EC71684604F58467FFF7A2FEF5
:103D400069462846FFF706FF38460021FFF73AFF8D
:103D500038460021FFF736FF38460021FFF732FFD3
:103D600038460021FFF72EFF204611B0F0BD00BFFE
:103D700068DA0108F8E901085CEA0108D8CB010813
:103D8000FEF778BE6830FFF7AFBD6830FFF79CBD27
:103D900010B5044B044640F8683BFEF7E5FF2046AB
:103DA00010BD00BF64D3010810B50446FFF7F0FF53
:103DB000204640F2A44117F0E2FA204610BD000070
:103DC00010B50446FEF786FE014B2360204610BD69
:103DD00014DB010890F8B03A83F0010380F8B03AA0
:103DE000704710B50446FEF731FF002384F8B03A5F
:103DF00010BD00F5AC70FFF7C5BF00F5AC70FFF764
:103E0000C4BF000010B5034B03600446FEF7C8FFB3
:103E1000204610BDACDB010810B50446FFF7F2FFE9
:103E2000204640F6B42117F0AAFA204610BD000043
:103E300010B50446FFF734F8014B2360204610BD4F
:103E4000ACDB0108704704387047704710B510218B
:103E5000044617F094FA204610BDA0F10400F5E7DF
:103E600010B500228260044AC16002F108042032C9
:103E70000460426010BD00BF40DC01087047FFF7DE
:103E800033B941F64C03C35C23B1012100F69C50C9
:103E900000F0A2B890F8983D23B1012100F53A70E6
:103EA000FFF7A7BF704741F64C03C35C2BB14FF03F
:103EB000FF3100F69C5000F092B890F8983D2BB17D
:103EC0004FF0FF3100F53A70FFF797BF704741F6AA
:103ED0004C03C35C23B1012100F69C5000F07FB875
:103EE00090F8983D002BF6D1704741F64C03C35C27
:103EF00023B1012100F69C5000F06EB890F8983D77
:103F000023B1012100F53A70FFF773BF704700003D
:103F100010B5034B03600446FFF756F9204610BD69
:103F200070DC010810B50446FFF7F2FF204641F6A9
:103F3000640117F024FA204610BD000010B50446B5
:103F4000FFF7B2F9014B2360204610BD70DC010879
:103F5000FFF7F4BA6830FFF7C7BC6830FFF7B4BCAE
:103F60006830FFF739BD6830FFF740BD10B5044B2E
:103F7000044640F8683BFEF7F7FE204610BD00BF40
:103F8000D4D6010810B50446FFF7F0FF204640F2F2
:103F9000A44117F0F4F9204610BD000010B5044606
:103FA000FFF7FCFA014B2360204610BDB4DC01088A
:103FB00010B50446FFF778FB002384F8B03A10BD33
:103FC00090F8B03A83F0010380F8B03AB0300BB10A
:103FD000FFF7C6BFFFF7C7BFB030FFF7BBBFB030BA
:103FE000FFF7BBBF10B5034B03600446FFF7D4F8DF
:103FF000204610BD54DD010810B50446FFF7F2FF5E
:10400000204640F6B42117F0BAF9204610BD000052
:1040100010B50446FFF75CFB014B2360204610BD42
:1040200054DD0108F02070474FF4A070704729203C
:10403000FDF748BB2820FDF745BB08B5FDF716FB8B
:10404000CA20FDF73FFBC320FDF720FB0820FDF74A
:104050001DFB5020FDF71AFBCF20FDF733FB00209E
:10406000FDF714FBC120FDF711FB3020FDF70EFB1F
:10407000ED20FDF727FB6420FDF708FB0320FDF78B
:1040800005FB1220FDF702FB8120FDF7FFFAE82077
:10409000FDF718FB8520FDF7F9FA0020FDF7F6FA89
:1040A0007820FDF7F3FACB20FDF70CFB3920FDF764
:1040B000EDFA2C20FDF7EAFA0020FDF7E7FA3420AC
:1040C000FDF7E4FA0220FDF7E1FAF720FDF7FAFA2E
:1040D0002020FDF7DBFAEA20FDF7F4FA0020FDF7D7
:1040E000D5FA0020FDF7D2FAB120FDF7EBFA002057
:1040F000FDF7CCFA1B20FDF7C9FAB620FDF7E2FA6E
:104100000A20FDF7C3FAA220FDF7C0FAC020FDF790
:10411000D9FA1020FDF7BAFAC120FDF7D3FA102022
:10412000FDF7B4FAC520FDF7CDFA4520FDF7AEFA4C
:104130001520FDF7ABFAC720FDF7C4FA9020FDF774
:10414000A5FA3620FDF7BEFAC820FDF79FFAF22047
:10415000FDF7B8FA0020FDF799FAB020FDF7B2FAA2
:10416000C220FDF793FAB620FDF7ACFA0A20FDF75E
:104170008DFAA720FDF78AFA2720FDF787FA042099
:10418000FDF784FA2A20FDF79DFA0020FDF77EFA5C
:104190000020FDF77BFA0020FDF778FAEF20FDF70D
:1041A00075FA2B20FDF78EFA0020FDF76FFA00203C
:1041B000FDF76CFA0120FDF769FA3F20FDF766FA7A
:1041C000F620FDF77FFA0120FDF760FA0020FDF7E9
:1041D0005DFA0620FDF75AFA2C20FDF773FAC82085
:1041E000FDF7BEFA2620FDF76DFA0120FDF74EFA25
:1041F000E020FDF767FA0F20FDF748FA2920FDF7C8
:1042000045FA2420FDF742FA0C20FDF73FFA0E2074
:10421000FDF73CFA0920FDF739FA4E20FDF736FA92
:104220007820FDF733FA3C20FDF730FA0920FDF73E
:104230002DFA1320FDF72AFA0520FDF727FA17209B
:10424000FDF724FA1120FDF721FA0020FDF71EFAF0
:10425000E120FDF737FA0020FDF718FA1620FDF7E8
:1042600015FA1B20FDF712FA0420FDF70FFA1120B2
:10427000FDF70CFA0720FDF709FA3120FDF706FAE1
:104280003320FDF703FA4220FDF700FA0520FDF781
:10429000FDF90C20FDF7FAF90A20FDF7F7F92820BF
:1042A000FDF7F4F92F20FDF7F1F90F20FDF7EEF9F6
:1042B0001120FDF707FAC820FDF752FA2920FDF773
:1042C00001FABDE808402C20FDF7FCB908B5FDF760
:1042D000CDF90321D320FDF711FA80B208BD10B546
:1042E000C4B2022203212046FDF776F90A20FDF729
:1042F000BBF9204600220321FDF76EF9BDE810400E
:104300000220FDF7B1B938B50446E4B2FDF762F911
:1043100000212046FDF778F9012105462046FDF7EA
:1043200073F940EA052080B238BD10B5C4B240210F
:104330002046FDF769F9030607D54C212046FDF715
:1043400063F9003818BF012010BD01224B2120461F
:10435000FDF742F9204600224B21FDF73DF90020F0
:10436000F2E773B50423C4B20E461546D7210DEB10
:1043700003022046FDF762F9019B1BBA1A0DC3F335
:104380000B23328020462B8001224B21FDF724F99C
:1043900000224B212046FDF71FF902B070BD00003E
:1043A00010B50A4B1A78904204460DD059788842CD
:1043B0000AD00AB141B901229C54FDF70BF92046FD
:1043C000BDE81040FFF78BBF10BD00BF302A0020B2
:1043D00010B5C4B209212046FDF716F940F00100DE
:1043E000C2B209212046BDE81040FDF7F5B810B56E
:1043F000C4B209212046FDF707F9092100F0FE02A9
:104400002046BDE81040FDF7E7B838B5C4B20D4608
:1044100020460A21FDF7F8F840EA0502D2B220460C
:104420000A21BDE83840FDF7D7B807B50190FDF780
:10443000D2F801981F21FFF7E8FF019803B05DF85B
:1044400004EBFFF7C5BF38B5C4B20D4620460A21BC
:10445000FDF7DAF820EA0502D2B220460A21BDE8CB
:104460003840FDF7B9B810B50446FFF7C0FF204645
:104470001F21BDE81040FFF7E6BF10B5C0B20C46E3
:104480000B21FDF7C1F8204010BD1F21FFF7F5BF3C
:104490000A46C0B20B21FDF79FB81F21FFF7F8BFF6
:1044A00038B5C4B20D4620461721FDF7ADF820EA15
:1044B0000502D2B220461721BDE83840FDF78CB87E
:1044C00070B5C4B2064604212046FDF79DF80421CC
:1044D00000F0FB0205462046FDF77EF83046F0214D
:1044E000FFF7DEFF05F0F80220460421FDF774F81F
:1044F000492220212046FDF76FF80220FDF7B4F88D
:10450000204601222121FDF767F820469A22412109
:10451000FDF762F8204601224A21FDF75DF82046AA
:1045200001224B21FDF758F8204600224B21FDF7D0
:1045300053F8204601225621FDF74EF8204601226D
:104540005821FDF749F8204601224021FDF744F8A3
:104550002046FF220B21FDF73FF8BDE87040022006
:10456000FDF782B8054BD3F8882042F47002C3F8F7
:1045700088204FF000629A60704700BF00ED00E0B5
:1045800008B50B4B1A6842F400721A601A6842F4BC
:1045900080621A601A6842F480721A60032000F088
:1045A0002FF80020FDF71AFBFDF7E6F8002008BD04
:1045B000003C0240034A044B11681B780B44136013
:1045C000704700BFFC3B012078000020014B1868B9
:1045D000704700BFFC3B012038B50446FFF7F6FFEB
:1045E000631C1CBF054B1B78054618BFE418FFF77A
:1045F000EDFF431BA342FAD338BD00BF7800002073
:104600000749CA6822F4E0620302120403F4E0637B
:10461000120C134343F0BF6343F40033CB60704785
:1046200000ED00E0164B30B5DC68C4F30224C4F1A1
:104630000705231D042D28BF0425062B4FF0FF334B
:104640008CBF033C002403FA05F521EA0501A340D1
:1046500022EA0302A140002841EA0203ACBF00F1B4
:104660006040084A4FEA0313B8BF00F00F00DBB206
:10467000AABF00F56140135480F8003330BD00BF7D
:1046800000ED00E014ED00E0002808DB4209012302
:1046900000F01F0003FA00F0014B43F822007047BE
:1046A00000E100E000280DDB4309012200F01F00BB
:1046B00002FA00F02033044A42F82300BFF34F8F80
:1046C000BFF36F8F704700BF00E100E010B50446F4
:1046D00050B1437903F0FF0213B90271FDF76CF892
:1046E00001236371002010BD0120FCE770B5046850
:1046F000049D666C45EA034306F040463343636419
:104700004368E263B3F5403F30D186681EB1012EA5
:1047100003D121F07F41A16370BD022E01F47F031C
:1047200001F47F45C8B207D1DB0CAD0ADB0243EAD6
:10473000451343EAD001EEE7032E01F07F420AD190
:10474000DB0CED0A9B0243EA451343EAD003D10F89
:1047500043EAC131DFE7190D2D0B090241EA0511CA
:1047600041EA1011130F41EA0331D4E7E160D3E7C6
:1047700010B5044630B390F8393003F0FF021BB98E
:1047800080F83820FDF730F822686168022384F849
:104790003930136823F440330B431360536BA16823
:1047A00023F007030B435363136CE16823F47F5337
:1047B00023F03F030B43136400200123E06384F8DC
:1047C000393010BD0120FCE773B590F83850012D49
:1047D00004464FF0020513D080F839500126069D9B
:1047E00080F838600095FFF781FF23681A6842F46B
:1047F0000C521A601A6832431A60002002B070BD71
:104800002846FBE773B516461A4690F83830012B58
:1048100004464FF0020517D0012380F838300368B2
:1048200080F839505E61079B0093069BFFF75EFF9F
:1048300023681A6842F40C521A601A6842F00102A6
:104840001A60002002B070BD2846FBE7026838B548
:10485000136823F0050343F0040313600446FFF7D5
:10486000B5FE05462268136813F0010309D11168EB
:1048700021F40C511160012284F8392084F8383079
:104880000FE0FFF7A3FE401BB0F57A7FEAD9E36B98
:1048900043F02003E3630022032384F8393084F8D3
:1048A0003820184638BD70B505682A6842F0040201
:1048B0002A600129044614BF24351C35FFF786FE03
:1048C00006462B6813F020030AD121680A6822F4F7
:1048D00064520A60012284F8392084F838300FE0ED
:1048E000FFF774FE801BB0F57A7FEAD9E36B43F0E3
:1048F0002003E3630022032384F8393084F838204E
:10490000184670BD38B5054608B9012038BD164BAC
:104910001B6B190213D42B6800243F221C6028460D
:104920009A601C619C61DC615C625C63FCF77EFFE9
:10493000EC6385F8384085F839402046E6E703689F
:10494000196811F0010104D0FFF780FF0028E2D0C0
:10495000DBE75A6A920602D5FFF7A5FFF6E7DB69A7
:104960009B06D8D50121F7E7003802407047704711
:10497000036870B55E681D68F207044614D5E90542
:1049800012D51A6822F480721A60C26B42F00102DA
:10499000C26301229A60042380F83930002380F832
:1049A0003830436903B19847B20616D5AB0414D525
:1049B00023681A6822F400521A6020229A60E36B7E
:1049C00043F00203E363042384F83930002384F8BE
:1049D000383063690BB120469847300716D5290552
:1049E00014D523681A6822F400621A6008229A60BB
:1049F000E36B43F00403E363042384F839300023BA
:104A000084F8383063690BB12046984772070BD59C
:104A10006B0509D523681A6822F480621A600422A3
:104A20009A602046FFF7A2FFB00714D5A90512D55A
:104A300023681A6822F400721A6002229A60E36BFB
:104A4000E363012384F83930002384F83830236984
:104A50000BB120469847F20613D5EB0411D5236815
:104A60001A6822F480521A6010229A60E36BE363A2
:104A7000012384F83930002384F838302046FFF7CA
:104A800076FF70BDF0B590F83830012B4FF002037F
:104A90002BD0012280F8393080F8382000EB011348
:104AA000D3E907425D6A184F44EA0242093C012CEF
:104AB0009CBF05F07F431A434FEA0116036888BF85
:104AC00042EA056299B9596A39400A435A62012C8F
:104AD00082699A6103D8426A22F07F429A62012376
:104AE00080F83930002380F838301846F0BDD96995
:104AF00039400A43DA618219012C92691A619CBF1C
:104B000025F07F451D62EAE7F0FFFC002DE9F74F35
:104B1000DFF8C4816E4ADFF8C49100230D680124D8
:104B20009C4004EA0506AC4340F0B8804C6824F091
:104B3000100C4FEA430E03250CF1FF3705FA0EF572
:104B4000012F6FEA050511D8876807EA050ACF68C3
:104B500007FA0EF747EA0A078760476827EA060A56
:104B6000C4F300179F4047EA0A074760C76807EA8F
:104B7000050A8F6807FA0EF747EA0A07BCF1020F29
:104B8000C76016D14FEAD30A00EB8A0A03F0070B7D
:104B9000DAF820704FEA8B0B4FF00F0C0CFA0BFC7D
:104BA00027EA0C0C0F6907FA0BF747EA0C07CAF85B
:104BB000207007683D4004F0030707FA0EFE4EEA36
:104BC00005050560E50069D54FF0000BCDF804B090
:104BD000D8F844703F4D47F48047C8F84470D8F87F
:104BE000447007F480470197019F23F0030707F102
:104BF000804707F59C3703F0030ED7F808A04FEA6B
:104C00008E0E4FF00F0C0CFA0EFCA8422AEA0C0C88
:104C10004BD005F58065A84249D005F58065A842CE
:104C200047D005F58065A84245D005F58065A842C6
:104C300043D0484543D005F50065A84241D005F56D
:104C40008065A8423FD005F58065A8423DD005F5B6
:104C50008065A8420CBF09250A2505FA0EF545EA2C
:104C60000C05BD601568F74314F4803F0CBF3D4050
:104C700035431560556814F4003F0CBF3D40354383
:104C80005560956814F4801F0CBF3D403543956016
:104C9000D568A40254BF3D403543D5600133102B85
:104CA0007FF43CAF03B0BDE8F08F5D46D5E701254A
:104CB000D3E70225D1E70325CFE70425CDE7052576
:104CC000CBE70625C9E70725C7E70825C5E700BFE5
:104CD000003C014000000240003802400014024045
:104CE0000AB1816170470904FBE701684B6913F45D
:104CF00080634FF0000210D06FF480634B6120237B
:104D0000026380F83D3080F83E20036C80F83C2040
:104D100043F00403036401207047184670472DE9EF
:104D2000F04104460F46164698462568686927EA0A
:104D3000000080B2B8B16B695A0516D52B6843F4F0
:104D400000732B606FF480636B6120220023236368
:104D500084F83D2084F83E30226C42F00402226444
:104D600084F83C300120BDE8F081731CDED0FFF7F1
:104D70002DFCA0EB0800B04201D8002ED5D10023B5
:104D80002022236384F83D2084F83E30226C42F0D8
:104D90002002E4E770B504460D46164623685B69B9
:104DA0005B0701D5002070BD2046FFF79EFFA8B924
:104DB0006A1CF3D0FFF70AFC801BA84201D8002D23
:104DC000ECD100232022236384F83D2084F83E3078
:104DD000226C84F83C3042F0200222640120E2E799
:104DE00070B504460D46164621684B6913F0400322
:104DF00001D0002010E04A69D2060ED56FF01002F3
:104E00004A612022236384F83D2084F83E30226CDE
:104E1000226484F83C30012070BDFFF7D7FB801B73
:104E2000A84201D8002DDFD100232022236384F87B
:104E30003D2084F83E30226C42F02002E8E72DE964
:104E4000F84606460F4691461D464FEA114A33681A
:104E5000BAF1010F0CBF5C699C6927EA0404A4B293
:104E6000B4FA84F46409A14501D0002017E06A1C5B
:104E7000EED0FFF7ABFB089BC01AA84201D8002D6B
:104E8000E5D100232022336386F83D2086F83E30AA
:104E9000326C86F83C3042F0200232640120BDE8DA
:104EA000F88670B504460D46164623685B691B06F6
:104EB00001D5002070BD2046FFF717FFA8B96A1C76
:104EC000F3D0FFF783FB801BA84201D8002DECD163
:104ED00000232022236384F83D2084F83E30226C96
:104EE00084F83C3042F0200222640120E2E7000016
:104EF0002DE9F0431546026885B0DDE90C78994646
:104F0000136843F4807313600E463B46CDF800806F
:104F100000224FF001110446FFF791FF236838B1DA
:104F20001B68DB0502D54FF40073236403200AE0FD
:104F300006F0FE061E61194943463A462046FFF731
:104F4000EEFE18B1012005B0BDE8F08323680390A0
:104F50005A6903929B690393424639462046039B54
:104F6000FFF79FFF40B1236C042B01BF2268136839
:104F700043F400731360E5E7B9F1010F236802D130
:104F8000EDB21D61DFE72A0A1A6139464246204622
:104F9000FFF787FF0028E6D12368F1E70200010050
:104FA0002DE9FF479A46036815461A6842F4806265
:104FB0001A601A68DDE90C7842F480721A600E46B5
:104FC0003B46CDF8008000224FF001110446FFF768
:104FD00036FF236848B11B68DB0502D54FF4007328
:104FE0002364032004B0BDE8F0875FFA86F906F079
:104FF000FE061E612A4943463A462046FFF78FFEC9
:1050000008B10120EEE7236803905A6903929B6977
:105010000393424639462046039BFFF742FF40B1C7
:10502000236C042B01BF2268136843F400731360E0
:10503000E7E7BAF1010F23681AD1EDB21D614246CC
:1050400039462046FFF72DFF0028E9D12268136872
:1050500043F4807313604FF001110246CDF80080D5
:105060003B462046FFF7EBFE226860B11368B3E7CA
:105070002A0A1A61394642462046FFF712FF0028E5
:10508000CED12368D9E749F00103136104494346AF
:105090003A462046FFF743FE003818BF0120A1E73B
:1050A0000200010070B5044608B9012070BD90F8F7
:1050B0003D3003F0FF021BB980F83C20FCF7C8FB31
:1050C000242384F83D3023681A6822F001021A6014
:1050D0001A6842F400421A601A6822F400421A6008
:1050E00000F06CFE3F4A6368934294BF3E4A3F4AD9
:1050F00090428CBF00220122002AD6D121683C4E6A
:105100004A68B0FBF6F622F03F0232434A60354A65
:105110000D6A934284BF4FF49672724325F03F05A7
:1051200091BF721C4FF47A76B2FBF6F201322A4339
:105130000A62CD69421E2B4825F44F45834225F073
:10514000FF0532D85B00B2FBF3F340F6FC7201338B
:10515000134242D0C3F30B032B43CB61D4E9073096
:105160000A68034322F0C00213430B608A68D4E943
:10517000030322F40342034322F0FF0213438B6034
:10518000D4E90530CA68034322F0FF021343CB6021
:105190000B6843F001030B6000202023206484F897
:1051A0003D30206384F83E0080E7A06850B903EBEF
:1051B0004303B2FBF3F30133C3F30B037BB143F4BB
:1051C0000043C9E719204343B2FBF3F30133C3F3B0
:1051D0000B0323B143F44043BEE70423BCE70123A0
:1051E000BAE700BFA08601007F841E00FF083D00D3
:1051F00040420F002DE9F743044699460C9E0F46A6
:105200009046FFF7E3F994F83D30202B054603D094
:10521000022003B0BDE8F08300903C49192301222D
:105220002046FFF70CFE0028F2D194F83C30012B09
:10523000EED02068012384F83C300368D9075EBFB4
:10524000036843F001030360036823F40063036011
:10525000212384F83D30402384F83E30002323642A
:105260000A9B6362BDF82C306385638D2385284BD0
:10527000E362CDE900654B46424639462046FFF7DA
:1052800037FE00282AD00120C3E7FFF70AFE40B10D
:10529000236C042B01BF2268136843F4007313606E
:1052A000F1E7636A27681A4612F8011B39616262E6
:1052B000628D218D013A92B262857A69481E80B270
:1052C000520720850AD548B15A783A6102336362A1
:1052D000638D013B02399BB221856385238D2A466C
:1052E00031462046002BD0D1FFF754FD0028CFD106
:1052F0002268136843F400731360202384F83D3060
:1053000084F83C0084F83E0083E700BF02001000F0
:105310000000FFFF2DE9F043044687B09946109F37
:105320000D469046FFF752F994F83D30202B064683
:1053300004D00225284607B0BDE8F08300907649E6
:10534000192301222046FFF77AFD0028F1D194F8B5
:105350003C30012BEDD02068012384F83C300368F9
:10536000DB075EBF036843F001030360036823F4B7
:1053700000630360222384F83D30402384F83E30EC
:10538000002323640E9B6362BDF83C306385638D0C
:105390002385624BE3622946CDE900764B464246BF
:1053A0002046FFF7FDFD054608B10125C2E7228D25
:1053B0002368B2B902905A6902929A690292029ADB
:1053C0001A6842F400721A60DFF85481238D002BB2
:1053D0002CD1202284F83D2084F83C3084F83E30E3
:1053E000A8E7012A0AD11A6822F480621A600390A1
:1053F0005A6903929A690392039AE1E7022A0ED14D
:105400001A6822F480621A601A6842F400621A6014
:1054100004905A6904929B690493049BD4E7059015
:105420005A6905929B690593059BCDE7032B56D8D6
:10543000012B15D1324639462046FFF7D1FC002812
:10544000B3D123681A69636A1A70636A01336362AD
:10545000238D013B2385638D013B9BB26385B5E7BB
:10546000022B00963B464FF000024146204619D1E0
:10547000FFF7E5FC002898D123681A6842F400720F
:105480001A601A69636A1A70626A531C6362238D18
:10549000013B2385638D013B9BB2638523681B69B8
:1054A0005370D2E7FFF7CBFC00287FF47EAF236870
:1054B0001A6822F480621A601A69636A1A70636A51
:1054C000009601336362238D013B2385638D013B8D
:1054D0009BB2638502463B4641462046C8E73246BA
:1054E00039462046FFF77CFC00287FF45EAF236836
:1054F0001A69636A1A70626A531C6362238D013BE6
:105500002385638D013B9BB26385236859694907F5
:105510007FF55CAFC3E700BF020010000000FFFF93
:105520000400010010B590F83D30202BDCB216D1FC
:10553000242380F83D3003681A6822F001021A60C3
:105540005A6A22F010025A625A6A114359621A6862
:1055500042F001021A6080F83D40002010BD022098
:10556000FCE730B590F83D30202BDCB216D1026854
:10557000242380F83D30136823F001031360556A3B
:105580004FF6F0732B40194389B25162136843F010
:105590000103136080F83D40002030BD0220FCE78D
:1055A0002DE9F043D20104684F68E568D1F800C0E6
:1055B000D1F818908432A3180CF10106586800F451
:1055C00070405860E068C5F30B45C0F30B403044B1
:1055D0003D4440EA05405860E068CD68C0F30A00E9
:1055E0000544986800F470409860E6688868C6F3DF
:1055F0000A060130304440EA0540986018690E6997
:1056000020F0070018614FF0000E1E619D6991F8AF
:10561000320091F83180C3F818E091F8305045EA33
:10562000096545EA082545EA00459D61586920F06D
:10563000FF00586148695861D86920F4E06020F0A3
:105640000700D861D1E907500543DD61986A486ACF
:10565000C3F828E098621EB3012E23D0B01E0228A2
:1056600022D9072E0CBF02200120DD6A05F0E025BB
:10567000DD628D6AC96AA7EB0C07454378430330A6
:1056800040EA0540D862186B20F4FF6020F0070064
:1056900018631963A35843F00103A350BDE8F083D6
:1056A0000420E2E70320E0E70220DEE738B5044605
:1056B000002863D090F8A13003F0FF021BB980F8F6
:1056C000A020FCF721F9022384F8A13023689A690D
:1056D00022F070429A61D4E901200243E06899699E
:1056E0000243206902430A439A619A682449606927
:1056F0000A409A609A6842EA0042A06902439A60AE
:10570000DA68E0690A40DA60DA6842EA0042206A50
:105710000243DA601A69606A0A401A611A6942EA49
:105720000042A06A02431A615A69114059615A69DC
:10573000E16A42EA0142216B0A435A61D96A94F84C
:10574000360094F8355001F07F41D962D96A94F857
:1057500034200A4342EA052242EA0042DA625A6BE6
:1057600042F006025A639A6942F001029A610020EF
:105770000123C4F8A40084F8A13038BD0120FCE75F
:1057800000F800F070477047036870B59E6B5D6B62
:105790007207044614D5690712D55A6B22F0040229
:1057A0005A630422DA63D0F8A43043F00103C0F84E
:1057B000A430002380F8A12080F8A030FFF7E2FF9A
:1057C000B20716D5AB0714D523685A6B22F0020234
:1057D0005A630222DA63D4F8A4301343C4F8A43025
:1057E000042384F8A130002384F8A0302046FFF77A
:1057F000C9FFF00710D5E9070ED523685A6B22F0D0
:1058000001025A630122DA63002384F8A12084F89C
:10581000A0302046FBF7A0FC320711D52B070FD58F
:1058200023685A6B22F008025A630822DA630123C4
:1058300084F8A130002384F8A0302046FFF7A3FFAE
:1058400070BD2DE9F04190F8A030012B06460F46BF
:1058500094464FF002001FD04FF0010886F8A08058
:1058600086F8A10034240D4604FB02640FCD3834C1
:105870000FC40FCD0FC40FCD0FC42B68236030466B
:1058800062463946FFF78CFE33680020C3F8248057
:1058900086F8A18086F8A000BDE8F08190F8A030DD
:1058A000012B4FF0020312D080F8A13003685A6B2D
:1058B00022F001025A63074A11645A6B42F0010256
:1058C0005A63012380F8A130002380F8A0301846E5
:1058D000704700BF006801402DE9F341044640B322
:1058E0000368DD0710D4236898075ED423681A077D
:1058F00000F1A08023685B0700F1BE80A06900284A
:1059000040F01F8100202BE0A64B9A6802F00C02A9
:10591000042A07D09A6802F00C02082A0BD15A68B0
:10592000510208D59F4B1B689A03DCD56368002B96
:10593000D9D1012014E06268B2F5803F13D11A6812
:1059400042F480321A60FEF741FE964E05463368F7
:105950009B03C8D4FEF73AFE401B6428F7D9032006
:1059600002B0BDE8F0818F4DB2F5A02F2B6807D1B2
:1059700043F480232B602B6843F480332B60E2E7F1
:1059800023F480332B602B6823F480232B60002AC0
:10599000D9D1FEF71BFE06462B689F03A3D5FEF761
:1059A00015FE801B6428F7D9D9E77E4B9A6812F060
:1059B0000C0F07D09A6802F00C02082A11D15B681C
:1059C0005E020ED4774B1A68950702D5E268012A69
:1059D000AFD11A68216922F0F80242EAC1021A60C6
:1059E00084E7E268704BB2B101221A60FEF7EEFD67
:1059F0006C4D06462B68980707D52B68226923F063
:105A0000F80343EAC2032B6070E7FEF7DFFD801B5B
:105A10000228EFD9A3E71A60FEF7D8FD614E0546CC
:105A2000336899077FF562AFFEF7D0FD401B02286F
:105A3000F6D994E762695D4B7AB101221A60FEF7EC
:105A4000C5FD584E0546736F9F073FF553AFFEF7F0
:105A5000BDFD401B0228F6D981E71A60FEF7B6FDAE
:105A6000504E0546736F98077FF544AFFEF7AEFDC5
:105A7000401B0228F6D972E74A4B1A6C12F080528A
:105A800028D101921A6C42F080521A641B6C03F008
:105A900080530193019B0127454D2B68D9051BD5E8
:105AA000A368404D012B27D12B6F43F001032B67D7
:105AB000FEF78CFD3B4E054641F28838336F9B075D
:105AC00039D5002F3FF41AAF364A136C23F08053B8
:105AD000136413E70027DFE72B6843F480732B6020
