:020000040800F2
:1000000000000320910F0008F9290008FB290008CF
:10001000FD290008FF290008012A0008000000004F
:10002000000000000000000000000000D187000870
:10003000032A00080000000061880008C588000845
:10004000E10F0008E10F0008E10F0008E10F0008D0
:10005000E10F0008E10F0008E10F0008E10F0008C0
:10006000E10F0008E10F0008E10F0008E10F0008B0
:10007000E10F0008E10F0008E10F0008E10F0008A0
:10008000E10F0008E10F0008E10F0008E10F000890
:10009000E10F0008E10F0008E10F0008E10F000880
:1000A000E10F0008E10F0008E10F0008E10F000870
:1000B000E10F0008E10F0008E10F0008E10F000860
:1000C000E10F0008E10F0008E10F0008E10F000850
:1000D000E10F0008052A0008E10F0008E10F000801
:1000E000E10F0008E10F0008E10F0008E10F000830
:1000F000E10F0008E10F0008E10F0008E10F000820
:10010000E10F0008E10F0008E10F0008E10F00080F
:10011000E10F0008E10F0008112A0008E10F0008B4
:10012000E10F0008E10F0008E10F0008E10F0008EF
:10013000E10F0008E10F0008E10F0008E10F0008DF
:10014000E10F0008E10F0008E10F0008E10F0008CF
:10015000E10F0008E10F0008E10F0008E10F0008BF
:10016000E10F0008E10F0008E10F0008E10F0008AF
:10017000E10F0008E10F0008E10F00080000000097
:10018000E10F0008E10F0008E10F0008E10F00088F
:10019000E10F0008E10F0008E10F0008E10F00087F
:0C01A0001D2A0008E10F0008292A0008B1
:1001B00010B5054C237833B9044B13B10448AFF3A1
:1001C00000800123237010BDD80200200000000031
:1001D00028FD010808B5034B1BB103490348AFF3E1
:1001E000008008BD00000000DC02002028FD01089E
:1001F000034613F8012B002AFBD1181A0138704767
:1002000001F0FF01102A2BDB10F0070F08D010F8C7
:10021000013B013A8B422DD010F0070F42B3F6D1CB
:10022000F0B441EA012141EA014122F007047FF0E4
:1002300000070023F0E80256083C85EA010586EA3B
:10024000010685FA47F5A3FA87F586FA47F6A5FA77
:1002500087F68EB9EED1F0BC01F0FF0102F0070283
:1002600032B110F8013B013A83EA010313B1F8D12E
:100270000020704701387047002D06BF354603380F
:10028000073815F0010F07D1013015F4807F02BF48
:10029000013015F4C03F0130F0BC0138704700BF99
:1002A00081F0004102E000BF83F0004330B54FEA27
:1002B00041044FEA430594EA050F08BF90EA020F94
:1002C0001FBF54EA000C55EA020C7FEA645C7FEA27
:1002D000655C00F0E2804FEA5454D4EB5555B8BF4A
:1002E0006D420CDD2C4480EA020281EA030382EABB
:1002F000000083EA010180EA020281EA0303362D4D
:1003000088BF30BD11F0004F4FEA01314FF4801C1F
:100310004CEA113102D0404261EB410113F0004F31
:100320004FEA03334CEA133302D0524263EB4303E8
:1003300094EA050F00F0A780A4F10104D5F1200E86
:100340000DDB02FA0EFC22FA05F2801841F10001E1
:1003500003FA0EF2801843FA05F359410EE0A5F1B5
:1003600020050EF1200E012A03FA0EFC28BF4CF0E6
:10037000020C43FA05F3C01851EBE37101F000459C
:1003800007D54FF0000EDCF1000C7EEB00006EEBA9
:100390000101B1F5801F1BD3B1F5001F0CD3490833
:1003A0005FEA30004FEA3C0C04F101044FEA44528A
:1003B00012F5800F80F09A80BCF1004F08BF5FEA11
:1003C000500C50F1000041EB045141EA050130BDF1
:1003D0005FEA4C0C404141EB0101013C28BFB1F503
:1003E000801FE9D291F0000F04BF01460020B1FA4E
:1003F00081F308BF2033A3F10B03B3F120020CDA21
:100400000C3208DD02F1140CC2F10C0201FA0CF0FE
:1004100021FA02F10CE002F11402D8BFC2F1200C63
:1004200001FA02F120FA0CFCDCBF41EA0C01904019
:10043000E41AA2BF01EB0451294330BD6FEA040462
:100440001F3C1CDA0C340EDC04F11404C4F120024D
:1004500020FA04F001FA02F340EA030021FA04F35F
:1004600045EA030130BDC4F10C04C4F1200220FAB6
:1004700002F001FA04F340EA0300294630BD21FAF4
:1004800004F0294630BD94F0000F83F4801306BFBA
:1004900081F480110134013D4EE77FEA645C18BFAE
:1004A0007FEA655C29D094EA050F08BF90EA020F45
:1004B00005D054EA000C04BF1946104630BD91EA3D
:1004C000030F1EBF0021002030BD5FEA545C05D140
:1004D0004000494128BF41F0004130BD14F580047F
:1004E0003CBF01F5801130BD01F0004545F0FE41F3
:1004F00041F470014FF0000030BD7FEA645C1ABF28
:10050000194610467FEA655C1CBF0B46024650EA5E
:10051000013406BF52EA033591EA030F41F400218A
:1005200030BD00BF90F0000F04BF0021704730B510
:100530004FF4806404F132044FF000054FF00001E5
:1005400050E700BF90F0000F04BF0021704730B5A6
:100550004FF4806404F1320410F0004548BF40427B
:100560004FF000013EE700BF42004FEAE2014FEAD0
:1005700031014FEA02701FBF12F07F4393F07F4FAB
:1005800081F06051704732F07F4208BF704793F0AE
:100590007F4F04BF41F40021704730B54FF46074C1
:1005A00001F0004521F000411CE700BF50EA0102C4
:1005B00008BF704730B54FF000050AE050EA01026D
:1005C00008BF704730B511F0004502D5404261EBDD
:1005D00041014FF4806404F132045FEA915C3FF41E
:1005E000D8AE4FF003025FEADC0C18BF03325FEABB
:1005F000DC0C18BF033202EBDC02C2F1200300FA6C
:1006000003FC20FA02F001FA03FE40EA0E0021FA90
:1006100002F11444BDE600BF70B54FF0FF0C4CF47E
:10062000E06C1CEA11541DBF1CEA135594EA0C0F30
:1006300095EA0C0F00F0DEF82C4481EA030621EA6B
:100640004C5123EA4C5350EA013518BF52EA0335A6
:1006500041F4801143F4801338D0A0FB02CE4FF058
:100660000005E1FB02E506F00042E0FB03E54FF088
:100670000006E1FB03569CF0000F18BF4EF0010E80
:10068000A4F1FF04B6F5007F64F5407404D25FEA7C
:100690004E0E6D4146EB060642EAC62141EA55512F
:1006A0004FEAC52040EA5E504FEACE2EB4F1FD0C71
:1006B00088BFBCF5E06F1ED8BEF1004F08BF5FEAEF
:1006C000500E50F1000041EB045170BD06F00046A1
:1006D00046EA010140EA020081EA0301B4EB5C044E
:1006E000C2BFD4EB0C0541EA045170BD41F4801146
:1006F0004FF0000E013C00F3AB8014F1360FDEBF6B
:10070000002001F0004170BDC4F10004203C35DA46
:100710000C341BDC04F11404C4F1200500FA05F3C9
:1007200020FA04F001FA05F240EA020001F000426A
:1007300021F0004110EBD37021FA04F642EB0601E0
:100740005EEA430E08BF20EAD37070BDC4F10C040A
:10075000C4F1200500FA04F320FA05F001FA04F2CE
:1007600040EA020001F0004110EBD37041F10001BA
:100770005EEA430E08BF20EAD37070BDC4F12005C5
:1007800000FA05F24EEA020E20FA04F301FA05F22D
:1007900043EA020321FA04F001F0004121FA04F2D5
:1007A00020EA020000EBD3705EEA430E08BF20EAA5
:1007B000D37070BD94F0000F0FD101F000464000DF
:1007C00041EB010111F4801F08BF013CF7D041EA61
:1007D000060195F0000F18BF704703F00046520065
:1007E00043EB030313F4801F08BF013DF7D043EA36
:1007F0000603704794EA0C0F0CEA135518BF95EAEC
:100800000C0F0CD050EA410618BF52EA4306D1D172
:1008100081EA030101F000414FF0000070BD50EA91
:10082000410606BF1046194652EA430619D094EA1B
:100830000C0F02D150EA013613D195EA0C0F05D105
:1008400052EA03361CBF104619460AD181EA030159
:1008500001F0004141F0FE4141F470014FF0000011
:1008600070BD41F0FE4141F4780170BD70B54FF0AC
:10087000FF0C4CF4E06C1CEA11541DBF1CEA13552C
:1008800094EA0C0F95EA0C0F00F0A7F8A4EB05040E
:1008900081EA030E52EA03354FEA013100F0888005
:1008A0004FEA03334FF0805545EA131343EA1263CE
:1008B0004FEA022245EA111545EA10654FEA002683
:1008C0000EF000419D4208BF964244F1FD0404F53C
:1008D000407402D25B084FEA3202B61A65EB030598
:1008E0005B084FEA32024FF480104FF4002CB6EB55
:1008F000020E75EB030E22BFB61A754640EA0C00D5
:100900005B084FEA3202B6EB020E75EB030E22BF14
:10091000B61A754640EA5C005B084FEA3202B6EB55
:10092000020E75EB030E22BFB61A754640EA9C0014
:100930005B084FEA3202B6EB020E75EB030E22BFE4
:10094000B61A754640EADC0055EA060E18D04FEAA2
:10095000051545EA16754FEA06164FEAC30343EA42
:1009600052734FEAC2025FEA1C1CC0D111F4801F0F
:100970000BD141EA00014FF000004FF0004CB6E708
:1009800011F4801F04BF01430020B4F1FD0C88BFA7
:10099000BCF5E06F3FF6AFAEB5EB030C04BFB6EBB2
:1009A000020C5FEA500C50F1000041EB045170BDA5
:1009B0000EF0004E4EEA113114EB5C04C2BFD4EBD2
:1009C0000C0541EA045170BD41F480114FF0000E56
:1009D000013C90E645EA060E8DE60CEA135594EAD2
:1009E0000C0F08BF95EA0C0F3FF43BAF94EA0C0FD5
:1009F0000AD150EA01347FF434AF95EA0C0F7FF44A
:100A000025AF104619462CE795EA0C0F06D152EA9D
:100A100003353FF4FDAE1046194622E750EA410681
:100A200018BF52EA43067FF4C5AE50EA41047FF492
:100A30000DAF52EA43057FF4EBAE12E74FF0FF3CF7
:100A400006E000BF4FF0010C02E000BF4FF0010CC8
:100A50004DF804CD4FEA410C7FEA6C5C4FEA430C41
:100A600018BF7FEA6C5C1BD001B050EA410C0CBF90
:100A700052EA430C91EA030F02BF90EA020F0020F2
:100A8000704710F1000F91EA030F58BF994208BF59
:100A900090422CBFD8176FEAE37040F00100704716
:100AA0004FEA410C7FEA6C5C02D150EA013C07D16D
:100AB0004FEA430C7FEA6C5CD6D152EA033CD3D0B8
:100AC0005DF8040B704700BF8446104662468C46B2
:100AD0001946634600E000BF01B5FFF7B7FF0028E5
:100AE00048BF10F1000F01BD4DF808EDFFF7F4FF0E
:100AF0000CBF012000205DF808FB00BF4DF808ED99
:100B0000FFF7EAFF34BF012000205DF808FB00BFBB
:100B10004DF808EDFFF7E0FF94BF012000205DF8DD
:100B200008FB00BF4DF808EDFFF7CEFF94BF012092
:100B300000205DF808FB00BF4DF808EDFFF7C4FF8B
:100B400034BF012000205DF808FB00BF4A0011D22D
:100B500012F5001211D20DD56FF47873B3EB625217
:100B60000ED44FEAC12343F0004343EA505323FA23
:100B700002F070474FF00000704750EA013002D198
:100B80004FF0FF3070474FF0000070474FEA4102CE
:100B9000B2F1E04324BFB3F5001CDCF1FE5C0DD9DB
:100BA00001F0004C4FEAC0024CEA5070B2F1004F25
:100BB00040EB830008BF20F00100704711F0804F28
:100BC00021D113F13872BCBF01F00040704741F4ED
:100BD00080114FEA5252C2F11802C2F1200C10FAF1
:100BE0000CF320FA02F018BF40F001004FEAC123D5
:100BF0004FEAD32303FA0CFC40EA0C0023FA02F379
:100C00004FEA4303CCE77FEA625307D150EA01334E
:100C10001EBF4FF0FE4040F44000704701F000401E
:100C200040F0FE4040F40000704700BF53B94AB99D
:100C3000002908BF00281CBF4FF0FF314FF0FF30E4
:100C400000F0A4B9ADF1080C6DE904CE00F03CF859
:100C5000DDF804E0DDE9022304B0704738B5002276
:100C6000002304460D46FFF749FF28B920462946D0
:100C7000BDE8384000F00AB8204605F1004100F018
:100C800005F8404261EB410138BD00BFD0B50C4BC7
:100C9000002206460F46FFF7BFFCFFF757FF04464A
:100CA000FFF740FC074B0022FFF7B6FC02460B465D
:100CB00030463946FFF7F8FAFFF748FF2146D0BD26
:100CC0000000F03D0000F0412DE9F047089D04468A
:100CD0008C46002B40F083808A42174647D9B2FAEF
:100CE00082F242B1C2F1200024FA00F09140974014
:100CF00040EA010C94404FEA1748230CBCFBF8F67D
:100D00001FFA87FE08FB16C143EA014306FB0EF1FA
:100D1000994209D9FB1806F1FF3080F019819942F8
:100D200040F21681023E3B445B1AA4B2B3FBF8F0DA
:100D300008FB103344EA034400FB0EFEA64509D924
:100D40003C1900F1FF3380F00581A64540F2028195
:100D500002383C4440EA0640A4EB0E0400261DB1D4
:100D6000D4400023C5E900433146BDE8F08702B90D
:100D7000FFDEB2FA82F2002A50D1CB1B4FEA174EA7
:100D80001FFA87F80126B3FBFEFC210C0EFB1C3377
:100D900041EA034108FB0CF38B4207D979180CF1A7
:100DA000FF3002D28B4200F2E9808446C91AA3B216
:100DB000B1FBFEF00EFB101143EA014408FB00F802
:100DC000A04507D93C1900F1FF3302D2A04500F23B
:100DD000D9801846A4EB080440EA0C40BFE78B42D8
:100DE00009D9002D00F0B1800026C5E90001304688
:100DF0003146BDE8F087B3FA83F6002E4AD18B4224
:100E000002D3824200F2B880841A61EB0301012010
:100E10008C46002DA8D0C5E9004CA5E7C2F12003FF
:100E200020FA03F6974001FA02F04FEA174ED94034
:100E30003043030CB1FBFEF61FFA87F80EFB1611C8
:100E400043EA014306FB08F1994204FA02F409D986
:100E5000FB1806F1FF3C80F08D80994240F28A80B9
:100E6000023E3B445B1A81B2B3FBFEF00EFB103333
:100E700041EA034100FB08F38B4207D9791800F1DE
:100E8000FF3C73D28B4271D902383944CB1A40EA05
:100E9000064678E7C6F1200C03FA06F422FA0CF3B2
:100EA0001C4320FA0CF701FA06F34FEA144E21FA1C
:100EB0000CF11F433B0CB1FBFEF91FFA84F80EFB4B
:100EC000191143EA014109FB08FA8A4502FA06F2C0
:100ED00000FA06F308D9611809F1FF3048D28A45B3
:100EE00046D9A9F102092144A1EB0A01BFB2B1FB25
:100EF000FEF00EFB101147EA014700FB08F8B84569
:100F000007D9E71900F1FF312ED2B8452CD90238A4
:100F1000274440EA0940A7EB0807A0FB02894F4598
:100F2000C64649461AD317D05DB1B3EB0E0267EB44
:100F3000010707FA0CFCF2404CEA0202F740C5E94F
:100F4000002700263146BDE8F0872E4628460BE7ED
:100F50000646E9E61846FDE64345E5D2B8EB020E43
:100F600069EB04010138DFE70846D2E760468DE708
:100F70008146B9E7664675E730464AE7ACF1020CB0
:100F8000394413E702383C4424E700BF704700BFF0
:100F9000DFF834D0002103E00C4B5B5843500431A0
:100FA0000B480C4B42189A42F6D30B4A02E000233E
:100FB00042F8043B094B9A42F9D304F0CDFC1BF0F4
:100FC00085FE00F00BFE70470000032080DC050862
:100FD00000000020D8020020D8020020403E00205F
:100FE000FEE700F00BBC00F079BC704710B504219F
:100FF00004461BF0F8FC204610BD000038B50C4B31
:101000000C4C18800C4B822019806368984740F67E
:10101000110398420AD1094D23682C608220984719
:101020002B688220DB689847002038BD0120FCE750
:10103000F402002050000020F6020020F8020020F8
:101040004FF4A071F020FFF7D9BF0000F7B52D4D88
:101050002B6804461B698220984780B220800028B4
:1010600043D02B680DF106025B6901A982209847E5
:10107000BDF80620A2F5B47292B20A2A37D90B2322
:10108000B2FBF3F2204B1B889A4201D95A1E92B24E
:10109000BDF8043040F6B8318B422AD8C3F57163ED
:1010A0000E339BB20F21B3FBF1F3184909888B4231
:1010B00001D94B1E9BB2164E164D30682F688342E5
:1010C00081B28CBF591AC91AB8B2BA428CBF101A71
:1010D000801A89B280B201440529C8BF33603368E1
:1010E000C8BF2A6063802B68A38003B0F0BD0022D4
:1010F000CEE7C3F56D6308339BB20E2BD2D8002325
:10110000D9E700BFF8020020F6020020F402002018
:10111000FC0200200003002037B568460D46144647
:10112000FFF794FFBDF8000030B1BDF802302B602E
:10113000BDF804302360012003B030BD7047704714
:101140007047012380F8741080F8753070470020D4
:10115000704700207047836B0BB1084618477047F3
:101160004FF6FF707047406803689B6918477047E7
:101170007047704700F054BC08B503680446DB6F45
:101180009847236820465B6F984700F0EDF8236886
:101190002046DB6E9847292000F06EFF00F0E4F84F
:1011A00023682046DB6E9847F8E710B504460AF03E
:1011B00079FA23682046D3F8A430BDE810401847D8
:1011C00000F020BC00F024BC00F048BC00F0F6BBEE
:1011D00000F048BC00F050BC00F0FABB08B531B9D3
:1011E0000A4B0B4A0B484FF42B711BF02BFCC0E948
:1011F0000F12003A0849436418BF01220A70003BED
:10120000064A18BF0123137008BD00BF98FD0108EE
:10121000D0FD01081EFE01089E3800209F380020E6
:1012200008B5094B1B888B4203D8084B1B88934297
:1012300005D9074B074A08489E211BF003FC074BC2
:101240001980074B1A8008BD94380020963800207A
:1012500063FE0108C6FE01081EFE01089A38002040
:101260009C38002009F0BCBB10B57C2104461BF063
:10127000BAFB204610BD90F877301BB14068036878
:101280001B6818471846704710B590F8341090F84E
:1012900074400C4B8C421A7809D03AB90A4A0B496F
:1012A0001488088810800C8001221A7010BD002A52
:1012B000FCD0054A05491488088810800C8000225B
:1012C000F3E700BF983800209438002096380020BB
:1012D000012108B50022084607F01EF80A4B1860E5
:1012E00028B90A4B0A4A29210A481BF0ABFB002205
:1012F0000421012007F0D6F8074B186018B9074BF6
:10130000034A2D21F0E708BD08030020DCFF010897
:10131000250002085400020804030020A40002086B
:10132000024B4FF0FF31186807F04CB8080300205B
:10133000014B186807F080B808030020024B002119
:10134000186807F03FB800BF08030020FFF7F0BFA0
:1013500003480449006800231A4607F0E9B800BFB3
:10136000040300200400002013B5084C00231A4693
:1013700001A9206807F01EF920684FF0FF33002212
:1013800001A907F017F902B010BD00BF0403002047
:1013900003685B6C18470120704703689B6A184715
:1013A00082B0002301930D4B1A6B42F400021A63C2
:1013B0001A6B02F400020192019A1A6942F40002C7
:1013C0001A611A6922F400021A61054B054A1A6172
:1013D000054B4FF080629A6002B0704700380240BF
:1013E000183D0020F513000800E100E040F2EF3066
:1013F00070470000024B1B68586803685B69184718
:10140000A038002008B50B280BD8DFE800F0120642
:10141000100A0A0A0A0808080808012008BD052061
:10142000FCE7054B054A064867211BF00BFB002033
:10143000F4E70220F2E700BFE6000208010102081B
:101440004B01020808B50A2809D8DFE800F01006A9
:101450000E080808080606060600012008BD054B10
:10146000054A064888211BF0EDFA0020F6E7022025
:10147000F4E700BFE6000208990102084B010208E8
:101480002DE9F84391F81D800C464046FFF7BAFF5E
:10149000A77F05463846FFF7B5FF06463846FFF7F3
:1014A000D1FFA18A628B4B4B521A1A649A61228B2C
:1014B000521A1A61E28A586342EA01425A64216967
:1014C0006268D963DA60D4F800C094F81C90BCF16B
:1014D000800F4FEA09629E4630D014D8BCF1200F2D
:1014E00045EA020068D0BCF1400F65D0BCF1040FA2
:1014F00020D0384B2A4342F40032B845DA6148D153
:1015000040F2012214E0BCF5807F07D0BCF5007FDB
:10151000EFD142F4003242F0090203E042F400321B
:1015200042F00A02DA61E2681A625E6259612A4A8E
:101530001A604CE040F40030D861F6E7A0682A4316
:1015400042F40032041DDC62DA6102785E625961A5
:1015500042B1012A1FD0214B214A22484FF4897100
:101560001BF070FA4288D969501E21F47F4222F0A4
:10157000100242EA0022DA610124164BDA6942F0D5
:101580002002DA61DA699206FCD410229A60002CFB
:10159000CDD1154ACCE74288D969501E21F47F424B
:1015A00022F0100242EA0022B9F1FF0442F01002D8
:1015B00018BF0124DA61E0E7074B40F40030CEF8B1
:1015C0001C00CEF82460CEF81410CEF80030BDE830
:1015D000F88300BF00B0024001020200E4010208EB
:1015E000FE0102084B0102080102010038B50C4659
:1015F000887FFFF727FFA58AE18A164B628B586325
:1016000041EA05415964521B2169D9631A6425686E
:10161000082D0ED19A611A615862207F0E4A42EA63
:101620000062DA61E2681A620C4A5961D9601A6094
:1016300038BD0022D8611A61E1680A0A480902F43B
:10164000784200F4FC600243C1F3C4010A439A6388
:10165000034AECE700B00240090001000102020069
:1016600001020300054B0360054B4FF08062C3F895
:101670008820BFF34F8FBFF36F8F7047440202087B
:1016800000E100E010B50446FFF7ECFF20464FF400
:1016900042611BF0A8F9204610BD000070B5044659
:1016A00025460A4B0C30002660602672667245F8AB
:1016B000203B602229460AF02BF904F54263EE60D4
:1016C0002035AB42FBD1204670BD00BF440202086A
:1016D000012070470C2070470C2303FB01000830E9
:1016E00070470C2303FB010008307047012070474E
:1016F00041F28870704741F2887303FB01000830A3
:10170000704741F2887303FB0100083070470120E5
:1017100070471020704700EB01100830704700EB55
:10172000011008307047084601F0A8BA10B5034B05
:101730000360044608F086FE204610BDFC02020845
:1017400010B50446FFF7F2FF204614211BF04BF9B9
:10175000204610BD10B5034B0360044608F072FE2E
:10176000204610BDC802020810B50446FFF7F2FF7C
:10177000204641F290711BF036F9204610BD000062
:1017800010B5034B0360044608F05CFE204610BD14
:101790009402020810B50446FFF7F2FF2046182114
:1017A0001BF021F9204610BD10B5094B036004461B
:1017B00000F5BD501C30FFF7B9FF04F12C00FFF716
:1017C000C9FF04F11400FFF7DBFF204610BD00BF86
:1017D0003003020808B50248FFF7E6FF08BD00BF66
:1017E0001003002010B50446FFF7DEFF204641F647
:1017F00030111BF0F8F8204610BD00002DE9F34130
:1018000001F07EF9054601F07FF9002401462346E8
:101810002846224600940FF095F8244B244A254D83
:101820001A60204601F058FD23480EF0CDFF2B78BA
:10183000BFF35B8FDB0733D428461BF0D6F878B3B1
:101840001E4C1F4F1F4B236007F11C0604F11400B0
:1018500004F12C086060C4F80880E760266108F095
:10186000F3FD194B6361404608F0EEFD174BE36250
:10187000384608F0E9FD164B3B6007F1140003F011
:1018800029F8224607F11401304602F0FFFF3046E6
:1018900001F0F4F928461BF0B4F80E481BF0F0F8FC
:1018A0000D4802B0BDE8F041FFF764BCFC380020F1
:1018B000E02800200C030020080000201003002076
:1018C000CC1A00203003020894020208C802020861
:1018D000FC020208D5170008642800200148FFF721
:1018E0004BBC00BF6428002070B5244C244E254B0F
:1018F000254D23603046FFF7D1FE284612F0F2F85E
:10190000224B2348DC6000224FF48071C3E912129D
:10191000204C21490360F020C3E9191220804FF0C8
:1019200080711E4C59670121C3E90422C3E90622D4
:10193000C3E90822C3E90E22C3E91022C3E9142235
:10194000C3E916221A8583F82A20DA621A861A66F3
:1019500083F86C201A67C3E9016583F8781020804A
:101960000F4C83F834104FF4A07020800D4C208071
:101970000D4802700D4A1A6070BD00BF401C002067
:10198000441C002088FD0108E42800206428002071
:10199000A038002094380020010000019A3800206F
:1019A000963800209C3800209838002014FF010849
:1019B0000148FFF757BE00BF441C0020034B902294
:1019C00083F85A2383F85823704700BF00E100E0F2
:1019D000094A0A49D3680A48C3F30A03013B9BB288
:1019E0000B801169C1F30A01013901801364536B43
:1019F00043F0010353637047006801405E290020F3
:101A00005C290020014B986A704700BF8468014040
:101A1000024B0122996243F8602C704784680140B0
:101A200070B5044609F031F823681D6E0BF0CAFF4B
:101A300001462046A8472368054AD3F8845020462B
:101A4000AC460023BDE87040A2F51631604700BFE8
:101A5000005802D009F000B809F00AB808F0C6BF73
:101A600009F021B9034B4FF080629A604FF0807209
:101A70009A60704700E100E0084B4FF08062C3F8C5
:101A80008820BFF34F8FBFF36F8F4FF08072C3F882
:101A90008820BFF34F8FBFF36F8F704700E100E0E6
:101AA000134B144A1B6C11888B4210B5124C13D186
:101AB000124B198804F0D6FF226892F86630013381
:101AC00082F86630FFF744FC206809F0EBFDBDE8C2
:101AD00010400020FFF732BB04F0C4FF0020FFF7E6
:101AE0002EFB20680368BDE810401B6A184700BF42
:101AF000006801405E290020A03800205C290020F9
:101B000007B5064BADF806001B68054801220DF12C
:101B1000060105F0B6FC03B05DF804FB10000020E0
:101B2000943B0020F0B5A1B0102200210AA81BF0C0
:101B300013F91422002103A81BF00EF90021302212
:101B400014A81BF009F90024224B01941A6C42F0EE
:101B500080521A641B6C03F080530193019B1E4B4F
:101B600002941A6842F440421A601B6803F440432E
:101B700002930122029B4FF48033CDE90823022512
:101B80004FF48003CDE90E5308274FF4A8730426C1
:101B900008A8CDE910731295139604F081FF0F2366
:101BA000CDE903354FF4A0514FF48053CDE906132E
:101BB00003A80521059405F049F9C023189314A83A
:101BC0004FF4003314971A961D9305F019FA21B0BB
:101BD000F0BD00BF003802400070004080B59AB0F0
:101BE00003F0C8FEFFF79EFF142200210DA8002479
:101BF0001BF0B2F8C44B00941A6BC448C44D42F0B9
:101C000020021A631A6B02F020020092009A0194DB
:101C10001A6B42F080021A631A6B02F08002019282
:101C2000019A02941A6B42F004021A631A6B02F0D2
:101C300004020292029A03941A6B42F001021A63A0
:101C40001A6B02F001020392039A04941A6B42F099
:101C500002021A631A6B02F002020492049A0594BB
:101C60001A6B42F040021A631A6B02F040020592AE
:101C7000059A06941A6B42F010021A631A6B02F06E
:101C800010020692069A07941A6B42F008021A6331
:101C90001B6B03F00803079322460421079B04F003
:101CA00003F922469B484FF4405104F0FDF8012609
:101CB0004FF00208042795480F940DA9CDE90D7641
:101CC000CDF8408004F006F80DA94FF44053914838
:101CD000CDE90D36CDE90F4803F0FCFF8E488F4B60
:101CE000036003F0D9FE8E4A8E4B2C62C5E90023B7
:101CF00028464FF48043C5E90434C5E90244C5E9E8
:101D0000064404F0B3FA1021284604F0EFFC214603
:101D1000284604F00AFD8448844984624FF48273A3
:101D2000C0E900134FF400751823C0E906530A23D5
:101D30007F4DC362C0E90244C0E90444C0E90844DD
:101D400005F062FB7B4BCDF834804FF0100CC5E9F9
:101D500000364023C5E904C34FF4C073C5E9063417
:101D60004FF40063C5E908344FF400534FF0030902
:101D7000AB620DA907232846CDE90E3710934FF02B
:101D8000080AC5E90247CDE91198CDF84C8005F065
:101D900061FA4FF6FF7209A92846CDE90AA6089410
:101DA00009960C9405F076FA304603F00FFE4FF6D4
:101DB000FF7209A92846CDE9098ACDE90B6405F02F
:101DC00069FA4FF6FF7209A92846CDE9099ACDE9CB
:101DD0000B7405F05FFA4FF40C730893089B0C9397
:101DE0004FF6FF7209A92846CDE9097A0B9605F04E
:101DF00051FA40F26A51284605F063FA342221462E
:101E00000DEB02001AF0A8FF4B4D4C4BAC86C5E918
:101E100000340923C5E905361D2340F20D1EC5E92E
:101E2000073940F24313C5E909E3284640F2471356
:101E300040F2171AC5E90BA3C5E902442C6185F8E5
:101E4000364004F017FDFF21F022CDE912144FF4C3
:101E5000806005214FF4A073CDE91401CDE90E2473
:101E60000DA9CDE9164228462246354D1893CDE9F5
:101E700010380D94ADF864408DF8664004F0C5FD4F
:101E8000304B2B601B6898472B682F4DDB689847B9
:101E90002E4BC5E90A48C5E90C442846C5E900347B
:101EA000C5E9028403F01AFE3146284603F0CEFE4F
:101EB000274D28484FF41653C0E900530C23C0E9BE
:101EC0000534C0E902440461C46105F0E1FEFFF796
:101ED00088F806F077F922463946484606F0F0FEC3
:101EE0001D4B224618603946484606F0E9FE1B4B5A
:101EF0001B4A186021461B4806F09EF91A4B1B4AE4
:101F00001860214634E000BF00380240000802405B
:101F1000403B0020000C0240EC3B0020003002401F
:101F2000005C0040A0860100943B0020005001406E
:101F3000583D0020400100A0F83B0020006801400F
:101F40006029002018000020183D002000B0024049
:101F500000100140D43C0020C82A0020CC2A0020D8
:101F60009C03020871230008F43B00207803020858
:101F7000034806F061F9034B186006F03DF9FEE7EF
:101F8000E70F0008143D0020704770477FB5094BEC
:101F90008DF817201B6802930DF1170201230092A0
:101FA00001930A460146044804F008FA07B05DF8B8
:101FB00004FB00BF0C000020403B00207FB5002345
:101FC0008DF81730084B1B6802930A4601230DF168
:101FD0001701009101930146044804F07FFA9DF82F
:101FE000170007B05DF804FB0C000020403B002008
:101FF0001FB5084C24680092CDE901340A4601233C
:102000000146054804F06AFA003818BF012004B000
:1020100010BD00BF0C000020403B002003F0D6BCE8
:1020200008B506480022042103F03EFFBDE8084041
:1020300002480122042103F037BF00BF000802401C
:1020400038B50B4D044601220A484FF4005103F005
:102050002BFF00220421284603F026FF2046FFF72D
:102060004FFD28460122BDE83840042103F01CBF83
:1020700000080240000C024038B50B4D0446002217
:102080000A484FF4005103F00FFF002204212846B4
:1020900003F00AFF2046FFF733FD28460122BDE882
:1020A0003840042103F000BF00080240000C024049
:1020B000F7B5144E144F05460C4630460022042155
:1020C00003F0F2FE00224FF40051384603F0ECFE1C
:1020D0002846FFF715FD0D4B0D481B68224601A948
:1020E00005F062FB384601224FF40051019C03F0D9
:1020F000DBFE30460122042103F0D6FE204603B069
:10210000F0BD00BF00080240000C0240100000209B
:10211000943B002003F05ABC70B50446FEF768F803
:1021200000221346824218DB1D099F2B03F00F0388
:1021300094BF303537350320092B94BF03F13004A9
:1021400003F137041AF0EAFDEDB2064605492346CD
:102150002A461BF05FFA304670BDA15C5B1ADBB209
:102160000132DFE73C03020838B5FDEEC07A642394
:1021700017EE905A95FBF3F56B432DED028B08EEAD
:10218000103AB8EEC88A0A2330EE480A0420FDEE61
:10219000C07A303517EE904A94FBF3F4634308EEAF
:1021A000103AB8EEC88A303430EE488A1AF0B6FDDC
:1021B000FDEEC88AF2EE047A18EE903AF8EEE88A5C
:1021C000303338EE688A837028EE278A0570BDEEBA
:1021D000C88A447018EE103A3033C370BDEC028BDD
:1021E00038BD38B5FDEEC07A642317EE902A92FB15
:1021F000F3F253432DED028B08EE103AB8EEC88A85
:10220000022030EE488A0A24FDEEC87A17EE905A72
:102210001AF084FD95FBF4F505F13003037004FB1F
:1022200005F300EE103AB8EEC00A38EE408ABDEE73
:10223000C88A18EE103A30334370BDEC028B38BDBB
:10224000F8B50E4614460546B8B902233F27137069
:102250005070977003201AF061FD3B4623490646F3
:102260002A461BF0D7F93046FFF756FF0378E37094
:102270004378237103236371F8BD0128FCD191EDEC
:10228000010AFFF771FF96ED020A0546FFF7A9FF65
:1022900002232370002363705423A3702B78E37010
:1022A0006B782371AB7863712E23A371EB78E371A4
:1022B00046232372037863724378A3722346522223
:1022C00003F80B2F302104F11B0203F8011F9A427F
:1022D000FBD11B201AF022FD1B22611C1BF0FDF913
:1022E0003223237763770323A377C5E73C030208F0
:1022F000F0B52DED028B044683B0062008EE101ACF
:102300001AF00CFD074603201AF008FD06460C20C3
:102310001AF004FDE37901936379E27800930546AE
:102320002379114938461BF075F9A37A627A0F496F
:1023300030461BF06FF938461AF0A8FB51EC100B31
:10234000FEF724FC286030461AF0A0FB51EC100B7D
:10235000FEF71CFCB8EEC88A6860284685ED028A44
:1023600003B0BDEC028BF0BD410302083C03020840
:102370002DE9FF41414F4FF0FF344FF00008404D31
:10238000404E2868002201A906F06AFE2868002253
:1023900002A906F065FE2868002203A906F060FE87
:1023A000DDED017A384AFDEEE77A01A917EE900AD1
:1023B000FFF746FFDDED017AFDEEE77A17EE905A62
:1023C0008DBB314931484FF47A73062205F08EFCFB
:1023D0002E484FF47A733322394605F0E3FC003877
:1023E00018BF0120444221463846FFF781FF0023F1
:1023F000054601464FF4FA72306806F0C9FC291D03
:10240000306800234FF4FA7206F0C2FC30680023F3
:102410004FF4FA7205F1080106F0BAFC4FF47A7035
:1024200005F060FFABE7012DDDD1174917484FF4E8
:102430007A731F2205F05AFC08F1010813484FF483
:102440007A730622394605F0ADFCB8F10A0F0BDDB0
:1024500028461AF063FC0E4B0360014600233068E7
:102460004FF4FA7206F094FCBB78062BBBD1002324
:102470000193029303934FF00008B4E7A03C0020BF
:10248000CC2A0020C82A00208C3D0020D43C00200B
:10249000000070C302490348052205F0E2BC00BFFA
:1024A000A03C0020D43C00200268034B9A4201D19A
:1024B00003F07ABA704700BF0010004082B00E4BA4
:1024C00000220092596C41F480415964596C01F426
:1024D0008041009100990192196C41F0805119647A
:1024E0001B6C03F080530193019B0F216FF00100DF
:1024F00002B003F091BA00BF003802400268094BF5
:102500009A4282B00BD100230193074B1A6B42F41D
:1025100080521A631B6B03F480530193019B02B03A
:10252000704700BF003002400038024007B50F4B33
:1025300002689A4216D10022A3F5F0430192196B6A
:1025400041F4000119631B6B03F40003019305219F
:102550005A20019B03F060FA5A2003B05DF804EBA7
:1025600003F08CBA03B05DF804FB00BF00B002407A
:102570002DE9F043044689B01422002103A81AF083
:10258000EBFB2268244B9A4243D1244C244800257B
:102590000095236B43F004032363236B03F00403D0
:1025A0000093009B0195236B43F001032363236B8E
:1025B00003F001030193019B4FF012094FF40073E4
:1025C0004FF001080327042603A9CDE90339CDE91B
:1025D0000587079603F07EFB4FF48073114807963A
:1025E00003A9CDE90339CDE9058703F073FB029513
:1025F000236C43F400032364236C03F4000302936D
:10260000029B236A43F400032362236A23F400033A
:10261000236209B0BDE8F083005C0040003802404E
:102620000008024000000240F0B504468DB01422BC
:10263000002107A81AF090FB2268574B9A4240F0FD
:10264000A98003F55043002400945A6C534842F08B
:1026500080625A645A6C02F080620092009A01947F
:102660001A6B42F020021A631A6B02F020020192E8
:10267000019A02941A6B42F001021A631A6B02F07B
:1026800001020292029A03941A6B42F002021A6348
:102690001A6B02F002020392039A04941A6B42F03E
:1026A00040021A631A6B02F040020492049A0594E5
:1026B0001A6B42F004021A631A6B02F004020592CC
:1026C000059A06941A6B42F008021A631B6B03F01A
:1026D0000803069302250E26069B0B964FF4806393
:1026E00007A9CDE90735CDE9094503F0F3FA41F62D
:1026F00058032B480B9607A9CDE907350927CDE9E3
:10270000094503F0E7FA032326480B9707A9CDE90B
:102710000735CDE9094503F0DDFA4FF47063214830
:102720000B9607A9CDE90735CDE9094503F0D2FAA3
:102730004FF40C631C480B9607A9CDE90735CDE98A
:10274000094503F0C7FAC02318480B9607A9CDE93D
:102750000735CDE9094503F0BDFA082314480B9667
:1027600007A9CDE90735CDE9094503F0B3FA4FF4E0
:10277000A0530D480B9707A9CDE90735CDE90945C9
:1027800003F0A8FA58202246052103F045F9582005
:1027900003F074F90DB0F0BD006801400014024070
:1027A00000000240000402400018024000080240FD
:1027B000000C024010B5044688B01422002103A882
:1027C0001AF0CAFA2268154B9A4224D103F56843DD
:1027D00000220192596C41F480115964596C01F442
:1027E0008011019101990292196B41F02001196346
:1027F0001B6B059203F0200302934FF46071029B60
:102800000223CDE9031303200523CDE9060303A921
:10281000034803F05FFA08B010BD00BF005001404C
:102820000014024010B5044688B01422002103A809
:102830001AF092FA2268194B9A422CD103F594337C
:10284000002401945A6C164842F010025A645A6CE3
:1028500002F010020192019A02941A6B42F00102F6
:102860001A631B6B059403F0010302934FF4C062DB
:10287000029B0223CDE9032303210723CDE906139D
:1028800003A903F027FA25202246052103F0C4F806
:10289000252003F0F3F808B010BD00BF0010014080
:1028A000000002402DE9F0412C4B1C6886B0002C42
:1028B00050D14FF00108C3F80080294B00949A6B67
:1028C000284842EA08029A639B6B039403EA0803D0
:1028D0000093022703260C25009B01A94FF63F0316
:1028E000CDE90137CDE9046503F0F4F91E480595FB
:1028F00001A9CDE90187CDE9034603F0EBF948F2E0
:1029000033131A48059501A9CDE90137CDE90346EE
:1029100003F0E0F94FF683731548059501A9CDE959
:102920000137CDE9034603F0D5F94CF203731148A2
:10293000059501A9CDE90137CDE9034603F0CAF9B0
:1029400060230D48059501A9CDE90137CDE903467E
:1029500003F0C0F906B0BDE8F08100BF6429002093
:1029600000380240001402400008024000180240F3
:1029700000100240000C02400004024030B5014645
:1029800089B00022362003F047F8362003F076F8AD
:102990000025154B02951A6C144C42F010021A6473
:1029A0001B6C03F01003029301A903A8029B04F01F
:1029B00009FB04F0E7FA0E4B236040F2E733E360D3
:1029C00040000C4BB0FBF3F00138606020462561FD
:1029D000A56005F09DF820B9204604F07DFF09B000
:1029E00030BD0120FBE700BF00380240AC3D0020B5
:1029F0000010004040420F007047FEE7FEE7FEE790
:102A0000FEE77047014805F091BA00BFD43C0020B2
:102A1000014804F075BF00BFAC3D0020014803F041
:102A200097BF00BFF83B0020014803F085B800BF06
:102A3000183D00200120704708B51AF039F8162318
:102A400003604FF0FF3008BD08B51AF031F81623C7
:102A50000360FEE770B50E4614460025A54201DB73
:102A6000204670BDAFF3008070550135F6E770B5B4
:102A70000E4614460025A54201DB204670BD705D60
:102A8000AFF300800135F6E74FF0FF3070474FF4A9
:102A900000534B60002070470120704700207047B2
:102AA000704710B50421044619F09DFF204610BD63
:102AB00008B5062921D8DFE801F004080C10141825
:102AC0001C0000F055FC006808BD00F051FC406897
:102AD000FAE700F04DFC8068F6E700F049FCC068BA
:102AE000F2E700F045FC0069EEE700F041FC4069C8
:102AF000EAE700F03DFC8069E6E70020E4E700003B
:102B000000487047D40302081120704713B5002411
:102B100051B1036801948DF8034001AA9C680DF13E
:102B20000303A04702B010BD0846FBE74089704789
:102B3000808970478088704783798088184480B284
:102B40007047C07900F07F007047C079C0097047B6
:102B5000704710B50821044619F045FF204610BD06
:102B6000704700F596730868496803C3704770475B
:102B70007047416070477047012303727047704788
:102B8000704710B4C26841685410034601EB6200FC
:102B9000D20748BF0A599B685DF8044B48BFD35819
:102BA000184743682BB183682BB9C06800F0010057
:102BB0007047184670470120704710B50C21044635
:102BC00019F011FF204610BD10B51021044619F070
:102BD0000AFF204610BD10B54FF4AC71044619F041
:102BE00002FF204610BD10B50AF0ECFE0368BDE8F8
:102BF00010401B6B184710B50446D0F83C0158B183
:102C00000368DB68984738B1D4F83C0103689B68D7
:102C100098470023C4F83C3110BD0000F8B50446C5
:102C200017460E460AF0EEFE104B0025C4E9547616
:102C30000F4E1C60C4E952550E4B306823600E4B9A
:102C4000C4E95035036801219B68C4E94E55984793
:102C5000284600F041FB336893F876200AB1D86C1F
:102C600000B9986812F089FD2046F8BDEC380020C4
:102C7000A03800208008020868080208064BC0F847
:102C800048310023C0F84C3100F5A073C0F844016E
:102C9000C0F83C31704700BFDD2D00082DE9F84F2A
:102CA00007469068DDF828A0994603681B6A8846A5
:102CB0001446984741F28773984205D8414B424ADF
:102CC000A321424819F0BEFE606803681B6A98475A
:102CD0000F2803D83E4B3C4AA421F2E7E068036882
:102CE0001B6A98470B2803D83A4B374AA521E8E7D7
:102CF0000AF068FE0AF06CFED9F8000010B1036813
:102D0000DB689847D9F8000010B103681B68984742
:102D1000386810B103685B699847D8F8000010B1B3
:102D200003685B689847386810B103681B68984768
:102D3000D8F8000010B103689B689847E068036802
:102D400000215B6A98474FF0000B234B0360054658
:102D5000C0F804B080F808B0A068036859465B6A00
:102D60009847064602F06EFA6068036859465B6A47
:102D700098473146044602F05DF9C9F80050C8F89A
:102D800000403E60E4B1231DCAF804303368C4F843
:102D900008A03046DB68F4639847236820461B6828
:102DA0009847294630460CF0D9F92B6828461B690C
:102DB00098472B6828465B6998472046BDE8F88FFE
:102DC0002346E1E738050208C6050208D0060208D6
:102DD00017070208BA070208C408020807B5D0F8A6
:102DE00054310093D0F85021044B00F59C710448F5
:102DF000FFF754FF03B05DF804FB00BFE03800208C
:102E0000DC380020006A7047406A704770478B8842
:102E100080690A68DB0A50F823001044704710B537
:102E2000C2B1137BB3B1547BD27A240204F4E064C0
:102E30001443C26998B202EB840213888B4202D118
:102E400092F9020010BD05D8013880B20432002882
:102E5000F3D1F7E70020F5E710B52821044619F073
:102E6000C2FD204610BD000030B589B00446BDF853
:102E700050500695BDF84C5005959DF8405004956E
:102E80009DF83C5003959DF8385002959DF83450BC
:102E900001959DF8305000950BF0C0FD064B236066
:102EA000119BA361129BE361159B2362169B6362D6
:102EB000204609B030BD00BFE80802087047000096
:102EC00030B5154D2C78BFF35B8F14F001048DB035
:102ED0001FD1284619F089FDD8B13F2307930F4B26
:102EE00006930F4B0F4910480894CDE90443012283
:102EF0000423CDE90132CDE909440C2319220394BE
:102F00000094FFF7B1FF284619F07BFD074819F040
:102F1000B7FD05480DB030BD68290020F05F0208FC
:102F20000C600208E85B02086C290020BD2E000836
:102F30007047000030B5154D2C78BFF35B8F14F04F
:102F400001048DB01FD1284619F04FFDD8B13F23A1
:102F500007930F4B06930F4B0F4910480894CDE988
:102F6000044301220423CDE90132CDE909440E23B3
:102F70000B2203940094FFF777FF284619F041FDD8
:102F8000074819F07DFD05480DB030BD942900209B
:102F9000F45F020810600208485D020898290020CA
:102FA000312F00087047000030B5154D2C78BFF365
:102FB0005B8F14F001048DB01ED1284619F015FD69
:102FC000D0B13F2307930F4B06930F4B0F49104887
:102FD0000894CDE904430823CDE9004312221C23C1
:102FE000CDE90944CDE90244FFF73EFF284619F038
:102FF00008FD084819F044FD05480DB030BD00BF7C
:10300000C0290020F85F020814600208E45D02088D
:10301000C4290020A52F00087047000030B5164DC8
:103020002C78BFF35B8F14F001048DB020D12846BB
:1030300019F0DBFCE0B13F230793104B0693104BD4
:10304000104911480894CDE9044301220423CDE935
:1030500001320523009310221823CDE9094403947B
:10306000FFF702FF284619F0CCFC084819F008FDCC
:1030700005480DB030BD00BFEC290020FC5F020800
:1030800018600208E05E0208F029002019300008EC
:103090007047000030B5154D2C78BFF35B8F14F0EE
:1030A00001048DB01ED1284619F09FFCD0B13F23FA
:1030B00007930F4B06930F4B0F49104808940122BA
:1030C000CDE904430423CDE90132CDE909440A23C3
:1030D00003940094FFF7C8FE284619F092FC0848B4
:1030E00019F0CEFC05480DB030BD00BF182A0020F5
:1030F000006002081C600208C05F02081C2A002051
:10310000913000087047000030B5154D2C78BFF3A2
:103110005B8F14F001048DB01ED1284619F065FCB8
:10312000D0B13F2307930F4B06930F4B0F49104825
:1031300008940122CDE904430423CDE90132CDE90D
:103140000944142303940094FFF78EFE284619F0D7
:1031500058FC084819F094FC05480DB030BD00BF7C
:10316000442A00200460020820600208D05F0208A0
:10317000482A0020053100087047000030B5154D81
:103180002C78BFF35B8F14F001048DB01ED128465C
:1031900019F02BFCD0B13F2307930F4B06930F4B35
:1031A0000F49104808940122CDE904430423CDE9D6
:1031B0000132CDE90944282303940094FFF754FE1B
:1031C000284619F01EFC084819F05AFC05480DB0B5
:1031D00030BD00BF702A0020086002082460020889
:1031E000E05F0208742A002079310008002070474F
:1031F000002070470EB403B503AB002153F8042B35
:1032000001930BF041FA02B05DF804EB03B0704794
:103210000CB407B504AB53F8042B01930BF034FA4C
:1032200003B05DF804EB02B070470000436C10B5CA
:10323000044673B3038F2BB9184B194AC0211948A0
:1032400019F000FCC38E00EB43035B8C0BB30CF056
:10325000F3FC238F012B03D8134B144AC521EEE74F
:10326000E28E531C9BB2092B194688BFA3F10A01B9
:1032700004EB410140F63F10498C814209D10A2BF1
:1032800004EB420228BF002304EB4303508C588414
:1032900051842046BDE810400CF0B2BB380902084A
:1032A00041090208EC090208360A0208440A020829
:1032B0000CF05EBB10B586B002AC84E806001A467E
:1032C0000AAB05930193099B00932146089B09F0E3
:1032D000F0FE06B010BD000038B518BB124B134805
:1032E0001B681349B3B11A689C681A4402605A6893
:1032F0001A440A601C440F4B00221A8000F038F870
:10330000054600F033F80C4B1C600C4B1D600C4B59
:10331000188007E00B4B03600B4B0B600B4B1C68DA
:10332000002CE8D138BD00BF9C2A0020A02A002034
:10333000A42A0020A82A0020F0380020F838002015
:10334000F4380020CC60020828600208F06102080E
:10335000044B1B6853F82100034B1B6803EB400030
:10336000704700BFA42A0020A02A0020292070470F
:1033700000487047AC2A002010B5FFF7C5FE0A4C84
:103380002060FFF7FBFE6060FFF784FEA060FFF7A0
:103390000BFEE060FFF742FE2061FFF7CBFD6061AE
:1033A000FFF78EFDA06110BDAC2A00200020704701
:1033B00081807047C18070470181704741817047AB
:1033C0007047704770477047704710B4C4880368EF
:1033D000121B84881B6D091B12B25DF8044B09B2E5
:1033E00018474FF6FF7383814FF0FF330362136872
:1033F000C36110607047806A704790F825201AB149
:1034000090F8242002B1186070477047704710B5DB
:103410004FF41A71044619F0E6FA204610BD000078
:10342000074A02600022C0E90122C0E90322C0E984
:103430000522C0E907224FF480728284704700BFE2
:10344000F429020870B503680446DB6A15469847FC
:103450002368294620461B6BBDE8704018470000D2
:1034600038B5262204460D46002119F075FC204689
:10347000FFF7D6FF064B23602B88E384FF2320460B
:1034800084F82830294608F080FD204638BD00BF6A
:103490003027020810B526220446002119F05CFCF2
:1034A0002046FFF7BDFF074B2360074BA3624FF693
:1034B000FF73A3854FF47F020023C4E90C322387F6
:1034C000204610BD7C250208300502082DE9F04F8A
:1034D0002DED048B044683B026460025FFF7A0FFA0
:1034E000CE4BA56246F82C3B4FF6FF776946304637
:1034F000ADF80070FFF7B4FF04F1580369461846B1
:1035000008EE103AADF80070FFF7AAFF04F184034B
:103510006946184608EE903AADF80070FFF7A0FF34
:1035200004F1B0036946184604F1DC0A09EE103ACA
:10353000ADF80070FFF794FF5046FFF7ABFFDFF8E0
:1035400008B3C4F8DCB004F58E731846C4F81851FB
:1035500004F5AC7909EE903A04F5CC78FFF79AFFC0
:103560004846FFF797FF04F5EC77C4F858B1C4F864
:1035700094514046FFF78EFFC4F898B1C4F8D45177
:103580003846FFF787FFA64BC4F8D8B11022A360D6
:1035900031213046C4F81452FFF754FF072369461F
:1035A000304684F85150ADF8003008F0EEFC0522AA
:1035B00018EE100A1E21FFF745FF4FF0060B18EE1C
:1035C000100A694684F87D50ADF800B008F0DDFCC3
:1035D000052218EE900A0F21FFF734FF18EE900A2B
:1035E000694684F8A950ADF800B008F0CEFC052279
:1035F00019EE100A2946FFF725FF19EE100A694651
:1036000084F8D550ADF800B008F0BFFC0F2231218E
:103610005046FFF717FF4FF07F43C4F80C31814B42
:10362000A4F810511B6804F5067B2BB97E4B7F4A2A
:10363000AE217F4819F006FA7E4B1B88222B03D857
:103640007D4B7A4AAF21F4E77C4B22211868FFF7C3
:103650007FFE7B4A03460A2158460DF0A7F8C4F8BE
:1036600018B1504608F034FB764B0093694621238D
:103670005046ADF8043008F048FB0F2219EE900ACE
:103680002C21FFF7DFFE6F4B00934FF07F4120238B
:1036900019EE900AC4F84C11A4F850516946ADF8DF
:1036A000043008F032FB1E212A464846FFF7CAFEC6
:1036B0004FF07F41C4F888115A49A4F88C510B6827
:1036C00004F50B7B002BB1D05A4803881F2BB7D9C8
:1036D0005A4A1F211068FFF73BFE594A03460A2148
:1036E00058460DF063F8C4F894B1484608F0F0FA73
:1036F000544B009369461E234846ADF8043008F049
:1037000004FB0F212A464046FFF79CFE4549A4F8DA
:10371000CC510B684FF07F4CC4F8C8C104F5107B46
:10372000002B83D043480388242B89D9434A242182
:103730001068FFF70DFE424A03460A2158460DF075
:1037400035F84046C4F8D4B108F0C2FA3D4B0093B6
:1037500069461D234046ADF8043008F0D6FA2946E4
:103760002A463846FFF76EFE2E49A4F80C520B6825
:103770004FF07F4CC4F808C204F51575002B3FF4D8
:1037800055AF2C480388232B7FF65AAF2B4A2321B1
:103790001068FFF7DDFD2A4A03460A2128460DF08E
:1037A00005F83846C4F8145208F092FA254B0093F5
:1037B00069461C233846ADF8043008F0A6FA3146B5
:1037C000204606F0B9FE18EE101A204606F0B4FEA8
:1037D00018EE901A204606F0AFFE19EE101A204699
:1037E00006F0AAFE5146204606F0A6FE19EE901AF3
:1037F000204606F0A1FE4946204606F09DFE4146C1
:10380000204606F099FE2046394606F095FE2046F1
:1038100003B0BDEC048BBDE8F08F00BF2C0C020898
:1038200045002100F0380020160B0208580B020852
:10383000860B0208F4380020CD0B0208FC3800206B
:103840001F0C0208300502088826020870477047DE
:1038500010B5D021044619F0C6F8204610BD00006E
:103860002DE9F74F04462546FFF7DAFD0026344BD5
:10387000A66245F82C3B4FF026094A4631462846B9
:1038800019F06AFA2846FFF7CBFD2E4BE36204F1EC
:103890005808FF2304F1940784F8523066654046C7
:1038A000FFF7F8FD3846FFF7F5FD274BA3603246DA
:1038B00031462846FFF7C6FD2846F021FFF77CFD7C
:1038C00028464FF4A071FFF779FD4FF0FF33DFF882
:1038D0007CB06365682240465721FFF7B3FDDFF8EF
:1038E00070A0C4F888B0252369464046A4F88C60CF
:1038F000ADF80430CDF800A008F007FA852249465B
:103900003846FFF79FFD69463846C4F8C4B0A4F8AE
:10391000C860CDF800A0ADF8049008F0F6F929468B
:10392000204606F009FE4146204606F005FE2046E8
:10393000394606F001FE204603B0BDE8F08F00BF17
:10394000BC0C020824260208F00040010000FFFF22
:1039500030050208683001F0F9B9000038B5084BAD
:103960000360084B836604464FF469756359601918
:103970001B68403D9847B5F5297FF7D1204638BDF3
:103980004C0D0208F414020810B50446FFF7E6FFD8
:10399000204640F20C4119F026F8204610BD0000E8
:1039A0002DE9F341064600252A4A85624FF48073CB
:1039B000C0E90155C0E90355C0E90555C0E90755FF
:1039C000838446F82C2BA0F85030234BC3624FF66B
:1039D000FF73DFF89080A0F8583000F168074FF4CB
:1039E0007F030446C0E90C55C0E90E55C0E91055E7
:1039F000C0E91255C0F85480C5650366A0F864504C
:103A0000384601F0C7F8154BA36030464421FFF754
:103A1000CFFC30460321FFF7CDFC4FF07F43E36539
:103A2000694601233046A4F86050ADF80430CDF863
:103A3000008008F06AF90A4BE3663146204606F03A
:103A40007BFD2046394606F077FD204602B0BDE8F2
:103A5000F08100BF4C0D02087C25020856002400AE
:103A60000F0002003005020870477047704770472A
:103A700030B4C26844685510034604EB6200D207B4
:103A800048BF62599B6830BC48BFD3581847436849
:103A90002BB183682BB9C06800F00100704718464D
:103AA00070470120704790F82D3080F89A3080F8E8
:103AB0005C30704790F82D3080F85C3070470146DC
:103AC000343091F82C3013B1623108F05EBA6031B5
:103AD000FBE708B590F82C3033B1D0F8A430C0F82B
:103AE0009430FFF7ECFF08BDD0F8A030F7E710B531
:103AF0006421044618F077FF204610BD10B5A821B8
:103B0000044618F070FF204610BD10B51021044681
:103B100018F069FF204610BD10B5044600F5AC70E2
:103B200001F0A0F904F26450BDE8104001F09AB928
:103B300010B50446006B50B10368DB68984730B19C
:103B4000206B036821469B68BDE81040184710BDF4
:103B500000F1B0028A4203D10368D3F888301847D5
:103B600070470B7970B590F82C6004460D469BB9F0
:103B70008EB9B3FA83F35B0984F82C3023682046AE
:103B8000D3F888309847236820465B69984716B178
:103B90002B79012B03D070BD002EFCD0E9E7236800
:103BA0002046D3F88430BDE87040184770B50368EC
:103BB00004465B6B154698472368294620469B6B55
:103BC000BDE8704018470B8870B5A0F86030054616
:103BD000138825F8623F044628460CF0C7FE0646C7
:103BE00028460CF0FDFE31B202B22046FFF7DEFFA0
:103BF00023682046D3F88830BDE87040184738B5B0
:103C00000446C025635960191B68403D984715F16B
:103C1000400FF7D1204638BD70B50B4B0B4E0C4D05
:103C200003600446C0F86465C0F8CC5500F648004F
:103C3000FFF7E5FFC4F85861C4F8C05104F23C40F6
:103C4000FFF7DDFF204670BD2C0F02084C0D020867
:103C5000F414020810B50446FFF7DEFF20464FF4C7
:103C6000186118F0C0FE204610BD0000F7B50446EC
:103C7000FFF7D6FB4FF47F432646A385012300259B
:103C800084F824301E4BA562256346F8343B4FF67A
:103C9000FF7701A93046ADF80470FFF7E1FB2A4633
:103CA00029463046A4F86070A4F86270FFF7CAFB9A
:103CB00031462046264606F03FFC124B46F8643B50
:103CC00026222946304619F047F83046FFF7A8FB70
:103CD0000D4B63660D4BC4F88C304FF47F032046C8
:103CE000C4E92855A4F89070C4F89450C4F89830EA
:103CF000A4F89C50314606F01FFC204603B0F0BDEE
:103D0000DC0D0208780E02087C2502083005020846
:103D10002DE9F04F044687B027460025FFF780FBCA
:103D2000614BA56247F82C3B04F158094FF6FF762A
:103D300004A9384604F18408ADF81060FFF790FB41
:103D400004A94846ADF81060FFF78AFB04A9ADF856
:103D50001060404604F1B006FFF782FB04F5AC7B2F
:103D60003046FFF783FF04F2645A584601F0B0F87A
:103D7000504601F0ADF84D4BC4F870394C4BC4F8C7
:103D800078394C4BA3601E2229463846C4F8744942
:103D9000C4F87C59FFF756FB082304A93846ADF850
:103DA000103008F0F2F8252248466B21FFF74AFB55
:103DB0000A2304A94846ADF8103008F0E6F8252299
:103DC00040460721FFF73EFB092304A94046ADF812
:103DD000103008F0DAF80B23ADF80C300C230DEBA3
:103DE000030104AA3046ADF81030FFF7ECFE2A4676
:103DF000294604F1E400FFF725FB2F4B049304F55B
:103E00008A70062304A9ADF81430019007F07DFFF5
:103E1000B4F9BA20B4F9B8100198FFF7C7FE0198B9
:103E20002A462946FFF70EFB01981E22C821FFF7FC
:103E3000BDFE224B3046C4E95433FFF74AFE2A4602
:103E400029463046FFF7FEFA30461E22C821FFF70A
:103E5000ADFE04F51763C4F8E030584625226B2107
:103E6000FFF7F0FA252250460721FFF7EBFA394613
:103E7000204606F061FB4946204606F05DFB4146C0
:103E8000204606F059FB3146204606F055FB5946C0
:103E9000204606F051FB2046514606F04DFB2046D9
:103EA00007B0BDE8F08F00BF2C0F0208140F020806
:103EB000513B0008C8005000300502080A0A0AFFFA
:103EC000704770477047704770477047704770473A
:103ED00070477047704730B4C26844685510034655
:103EE00004EB6200D20748BF62599B6830BC48BFF0
:103EF000D358184743682BB183682BB9C06800F0CA
:103F000001007047184670470120704790F82D3027
:103F100080F8903080F85C30704710B594210446EA
:103F200018F061FD204610BD10B51021044618F0B0
:103F30005AFD204610BD10B50446683094F82C3068
:103F40003BB104F1660108F020F82046FFF7B7FD09
:103F500010BD04F16401F6E710B5044600F53A70AF
:103F600000F0C6FF04F6744001F0EAF904F5B05021
:103F700000F064FF04F5B6501030BDE8104001F0C9
:103F80006CB900F19802914202D103689B6B18470B
:103F900000F59672914202D103685B6BF7E700F57A
:103FA000E072914202D10368DB6AF0E700F5157216
:103FB000914202D103681B6BE9E770470B88B0F9A7
:103FC00008102DE9F041A0F864301388A0F866309D
:103FD000044601EBD17110461746C1F34F050CF0B2
:103FE000C5FCB4F90A30804603EBD3733846C3F3FB
:103FF0004F060CF0F5FCA5EB5801A6EB500212B2EF
:1040000004F1680009B2FFF71DFA23682046D3F8CF
:104010008830BDE8F041184738B504461D46FFF723
:1040200011FABDF9102029462046FFF7BFFD38BD23
:1040300010B526220446002118F08EFE2046FFF718
:10404000EFF9044B2360FF2384F826300023A3629A
:10405000204610BD2426020870B50B4B0B4E0C4DAC
:1040600003600446C0F8BC64C0F8245500F5F46051
:10407000FFF7C5FDC4F8B060C4F8185104F56570C9
:10408000FFF7BDFD204670BDF41102084C11020877
:10409000F414020810B5094B0360094BC0F8743CD6
:1040A000044600F67440FFF7D7FF064BC4F8E83229
:1040B00004F53A70FFF7B0FD204610BD78100208F5
:1040C0006C190208DC16020810B50446FFF7E2FF7F
:1040D000204641F2847118F086FC204610BD10B5D0
:1040E0000446FFF7B9FF20464FF4186118F07BFC37
:1040F000204610BDF7B50446FFF792F94FF47F4311
:104100002646A3850123002784F82430174BA76295
:10411000276346F8343B4FF6FF7501A93046ADF8EA
:104120000450FFF79DF93A4639463046A4F86050EE
:10413000A4F86250FFF786F93146204606F0FCF9F4
:1041400004F168060A4B236001A9A4F86450A4F89E
:1041500066503046ADF80450FFF782F920463146EC
:1041600006F0EAF9204603B0F0BD00BFDC0D0208FE
:10417000C00F02082DE9F04F2DED048B044687B0E7
:10418000A34600250AF03EFEAF4BE5634BF8403BEB
:104190005846FFF74DFF04F16C03184604F19809E7
:1041A00008EE103A04F59678FFF742FF4846FFF70D
:1041B000A1FF04F5E0774046FFF79CFF04F5157674
:1041C0003846FFF797FF3046FFF794FF04F53A7340
:1041D000184608EE903A00F0F1FE04F674431846D3
:1041E00009EE103A04F5B65A01F00CF904F5B05393
:1041F0000AF1100A184609EE903A00F029FE5046DE
:1042000001F04EF841F27473E21803928F4AE250C3
:10421000039B8F4A5C6041F27C732946E25004F5AF
:10422000BC532A461D604FF4A07300935846F023F8
:10423000FFF7F2FE4FF07F43A3664FF4A07318EE32
:10424000100A00932A462946F023FFF7E5FE4FF0B7
:104250007F43C4F8943005AA012304A94846ADF869
:104260001430ADF81050FFF7AEFC2A46294604F191
:10427000CC00FFF7E7F80D2305AA04A94846ADF8DE
:104280001030ADF81430FFF799FE724BC4F80431CA
:104290005022009248463C23DC221421FFF7BCFE4A
:1042A000039AC4F8C8200223ADF8103005AA0323EE
:1042B00004A94046ADF81430FFF785FC2A4629468C
:1042C00004F5B070FFF7BEF810230DEB030105AA4B
:1042D0004046ADF81030ADF81430FFF76FFE5D4B7F
:1042E000C4F898315023009340463C23DC22A0219F
:1042F000FFF792FE039BC4F85C3105A94FF005025D
:104300004FF00403ADF8142038460A4604A9ADF86E
:104310001030FFF758FC2A46294604F5FA70FFF7DB
:1043200091F805A90F230A46384604A9ADF81030C4
:10433000ADF81430FFF742FE1221C4F82C122721E9
:10434000009138464C23DC225221FFF765FE039B87
:10435000C4F8F0314FF005024FF00403ADF814201B
:1043600004A905AA3046ADF81030FFF72CFC2A4608
:10437000294604F52270FFF765F80E2305AA04A963
:104380003046ADF81030ADF81430FFF717FE1223A9
:10439000C4F8C0322723009330464C2340F2051264
:1043A0005221FFF739FE039BC4F8843218EE900ABD
:1043B00078221421FFF746F8142219EE100A11464C
:1043C000FFF740F819EE900A2A462946FFF73AF817
:1043D00041F225632A46E5545046251D3C21FFF74E
:1043E00031F85946284606F0A7F818EE101A284664
:1043F00006F0A2F84946284606F09EF841462846AF
:1044000006F09AF83946284606F096F831462846CE
:1044100006F092F818EE901A284606F08DF819EE7C
:10442000101A284606F088F819EE901A284606F069
:1044300083F82846514606F07FF8204607B0BDECC9
:10444000048BBDE8F08F00BF7810020860100208EE
:10445000833F00080A0014007047704710B5A4217C
:10446000044618F0C0FA204610BD00002DE9F341C3
:104470004FF48073064600258384274B8562C0E98C
:104480000155C0E90355C0E90555C0E9075546F88F
:104490002C3B044604F168073046FEF7FBFF384624
:1044A000FEF7F8FF1D4BA36030460A21FEF780FFA0
:1044B00030460121FEF77EFF194BDFF87080E3657F
:1044C00069462723304684F85150A4F86050ADF86F
:1044D0000430CDF8008007F018FC124BE366124B55
:1044E000C4F8983069462823384684F88D50A4F8DB
:1044F0009C50ADF80430CDF8008007F006FC314642
:10450000204606F019F82046394606F015F82046F0
:1045100002B0BDE8F08100BFBC10020878001300B3
:104520000000FFFF0A00010037CF00FF300502083E
:10453000683000F00BBC000038B5084B0360084B36
:10454000836604464FF46975635960191B68403DE2
:104550009847B5F5297FF7D1204638BD4C110208A0
:10456000F414020810B50446FFF7E6FF204640F2B7
:104570000C4118F038FA204610BD00002DE9F34137
:1045800006460025294A85624FF48073C0E901552B
:10459000C0E90355C0E90555C0E90755838446F8CD
:1045A0002C2BA0F85030224BC3624FF6FF73DFF87C
:1045B0008C80A0F8583000F168074FF47F03044660
:1045C000C0E90C55C0E90E55C0E91055C0E91255B7
:1045D000C0F85480C5650366A0F86450384600F002
:1045E000D9FA144BA36030464421FEF7E1FE304671
:1045F0000321FEF7DFFE4FF07F43E3656946304657
:10460000A4F86050CDF80080ADF8045007F07DFBB1
:10461000094BE3663146204605F08EFF20463946B9
:1046200005F08AFF204602B0BDE8F0814C11020877
:104630007C250208560024000F0002003005020805
:104640007047704730B4C26844685510034604EBA5
:104650006200D20748BF62599B6830BC48BFD3583C
:10466000184743682BB183682BB9C06800F001007C
:104670007047184670470120704710B51021044656
:1046800018F0B1F9204610BD10B50446B03000F066
:1046900011FE04F2BC40BDE8104000F00BBE00F675
:1046A000C8028A4203D10368D3F88830184770479C
:1046B0002DE9F04F044687B027460025FEF7B0FEEF
:1046C000624BA56247F82C3B04F158094FF6FF7680
:1046D00004A9384604F18408ADF81060FEF7C0FE66
:1046E00004A9484604F1B00BADF81060FEF7B8FE1F
:1046F00004A9404604F2BC4AADF81060FEF7B0FED3
:10470000584604F6C80600F00BFE504600F008FEBE
:104710003046FFF7ABFA4E4BC4F870394D4BC4F836
:1047200078394D4BA3601E2229463846C4F8744997
:10473000C4F87C59FEF786FE082304A93846ADF874
:10474000103007F022FC252248466B21FEF77AFE46
:104750000A2304A94846ADF8103007F016FC2522BC
:1047600040460721FEF76EFE092304A94046ADF836
:10477000103007F00AFC584625220721FEF762FE9A
:10478000504625226B21FEF75DFE0B23ADF80C3061
:104790000C230DEB030104AA3046ADF81030FFF7EF
:1047A00012FA2A46294604F6FC00FEF74BFE2B4B74
:1047B000049304F62C101B2304A9ADF814300190C7
:1047C00007F0A3FAB4F9D228B4F9D0180198FFF78A
:1047D000EDF901982A462946FEF734FE01981E227B
:1047E000C821FFF7E3F91E4BC4F86839C4F86C39E7
:1047F0003046FFF76EF92A4629463046FEF722FE7C
:104800001E223046C821FFF7D1F904F51763C4F81A
:10481000F8383946204605F08FFE4946204605F017
:104820008BFE4146204605F087FE5946204605F09E
:1048300083FE5146204605F07FFE2046314605F0B6
:104840007BFE204607B0BDE8F08F00BFF4110208E0
:10485000DC1102089F460008C8005000300502081D
:104860000A0A0AFF704710B54FF4AC71044618F0FD
:10487000BAF8204610BD10B50446D0F8540100F037
:1048800031F82046BDE8104008F070BF10B504466E
:10489000FEF7C4F9014B2360204610BD88120208C0
:1048A00070B50B4D00231A4628680C4604F070FAC8
:1048B00000231A46211D286804F06AFA002328689C
:1048C00004F108011A46BDE8704004F061BA00BF67
:1048D000CC2A0020024A026000224260704700BFDA
:1048E000CC12020870B5224C224E00222146054609
:1048F000306804F0B5FB0022211D306804F0B0FBE5
:104900003068002204F1080104F0AAFB94ED007A5B
:10491000DFED197AB4EE677AF1EE10FA05D1686826
:1049200003686FF0EF011B699847144E686832689E
:104930000368012A0CD1D4ED027AF5EE407AF1EE4B
:1049400010FA05D1DB680A4998470023336070BD2F
:104950009B68074998476868D4ED027A0368FDEEC2
:10496000E77ABDE870405B6917EE901A184700BF00
:10497000D02A0020C82A0020000070C314000020A4
:1049800038B5074B036004464FF44F7563596019FF
:104990001B68403D9847B5F50F7FF7D1204638BDDD
:1049A000F4140208036870B50446D3F89C300D4631
:1049B0009847D4F8981329444B1C03D10023C4F81A
:1049C000983303E0042908D0C4F8981323682046DC
:1049D000D3F89830BDE8704018470323EFE74B1C2D
:1049E00010D001290AD1B0F8983300EB8303D3F833
:1049F0008023082A02DC0132C3F880230368D3F83D
:104A0000A4301847B0F8983300EB8303D3F8802321
:104A1000002AF3DD013AEFE7FDEEC07A13B517EE99
:104A2000901A642391FBF3F14B4307EE903AF8EEB2
:104A3000E77A0A2330EE670AFDEEC07A17EE902A75
:104A400092FBF3F2534307EE903AF8EEE77A0368ED
:104A500030EE670AFDEEC07AB8EEE77A30EE470A2C
:104A6000B2EE047A20EE070ABDEEC00A8DED000A10
:104A7000D3F8884017EE903AA04702B010BD10B4AA
:104A8000C0F88433019BC0F8803303685DF8044BA1
:104A9000D3F8A430C0E9E2211847B0F8983300EB0E
:104AA00083000123D0F8680280F8253003685B6931
:104AB0001847B0F8983300EB83000023D0F8680261
:104AC00080F8253003685B691847000090EDE27AB2
:104AD000D0EDE37ADFED0D6AB8EEC70AB2EE047AE4
:104AE000F8EEE77A20EE070AA7EEA60AD0EDE17A03
:104AF000F8EEE77A37EE800AD0EDE07AF8EEE77A62
:104B0000C7EE876A30EE260A704700BF0000C84231
:104B100010B50446FFF734FF20464FF4697117F0D3
:104B200062FF204610BD000010B50446D0F8803367
:104B3000174A0A2100F506700BF038FED4F88433CA
:104B4000134A0A2104F50B700BF030FED4F88833B9
:104B50000F4A0A2104F510700BF028FED4F88C33AC
:104B60000B4A0A2104F515700BF020FE04F5EC70D9
:104B700009F0ABFE04F5CC7009F0A7FE04F5AC70AB
:104B800009F0A3FE04F1DC00BDE8104009F09DBE71
:104B9000D0120208F8B504461E4E1F4DFEF796FCD3
:104BA0001E4B23600022A4F8782204F51F7304F53D
:104BB0005F7001274FF6FF719A80DA801A815A815F
:104BC0009A81DA811A825A82DA611A845A8483F8C5
:104BD000242083F825709E6299851A639A8683F84B
:104BE000361083F8372083F8382083F839201D6089
:104BF000DA63C3E9052240338342DDD16FF07F439E
:104C0000A4F87C23A4F89023C4F89C33A4F8A01340
:104C10002046F8BD3005020888260208F414020870
:104C200003460A4610B5041DD1E9010184E80300DA
:104C3000D2E9030103F10C0484E80300D2E9060180
:104C4000D961116A1962918C546999840A49196071
:104C50000A499962C3E90540918D9985116B1963E1
:104C6000918E9986D18ED986118F19870449196042
:104C7000D26BDA63184610BD9014020830050208A2
:104C80008826020808B5038A032B06D9054B064A75
:104C900006484FF4C17117F0D5FE5A1C028240F845
:104CA000231008BDD3120208021302086A13020877
:104CB000B0F80031032B10B50A4606D9154B164A39
:104CC00016484FF4C17117F0BDFE591CA0F8001131
:104CD00000EB8313D2E901011C1D84E80300D2E933
:104CE000030103F10C0484E80300D2E90601D96151
:104CF000116A1962918C9984918D9985116B54690F
:104D00001963516B5963118FD26B1987C3E9054041
:104D1000DA6310BDD3120208B11302086A13020845
:104D200008B5038A032B06D9054B064A06484FF4FB
:104D3000C17117F087FE5A1C028240F8231008BD8B
:104D4000D31202082A1402086A1302082DE9F04758
:104D5000044692B0002504F12C07FEF757FB04F13E
:104D6000580A04F51A703946C4E9E555019004F172
:104D70008409FFF787FF01985146FFF783FF04F18D
:104D8000B00801984946FFF77DFF01984146FFF7BB
:104D900079FF04F51F7604F1DC0102A8FFF740FF5C
:104DA00002A93046FFF784FF04F5AC7102A8FFF7B3
:104DB00037FF02A93046FFF77BFF04F5CC7102A84C
:104DC000FFF72EFF02A93046FFF772FF04F5EC71E2
:104DD00002A8FFF725FF02A93046FFF769FF04F597
:104DE000607001210190FFF79BFF01980221FFF7FE
:104DF00097FF01980321FFF793FF04210198FFF724
:104E00008FFF23682046D3F8A4309847504684F893
:104E10007D5084F8A95084F8D55084F8515009F099
:104E200054FD484609F051FD404609F04EFD384614
:104E300009F04BFD12B0BDE8F0877047FEF707BDE3
:104E400010B5D021044617F0CEFD204610BD00005D
:104E500010B50446FEF704FD014B2360204610BD4B
:104E6000A4150208FEF776BD6830FFF7B8BD6830BC
:104E7000FFF798BD6830FFF710BE6830FFF719BE26
:104E80006830FFF7C9BD6830FFF720BE38B5084B62
:104E90000360084B836604464FF4697563596019D3
:104EA0001B68403D9847B5F5297FF7D1204638BDAE
:104EB0004C0D0208F414020810B50446FFF7E6FF93
:104EC000204640F20C4117F08EFD204610BD000038
:104ED00010B50446FEF764FD014B2360204610BD6B
:104EE00034160208C0F884197047C0F88819704752
:104EF00010B50446FEF710FE002384F8803910BD7B
:104F000000F26450FFF7B0BF00F26450FFF7AFBF8C
:104F100000F5AC70FFF7B4BF10B52DED028B044661
:104F2000B0EE408A00F26450FFF7AAFFB0EE480AE4
:104F3000BDEC028B04F5AC70BDE81040FFF7A0BFDC
:104F400000F26450FFF79FBF90F8803983F00103AF
:104F500070B5044680F8803900F264556BB1D0F822
:104F6000840990F880391BB10368D3F888309847DA
:104F70002846BDE87040FFF77DBF2846FFF77DFF5C
:104F8000D4F888090368BDE870405B6C18470000DE
:104F900010B5034B03600446FEF73EFE204610BDED
:104FA000DC16020810B50446FFF7F2FF204640F673
:104FB0008C1117F018FD204610BD000010B50446F6
:104FC000FEF7A6FE014B2360204610BDDC1602084A
:104FD0007047043870477047C0680368DB6B184738
:104FE000A0F10400FFF7F8BFC06803681B6C184706
:104FF000A0F10400FFF7F8BF806803681B6818473A
:10500000C06803689B6C1847A0F10400FFF7F8BF65
:10501000C0680368DB6C1847A0F10400FFF7F8BF15
:1050200010B51021044617F0DEFC204610BDA0F19B
:105030000400F5E710B500228260044AC16002F165
:10504000080434320460426010BD00BF84170208B7
:10505000704770B5044604F6744604F53A75FEF7D9
:105060007BFF2946304600F065F931462846FFF7B8
:1050700039FF2146304600F060F921462846BDE858
:105080007040FFF732BF38B591ED000A04460D4677
:1050900000F6744000F066F995ED010A04F53A70E7
:1050A000BDE83840FFF738BF38B591ED000A044637
:1050B0000D4600F6744000F051F995ED010A04F533
:1050C0003A70BDE83840FFF723BF1FB504464FF0E4
:1050D0007E5300F67440019300F057F904F53A70DE
:1050E0008DED020AFFF72CFFE06B8DED030A0368DC
:1050F00001A99B69984704B010BD41F2F5620023F5
:1051000010B580F8913080F80D3380F8993C80F824
:10511000513180F8BD3080F8E53180F87932835420
:1051200041F2256301220446C2546C3009F0CDFBE4
:1051300004F53A7009F0C9FB04F6744009F0C5FBA8
:1051400004F5967009F0C1FB04F1980009F0BDFB6D
:1051500004F5E07009F0B9FB04F5157009F0B5FB32
:1051600004F5B650103009F0B0FB04F5B050BDE8BE
:10517000104009F0AABB00F5B650103000F06FB82F
:1051800041F2F453C35C23B1012100F6744000F0F6
:10519000DFB890F8683C23B1012100F53A70FFF7C1
:1051A000AFBE704741F2F453C35C2BB14FF0FF31F7
:1051B00000F6744000F0CCB890F8683C2BB14FF08A
:1051C000FF3100F53A70FFF79BBE704741F2F45390
:1051D000C35C2BB14FF0FF3100F6744000F0BBB858
:1051E00090F8683C2BB14FF0FF3100F53A70FFF7B3
:1051F0008BBE704741F2F453C35C23B1012100F62A
:10520000744000F0A8B890F8683C23B1012100F583
:105210003A70FFF779BE704710B5034B0360044640
:10522000FEF738FF204610BDD817020810B5044617
:10523000FFF7F2FF204641F2887117F0D4FB2046B9
:1052400010BD000010B50446FEF794FF014B23602B
:10525000204610BDD81702087047FFF7FEB84B1C58
:1052600010B504460FD021B980F85110012384F8FD
:105270008D3004F12C0009F028FB04F16800BDE832
:10528000104009F022BB012380F851300023EEE7E3
:1052900010B5A421044617F0A6FB204610BD00005F
:1052A00010B50446FFF7E2F8014B2360204610BD1D
:1052B00030180208FFF73CB96830FFF790BB683040
:1052C000FFF770BB6830FFF7E8BB6830FFF7F1BB52
:1052D0006830FFF7A1BB6830FFF7F8BB38B5084B63
:1052E0000360084B836604464FF46975635960197F
:1052F0001B68403D9847B5F5297FF7D1204638BD5A
:105300004C110208F414020810B50446FFF7E6FF3A
:10531000204640F20C4117F066FB204610BD00000D
:1053200010B50446FFF72AF9014B2360204610BD53
:10533000C4180208C0F884197047C0F8881970476B
:1053400010B50446FFF7A0F9002384F8803910BD9A
:10535000B030FFF7B1BFB030FFF7B1BF00F2BC40D3
:10536000FFF7B6BF10B52DED028B0446B0EE408AB4
:10537000B030FFF7ADFFB0EE480ABDEC028B04F28F
:10538000BC40BDE81040FFF7A3BFB030FFF7A3BF9C
:1053900090F8803983F0010370B5044680F88039B5
:1053A00000F1B0056BB1D0F8840990F880391BB1D9
:1053B0000368D3F8883098472846BDE87040FFF767
:1053C00081BF2846FFF781FFD4F888090368BDE84C
:1053D00070405B6C1847000010B5034B0360044637
:1053E000FEF73AFE204610BD6C19020810B50446BF
:1053F000FFF7F2FF204640F68C1117F0F4FA204632
:1054000010BD000010B50446FFF752F9014B2360B0
:10541000204610BD6C190208F02070474FF4A070B0
:1054200070472920FCF728BE2820FCF725BE08B5C8
:10543000FCF7F6FDCA20FCF71FFEC320FCF700FEB8
:105440000820FCF7FDFD5020FCF7FAFDCF20FCF70B
:1054500013FE0020FCF7F4FDC120FCF7F1FD302025
:10546000FCF7EEFDED20FCF707FE6420FCF7E8FDFD
:105470000320FCF7E5FD1220FCF7E2FD8120FCF79C
:10548000DFFDE820FCF7F8FD8520FCF7D9FD0020C2
:10549000FCF7D6FD7820FCF7D3FDCB20FCF7ECFD24
:1054A0003920FCF7CDFD2C20FCF7CAFD0020FCF7CD
:1054B000C7FD3420FCF7C4FD0220FCF7C1FDF72036
:1054C000FCF7DAFD2020FCF7BBFDEA20FCF7D4FD59
:1054D0000020FCF7B5FD0020FCF7B2FDB120FCF781
:1054E000CBFD0020FCF7ACFD1B20FCF7A9FDB6208E
:1054F000FCF7C2FD0A20FCF7A3FDA220FCF7A0FDEB
:10550000C020FCF7B9FD1020FCF79AFDC120FCF784
:10551000B3FD1020FCF794FDC520FCF7ADFD452040
:10552000FCF78EFD1520FCF78BFDC720FCF7A4FDD2
:105530009020FCF785FD3620FCF79EFDC820FCF787
:105540007FFDF220FCF798FD0020FCF779FDB020EC
:10555000FCF792FDC220FCF773FDB620FCF78CFD32
:105560000A20FCF76DFDA720FCF76AFD2720FCF759
:1055700067FD0420FCF764FD2A20FCF77DFD002078
:10558000FCF75EFD0020FCF75BFD0020FCF758FDFA
:10559000EF20FCF755FD2B20FCF76EFD0020FCF7FB
:1055A0004FFD0020FCF74CFD0120FCF749FD3F209A
:1055B000FCF746FDF620FCF75FFD0120FCF740FDFF
:1055C0000020FCF73DFD0620FCF73AFD2C20FCF7FF
:1055D00053FDC820FCF79EFD2620FCF74DFD012061
:1055E000FCF72EFDE020FCF747FD0F20FCF728FD1F
:1055F0002920FCF725FD2420FCF722FD0C20FCF7D8
:105600001FFD0E20FCF71CFD0920FCF719FD4E20A4
:10561000FCF716FD7820FCF713FD3C20FCF710FD8D
:105620000920FCF70DFD1320FCF70AFD0520FCF70F
:1056300007FD1720FCF704FD1120FCF701FD0020F9
:10564000FCF7FEFCE120FCF717FD0020FCF7F8FC5E
:105650001620FCF7F5FC1B20FCF7F2FC0420FCF7FD
:10566000EFFC1120FCF7ECFC0720FCF7E9FC3120F3
:10567000FCF7E6FC3320FCF7E3FC4220FCF7E0FCFF
:105680000520FCF7DDFC0C20FCF7DAFC0A20FCF717
:10569000D7FC2820FCF7D4FC2F20FCF7D1FC0F20EE
:1056A000FCF7CEFC1120FCF7E7FCC820FCF732FD2C
:1056B0002920FCF7E1FCBDE808402C20FCF7DCBC0D
:1056C00008B5FCF7ADFC0321D320FCF7F1FC80B258
:1056D00008BD10B5C4B2022203212046FCF756FCD7
:1056E0000A20FCF79BFC204600220321FCF74EFC1D
:1056F000BDE810400220FCF791BC38B50446E4B286
:10570000FCF742FC00212046FCF758FC012105462D
:105710002046FCF753FC40EA052080B238BD10B5A6
:10572000C4B240212046FCF749FC030607D54C21B2
:105730002046FCF743FC003818BF012010BD0122B1
:105740004B212046FCF722FC204600224B21FCF78F
:105750001DFC0020F2E773B50423C4B20E461546C3
:10576000D7210DEB03022046FCF742FC019B1BBA3C
:105770001A0DC3F30B23328020462B8001224B21CC
:10578000FCF704FC00224B212046FCF7FFFB02B093
:1057900070BD000010B50A4B1A78904204460DD037
:1057A000597888420AD00AB141B901229C54FCF7C9
:1057B000EBFB2046BDE81040FFF78BBF10BD00BFDC
:1057C000DC2A002010B5C4B209212046FCF7F6FB04
:1057D00040F00100C2B209212046BDE81040FCF7AC
:1057E000D5BB10B5C4B209212046FCF7E7FB09215F
:1057F00000F0FE022046BDE81040FCF7C7BB38B5FC
:10580000C4B20D4620460A21FCF7D8FB40EA050247
:10581000D2B220460A21BDE83840FCF7B7BB07B535
:105820000190FCF7B2FB01981F21FFF7E8FF0198F8
:1058300003B05DF804EBFFF7C5BF38B5C4B20D4641
:1058400020460A21FCF7BAFB20EA0502D2B2204624
:105850000A21BDE83840FCF799BB10B50446FFF7B4
:10586000C0FF20461F21BDE81040FFF7E6BF10B57E
:10587000C0B20C460B21FCF7A1FB204010BD1F213C
:10588000FFF7F5BF0A46C0B20B21FCF77FBB1F2113
:10589000FFF7F8BF38B5C4B20D4620461721FCF714
:1058A0008DFB20EA0502D2B220461721BDE8384020
:1058B000FCF76CBB70B5C4B2064604212046FCF769
:1058C0007DFB042100F0FB0205462046FCF75EFB51
:1058D0003046F021FFF7DEFF05F0F80220460421F4
:1058E000FCF754FB492220212046FCF74FFB022005
:1058F000FCF794FB204601222121FCF747FB2046C0
:105900009A224121FCF742FB204601224A21FCF762
:105910003DFB204601224B21FCF738FB20460022AC
:105920004B21FCF733FB204601225621FCF72EFBCE
:10593000204601225821FCF729FB20460122402164
:10594000FCF724FB2046FF220B21FCF71FFBBDE8E0
:1059500070400220FCF762BB054BD3F8882042F46C
:105960007002C3F888204FF000629A60704700BF51
:1059700000ED00E008B50B4B1A6842F400721A60A3
:105980001A6842F480621A601A6842F480721A60DF
:10599000032000F02FF80020FCF7F0FFFCF78EFD4D
:1059A000002008BD003C0240034A044B11681B78EC
:1059B0000B441360704700BFEC3D00207C000020CA
:1059C000014B1868704700BFEC3D002038B5044615
:1059D000FFF7F6FF631C1CBF054B1B78054618BF7D
:1059E000E418FFF7EDFF431BA342FAD338BD00BF15
:1059F0007C0000200749CA6822F4E0620302120416
:105A000003F4E063120C134343F0BF6343F4003329
:105A1000CB60704700ED00E0164B30B5DC68C4F396
:105A20000224C4F10705231D042D28BF0425062BDD
:105A30004FF0FF338CBF033C002403FA05F521EA45
:105A40000501A34022EA0302A140002841EA020323
:105A5000ACBF00F16040084A4FEA0313B8BF00F042
:105A60000F00DBB2AABF00F56140135480F8003389
:105A700030BD00BF00ED00E014ED00E0002808DBC1
:105A80004209012300F01F0003FA00F0014B43F824
:105A90002200704700E100E010B5044650B14379A0
:105AA00003F0FF0213B90271FCF728FD01236371B3
:105AB000002010BD0120FCE790F83530022B03D008
:105AC00080234365012070470268052380F8353044
:105AD000136823F0010313600020704710B50446DB
