:020000040800F2
:100000000000032099050008CD1E0008CF1E00083F
:10001000D11E0008D31E0008D51E000800000000F5
:10002000000000000000000000000000F177000860
:10003000D71E00080000000081780008E57800085D
:10004000E9050008E9050008E9050008E9050008D8
:10005000E9050008E9050008E9050008E9050008C8
:10006000E9050008E9050008E9050008E9050008B8
:10007000E9050008E9050008E9050008E9050008A8
:10008000E9050008E9050008E9050008E905000898
:10009000E9050008E9050008E9050008E905000888
:1000A000E9050008E9050008E9050008E905000878
:1000B000E9050008E9050008E9050008E905000868
:1000C000E9050008E9050008E9050008E905000858
:1000D000E9050008E9050008D91E0008E90500083F
:1000E000E9050008E9050008E9050008E905000838
:1000F000E9050008E9050008E9050008E905000828
:10010000E9050008E9050008E9050008E905000817
:10011000E9050008E9050008E51E0008E9050008F2
:10012000E9050008E9050008E9050008E9050008F7
:10013000E9050008E9050008E9050008E9050008E7
:10014000E9050008E9050008E9050008E9050008D7
:10015000E9050008E9050008E9050008E9050008C7
:10016000E9050008E9050008E9050008E9050008B7
:10017000E9050008E9050008E9050008000000009D
:10018000E9050008E9050008E9050008E905000897
:10019000E9050008E9050008E9050008E905000887
:0C01A000F11E0008E9050008FD1E000823
:1001B00010B5054C237833B9044B13B10448AFF3A1
:1001C00000800123237010BD6401002000000000A6
:1001D000C0CE010808B5034B1BB103490348AFF378
:1001E000008008BD0000000068010020C0CE0108AA
:1001F000034613F8012B002AFBD1181A0138704767
:1002000001F0FF01102A2BDB10F0070F08D010F8C7
:10021000013B013A8B422DD010F0070F42B3F6D1CB
:10022000F0B441EA012141EA014122F007047FF0E4
:1002300000070023F0E80256083C85EA010586EA3B
:10024000010685FA47F5A3FA87F586FA47F6A5FA77
:1002500087F68EB9EED1F0BC01F0FF0102F0070283
:1002600032B110F8013B013A83EA010313B1F8D12E
:100270000020704701387047002D06BF354603380F
:10028000073815F0010F07D1013015F4807F02BF48
:10029000013015F4C03F0130F0BC0138704700BF99
:1002A00053B94AB9002908BF00281CBF4FF0FF31DD
:1002B0004FF0FF3000F06EB9ADF1080C6DE904CEDF
:1002C00000F006F8DDF804E0DDE9022304B0704731
:1002D0002DE9F047089D04468C46002B40F08380B2
:1002E0008A42174647D9B2FA82F242B1C2F12000DF
:1002F00024FA00F09140974040EA010C94404FEA04
:100300001748230CBCFBF8F61FFA87FE08FB16C142
:1003100043EA014306FB0EF1994209D9FB1806F1A5
:10032000FF3080F01981994240F21681023E3B4431
:100330005B1AA4B2B3FBF8F008FB103344EA0344A1
:1003400000FB0EFEA64509D93C1900F1FF3380F0F1
:100350000581A64540F2028102383C4440EA06404D
:10036000A4EB0E0400261DB1D4400023C5E90043D0
:100370003146BDE8F08702B9FFDEB2FA82F2002A08
:1003800050D1CB1B4FEA174E1FFA87F80126B3FB5B
:10039000FEFC210C0EFB1C3341EA034108FB0CF36D
:1003A0008B4207D979180CF1FF3002D28B4200F250
:1003B000E9808446C91AA3B2B1FBFEF00EFB10110E
:1003C00043EA014408FB00F8A04507D93C1900F1B5
:1003D000FF3302D2A04500F2D9801846A4EB0804EE
:1003E00040EA0C40BFE78B4209D9002D00F0B180F4
:1003F0000026C5E9000130463146BDE8F087B3FA72
:1004000083F6002E4AD18B4202D3824200F2B8809A
:10041000841A61EB030101208C46002DA8D0C5E9A8
:10042000004CA5E7C2F1200320FA03F6974001FA39
:1004300002F04FEA174ED9403043030CB1FBFEF6F1
:100440001FFA87F80EFB161143EA014306FB08F179
:10045000994204FA02F409D9FB1806F1FF3C80F036
:100460008D80994240F28A80023E3B445B1A81B201
:10047000B3FBFEF00EFB103341EA034100FB08F32F
:100480008B4207D9791800F1FF3C73D28B4271D9A6
:1004900002383944CB1A40EA064678E7C6F1200C08
:1004A00003FA06F422FA0CF31C4320FA0CF701FAC3
:1004B00006F34FEA144E21FA0CF11F433B0CB1FB3B
:1004C000FEF91FFA84F80EFB191143EA014109FBFA
:1004D00008FA8A4502FA06F200FA06F308D961180A
:1004E00009F1FF3048D28A4546D9A9F102092144D1
:1004F000A1EB0A01BFB2B1FBFEF00EFB101147EAFF
:10050000014700FB08F8B84507D9E71900F1FF31AA
:100510002ED2B8452CD90238274440EA0940A7EB2F
:100520000807A0FB02894F45C64649461AD317D093
:100530005DB1B3EB0E0267EB010707FA0CFCF2406A
:100540004CEA0202F740C5E9002700263146BDE823
:10055000F0872E4628460BE70646E9E61846FDE6F4
:100560004345E5D2B8EB020E69EB04010138DFE741
:100570000846D2E760468DE78146B9E7664675E7EB
:1005800030464AE7ACF1020C394413E702383C44E8
:1005900024E700BF704700BFDFF834D0002103E03C
:1005A0000C4B5B58435004310B480C4B42189A4299
:1005B000F6D30B4A02E0002342F8043B094B9A426F
:1005C000F9D304F093F91BF073FA00F009FE7047B9
:1005D0000000032058A3050800000020640100204B
:1005E00064010020503A0120FEE700F009BC00F051
:1005F00077BC704710B5042104461BF0E0F9204693
:1006000010BD000038B50C4B0C4C18800C4B8220F0
:1006100019806368984740F6110398420AD1094D42
:1006200023682C60822098472B688220DB689847DB
:10063000002038BD0120FCE7800100204C00002094
:1006400082010020840100204FF4A071F020FFF708
:10065000D9BF0000F7B52D4D2B6804461B698220D9
:10066000984780B22080002843D02B680DF1060205
:100670005B6901A982209847BDF80620A2F5B472F3
:1006800092B20A2A37D90B23B2FBF3F2204B1B8814
:100690009A4201D95A1E92B2BDF8043040F6B831E0
:1006A0008B422AD8C3F571630E339BB20F21B3FB83
:1006B000F1F3184909888B4201D94B1E9BB2164EA3
:1006C000164D30682F68834281B28CBF591AC91AFF
:1006D000B8B2BA428CBF101A801A89B280B20144F3
:1006E0000529C8BF33603368C8BF2A6063802B68A0
:1006F000A38003B0F0BD0022CEE7C3F56D630833DD
:100700009BB20E2BD2D80023D9E700BF8401002072
:100710008201002080010020880100208C0100203F
:1007200037B568460D461446FFF794FFBDF8000044
:1007300030B1BDF802302B60BDF8043023600120D9
:1007400003B030BD704770477047012380F87410C4
:1007500080F8753070470020704700207047836B29
:100760000BB10846184770474FF6FF707047406856
:1007700003689B69184770477047704700F052BC88
:1007800008B503680446DB6F9847236820465B6F13
:10079000984700F0EDF823682046DB6E9847292043
:1007A00000F056FF00F0E4F823682046DB6E98471F
:1007B000F8E710B5044609F061FF23682046D3F836
:1007C000A430BDE81040184700F01EBC00F022BC69
:1007D00000F046BC00F0F4BB00F046BC00F04EBC9C
:1007E00000F0F8BB08B531B90A4B0B4A0B484FF47F
:1007F0002B711BF013F9C0E90F12003A084943644A
:1008000018BF01220A70003B064A18BF012313706B
:1008100008BD00BF30CF010868CF0108B6CF01087E
:10082000063501200735012008B5094B1B888B428E
:1008300003D8084B1B88934205D9074B074A084841
:100840009E211BF0EBF8074B1980074B1A8008BD5F
:10085000FC340120FE340120FBCF01085ED00108EA
:10086000B6CF0108023501200435012009F0A4B8F3
:1008700010B57C2104461BF0A2F8204610BD90F86C
:1008800077301BB1406803681B68184718467047EB
:1008900010B590F8341090F874400C4B8C421A78D4
:1008A00009D03AB90A4A0B491488088810800C808C
:1008B00001221A7010BD002AFCD0054A054914888F
:1008C000088810800C800022F3E700BF003501206B
:1008D000FC340120FE340120012108B50022084625
:1008E00006F05EFC0A4B186028B90A4B0A4A292117
:1008F0000A481BF093F800220421012006F016FD9F
:10090000074B186018B9074B034A2D21F0E708BDC3
:100910009401002074D10108BDD10108ECD1010877
:10092000900100203CD20108024B4FF0FF311868C3
:1009300006F08CBC94010020014B186806F0C0BC86
:1009400094010020024B0021186806F07FBC00BF14
:1009500094010020FFF7F0BF03480449006800231A
:100960001A4606F029BD00BF9001002004000020B7
:1009700013B5084C00231A4601A9206806F05EFD55
:1009800020684FF0FF33002201A906F057FD02B0A6
:1009900010BD00BF9001002003685B6C1847012068
:1009A000704703689B6A184782B0002301930D4B80
:1009B0001A6B42F400021A631A6B02F400020192ED
:1009C000019A1A6942F400021A611A6922F40002BB
:1009D0001A61054B054A1A61054B4FF080629A6017
:1009E00002B070470038024008390120FD090008B4
:1009F00000E100E040F2EF3070470000024B1B685E
:100A0000586803685B6918470835012008B50B284A
:100A10000BD8DFE800F01206100A0A0A0A080808D4
:100A20000808012008BD0520FCE7054B054A0648DB
:100A300067211AF0F3FF0020F4E70220F2E700BF7D
:100A40007ED2010899D20108E3D2010808B50A282C
:100A500009D8DFE800F010060E08080808060606A8
:100A60000600012008BD054B054A064888211AF0FA
:100A7000D5FF0020F6E70220F4E700BF7ED2010890
:100A800031D30108E3D201082DE9F84391F81D8024
:100A90000C464046FFF7BAFFA77F05463846FFF7EA
:100AA000B5FF06463846FFF7D1FFA18A628B4B4B54
:100AB000521A1A649A61228B521A1A61E28A586396
:100AC00042EA01425A6421696268D963DA60D4F863
:100AD00000C094F81C90BCF1800F4FEA09629E465A
:100AE00030D014D8BCF1200F45EA020068D0BCF128
:100AF000400F65D0BCF1040F20D0384B2A4342F49C
:100B00000032B845DA6148D140F2012214E0BCF568
:100B1000807F07D0BCF5007FEFD142F4003242F075
:100B2000090203E042F4003242F00A02DA61E268AC
:100B30001A625E6259612A4A1A604CE040F4003041
:100B4000D861F6E7A0682A4342F40032041DDC6253
:100B5000DA6102785E62596142B1012A1FD0214BED
:100B6000214A22484FF489711AF058FF4288D96906
:100B7000501E21F47F4222F0100242EA0022DA6184
:100B80000124164BDA6942F02002DA61DA69920632
:100B9000FCD410229A60002CCDD1154ACCE74288B3
:100BA000D969501E21F47F4222F0100242EA00224D
:100BB000B9F1FF0442F0100218BF0124DA61E0E746
:100BC000074B40F40030CEF81C00CEF82460CEF87D
:100BD0001410CEF80030BDE8F88300BF00B002402A
:100BE000010202007CD3010896D30108E3D2010878
:100BF0000102010038B50C46887FFFF727FFA58A60
:100C0000E18A164B628B586341EA05415964521BD5
:100C10002169D9631A642568082D0ED19A611A6179
:100C20005862207F0E4A42EA0062DA61E2681A6284
:100C30000C4A5961D9601A6038BD0022D8611A6126
:100C4000E1680A0A480902F4784200F4FC600243B1
:100C5000C1F3C4010A439A63034AECE700B00240BF
:100C6000090001000102020001020300054B0360BC
:100C7000054B4FF08062C3F88820BFF34F8FBFF35E
:100C80006F8F7047DCD3010800E100E010B5044627
:100C9000FFF7ECFF20464FF442611AF090FE204629
:100CA00010BD000070B5044625460A4B0C300026E6
:100CB00060602672667245F8203B6022294609F082
:100CC00013FE04F54263EE602035AB42FBD12046B3
:100CD00070BD00BFDCD30108012070470C207047B5
:100CE0000C2303FB0100083070470C2303FB0100B9
:100CF000083070470120704741F20C60704741F2A4
:100D00000C6303FB01000830704741F20C6303FBE6
:100D1000010008307047012070471020704700EB39
:100D200001100830704700EB01100830704708468A
:100D300001F028BA10B5034B0360044608F06EFBBF
:100D4000204610BD94D4010810B50446FFF7F2FF09
:100D5000204614211AF033FE204610BD10B5034B77
:100D60000360044608F05AFB204610BD60D4010819
:100D700010B50446FFF7F2FF204641F214611AF065
:100D80001EFE204610BD000010B5034B0360044654
:100D900008F044FB204610BD2CD4010810B50446D1
:100DA000FFF7F2FF204618211AF009FE204610BD79
:100DB00010B5084B0360044600F5B250FFF7BAFFC8
:100DC00004F12C00FFF7CAFF04F11400FFF7DCFF69
:100DD000204610BDC8D4010808B50248FFF7E8FF57
:100DE00008BD00BF9C01002010B50446FFF7E0FFDE
:100DF000204641F2B4711AF0E2FD204610BD000019
:100E00002DE9F34101F000F9054601F001F9002454
:100E1000014623462846224600940EF07FFD254BCE
:100E2000254A264D1A60204601F0DAFC24480EF0CF
:100E3000B7FC2B78BFF35B8FDB0734D428461AF05E
:100E4000C0FD80B31F4C204B236004F5B25707F15F
:100E50001C0604F1140004F12C086060C4F808803A
:100E6000E760266108F0DCFA184B6361404608F041
:100E7000D7FA174BE362384608F0D2FA154B3B60BD
:100E800007F1140002F078FE224607F11401304603
:100E900002F060FE304601F075F928461AF09DFD1B
:100EA0000D481AF0D9FD0D4802B0BDE8F041FFF73A
:100EB00065BC00BF64350120F025002098010020AA
:100EC000080000209C010020C8D401082CD401088F
:100ED00060D4010894D40108D90D000874250020BD
:100EE0000148FFF74DBC00BF7425002070B5244CAD
:100EF000244E254B254D23603046FFF7D3FE284670
:100F000011F0DCFD224B2348DC6000224FF480719D
:100F1000C3E91212204C21490360F020C3E91912E1
:100F200020804FF080711E4C59670121C3E90422D3
:100F3000C3E90622C3E90822C3E90E22C3E910224D
:100F4000C3E91422C3E916221A8583F82A20DA623B
:100F50001A861A6683F86C201A67C3E9016583F85C
:100F6000781020800F4C83F834104FF4A07020804C
:100F70000D4C20800D4802700D4A1A6070BD00BFF4
:100F8000501900205419002020CF0108F42500201A
:100F90007425002008350120FC34012001000001E7
:100FA00002350120FE3401200435012000350120E6
:100FB000ACD001080148FFF759BE00BF541900200A
:100FC000034B902283F85A2383F85823704700BFBD
:100FD00000E100E0094A0A49D3680A48C3F30A035A
:100FE000013B9BB20B801169C1F30A0101390180F9
:100FF0001364536B43F0010353637047006801406F
:101000006E2600206C260020014B986A704700BFB6
:1010100084680140024B0122996243F8602C7047BA
:101020008468014070B5044608F01BFD23681D6EFE
:101030000BF0B4FC01462046A8472368054AD3F8C4
:1010400084502046AC460023BDE87040A2F516311E
:10105000604700BF005802D008F0EABC08F0F4BCBA
:1010600008F0B0BC08F00BBE034B4FF080629A60F2
:101070004FF080729A60704700E100E0084B4FF03B
:101080008062C3F88820BFF34F8FBFF36F8F4FF09C
:101090008072C3F88820BFF34F8FBFF36F8F704704
:1010A00000E100E0134B144A1B6C11888B4210B511
:1010B000124C13D1124B198804F09EFC226892F84E
:1010C0006630013382F86630FFF746FC206809F08D
:1010D000D5FABDE810400020FFF734BB04F08CFCCB
:1010E0000020FFF730FB20680368BDE810401B6A52
:1010F000184700BF006801406E2600200835012017
:101100006C26002007B5064BADF806001B680548A5
:1011100001220DF1060105F07EF903B05DF804FB34
:1011200010000020F8370120F0B5A1B010220021F6
:101130000AA81AF0FFFC1422002103A81AF0FAFCF6
:101140000021302214A81AF0F5FC0024224B01944F
:101150001A6C42F080521A641B6C03F080530193A6
:10116000019B1E4B02941A6842F440421A601B68AD
:1011700003F4404302930122029B4FF48033CDE9F4
:10118000082302254FF48003CDE90E5308274FF4BE
:10119000A873042608A8CDE910731295139604F0DD
:1011A00049FC0F23CDE903354FF4A0514FF4805390
:1011B000CDE9061303A80521059404F011FEC02310
:1011C000189314A84FF4003314971A961D9304F043
:1011D000E1FE21B0F0BD00BF0038024000700040C9
:1011E00080B59AB003F090FBFFF79EFF1422002118
:1011F0000DA800241AF09EFCBF4B00941A6BBF4848
:10120000BF4D42F020021A631A6B02F020020092D6
:10121000009A01941A6B42F080021A631A6B02F072
:1012200080020192019A02941A6B42F004021A633E
:101230001A6B02F004020292029A03941A6B42F0B3
:1012400001021A631A6B02F001020392039A0494DA
:101250001A6B42F002021A631A6B02F00202049245
:10126000049A05941A6B42F040021A631A6B02F05A
:1012700040020592059A06941A6B42F010021A6316
:101280001A6B02F010020692069A07941A6B42F04B
:1012900008021A631B6B03F008030793224604211C
:1012A000079B03F0CBFD224696484FF4405103F0D4
:1012B000C5FD012602274FF0040890480F940DA9A0
:1012C000CDE90D86109703F0CFFC0DA94FF44053E4
:1012D0008C48CDE90D36CDE90F4703F0C5FC8A48AF
:1012E0008A4B036003F0A2FB894A8A4B2C62C5E952
:1012F000002328464FF48043C5E90434C5E902447D
:10130000C5E9064403F07CFF1021284604F0B8F933
:101310002146284604F0D3F97F48804984624FF47F
:101320008273C0E900134FF400751823C0E9065317
:101330000A237B4DC362C0E90244C0E90444C0E90A
:10134000084405F02BF8774B0D974FF0100CC5E9CA
:1013500000364023C5E904C34FF4C073C5E9063421
:101360004FF40063C5E908344FF400534FF0030A0B
:10137000AB620DA907232846CDE90E3810934FF034
:101380000809C5E90248CDE911A7139704F02CFF1D
:101390004FF6FF7209A92846CDE90A9608940996E6
:1013A0000C9404F041FF304603F0DAFA4FF6FF7276
:1013B00009A92846CDE90979CDE90B6404F034FF89
:1013C0004FF6FF7209A92846CDE909A9CDE90B849A
:1013D00004F02AFF4FF40C730893089B0C934FF60C
:1013E000FF7209A92846CDE909890B9604F01CFF74
:1013F00040F26A51284604F02EFF342221460DEBBC
:1014000002001AF097FB484D484BAC86C5E9003402
:101410000923C5E905361D2340F20D1EC5E9073A2B
:1014200040F24313C5E909E3284640F2471340F26E
:101430001718C5E90B83C5E902442C6185F83640CD
:1014400004F0E2F9FF21F022CDE912144FF4806993
:1014500005214FF4A073CDE90E24CDE91491CDE917
:1014600016420DA922462846CDE91037304D189373
:101470000D94ADF864408DF8664004F090FA2D4B61
:101480002B601B68DFF8D4A098472B682A4DDB68D7
:1014900098472A4BC5E90A47C5E90C442846C5E9DF
:1014A0000034C5E9027403F0E3FA3146284603F03C
:1014B00097FB23484FF41653C0E900A30C23C0E95F
:1014C0000534C0E902440461C46105F0ABFBFFF7D9
:1014D0008CF805F0BBFD1B4A1B48214605F0F0FDCA
:1014E0001A4B1B4A186021461A4805F0E9FD1A4BB1
:1014F000186005F0C5FDFEE7003802400008024014
:10150000A4370120000C0240503801200030024076
:10151000005C0040A0860100F83701200050014027
:1015200088390120400100A05C380120006801409A
:1015300070260020140000200839012000B002406D
:1015400048390120F8D40108EF05000804390120CA
:101550001CD5010815190008583801200044004026
:10156000704770477FB5094B8DF817201B680293B1
:101570000DF117020123009201930A460146044827
:1015800003F0E6FE07B05DF804FB00BF0C0000208E
:10159000A43701207FB500238DF81730084B1B6856
:1015A00002930A4601230DF11701009101930146B0
:1015B000044803F05DFF9DF8170007B05DF804FBD9
:1015C0000C000020A43701201FB5084C24680092AD
:1015D000CDE901340A4601230146054803F048FFDE
:1015E000003818BF012004B010BD00BF0C0000205F
:1015F000A437012003F0B4B908B50648002204213D
:1016000003F01CFCBDE8084002480122042103F05D
:1016100015BC00BF0008024038B50B4D044601223E
:101620000A484FF4005103F009FC00220421284627
:1016300003F004FC2046FFF765FD28460122BDE8C3
:101640003840042103F0FABB00080240000C0240BD
:1016500038B50B4D044600220A484FF4005103F000
:10166000EDFB00220421284603F0E8FB2046FFF7AB
:1016700049FD28460122BDE83840042103F0DEBBC5
:1016800000080240000C0240F7B5144E144F054606
:101690000C4630460022042103F0D0FB00224FF418
:1016A0000051384603F0CAFB2846FFF72BFD0D4BCF
:1016B0000D481B68224601A905F040F83846012272
:1016C0004FF40051019C03F0B9FB30460122042184
:1016D00003F0B4FB204603B0F0BD00BF0008024099
:1016E000000C024010000020F837012003F038B948
:1016F00070B50446FEF77CFD00221346824218DBDB
:101700001D099F2B03F00F0394BF3035373503209D
:10171000092B94BF03F1300403F137041AF0ECF9FC
:10172000EDB20646054923462A461AF0F7FD304633
:1017300070BDA15C5B1ADBB20132DFE7D4D40108D3
:1017400000B52DED028B042083B0B0EE408A1AF074
:10175000D3F9FCEEC87A6421CDED017A9DF804300E
:10176000B3FBF1F3037013FB01F300EE103AB8EE94
:10177000C00A0A2138EE400AFCEEC07ACDED017AAB
:101780009DF80430B3FBF1F3437003EB83035B007C
:1017900007EE903AF8EEE77A30EE670AFCEEC07A90
:1017A000CDED017A9DF80430837007EE903AF8EEA3
:1017B000E77A30EE670AFCEEC07A17EE903A03EB58
:1017C00083035B00C37003B0BDEC028B5DF804FBC8
:1017D00000B52DED028B022083B0B0EE408A1AF0E6
:1017E0008BF9FFEE007AB4EE678AF1EE10FA20D0A2
:1017F000FCEEC87A6422CDED017A9DF80430B3FB8B
:10180000F2F3037013FB02F307EE903AF8EEE77A77
:101810000A2278EE677AFCEEE77ACDED017A9DF840
:101820000430B3FBF2F3437003B0BDEC028B5DF800
:1018300004FB0148F8E700BFD9D40108F8B50C460D
:101840000546D8B906201AF057F93F270223044667
:101850000380877003201AF04FF93B462C49064657
:101860002A461AF05BFD3046FFF742FF0378E3702B
:1018700043782371032363712046F8BD012844D1C6
:1018800091ED000AFFF75CFF94ED010A0546FFF7B2
:101890009FFF064606201AF02FF9022303805423E7
:1018A00083702B78C3706B780371AB7843712E23F0
:1018B0008371EB78C3714623037233784372737874
:1018C00083720346522203F80B2F044600F11B02D9
:1018D000302103F8011F9A42FBD11B201AF00CF9AA
:1018E0001B22611C07461AF039FD3846FFF700FF3E
:1018F000037823774378637703232846A3771AF086
:1019000003F930461AF000F9B6E70024B4E700BF47
:10191000D4D4010830B50D4D0D4C85B0002202A97C
:10192000286806F0ADFB02A9FFF788FF0190FEF7DB
:101930005FFC019982B24FF47A73204605F0A0F95A
:101940004FF47A7005F012FCE8E700BFE0270020B2
:10195000483901200268034B9A4201D102F0EEBFE0
:10196000704700BF0010004082B00E4B0022009272
:10197000596C41F480415964596C01F480410091E3
:1019800000990192196C41F0805119641B6C03F0AD
:1019900080530193019B0F216FF0010002B003F00F
:1019A00005B800BF003802400268094B9A4282B075
:1019B0000BD100230193074B1A6B42F480521A6338
:1019C0001B6B03F480530193019B02B0704700BF6F
:1019D000003002400038024007B50F4B02689A42BF
:1019E00016D10022A3F5F0430192196B41F40001D6
:1019F00019631B6B03F40003019305215A20019B1B
:101A000002F0D4FF5A2003B05DF804EB03F000B8F5
:101A100003B05DF804FB00BF00B002402DE9F043C5
:101A2000044689B01422002103A81AF083F8226822
:101A3000244B9A4243D1244C244800250095236B23
:101A400043F004032363236B03F004030093009B20
:101A50000195236B43F001032363236B03F0010320
:101A60000193019B4FF012094FF400734FF00108EE
:101A70000327042603A9CDE90339CDE90587079695
:101A800003F0F2F84FF480731148079603A9CDE9EB
:101A90000339CDE9058703F0E7F80295236C43F499
:101AA00000032364236C03F400030293029B236A64
:101AB00043F400032362236A23F40003236209B082
:101AC000BDE8F083005C004000380240000802409E
:101AD00000000240F0B504468DB01422002107A892
:101AE0001AF028F82268574B9A4240F0A98003F573
:101AF0005043002400945A6C534842F080625A6468
:101B00005A6C02F080620092009A01941A6B42F0C3
:101B100020021A631A6B02F020020192019A0294C9
:101B20001A6B42F001021A631A6B02F00102029270
:101B3000029A03941A6B42F002021A631A6B02F0C3
:101B400002020392039A04941A6B42F040021A6351
:101B50001A6B02F040020492049A05941A6B42F048
:101B600004021A631A6B02F004020592059A0694A5
:101B70001A6B42F008021A631B6B03F0080306930A
:101B800002250E26069B0B964FF4806307A9CDE92C
:101B90000735CDE9094503F067F841F658032B48AE
:101BA0000B9607A9CDE907350927CDE9094503F0CB
:101BB0005BF8032326480B9707A9CDE90735CDE944
:101BC000094503F051F84FF4706321480B9607A9BB
:101BD000CDE90735CDE9094503F046F84FF40C632C
:101BE0001C480B9607A9CDE90735CDE9094503F057
:101BF0003BF8C02318480B9607A9CDE90735CDE976
:101C0000094503F031F8082314480B9607A9CDE9DC
:101C10000735CDE9094503F027F84FF4A0530D48E7
:101C20000B9707A9CDE90735CDE9094503F01CF865
:101C300058202246052102F0B9FE582002F0E8FEA5
:101C40000DB0F0BD006801400014024000000240E9
:101C5000000402400018024000080240000C02404C
:101C600010B5044688B01422002103A819F062FFC1
:101C70002268154B9A4224D103F568430022019251
:101C8000596C41F480115964596C01F4801101912F
:101C900001990292196B41F0200119631B6B0592A7
:101CA00003F0200302934FF46071029B0223CDE9FD
:101CB000031303200523CDE9060303A9034802F01B
:101CC000D3FF08B010BD00BF005001400014024017
:101CD000F0B5044689B01422002103A819F02AFFA8
:101CE0002268224B9A423FD103F5FA330024009434
:101CF0001A6C1F4842F400321A641A6C02F4003263
:101D00000092009A01941A6B42F001021A631A6B56
:101D100002F001020192019A02941A6B42F0080249
:101D20001A631B6B059403F008030293029B0227BE
:101D300004230326072503A9CDE90337CDE906656A
:101D400002F092FF40230B48079503A9CDE9033722
:101D5000CDE9054602F088FF26202246052102F043
:101D600025FE262002F054FE09B0F0BD00440040DC
:101D700000000240000C02402DE9F0412C4B1C6891
:101D800086B0002C50D14FF00108C3F80080294BD9
:101D900000949A6B284842EA08029A639B6B03946A
:101DA00003EA08030093022703260C25009B01A9E0
:101DB0004FF63F03CDE90137CDE9046502F054FF4A
:101DC0001E48059501A9CDE90187CDE9034602F03A
:101DD0004BFF48F233131A48059501A9CDE90137A5
:101DE000CDE9034602F040FF4FF683731548059591
:101DF00001A9CDE90137CDE9034602F035FF4CF2E8
:101E000003731148059501A9CDE90137CDE90346D2
:101E100002F02AFF60230D48059501A9CDE901379D
:101E2000CDE9034602F020FF06B0BDE8F08100BF17
:101E300074260020003802400014024000080240CE
:101E40000018024000100240000C02400004024052
:101E500030B5014689B00022362002F0A7FD3620B9
:101E600002F0D6FD0025154B02951A6C144C42F079
:101E700010021A641B6C03F01003029301A903A85B
:101E8000029B04F069F804F047F80E4B236040F21F
:101E9000E733E36040000C4BB0FBF3F001386060C7
:101EA00020462561A56004F0FDFD20B9204604F020
:101EB000DDFC09B030BD0120FBE700BF0038024067
:101EC000BC3901200010004040420F007047FEE77F
:101ED000FEE7FEE7FEE77047014804F06BBF00BF76
:101EE00048390120014804F0D5BC00BFBC390120AD
:101EF000014803F0F7BC00BF5C380120014802F044
:101F0000E5BD00BF083901200120704708B519F070
:101F1000B7FD162303604FF0FF3008BD08B519F078
:101F2000AFFD16230360FEE770B50E46144600258C
:101F3000A54201DB204670BDAFF30080705501352E
:101F4000F6E770B50E4614460025A54201DB204693
:101F500070BD705DAFF300800135F6E74FF0FF30E4
:101F600070474FF400534B600020704701207047CA
:101F70000020704708B50A4B1968024609B909499B
:101F800019601868694602448A4206D919F078FD3A
:101F90000C2303604FF0FF3008BD1A60FCE700BF60
:101FA00078260020503A0120704710B504210446DD
:101FB00019F005FD204610BD08B5062921D8DFE837
:101FC00001F004080C1014181C0000F055FC006807
:101FD00008BD00F051FC4068FAE700F04DFC806855
:101FE000F6E700F049FCC068F2E700F045FC006944
:101FF000EEE700F041FC4069EAE700F03DFC806953
:10200000E6E70020E4E700000048704754D50108E7
:102010001120704713B5002451B1036801948DF865
:10202000034001AA9C680DF10303A04702B010BD54
:102030000846FBE740897047808970478088704771
:1020400083798088184480B27047C07900F07F009F
:102050007047C079C0097047704710B50821044621
:1020600019F0ADFC204610BD704700F59673086866
:10207000496803C3704770477047416070477047B5
:102080000123037270477047704710B4C2684168FB
:102090005410034601EB6200D20748BF0A599B68FF
:1020A0005DF8044B48BFD358184743682BB1836889
:1020B0002BB9C06800F00100704718467047012036
:1020C000704710B50C21044619F079FC204610BD6C
:1020D00010B51021044619F072FC204610BD10B551
:1020E0004FF4AC71044619F06AFC204610BD10B5DF
:1020F0000AF054FC0368BDE810401B6B184710B58C
:102100000446D0F83C0158B10368DB68984738B101
:10211000D4F83C0103689B6898470023C4F83C311D
:1021200010BD0000F8B5044617460E460AF056FCEE
:10213000104B0025C4E954760F4E1C60C4E952557B
:102140000E4B306823600E4BC4E950350368012103
:102150009B68C4E94E559847284600F041FB336818
:1021600093F876200AB1D86C00B9986812F0F1FAA9
:102170002046F8BD543501200835012000DA010859
:10218000E8D90108064BC0F848310023C0F84C31AB
:1021900000F5A073C0F84401C0F83C31704700BF9F
:1021A000E52200082DE9F84F07469068DDF828A0E1
:1021B000994603681B6A88461446984741F20B63A8
:1021C000984205D8414B424AA321424819F026FCC7
:1021D000606803681B6A98470F2803D83E4B3C4A47
:1021E000A421F2E7E06803681B6A98470B2803D82C
:1021F0003A4B374AA521E8E70AF0D0FB0AF0D4FBB6
:10220000D9F8000010B10368DB689847D9F80000DE
:1022100010B103681B689847386810B103685B69A0
:102220009847D8F8000010B103685B689847386891
:1022300010B103681B689847D8F8000010B1036814
:102240009B689847E068036800215B6A98474FF0F5
:10225000000B234B03600546C0F804B080F808B0BB
:10226000A068036859465B6A9847064602F00CF876
:102270006068036859465B6A98473146044601F036
:102280007BFFC9F80050C8F800403E60E4B1231D50
:10229000CAF804303368C4F808A03046DB68F46339
:1022A0009847236820461B689847294630460BF01C
:1022B00041FF2B6828461B6998472B6828465B69B5
:1022C00098472046BDE8F88F2346E1E7B8D60108D5
:1022D00046D7010850D8010897D801083AD9010813
:1022E00044DA010807B5D0F854310093D0F85021F2
:1022F000044B00F59C710448FFF754FF03B05DF8F0
:1023000004FB00BF4835012044350120006A7047B6
:10231000406A704770478B8880690A68DB0A50F80A
:1023200023001044704710B5C2B1137BB3B1547B86
:10233000D27A240204F4E0641443C26998B202EB36
:10234000840213888B4202D192F9020010BD05D895
:10235000013880B204320028F3D1F7E70020F5E716
:1023600010B52821044619F02AFB204610BD0000B4
:1023700030B589B00446BDF850500695BDF84C50B4
:1023800005959DF8405004959DF83C5003959DF8A7
:10239000385002959DF8345001959DF830500095C5
:1023A0000BF028FB064B2360119BA361129BE3619A
:1023B000159B2362169B6362204609B030BD00BFA7
:1023C00068DA01087047000030B5154D2C78BFF36E
:1023D0005B8F14F001048DB01FD1284619F0F1FA7B
:1023E000D8B13F2307930F4B06930F4B0F4910486B
:1023F0000894CDE9044301220423CDE901320C23E2
:102400001A46CDE9094403940094FFF7B1FF28462A
:1024100019F0E3FA074819F01FFB05480DB030BD6D
:102420007C260020582702087427020894240208FA
:1024300080260020C52300087047000030B5154DE8
:102440002C78BFF35B8F14F001048DB01ED12846A9
:1024500019F0B7FAD0B13F2307930F4B06930F4BF8
:102460000F49104808940422CDE904430123CDE923
:102470000123CDE909440E2303940094FFF778FF6C
:10248000284619F0AAFA084819F0E6FA05480DB0EE
:1024900030BD00BFA82600205C270208782702086C
:1024A0003C250208AC2600203924000870470000B3
:1024B00030B5154D2C78BFF35B8F14F001048DB04F
:1024C0001ED1284619F07DFAD0B13F2307930F4B58
:1024D00006930F4B0F4910480894CDE90443082395
:1024E000CDE9004312221C23CDE90944CDE9024481
:1024F000FFF73EFF284619F070FA084819F0ACFAC9
:1025000005480DB030BD00BFD4260020602702086A
:102510007C27020874250208D8260020AD24000874
:102520007047000030B5164D2C78BFF35B8F14F068
:1025300001048DB020D1284619F043FAE0B13F23C1
:102540000793104B0693104B104911480894CDE99E
:10255000044301220423CDE90132052300930D2217
:102560001823CDE909440394FFF702FF284619F028
:1025700034FA084819F070FA05480DB030BD00BFB4
:10258000002700206427020880270208702602081E
:1025900004270020212500087047000030B5154DA4
:1025A0002C78BFF35B8F14F001048DB01ED1284648
:1025B00019F007FAD0B13F2307930F4B06930F4B47
:1025C0000F49104808940122CDE904430423CDE9C2
:1025D0000132CDE909440A2303940094FFF7C8FEB1
:1025E000284619F0FAF9084819F036FA05480DB0EE
:1025F00030BD00BF2C27002068270208842702086E
:10260000282702083027002099250008704700007D
:1026100030B5154D2C78BFF35B8F14F001048DB0ED
:102620001ED1284619F0CDF9D0B13F2307930F4BA7
:1026300006930F4B0F49104808940122CDE904433B
:102640000423CDE90132CDE9094414230394009415
:10265000FFF78EFE284619F0C0F9084819F0FCF97A
:1026600005480DB030BD00BF582700206C27020878
:1026700088270208382702085C2700200D2600085A
:102680007047000030B5154D2C78BFF35B8F14F008
:1026900001048DB01ED1284619F093F9D0B13F2323
:1026A00007930F4B06930F4B0F49104808940122D4
:1026B000CDE904430423CDE90132CDE909442823BF
:1026C00003940094FFF754FE284619F086F9084851
:1026D00019F0C2F905480DB030BD00BF84270020B5
:1026E000702702088C270208482702088827002044
:1026F0008126000800207047002070470EB403B503
:1027000003AB002153F8042B01930AF0A9FF02B098
:102710005DF804EB03B070470CB407B504AB53F895
:10272000042B01930AF09CFF03B05DF804EB02B0A8
:1027300070470000436C10B5044673B3038F2BB988
:10274000184B194AC021194819F068F9C38E00EBDB
:1027500043035B8C0BB30CF05BFA238F012B03D884
:10276000134B144AC521EEE7E28E531C9BB2092B92
:10277000194688BFA3F10A0104EB410140F63F105E
:10278000498C814209D10A2B04EB420228BF002365
:1027900004EB4303508C588451842046BDE810401C
:1027A0000CF01AB9B8DA0108C1DA01086CDB0108CB
:1027B000B6DB0108C4DB01080CF0C6B810B586B062
:1027C00002AC84E806001A460AAB05930193099B04
:1027D00000932146089B09F058FC06B010BD00008C
:1027E00038B518BB124B13481B681349B3B11A68AC
:1027F0009C681A4402605A681A440A601C440F4BD1
:1028000000221A8000F038F8054600F033F80C4B2F
:102810001C600C4B1D600C4B188007E00B4B0360D9
:102820000B4B0B600B4B1C68002CE8D138BD00BF74
:10283000B0270020B4270020B8270020BC270020A4
:1028400058350120603501205C350120242802081C
:1028500090270208C8280208044B1B6853F821007F
:10286000034B1B6803EB4000704700BFB8270020F4
:10287000B42700202520704700487047C02700205B
:1028800010B5FFF7C5FE0A4C2060FFF7FBFE606045
:10289000FFF784FEA060FFF70BFEE060FFF742FE4B
:1028A0002061FFF7CBFD6061FFF78EFDA06110BDD9
:1028B000C02700200020704781807047C18070478A
:1028C000018170474181704770477047704770477A
:1028D000704710B4C4880368121B84881B6D091BE1
:1028E00012B25DF8044B09B218474FF6FF738381AB
:1028F0004FF0FF3303621368C36110607047806A52
:10290000704790F825201AB190F8242002B1186081
:1029100070477047704710B54FF41A71044619F0AC
:102920004EF8204610BD0000074A02600022C0E9B0
:102930000122C0E90322C0E90522C0E907224FF4C1
:1029400080728284704700BFD4F8010870B50368B4
:102950000446DB6A154698472368294620461B6BC8
:10296000BDE870401847000038B5262204460D46E1
:10297000002119F0DFF82046FFF7D6FF064B236051
:102980002B88E384FF23204684F82830294608F06A
:10299000E8FA204638BD00BF10F6010810B526221F
:1029A0000446002119F0C6F82046FFF7BDFF074B8B
:1029B0002360074BA3624FF6FF73A3854FF47F029A
:1029C0000023C4E90C322387204610BD5CF40108C3
:1029D000B0D601082DE9F04F2DED048B044683B0ED
:1029E00026460025FFF7A0FFCE4BA56246F82C3BFC
:1029F0004FF6FF7769463046ADF80070FFF7B4FF39
:102A000004F158036946184608EE103AADF8007014
:102A1000FFF7AAFF04F184036946184608EE903ACE
:102A2000ADF80070FFF7A0FF04F1B0036946184647
:102A300004F1DC0A09EE103AADF80070FFF794FFDC
:102A40005046FFF7ABFFDFF808B3C4F8DCB004F57D
:102A50008E731846C4F8185104F5AC7909EE903A13
:102A600004F5CC78FFF79AFF4846FFF797FF04F587
:102A7000EC77C4F858B1C4F894514046FFF78EFF84
:102A8000C4F898B1C4F8D4513846FFF787FFA64B75
:102A9000C4F8D8B11022A36031213046C4F81452D2
:102AA000FFF754FF07236946304684F85150ADF8CC
:102AB000003008F056FA052218EE100A1E21FFF722
:102AC00045FF4FF0060B18EE100A694684F87D505A
:102AD000ADF800B008F045FA052218EE900A0F2173
:102AE000FFF734FF18EE900A694684F8A950ADF854
:102AF00000B008F036FA052219EE100A2946FFF751
:102B000025FF19EE100A694684F8D550ADF800B0DB
:102B100008F027FA0F2231215046FFF717FF4FF038
:102B20007F43C4F80C31814BA4F810511B6804F5A5
:102B3000067B2BB97E4B7F4AAE217F4818F06EFF93
:102B40007E4B1B88222B03D87D4B7A4AAF21F4E7BA
:102B50007C4B22211868FFF77FFE7B4A03460A213F
:102B600058460CF00FFEC4F818B1504608F09CF817
:102B7000764B0093694621235046ADF8043008F0A7
:102B8000B0F80F2219EE900A2C21FFF7DFFE6F4BF1
:102B900000934FF07F41202319EE900AC4F84C11A6
:102BA000A4F850516946ADF8043008F09AF81E2197
:102BB0002A464846FFF7CAFE4FF07F41C4F8881105
:102BC0005A49A4F88C510B6804F50B7B002BB1D04B
:102BD0005A4803881F2BB7D95A4A1F211068FFF79C
:102BE0003BFE594A03460A2158460CF0CBFDC4F877
:102BF00094B1484608F058F8544B009369461E2398
:102C00004846ADF8043008F06CF80F212A464046DB
:102C1000FFF79CFE4549A4F8CC510B684FF07F4C60
:102C2000C4F8C8C104F5107B002B83D04348038847
:102C3000242B89D9434A24211068FFF70DFE424A0C
:102C400003460A2158460CF09DFD4046C4F8D4B115
:102C500008F02AF83D4B009369461D234046ADF825
:102C6000043008F03EF829462A463846FFF76EFE43
:102C70002E49A4F80C520B684FF07F4CC4F808C2E0
:102C800004F51575002B3FF455AF2C480388232B12
:102C90007FF65AAF2B4A23211068FFF7DDFD2A4A41
:102CA00003460A2128460CF06DFD3846C4F814523C
:102CB00007F0FAFF254B009369461C233846ADF810
:102CC000043008F00EF83146204606F021FC18EEDC
:102CD000101A204606F01CFC18EE901A204606F04A
:102CE00017FC19EE101A204606F012FC5146204639
:102CF00006F00EFC19EE901A204606F009FC494633
:102D0000204606F005FC4146204606F001FC204620
:102D1000394606F0FDFB204603B0BDEC048BBDE850
:102D2000F08F00BFACDD01084500210058350120BF
:102D300096DC0108D8DC010806DD01085C350120BD
:102D40004DDD0108643501209FDD0108B0D6010882
:102D500068F50108683001F0F7B8000038B5084B95
:102D60000360084B836604464FF469756359601924
:102D70001B68403D9847B5F5297FF7D1204638BDFF
:102D80003CDE010854E5010810B50446FFF7E6FFF4
:102D9000204640F20C4118F012FE204610BD000003
:102DA0002DE9F341064600252A4A85624FF48073D7
:102DB000C0E90155C0E90355C0E90555C0E907550B
:102DC000838446F82C2BA0F85030234BC3624FF677
:102DD000FF73DFF89080A0F8583000F168074FF4D7
:102DE0007F030446C0E90C55C0E90E55C0E91055F3
:102DF000C0E91255C0F85480C5650366A0F8645058
:102E0000384600F0C5FF154BA36030464421FFF75C
:102E100053FD30460321FFF751FD4FF07F43E3653B
:102E2000694601233046A4F86050ADF80430CDF86F
:102E3000008007F056FF0A4BE3663146204606F055
:102E400067FB2046394606F063FB204602B0BDE82A
:102E5000F08100BF3CDE01085CF40108560024004C
:102E60000F000200B0D601087047704770477047E6
:102E700030B4C26844685510034604EB6200D207C0
:102E800048BF62599B6830BC48BFD3581847436855
:102E90002BB183682BB9C06800F001007047184659
:102EA00070470120704790F82D3080F89A3080F8F4
:102EB0005C30704790F82D3080F85C3070470146E8
:102EC000343091F82C3013B1623108F04AB86031D7
:102ED000FBE708B590F82C3033B1D0F8A430C0F837
:102EE0009430FFF7ECFF08BDD0F8A030F7E710B53D
:102EF0006421044618F063FD204610BD10B5A821DA
:102F0000044618F05CFD204610BD10B510210446A3
:102F100018F055FD204610BD10B5044600F5AC7004
:102F200001F089F804F26450BDE8104001F083B864
:102F300010B50446006B50B10368DB68984730B1A8
:102F4000206B036821469B68BDE81040184710BD00
:102F500000F1B0028A4203D10368D3F888301847E1
:102F600070470B7970B590F82C6004460D469BB9FC
:102F70008EB9B3FA83F35B0984F82C3023682046BA
:102F8000D3F888309847236820465B69984716B184
:102F90002B79012B03D070BD002EFCD0E9E723680C
:102FA0002046D3F88430BDE87040184770B50368F8
:102FB00004465B6B154698472368294620469B6B61
:102FC000BDE8704018470B8870B5A0F86030054622
:102FD000138825F8623F044628460CF0B3FC0646E9
:102FE00028460CF0E9FC31B202B22046FFF7DEFFC2
:102FF00023682046D3F88830BDE87040184738B5BC
:103000000446C025635960191B68403D984715F177
:10301000400FF7D1204638BD70B50B4B0B4E0C4D11
:1030200003600446C0F86465C0F8CC5500F648005B
:10303000FFF7E5FFC4F85861C4F8C05104F23C4002
:10304000FFF7DDFF204670BD1CE001083CDE0108F3
:1030500054E5010810B50446FFF7DEFF20464FF4A3
:10306000186118F0ACFC204610BD0000F7B504460E
:10307000FFF75AFC4FF47F432646A3850123002522
:1030800084F824301E4BA562256346F8343B4FF686
:10309000FF7701A93046ADF80470FFF765FC2A46BA
:1030A00029463046A4F86070A4F86270FFF74EFC21
:1030B00031462046264606F02BFA124B46F8643B72
:1030C00026222946304618F035FD3046FFF72CFC05
:1030D0000D4B63660D4BC4F88C304FF47F032046D4
:1030E000C4E92855A4F89070C4F89450C4F89830F6
:1030F000A4F89C50314606F00BFA204603B0F0BD10
:10310000CCDE010868DF01085CF40108B0D60108D4
:103110002DE9F04F044687B027460025FFF704FC51
:10312000614BA56247F82C3B04F158094FF6FF7636
:1031300004A9384604F18408ADF81060FFF714FCC8
:1031400004A94846ADF81060FFF70EFC04A9ADF8DD
:103150001060404604F1B006FFF706FC04F5AC7BB6
:103160003046FFF783FF04F2645A584600F094FF9C
:10317000504600F091FF4D4BC4F870394C4BC4F8E9
:1031800078394C4BA3601E2229463846C4F874494E
:10319000C4F87C59FFF7DAFB082304A93846ADF8D8
:1031A000103007F0DEFE252248466B21FFF7CEFBEC
:1031B0000A2304A94846ADF8103007F0D2FE2522B4
:1031C00040460721FFF7C2FB092304A94046ADF89A
:1031D000103007F0C6FE0B23ADF80C300C230DEBBE
:1031E000030104AA3046ADF81030FFF7ECFE2A4682
:1031F000294604F1E400FFF7A9FB2F4B049304F5E3
:103200008A70062304A9ADF81430019007F069FD17
:10321000B4F9BA20B4F9B8100198FFF7C7FE0198C5
:103220002A462946FFF792FB01981E22C821FFF784
:10323000BDFE224B3046C4E95433FFF74AFE2A460E
:1032400029463046FFF782FB30461E22C821FFF791
:10325000ADFE04F51763C4F8E030584625226B2113
:10326000FFF774FB252250460721FFF76FFB394615
:10327000204606F04DF94946204606F049F94146F8
:10328000204606F045F93146204606F041F95946F8
:10329000204606F03DF92046514606F039F9204611
:1032A00007B0BDE8F08F00BF1CE0010804E0010892
:1032B000512F0008C8005000B0D601080A0A0AFFC2
:1032C0007047704770477047704770477047704746
:1032D00070477047704730B4C26844685510034661
:1032E00004EB6200D20748BF62599B6830BC48BFFC
:1032F000D358184743682BB183682BB9C06800F0D6
:1033000001007047184670470120704790F82D3033
:1033100080F8903080F85C30704710B594210446F6
:1033200018F04DFB204610BD10B51021044618F0D2
:1033300046FB204610BD10B50446683094F82C308A
:103340003BB104F1660107F00CFE2046FFF7B7FD24
:1033500010BD04F16401F6E710B5044600F53A70BB
:1033600000F0A7FE04F54760BDE8104000F0D3BFB1
:1033700000F19802914202D103689B6B184700F557
:103380009672914202D103685B6BF7E700F5E07239
:10339000914202D10368DB6AF0E700F515729142B1
:1033A00002D103681B6BE9E770470B88B0F908107E
:1033B0002DE9F041A0F864301388A0F86630044687
:1033C00001EBD17110461746C1F34F050CF0BAFA64
:1033D000B4F90A30804603EBD3733846C3F34F0683
:1033E0000CF0EAFAA5EB5801A6EB500212B204F178
:1033F000680009B2FFF7AAFA23682046D3F888309C
:10340000BDE8F041184738B504461D46FFF79EFA5F
:10341000BDF9102029462046FFF7C8FD38BD000041
:1034200010B526220446002118F084FB2046FFF741
:103430007BFA044B2360FF2384F826300023A36229
:10344000204610BD04F5010870B50B4B0B4E0C4D1A
:1034500003600446C0F8BC64C0F8245500F5F4606D
:10346000FFF7CDFDC4F8B060C4F8185104F56570DD
:10347000FFF7C5FD204670BD54E20108ACE101082C
:1034800054E5010810B5094B0360094BC0F8703CC6
:10349000044600F54760FFF7D7FF064BC4F8E83253
:1034A00004F53A70FFF7B8FD204610BD68E1010849
:1034B0005CE80108A0E6010810B50446FFF7E2FF4A
:1034C000204641F2086118F07AFA204610BD10B586
:1034D0000446FFF7B9FF20464FF4186118F06FFA61
:1034E000204610BDF7B50446FFF71EFA4FF47F43A0
:1034F0002646A3850123002784F82430174BA762B2
:10350000276346F8343B4FF6FF7501A93046ADF806
:103510000450FFF729FA3A4639463046A4F860507D
:10352000A4F86250FFF712FA3146204605F0F0FF8A
:1035300004F168060A4B236001A9A4F86450A4F8BA
:1035400066503046ADF80450FFF70EFA204631467B
:1035500005F0DEFF204603B0F0BD00BFCCDE010861
:10356000B0E001082DE9F04F2DED048B044687B043
:10357000A24600250AF032FC9B4BE5634AF8403B2B
:103580005046FFF74DFF04F16C03184604F198090B
:1035900008EE103A04F59678FFF742FF4846FFF729
:1035A000A1FF04F5E0774046FFF79CFF04F5157690
:1035B0003846FFF797FF3046FFF794FF04F53A735C
:1035C000184608EE903A00F0B7FD04F54763184638
:1035D00009EE103A00F0E0FE41F2F853E2180392CF
:1035E000824AE250039B824A5C6004F5B0534FF478
:1035F000A07B1A6041F20463CDF800B0E5502A4682
:1036000029465046F023FFF7FEFE4FF07F4318EEA9
:10361000100AA366CDF800B02A462946F023FFF72A
:10362000F2FE4FF07F43C4F8943005AA012304A9A9
:103630004846ADF81430ADF81050FFF7C4FC2A46E8
:10364000294604F1CC00FFF781F90D2305AA04A94E
:103650004846ADF81030ADF814304FF0500BFFF77E
:10366000A4FE644BC4F80431CDF800B048463C23B6
:10367000DC221421FFF7C7FE039AC4F8C8200223F6
:10368000ADF8103005AA032304A94046ADF8143064
:10369000FFF799FC2A46294604F5B070FFF756F962
:1036A00010230DEB030105AA4046ADF81030ADF82C
:1036B0001430FFF77AFE4F4BC4F89831CDF800B0C4
:1036C00040463C23DC22A021FFF79DFE039BC4F86B
:1036D0005C314FF0050B4FF0040305AA04A93846EE
:1036E000ADF81030ADF814B0FFF76DFC2A4629464E
:1036F00004F5FA70FFF72AF90F2305AA04A9384642
:10370000ADF81030ADF81430FFF74FFE1222C4F8B8
:103710002C222722009238464C23DC225221FFF72C
:1037200072FE039BC4F8F03105AA4FF0040304A90C
:103730003046ADF81030ADF814B0FFF744FC2A461F
:10374000294604F52270FFF701F90E2305AA04A902
:103750003046ADF81030ADF81430FFF726FE1223D6
:10376000C4F8C0322723009330464C2340F20512A0
:103770005221FFF748FE039BC4F8843218EE900AEA
:1037800078221421FFF7E2F814221146251D19EEC4
:10379000100AFFF7DBF85146284605F0B9FE18EE8F
:1037A000101A284605F0B4FE4946284605F0B0FE3A
:1037B0004146284605F0ACFE3946284605F0A8FEED
:1037C0003146284605F0A4FE18EE901A284605F06A
:1037D0009FFE284619EE101A05F09AFE204607B003
:1037E000BDEC048BBDE8F08F68E1010850E10108F1
:1037F000713300080A001400683000F0A5BB000017
:1038000038B5084B0360084B836604464FF469756E
:10381000635960191B68403D9847B5F5297FF7D17A
:10382000204638BDACE1010854E5010810B5044656
:10383000FFF7E6FF204640F20C4118F0C0F82046A2
:1038400010BD00002DE9F34106460025294A856296
:103850004FF48073C0E90155C0E90355C0E905552F
:10386000C0E90755838446F82C2BA0F85030224B32
:10387000C3624FF6FF73DFF88C80A0F8583000F178
:1038800068074FF47F030446C0E90C55C0E90E55A4
:10389000C0E91055C0E91255C0F85480C5650366EB
:1038A000A0F86450384600F073FA144BA360304619
:1038B0004421FFF701F830460321FEF7FFFF4FF0E8
:1038C0007F43E36569463046A4F86050CDF8008038
:1038D000ADF8045007F005FA094BE366314620467F
:1038E00005F016FE2046394605F012FE204602B0CD
:1038F000BDE8F081ACE101085CF401085600240049
:103900000F000200B0D601087047704730B4C2689B
:1039100044685510034604EB6200D20748BF625961
:103920009B6830BC48BFD358184743682BB18368A5
:103930002BB9C06800F0010070471846704701209D
:10394000704710B51021044618F039F8204610BD14
:1039500010B50446B03000F0A1FC04F2BC40BDE854
:10396000104000F09BBC00F6C8028A4203D10368F5
:10397000D3F88830184770472DE9F04F044687B0D8
:1039800027460025FEF7D0FF624BA56247F82C3B87
:1039900004F158094FF6FF7604A9384604F184086B
:1039A000ADF81060FEF7E0FF04A9484604F1B00B43
:1039B000ADF81060FEF7D8FF04A9404604F2BC4AF7
:1039C000ADF81060FEF7D0FF584604F6C80600F0C8
:1039D00095FC504600F092FC3046FFF747FB4E4BFB
:1039E000C4F870394D4BC4F878394D4BA3601E2292
:1039F00029463846C4F87449C4F87C59FEF7A6FF36
:103A0000082304A93846ADF8103007F0AAFA252299
:103A100048466B21FEF79AFF0A2304A94846ADF8F1
:103A2000103007F09EFA252240460721FEF78EFF50
:103A3000092304A94046ADF8103007F092FA584621
:103A400025220721FEF782FF504625226B21FEF733
:103A50007DFF0B23ADF80C300C230DEB030104AA02
:103A60003046ADF81030FFF7AEFA2A46294604F684
:103A7000FC00FEF76BFF2B4B049304F62C101B236A
:103A800004A9ADF81430019007F02BF9B4F9D2284D
:103A9000B4F9D0180198FFF789FA01982A46294607
:103AA000FEF754FF01981E22C821FFF77FFA1E4B34
:103AB000C4F86839C4F86C393046FFF70AFA2A4668
:103AC00029463046FEF742FF1E223046C821FFF746
:103AD0006DFA04F51763C4F8F8383946204605F046
:103AE00017FD4946204605F013FD4146204605F0E6
:103AF0000FFD5946204605F00BFD5146204605F0C6
:103B000007FD2046314605F003FD204607B0BDE81D
:103B1000F08F00BF54E201083CE201086739000859
:103B2000C8005000B0D601080A0A0AFF704710B555
:103B30004FF4AC71044617F042FF204610BD10B59B
:103B40000446D0F8540100F033F82046BDE8104098
:103B500008F0F8BD10B50446FEF7E4FA014B236007
:103B6000204610BDE8E201080248002300681A461A
:103B700004F01EB9E02700200A4B002210B50421F2
:103B8000044603604260032004F0AAF8064B0022BA
:103B900018600421032004F0A3F8044B18602046A9
:103BA00010BD00BF2CE30108DC270020E027002027
:103BB000024B03491868002204F062BADC27002097
:103BC000E427002038B5074B036004464FF44F75D7
:103BD000635960191B68403D9847B5F50F7FF7D1D1
:103BE000204638BD54E50108036870B50446D3F893
:103BF0009C300D469847D4F8981329444B1C03D1A8
:103C00000023C4F8983303E0042908D0C4F89813BB
:103C100023682046D3F89830BDE870401847032346
:103C2000EFE74B1C10D001290AD1B0F8983300EB14
:103C30008303D3F88023082A02DC0132C3F88023EF
:103C40000368D3F8A0301847B0F8983300EB83032B
:103C5000D3F88023002AF3DD013AEFE7FDEEC07AC6
:103C600037B517EE901A642391FBF3F14B4307EE3F
:103C7000903AF8EEE77A0A2330EE670AFDEEC07A52
:103C800017EE902A92FBF3F203FB02F407EE904A40
:103C9000F8EEE77A046830EE670AFDEEC07AB8EE17
:103CA000E77A30EE470ABDEEC00A10EE105A6B43B9
:103CB0000093D4F8884017EE903AA04703B030BD87
:103CC00010B4C0F88433019BC0F8803303685DF8FA
:103CD000044BD3F8A030C0E9E2211847B0F898337C
:103CE00000EB83000123D0F8680280F825300368D8
:103CF0005B691847B0F8983300EB83000023D0F8D5
:103D0000680280F8253003685B69184710B50446DF
:103D1000FFF758FF20464FF4697117F050FE204618
:103D200010BD000010B50446D0F88033174A0A21B0
:103D300000F506700BF026FDD4F88433134A0A21EF
:103D400004F50B700BF01EFDD4F888330F4A0A21DE
:103D500004F510700BF016FDD4F88C330B4A0A21D1
:103D600004F515700BF00EFD04F5EC7009F099FDEB
:103D700004F5CC7009F095FD04F5AC7009F091FDE7
:103D800004F1DC00BDE8104009F08BBD30E3010810
:103D9000F8B504461E4E1F4DFEF71CFE1E4B236059
:103DA0000022A4F8782204F51F7304F55F70012740
:103DB0004FF6FF719A80DA801A815A819A81DA81EE
:103DC0001A825A82DA611A845A8483F8242083F88A
:103DD00025709E6299851A639A8683F8361083F857
:103DE000372083F8382083F839201D60DA63C3E96F
:103DF000052240338342DDD16FF07F43A4F87C235A
:103E0000A4F89023C4F89C33A4F8A0132046F8BD6E
:103E1000B0D6010868F5010854E5010803460A46D2
:103E200010B5041DD1E9010184E80300D2E90301C2
:103E300003F10C0484E80300D2E90601D961116A98
:103E40001962918C546999840A4919600A499962E6
:103E5000C3E90540918D9985116B1963918E9986FF
:103E6000D18ED986118F198704491960D26BDA6314
:103E7000184610BDF0E40108B0D6010868F5010845
:103E800008B5038A032B06D9054B064A06484FF4AA
:103E9000C17117F0C3FD5A1C028240F8231008BDFF
:103EA00033E3010862E30108CAE30108B0F8003116
:103EB000032B10B50A4606D9154B164A16484FF47F
:103EC000C17117F0ABFD591CA0F8001100EB831372
:103ED000D2E901011C1D84E80300D2E9030103F1CA
:103EE0000C0484E80300D2E90601D961116A196261
:103EF000918C9984918D9985116B54691963516BDB
:103F00005963118FD26B1987C3E90540DA6310BD7D
:103F100033E3010811E40108CAE3010808B5038A84
:103F2000032B06D9054B064A06484FF4C17117F01A
:103F300075FD5A1C028240F8231008BD33E30108C6
:103F40008AE40108CAE301082DE9F047044692B06B
:103F5000002504F12C07FEF7DDFC04F1580A04F5F6
:103F60001A703946C4E9E555019004F18409FFF758
:103F700087FF01985146FFF783FF04F1B0080198CD
:103F80004946FFF77DFF01984146FFF779FF04F5A9
:103F90001F7604F1DC0102A8FFF740FF02A93046BA
:103FA000FFF784FF04F5AC7102A8FFF737FF02A901
:103FB0003046FFF77BFF04F5CC7102A8FFF72EFF18
:103FC00002A93046FFF772FF04F5EC7102A8FFF773
:103FD00025FF02A93046FFF769FF04F56070012153
:103FE0000190FFF79BFF01980221FFF797FF0198CF
:103FF0000321FFF793FF04210198FFF78FFF236848
:104000002046D3F8A0309847504684F87D5084F875
:10401000A95084F8D55084F8515009F042FC484624
:1040200009F03FFC404609F03CFC384609F039FCF9
:1040300012B0BDE8F087FEF78DBE6830FFF7F1BD26
:104040006830FFF7D1BD6830FFF748BE6830FFF732
:1040500051BE000038B5084B0360084B8366044628
:104060004FF46975635960191B68403D9847B5F571
:10407000297FF7D1204638BD3CDE010854E5010810
:1040800010B50446FFF7E6FF204640F20C4117F05A
:1040900096FC204610BD000010B50446FEF780FED9
:1040A000014B2360204610BD00E60108C0F88419CA
:1040B000704710B50446FEF72FFF002384F88039BF
:1040C00010BD00F26450FFF7B8BF00F26450FFF774
:1040D000B7BF90F8803983F0010310B580F88039BC
:1040E00000F264546BB1D0F8840990F880391BB1A8
:1040F0000368D3F8883098472046BDE81040FFF7A2
:10410000A2BF2046BDE81040FFF7A0BF10B5034B8B
:1041100003600446FEF780FF204610BDA0E60108BC
:1041200010B50446FFF7F2FF204640F6881117F05D
:1041300046FC204610BD000010B50446FEF7E8FF1F
:10414000014B2360204610BDA0E6010870470438EB
:1041500070477047C0680368DB6B18478068036866
:104160001B68184710B51021044617F028FC20469C
:1041700010BDA0F10400F5E710B500228260044AEA
:10418000C16002F1080428320460426010BD00BF23
:1041900038E7010870477047C06B03685B691847D0
:1041A00038B5044604F5476504F53A74FFF7D4F8CA
:1041B0002146284600F0ACF829462046BDE83840A4
:1041C000FFF774BF41F2F053C35C23B1012100F546
:1041D000476000F0A8B890F8683C23B1012100F5D1
:1041E0003A70FFF76EBF704741F2F053C35C2BB1DA
:1041F0004FF0FF3100F5476000F095B890F8683C4B
:104200002BB14FF0FF3100F53A70FFF75ABF7047FE
:1042100041F2F053C35C2BB14FF0FF3100F5476022
:1042200000F084B890F8683C2BB14FF0FF3100F5F6
:104230003A70FFF74ABF704741F2F053C35C23B1B5
:10424000012100F5476000F071B890F8683C23B197
:10425000012100F53A70FFF738BF704710B5034BE6
:1042600003600446FFF70EF9204610BD70E7010811
:1042700010B50446FFF7F2FF204641F20C6117F03B
:104280009EFB204610BD000010B50446FFF76AF9FA
:10429000014B2360204610BD70E70108FFF7ACBA60
:1042A0006830FFF7BEBC6830FFF79EBC6830FFF790
:1042B00015BD6830FFF71EBD38B5084B0360084BCD
:1042C000836604464FF46975635960191B68403D65
:1042D0009847B5F5297FF7D1204638BDACE10108F4
:1042E00054E5010810B50446FFF7E6FF204640F20A
:1042F0000C4117F064FB204610BD000010B50446C9
:10430000FFF7A0FA014B2360204610BDBCE701086F
:10431000C0F88419704710B50446FFF719FB002355
:1043200084F8803910BDB030FFF7BABFB030FFF766
:10433000BABF90F8803983F0010310B580F8803956
:1043400000F1B0046BB1D0F8840990F880391BB14A
:104350000368D3F8883098472046BDE81040FFF73F
:10436000A5BF2046BDE81040FFF7A3BF10B5034B23
:1043700003600446FFF768F8204610BD5CE80108BA
:1043800010B50446FFF7F2FF204640F6881117F0FB
:1043900016FB204610BD000010B50446FFF7ECFAEE
:1043A000014B2360204610BD5CE80108F0207047F7
:1043B0004FF4A07070472920FDF74AB92820FDF777
:1043C00047B908B5FDF718F9CA20FDF741F9C32030
:1043D000FDF722F90820FDF71FF95020FDF71CF921
:1043E000CF20FDF735F90020FDF716F9C120FDF7C4
:1043F00013F93020FDF710F9ED20FDF729F96420BD
:10440000FDF70AF90320FDF707F91220FDF704F97B
:104410008120FDF701F9E820FDF71AF98520FDF765
:10442000FBF80020FDF7F8F87820FDF7F5F8CB2031
:10443000FDF70EF93920FDF7EFF82C20FDF7ECF829
:104440000020FDF7E9F83420FDF7E6F80220FDF73B
:10445000E3F8F720FDF7FCF82020FDF7DDF8EA206F
:10446000FDF7F6F80020FDF7D7F80020FDF7D4F8A7
:10447000B120FDF7EDF80020FDF7CEF81B20FDF789
:10448000CBF8B620FDF7E4F80A20FDF7C5F8A22026
:10449000FDF7C2F8C020FDF7DBF81020FDF7BCF8EF
:1044A000C120FDF7D5F81020FDF7B6F8C520FDF7BF
:1044B000CFF84520FDF7B0F81520FDF7ADF8C7207F
:1044C000FDF7C6F89020FDF7A7F83620FDF7C0F8F5
:1044D000C820FDF7A1F8F220FDF7BAF80020FDF79B
:1044E0009BF8B020FDF7B4F8C220FDF795F8B62090
:1044F000FDF7AEF80A20FDF78FF8A720FDF78CF83E
:104500002720FDF789F80420FDF786F82A20FDF71B
:104510009FF80020FDF780F80020FDF77DF80020CF
:10452000FDF77AF8EF20FDF777F82B20FDF790F8EC
:104530000020FDF771F80020FDF76EF80120FDF76F
:104540006BF83F20FDF768F8F620FDF781F80120B1
:10455000FDF762F80020FDF75FF80620FDF75CF834
:104560002C20FDF775F8C820FDF7C0F82620FDF7D0
:104570006FF80120FDF750F8E020FDF769F80F20F3
:10458000FDF74AF82920FDF747F82420FDF744F805
:104590000C20FDF741F80E20FDF73EF80920FDF74D
:1045A0003BF84E20FDF738F87820FDF735F83C2031
:1045B000FDF732F80920FDF72FF81320FDF72CF84E
:1045C0000520FDF729F81720FDF726F81120FDF743
:1045D00023F80020FDF720F8E120FDF739F800204E
:1045E000FDF71AF81620FDF717F81B20FDF714F851
:1045F0000420FDF711F81120FDF70EF80720FDF754
:104600000BF83120FDF708F83320FDF705F84220BC
:10461000FDF702F80520FCF7FFFF0C20FCF7FCFF7C
:104620000A20FCF7F9FF2820FCF7F6FF2F20FCF703
:10463000F3FF0F20FCF7F0FF1120FDF709F8C82069
:10464000FDF754F82920FDF703F8BDE808402C20B9
:10465000FCF7FEBF08B5FCF7CFFF0321D320FDF721
:1046600013F880B208BD10B5C4B20222032120465F
:10467000FCF778FF0A20FCF7BDFF2046002203214B
:10468000FCF770FFBDE810400220FCF7B3BF38B55F
:104690000446E4B2FCF764FF00212046FCF77AFFF1
:1046A000012105462046FCF775FF40EA052080B24F
:1046B00038BD10B5C4B240212046FCF76BFF03069D
:1046C00007D54C212046FCF765FF003818BF0120B4
:1046D00010BD01224B212046FCF744FF204600225A
:1046E0004B21FCF73FFF0020F2E773B50423C4B26F
:1046F0000E461546D7210DEB03022046FCF764FF5A
:10470000019B1BBA1A0DC3F30B23328020462B806A
:1047100001224B21FCF726FF00224B212046FCF70B
:1047200021FF02B070BD000010B50A4B1A7890420C
:1047300004460DD0597888420AD00AB141B9012205
:104740009C54FCF70DFF2046BDE81040FFF78BBFDF
:1047500010BD00BFEC27002010B5C4B209212046CF
:10476000FCF718FF40F00100C2B209212046BDE865
:104770001040FCF7F7BE10B5C4B209212046FCF783
:1047800009FF092100F0FE022046BDE81040FCF7B9
:10479000E9BE38B5C4B20D4620460A21FCF7FAFE40
:1047A00040EA0502D2B220460A21BDE83840FCF7B3
:1047B000D9BE07B50190FCF7D4FE01981F21FFF781
:1047C000E8FF019803B05DF804EBFFF7C5BF38B50B
:1047D000C4B20D4620460A21FCF7DCFE20EA0502A1
:1047E000D2B220460A21BDE83840FCF7BBBE10B566
:1047F0000446FFF7C0FF20461F21BDE81040FFF729
:10480000E6BF10B5C0B20C460B21FCF7C3FE20403A
:1048100010BD1F21FFF7F5BF0A46C0B20B21FCF700
:10482000A1BE1F21FFF7F8BF38B5C4B20D46204620
:104830001721FCF7AFFE20EA0502D2B2204617216D
:10484000BDE83840FCF78EBE70B5C4B20646042100
:104850002046FCF79FFE042100F0FB02054620469F
:10486000FCF780FE3046F021FFF7DEFF05F0F8028E
:1048700020460421FCF776FE492220212046FCF741
:1048800071FE0220FCF7B6FE204601222121FCF732
:1048900069FE20469A224121FCF764FE204601224F
:1048A0004A21FCF75FFE204601224B21FCF75AFE0D
:1048B000204600224B21FCF755FE204601225621BE
:1048C000FCF750FE204601225821FCF74BFE204603
:1048D00001224021FCF746FE2046FF220B21FCF777
:1048E00041FEBDE870400220FCF784BE054BD3F8C2
:1048F000882042F47002C3F888204FF000629A606A
:10490000704700BF00ED00E008B50B4B1A6842F499
:1049100000721A601A6842F480621A601A6842F4DF
:1049200080721A60032000F02FF80020FDF790FA43
:10493000FDF71AF8002008BD003C0240034A044B72
:1049400011681B780B441360704700BFFC390120CD
:1049500078000020014B1868704700BFFC39012027
:1049600038B50446FFF7F6FF631C1CBF054B1B78E8
:10497000054618BFE418FFF7EDFF431BA342FAD327
:1049800038BD00BF780000200749CA6822F4E06201
:104990000302120403F4E063120C134343F0BF63F9
:1049A00043F40033CB60704700ED00E0164B30B5A8
:1049B000DC68C4F30224C4F10705231D042D28BFBD
:1049C0000425062B4FF0FF338CBF033C002403FA71
:1049D00005F521EA0501A34022EA0302A1400028CF
:1049E00041EA0203ACBF00F16040084A4FEA0313FA
:1049F000B8BF00F00F00DBB2AABF00F5614013544E
:104A000080F8003330BD00BF00ED00E014ED00E0A1
:104A1000002808DB4209012300F01F0003FA00F020
:104A2000014B43F82200704700E100E010B5044656
:104A300050B1437903F0FF0213B90271FCF7B4FFE0
:104A400001236371002010BD0120FCE790F8353090
:104A5000022B03D0802343650120704702680523A1
:104A600080F83530136823F001031360002070478D
:104A700010B5044630B390F8393003F0FF021BB98B
:104A800080F83820FCF7A8FF22686168022384F8C8
:104A90003930136823F440330B431360536BA16820
:104AA00023F007030B435363136CE16823F47F5334
:104AB00023F03F030B43136400200123E06384F8D9
:104AC000393010BD0120FCE770477047036870B5AE
:104AD0005E681D68F207044614D5E90512D51A6808
:104AE00022F480721A60C26B42F00102C26301229A
:104AF0009A60042380F83930002380F83830436905
:104B000003B19847B20616D5AB0414D523681A68CA
:104B100022F400521A6020229A60E36B43F00203F1
:104B2000E363042384F83930002384F83830636960
:104B30000BB120469847300716D5290514D52368B0
:104B40001A6822F400621A6008229A60E36B43F04C
:104B50000403E363042384F83930002384F83830F5
:104B600063690BB12046984772070BD56B0509D5D1
:104B700023681A6822F480621A6004229A60204630
:104B8000FFF7A2FFB00714D5A90512D523681A684C
:104B900022F400721A6002229A60E36BE36301233D
:104BA00084F83930002384F8383023690BB120466B
:104BB0009847F20613D5EB0411D523681A6822F43E
:104BC00080521A6010229A60E36BE363012384F839
:104BD0003930002384F838302046FFF776FF70BD67
:104BE000F0B590F83830012B4FF002032BD00122A2
:104BF00080F8393080F8382000EB0113D3E9074200
:104C00005D6A184F44EA0242093C012C9CBF05F042
:104C10007F431A434FEA0116036888BF42EA0562E0
:104C200099B9596A39400A435A62012C82699A61DA
:104C300003D8426A22F07F429A62012380F8393019
:104C4000002380F838301846F0BDD96939400A434E
:104C5000DA618219012C92691A619CBF25F07F45A7
:104C60001D62EAE7F0FFFC002DE9F74FDFF8C48191
:104C70006E4ADFF8C49100230D6801249C4004EAC9
:104C80000506AC4340F0B8804C6824F0100C4FEAA5
:104C9000430E03250CF1FF3705FA0EF5012F6FEADD
:104CA000050511D8876807EA050ACF6807FA0EF7E5
:104CB00047EA0A078760476827EA060AC4F300172D
:104CC0009F4047EA0A074760C76807EA050A8F68F6
:104CD00007FA0EF747EA0A07BCF1020FC76016D1C0
:104CE0004FEAD30A00EB8A0A03F0070BDAF82070C8
:104CF0004FEA8B0B4FF00F0C0CFA0BFC27EA0C0C55
:104D00000F6907FA0BF747EA0C07CAF82070076823
:104D10003D4004F0030707FA0EFE4EEA0505056064
:104D2000E50069D54FF0000BCDF804B0D8F8447019
:104D30003F4D47F48047C8F84470D8F8447007F4F2
:104D400080470197019F23F0030707F1804707F58C
:104D50009C3703F0030ED7F808A04FEA8E0E4FF0F1
:104D60000F0C0CFA0EFCA8422AEA0C0C4BD005F5ED
:104D70008065A84249D005F58065A84247D005F571
:104D80008065A84245D005F58065A84243D04845D6
:104D900043D005F50065A84241D005F58065A842DD
:104DA0003FD005F58065A8423DD005F58065A84255
:104DB0000CBF09250A2505FA0EF545EA0C05BD606C
:104DC0001568F74314F4803F0CBF3D403543156030
:104DD000556814F4003F0CBF3D403543556095685D
:104DE00014F4801F0CBF3D4035439560D568A40284
:104DF00054BF3D403543D5600133102B7FF43CAFA9
:104E000003B0BDE8F08F5D46D5E70125D3E7022565
:104E1000D1E70325CFE70425CDE70525CBE7062518
:104E2000C9E70725C7E70825C5E700BF003C0140E3
:104E30000000024000380240001402400AB18161C3
:104E400070470904FBE701684B6913F480634FF076
:104E5000000210D06FF480634B612023026380F85E
:104E60003D3080F83E20036C80F83C2043F0040382
:104E7000036401207047184670472DE9F04104464D
:104E80000F46164698462568686927EA000080B2F2
:104E9000B8B16B695A0516D52B6843F400732B60C3
:104EA0006FF480636B6120220023236384F83D202C
:104EB00084F83E30226C42F00402226484F83C30D4
:104EC0000120BDE8F081731CDED0FFF743FDA0EBAD
:104ED0000800B04201D8002ED5D100232022236340
:104EE00084F83D2084F83E30226C42F02002E4E752
:104EF00070B504460D46164623685B695B0701D50D
:104F0000002070BD2046FFF79EFFA8B96A1CF3D0B1
:104F1000FFF720FD801BA84201D8002DECD1002313
:104F20002022236384F83D2084F83E30226C84F8EC
:104F30003C3042F0200222640120E2E770B50446D2
:104F40000D46164621684B6913F0400301D000203E
:104F500010E04A69D2060ED56FF010024A61202295
:104F6000236384F83D2084F83E30226C226484F868
:104F70003C30012070BDFFF7EDFC801BA84201D83A
:104F8000002DDFD100232022236384F83D2084F804
:104F90003E30226C42F02002E8E72DE9F846064652
:104FA0000F4691461D464FEA114A3368BAF1010F88
:104FB0000CBF5C699C6927EA0404A4B2B4FA84F4C7
:104FC0006409A14501D0002017E06A1CEED0FFF76C
:104FD000C1FC089BC01AA84201D8002DE5D10023CE
:104FE0002022336386F83D2086F83E30326C86F806
:104FF0003C3042F0200232640120BDE8F88670B5F2
:1050000004460D46164623685B691B0601D5002041
:1050100070BD2046FFF717FFA8B96A1CF3D0FFF751
:1050200099FC801BA84201D8002DECD1002320223E
:10503000236384F83D2084F83E30226C84F83C30B1
:1050400042F0200222640120E2E700002DE9F04353
:105050001546026885B0DDE90C789946136843F47B
:10506000807313600E463B46CDF8008000224FF05F
:1050700001110446FFF791FF236838B11B68DB0577
:1050800002D54FF40073236403200AE006F0FE0605
:105090001E61194943463A462046FFF7EEFE18B115
:1050A000012005B0BDE8F083236803905A6903929C
:1050B0009B690393424639462046039BFFF79FFFB7
:1050C00040B1236C042B01BF2268136843F40073C2
:1050D0001360E5E7B9F1010F236802D1EDB21D615C
:1050E000DFE72A0A1A61394642462046FFF787FF62
:1050F0000028E6D12368F1E7020001002DE9FF470F
:105100009A46036815461A6842F480621A601A6863
:10511000DDE90C7842F480721A600E463B46CDF809
:10512000008000224FF001110446FFF736FF23688C
:1051300048B11B68DB0502D54FF4007323640320DC
:1051400004B0BDE8F0875FFA86F906F0FE061E613E
:105150002A4943463A462046FFF78FFE08B1012010
:10516000EEE7236803905A6903929B6903934246D2
:1051700039462046039BFFF742FF40B1236C042BC6
:1051800001BF2268136843F400731360E7E7BAF1C4
:10519000010F23681AD1EDB21D61424639462046FF
:1051A000FFF72DFF0028E9D12268136843F48073CC
:1051B00013604FF001110246CDF800803B462046B7
:1051C000FFF7EBFE226860B11368B3E72A0A1A61A1
:1051D000394642462046FFF712FF0028CED1236809
:1051E000D9E749F001031361044943463A46204692
:1051F000FFF743FE003818BF0120A1E702000100BD
:1052000070B5044608B9012070BD90F83D3003F038
:10521000FF021BB980F83C20FCF700FC242384F833
:105220003D3023681A6822F001021A601A6842F4BD
:1052300000421A601A6822F400421A6000F06CFE04
:105240003F4A6368934294BF3E4A3F4A90428CBFB4
:1052500000220122002AD6D121683C4E4A68B0FBC8
:10526000F6F622F03F0232434A60354A0D6A934215
:1052700084BF4FF49672724325F03F0591BF721CB4
:105280004FF47A76B2FBF6F201322A430A62CD6914
:10529000421E2B4825F44F45834225F0FF0532D8A6
:1052A0005B00B2FBF3F340F6FC720133134242D0D1
:1052B000C3F30B032B43CB61D4E907300A680343E4
:1052C00022F0C00213430B608A68D4E9030322F47E
:1052D0000342034322F0FF0213438B60D4E90530FD
:1052E000CA68034322F0FF021343CB600B6843F00C
:1052F00001030B6000202023206484F83D302063EC
:1053000084F83E0080E7A06850B903EB4303B2FB8A
:10531000F3F30133C3F30B037BB143F40043C9E759
:1053200019204343B2FBF3F30133C3F30B0323B15F
:1053300043F44043BEE70423BCE70123BAE700BFC0
:10534000A08601007F841E00FF083D0040420F0040
:105350002DE9F743044699460C9E0F469046FFF709
:10536000F9FA94F83D30202B054603D0022003B013
:10537000BDE8F08300903C49192301222046FFF745
:105380000CFE0028F2D194F83C30012BEED02068BE
:10539000012384F83C300368D9075EBF036843F0FB
:1053A00001030360036823F400630360212384F88E
:1053B0003D30402384F83E30002323640A9B63621F
:1053C000BDF82C306385638D2385284BE362CDE9DE
:1053D00000654B46424639462046FFF737FE002817
:1053E0002AD00120C3E7FFF70AFE40B1236C042B4B
:1053F00001BF2268136843F400731360F1E7636A26
:1054000027681A4612F8011B39616262628D218D8C
:10541000013A92B262857A69481E80B252072085AD
:105420000AD548B15A783A6102336362638D013B11
:1054300002399BB221856385238D2A463146204659
:10544000002BD0D1FFF754FD0028CFD1226813687C
:1054500043F400731360202384F83D3084F83C004B
:1054600084F83E0083E700BF020010000000FFFF49
:105470002DE9F043044687B09946109F0D469046AB
:10548000FFF768FA94F83D30202B064604D0022539
:10549000284607B0BDE8F083009076491923012221
:1054A0002046FFF77AFD0028F1D194F83C30012B1B
:1054B000EDD02068012384F83C300368DB075EBF31
:1054C000036843F001030360036823F4006303608F
:1054D000222384F83D30402384F83E3000232364A7
:1054E0000E9B6362BDF83C306385638D2385624B00
:1054F000E3622946CDE900764B4642462046FFF757
:10550000FDFD054608B10125C2E7228D2368B2B929
:1055100002905A6902929A690292029A1A6842F4B7
:1055200000721A60DFF85481238D002B2CD12022C9
:1055300084F83D2084F83C3084F83E30A8E7012A06
:105540000AD11A6822F480621A6003905A690392A1
:105550009A690392039AE1E7022A0ED11A6822F4AB
:1055600080621A601A6842F400621A6004905A69F4
:1055700004929B690493049BD4E705905A690592B1
:105580009B690593059BCDE7032B56D8012B15D1BD
:10559000324639462046FFF7D1FC0028B3D12368B4
:1055A0001A69636A1A70636A01336362238D013B6F
:1055B0002385638D013B9BB26385B5E7022B009683
:1055C0003B464FF000024146204619D1FFF7E5FC6B
:1055D000002898D123681A6842F400721A601A6988
:1055E000636A1A70626A531C6362238D013B2385D0
:1055F000638D013B9BB2638523681B695370D2E7BF
:10560000FFF7CBFC00287FF47EAF23681A6822F4F2
:1056100080621A601A69636A1A70636A00960133BD
:105620006362238D013B2385638D013B9BB26385C0
:1056300002463B4641462046C8E7324639462046A8
:10564000FFF77CFC00287FF45EAF23681A69636A69
:105650001A70626A531C6362238D013B2385638D3C
:10566000013B9BB263852368596949077FF55CAFAD
:10567000C3E700BF020010000000FFFF04000100AC
:1056800010B590F83D30202BDCB216D1242380F8E1
:105690003D3003681A6822F001021A605A6A22F04B
:1056A00010025A625A6A114359621A6842F00102A2
:1056B0001A6080F83D40002010BD0220FCE730B5A4
:1056C00090F83D30202BDCB216D10268242380F8FC
:1056D0003D30136823F001031360556A4FF6F073F1
:1056E0002B40194389B25162136843F001031360E0
:1056F00080F83D40002030BD0220FCE72DE9F0435A
:10570000D20104684F68E568D1F800C0D1F818905C
:105710008432A3180CF10106586800F470405860F8
:10572000E068C5F30B45C0F30B4030443D4440EA0C
:1057300005405860E068CD68C0F30A0005449868E9
:1057400000F470409860E6688868C6F30A06013085
:10575000304440EA0540986018690E6920F007005F
:1057600018614FF0000E1E619D6991F8320091F8AA
:105770003180C3F818E091F8305045EA096545EAF0
:10578000082545EA00459D61586920F0FF005861F1
:1057900048695861D86920F4E06020F00700D861BA
:1057A000D1E907500543DD61986A486AC3F828E0EB
:1057B00098621EB3012E23D0B01E022822D9072ED4
:1057C0000CBF02200120DD6A05F0E025DD628D6A54
:1057D000C96AA7EB0C0745437843033040EA05400C
:1057E000D862186B20F4FF6020F00700186319637B
:1057F000A35843F00103A350BDE8F0830420E2E77F
:105800000320E0E70220DEE738B50446002863D035
:1058100090F8A13003F0FF021BB980F8A020FCF73C
:1058200059F9022384F8A13023689A6922F0704262
:105830009A61D4E901200243E06899690243206932
:1058400002430A439A619A68244960690A409A604F
:105850009A6842EA0042A06902439A60DA68E06905
:105860000A40DA60DA6842EA0042206A0243DA60FB
:105870001A69606A0A401A611A6942EA0042A06A1B
:1058800002431A615A69114059615A69E16A42EA50
:105890000142216B0A435A61D96A94F8360094F8A0
:1058A000355001F07F41D962D96A94F834200A4317
:1058B00042EA052242EA0042DA625A6B42F00602EC
:1058C0005A639A6942F001029A6100200123C4F8E8
:1058D000A40084F8A13038BD0120FCE700F800F0F6
:1058E00070477047036870B59E6B5D6B7207044626
:1058F00014D5690712D55A6B22F004025A630422A8
:10590000DA63D0F8A43043F00103C0F8A4300023D8
:1059100080F8A12080F8A030FFF7E2FFB20716D58B
:10592000AB0714D523685A6B22F002025A63022295
:10593000DA63D4F8A4301343C4F8A430042384F801
:10594000A130002384F8A0302046FFF7C9FFF007FC
:1059500010D5E9070ED523685A6B22F001025A636D
:105960000122DA63002384F8A12084F8A0302046C5
:10597000FBF798FB320711D52B070FD523685A6B1D
:1059800022F008025A630822DA63012384F8A13066
:10599000002384F8A0302046FFF7A3FF70BD2DE957
:1059A000F04190F8A030012B06460F4694464FF088
:1059B00002001FD04FF0010886F8A08086F8A100F1
:1059C00034240D4604FB02640FCD38340FC40FCDD0
:1059D0000FC40FCD0FC42B68236030466246394692
:1059E000FFF78CFE33680020C3F8248086F8A1807E
:1059F00086F8A000BDE8F08190F8A030012B4FF0B0
:105A0000020312D080F8A13003685A6B22F0010221
:105A10005A63074A11645A6B42F001025A63012328
:105A200080F8A130002380F8A0301846704700BFEE
:105A3000006801402DE9F341044640B30368DD07E7
:105A400010D4236898075ED423681A0700F1A08059
:105A500023685B0700F1BE80A069002840F01F8129
:105A600000202BE0A64B9A6802F00C02042A07D013
:105A70009A6802F00C02082A0BD15A68510208D524
:105A80009F4B1B689A03DCD56368002BD9D101209A
:105A900014E06268B2F5803F13D11A6842F4803294
:105AA0001A60FEF757FF964E054633689B03C8D42D
:105AB000FEF750FF401B6428F7D9032002B0BDE871
:105AC000F0818F4DB2F5A02F2B6807D143F48023CE
:105AD0002B602B6843F480332B60E2E723F48033A0
