:020000040800F2
:1000000000000320990500080D1F00080F1F0008BD
:10001000111F0008131F0008151F00080000000032
:10002000000000000000000000000000F17800085F
:10003000171F00080000000081790008E57900081A
:10004000E9050008E9050008E9050008E9050008D8
:10005000E9050008E9050008E9050008E9050008C8
:10006000E9050008E9050008E9050008E9050008B8
:10007000E9050008E9050008E9050008E9050008A8
:10008000E9050008E9050008E9050008E905000898
:10009000E9050008E9050008E9050008E905000888
:1000A000E9050008E9050008E9050008E905000878
:1000B000E9050008E9050008E9050008E905000868
:1000C000E9050008E9050008E9050008E905000858
:1000D000E9050008E9050008191F0008E9050008FE
:1000E000E9050008E9050008E9050008E905000838
:1000F000E9050008E9050008E9050008E905000828
:10010000E9050008E9050008E9050008E905000817
:10011000E9050008E9050008251F0008E9050008B1
:10012000E9050008E9050008E9050008E9050008F7
:10013000E9050008E9050008E9050008E9050008E7
:10014000E9050008E9050008E9050008E9050008D7
:10015000E9050008E9050008E9050008E9050008C7
:10016000E9050008E9050008E9050008E9050008B7
:10017000E9050008E9050008E9050008000000009D
:10018000E9050008E9050008E9050008E905000897
:10019000E9050008E9050008E9050008E905000887
:0C01A000311F0008E90500083D1F0008A1
:1001B00010B5054C237833B9044B13B10448AFF3A1
:1001C00000800123237010BD6401002000000000A6
:1001D000C0CF010808B5034B1BB103490348AFF377
:1001E000008008BD0000000068010020C0CF0108A9
:1001F000034613F8012B002AFBD1181A0138704767
:1002000001F0FF01102A2BDB10F0070F08D010F8C7
:10021000013B013A8B422DD010F0070F42B3F6D1CB
:10022000F0B441EA012141EA014122F007047FF0E4
:1002300000070023F0E80256083C85EA010586EA3B
:10024000010685FA47F5A3FA87F586FA47F6A5FA77
:1002500087F68EB9EED1F0BC01F0FF0102F0070283
:1002600032B110F8013B013A83EA010313B1F8D12E
:100270000020704701387047002D06BF354603380F
:10028000073815F0010F07D1013015F4807F02BF48
:10029000013015F4C03F0130F0BC0138704700BF99
:1002A00053B94AB9002908BF00281CBF4FF0FF31DD
:1002B0004FF0FF3000F06EB9ADF1080C6DE904CEDF
:1002C00000F006F8DDF804E0DDE9022304B0704731
:1002D0002DE9F047089D04468C46002B40F08380B2
:1002E0008A42174647D9B2FA82F242B1C2F12000DF
:1002F00024FA00F09140974040EA010C94404FEA04
:100300001748230CBCFBF8F61FFA87FE08FB16C142
:1003100043EA014306FB0EF1994209D9FB1806F1A5
:10032000FF3080F01981994240F21681023E3B4431
:100330005B1AA4B2B3FBF8F008FB103344EA0344A1
:1003400000FB0EFEA64509D93C1900F1FF3380F0F1
:100350000581A64540F2028102383C4440EA06404D
:10036000A4EB0E0400261DB1D4400023C5E90043D0
:100370003146BDE8F08702B9FFDEB2FA82F2002A08
:1003800050D1CB1B4FEA174E1FFA87F80126B3FB5B
:10039000FEFC210C0EFB1C3341EA034108FB0CF36D
:1003A0008B4207D979180CF1FF3002D28B4200F250
:1003B000E9808446C91AA3B2B1FBFEF00EFB10110E
:1003C00043EA014408FB00F8A04507D93C1900F1B5
:1003D000FF3302D2A04500F2D9801846A4EB0804EE
:1003E00040EA0C40BFE78B4209D9002D00F0B180F4
:1003F0000026C5E9000130463146BDE8F087B3FA72
:1004000083F6002E4AD18B4202D3824200F2B8809A
:10041000841A61EB030101208C46002DA8D0C5E9A8
:10042000004CA5E7C2F1200320FA03F6974001FA39
:1004300002F04FEA174ED9403043030CB1FBFEF6F1
:100440001FFA87F80EFB161143EA014306FB08F179
:10045000994204FA02F409D9FB1806F1FF3C80F036
:100460008D80994240F28A80023E3B445B1A81B201
:10047000B3FBFEF00EFB103341EA034100FB08F32F
:100480008B4207D9791800F1FF3C73D28B4271D9A6
:1004900002383944CB1A40EA064678E7C6F1200C08
:1004A00003FA06F422FA0CF31C4320FA0CF701FAC3
:1004B00006F34FEA144E21FA0CF11F433B0CB1FB3B
:1004C000FEF91FFA84F80EFB191143EA014109FBFA
:1004D00008FA8A4502FA06F200FA06F308D961180A
:1004E00009F1FF3048D28A4546D9A9F102092144D1
:1004F000A1EB0A01BFB2B1FBFEF00EFB101147EAFF
:10050000014700FB08F8B84507D9E71900F1FF31AA
:100510002ED2B8452CD90238274440EA0940A7EB2F
:100520000807A0FB02894F45C64649461AD317D093
:100530005DB1B3EB0E0267EB010707FA0CFCF2406A
:100540004CEA0202F740C5E9002700263146BDE823
:10055000F0872E4628460BE70646E9E61846FDE6F4
:100560004345E5D2B8EB020E69EB04010138DFE741
:100570000846D2E760468DE78146B9E7664675E7EB
:1005800030464AE7ACF1020C394413E702383C44E8
:1005900024E700BF704700BFDFF834D0002103E03C
:1005A0000C4B5B58435004310B480C4B42189A4299
:1005B000F6D30B4A02E0002342F8043B094B9A426F
:1005C000F9D304F0B3F91BF0F3FA00F013FE70470F
:1005D0000000032078A4050800000020640100202A
:1005E00064010020883A0120FEE700F009BC00F019
:1005F00077BC704710B5042104461BF060FA204612
:1006000010BD000038B50C4B0C4C18800C4B8220F0
:1006100019806368984740F6110398420AD1094D42
:1006200023682C60822098472B688220DB689847DB
:10063000002038BD0120FCE7800100204C00002094
:1006400082010020840100204FF4A071F020FFF708
:10065000D9BF0000F7B52D4D2B6804461B698220D9
:10066000984780B22080002843D02B680DF1060205
:100670005B6901A982209847BDF80620A2F5B472F3
:1006800092B20A2A37D90B23B2FBF3F2204B1B8814
:100690009A4201D95A1E92B2BDF8043040F6B831E0
:1006A0008B422AD8C3F571630E339BB20F21B3FB83
:1006B000F1F3184909888B4201D94B1E9BB2164EA3
:1006C000164D30682F68834281B28CBF591AC91AFF
:1006D000B8B2BA428CBF101A801A89B280B20144F3
:1006E0000529C8BF33603368C8BF2A6063802B68A0
:1006F000A38003B0F0BD0022CEE7C3F56D630833DD
:100700009BB20E2BD2D80023D9E700BF8401002072
:100710008201002080010020880100208C0100203F
:1007200037B568460D461446FFF794FFBDF8000044
:1007300030B1BDF802302B60BDF8043023600120D9
:1007400003B030BD704770477047012380F87410C4
:1007500080F8753070470020704700207047836B29
:100760000BB10846184770474FF6FF707047406856
:1007700003689B69184770477047704700F052BC88
:1007800008B503680446DB6F9847236820465B6F13
:10079000984700F0EDF823682046DB6E9847292043
:1007A00000F074FF00F0E4F823682046DB6E984701
:1007B000F8E710B5044609F0E1FF23682046D3F8B6
:1007C000A430BDE81040184700F01EBC00F022BC69
:1007D00000F046BC00F0F4BB00F046BC00F04EBC9C
:1007E00000F0F8BB08B531B90A4B0B4A0B484FF47F
:1007F0002B711BF093F9C0E90F12003A08494364CA
:1008000018BF01220A70003B064A18BF012313706B
:1008100008BD00BF30D0010868D00108B6D001087B
:10082000063501200735012008B5094B1B888B428E
:1008300003D8084B1B88934205D9074B074A084841
:100840009E211BF06BF9074B1980074B1A8008BDDE
:10085000FC340120FE340120FBD001085ED10108E8
:10086000B6D00108023501200435012009F024B971
:1008700010B57C2104461BF022F9204610BD90F8EB
:1008800077301BB1406803681B68184718467047EB
:1008900010B590F8341090F874400C4B8C421A78D4
:1008A00009D03AB90A4A0B491488088810800C808C
:1008B00001221A7010BD002AFCD0054A054914888F
:1008C000088810800C800022F3E700BF003501206B
:1008D000FC340120FE340120012108B50022084625
:1008E00006F0E0FC0A4B186028B90A4B0A4A292195
:1008F0000A481BF013F900220421012006F098FD9C
:10090000074B186018B9074B034A2D21F0E708BDC3
:100910009401002074D20108BDD20108ECD2010874
:100920009001002039D30108024B4FF0FF311868C5
:1009300006F00EBD94010020014B186806F042BD80
:1009400094010020024B0021186806F001BD00BF91
:1009500094010020FFF7F0BF03480449006800231A
:100960001A4606F0ABBD00BF900100200400002035
:1009700013B5084C00231A4601A9206806F0E0FDD3
:1009800020684FF0FF33002201A906F0D9FD02B024
:1009900010BD00BF9001002003685B6C1847012068
:1009A000704703689B6A184782B0002301930D4B80
:1009B0001A6B42F400021A631A6B02F400020192ED
:1009C000019A1A6942F400021A611A6922F40002BB
:1009D0001A61054B054A1A61054B4FF080629A6017
:1009E00002B070470038024038390120FD09000884
:1009F00000E100E040F2EF3070470000024B1B685E
:100A0000586803685B6918470835012008B50B284A
:100A10000BD8DFE800F01206100A0A0A0A080808D4
:100A20000808012008BD0520FCE7054B054A0648DB
:100A300067211BF073F80020F4E70220F2E700BF03
:100A40007BD3010896D30108E0D3010808B50A2832
:100A500009D8DFE800F010060E08080808060606A8
:100A60000600012008BD054B054A064888211BF0F9
:100A700055F80020F6E70220F4E700BF7BD3010819
:100A80002BD40108E0D301082DE9F84391F81D802B
:100A90000C464046FFF7BAFFA77F05463846FFF7EA
:100AA000B5FF06463846FFF7D1FFA18A628B4B4B54
:100AB000521A1A649A61228B521A1A61E28A586396
:100AC00042EA01425A6421696268D963DA60D4F863
:100AD00000C094F81C90BCF1800F4FEA09629E465A
:100AE00030D014D8BCF1200F45EA020068D0BCF128
:100AF000400F65D0BCF1040F20D0384B2A4342F49C
:100B00000032B845DA6148D140F2012214E0BCF568
:100B1000807F07D0BCF5007FEFD142F4003242F075
:100B2000090203E042F4003242F00A02DA61E268AC
:100B30001A625E6259612A4A1A604CE040F4003041
:100B4000D861F6E7A0682A4342F40032041DDC6253
:100B5000DA6102785E62596142B1012A1FD0214BED
:100B6000214A22484FF489711AF0D8FF4288D96986
:100B7000501E21F47F4222F0100242EA0022DA6184
:100B80000124164BDA6942F02002DA61DA69920632
:100B9000FCD410229A60002CCDD1154ACCE74288B3
:100BA000D969501E21F47F4222F0100242EA00224D
:100BB000B9F1FF0442F0100218BF0124DA61E0E746
:100BC000074B40F40030CEF81C00CEF82460CEF87D
:100BD0001410CEF80030BDE8F88300BF00B002402A
:100BE0000102020076D4010890D40108E0D3010884
:100BF0000102010038B50C46887FFFF727FFA58A60
:100C0000E18A164B628B586341EA05415964521BD5
:100C10002169D9631A642568082D0ED19A611A6179
:100C20005862207F0E4A42EA0062DA61E2681A6284
:100C30000C4A5961D9601A6038BD0022D8611A6126
:100C4000E1680A0A480902F4784200F4FC600243B1
:100C5000C1F3C4010A439A63034AECE700B00240BF
:100C6000090001000102020001020300054B0360BC
:100C7000054B4FF08062C3F88820BFF34F8FBFF35E
:100C80006F8F7047D8D4010800E100E010B504462A
:100C9000FFF7ECFF20464FF442611AF010FF2046A8
:100CA00010BD000070B5044625460A4B0C300026E6
:100CB00060602672667245F8203B6022294609F082
:100CC00093FE04F54263EE602035AB42FBD1204633
:100CD00070BD00BFD8D40108012070470C207047B8
:100CE0000C2303FB0100083070470C2303FB0100B9
:100CF000083070470120704741F20C60704741F2A4
:100D00000C6303FB01000830704741F20C6303FBE6
:100D1000010008307047012070471020704700EB39
:100D200001100830704700EB01100830704708468A
:100D300001F048BA10B5034B0360044608F0EEFB1F
:100D4000204610BD90D5010810B50446FFF7F2FF0C
:100D5000204614211AF0B3FE204610BD10B5034BF7
:100D60000360044608F0DAFB204610BD5CD501089C
:100D700010B50446FFF7F2FF204641F214611AF065
:100D80009EFE204610BD000010B5034B03600446D4
:100D900008F0C4FB204610BD28D5010810B5044654
:100DA000FFF7F2FF204618211AF089FE204610BDF9
:100DB00010B5084B0360044600F5B250FFF7BAFFC8
:100DC00004F12C00FFF7CAFF04F11400FFF7DCFF69
:100DD000204610BDC4D5010808B50248FFF7E8FF5A
:100DE00008BD00BF9C01002010B50446FFF7E0FFDE
:100DF000204641F2B4711AF062FE204610BD000098
:100E00002DE9F34101F020F9054601F021F9002414
:100E1000014623462846224600940EF0FFFD254B4E
:100E2000254A264D1A60204601F0FAFC24480EF0AF
:100E300037FD2B78BFF35B8FDB0734D428461AF0DD
:100E400040FE80B31F4C204B236004F5B25707F1DE
:100E50001C0604F1140004F12C086060C4F808803A
:100E6000E760266108F05CFB184B6361404608F0C0
:100E700057FB174BE362384608F052FB154B3B60BB
:100E800007F1140002F098FE224607F114013046E3
:100E900002F080FE304601F095F928461AF01DFE5A
:100EA0000D481AF059FE0D4802B0BDE8F041FFF7B9
:100EB00065BC00BF64350120F025002098010020AA
:100EC000080000209C010020C4D5010828D5010895
:100ED0005CD5010890D50108D90D000874250020C3
:100EE0000148FFF74DBC00BF7425002070B5244CAD
:100EF000244E254B254D23603046FFF7D3FE284670
:100F000011F05CFE224B2348DC6000224FF480711C
:100F1000C3E91212204C21490360F020C3E91912E1
:100F200020804FF080711E4C59670121C3E90422D3
:100F3000C3E90622C3E90822C3E90E22C3E910224D
:100F4000C3E91422C3E916221A8583F82A20DA623B
:100F50001A861A6683F86C201A67C3E9016583F85C
:100F6000781020800F4C83F834104FF4A07020804C
:100F70000D4C20800D4802700D4A1A6070BD00BFF4
:100F8000501900205419002020D00108F425002019
:100F90007425002008350120FC34012001000001E7
:100FA00002350120FE3401200435012000350120E6
:100FB000ACD101080148FFF759BE00BF5419002009
:100FC000034B902283F85A2383F85823704700BFBD
:100FD00000E100E0094A0A49D3680A48C3F30A035A
:100FE000013B9BB20B801169C1F30A0101390180F9
:100FF0001364536B43F0010353637047006801406F
:101000006E2600206C260020014B986A704700BFB6
:1010100084680140024B0122996243F8602C7047BA
:101020008468014070B5044608F09BFD23681D6E7E
:101030000BF034FD01462046A8472368054AD3F843
:1010400084502046AC460023BDE87040A2F516311E
:10105000604700BF005802D008F06ABD08F074BDB8
:1010600008F030BD08F08BBE034B4FF080629A60F1
:101070004FF080729A60704700E100E0084B4FF03B
:101080008062C3F88820BFF34F8FBFF36F8F4FF09C
:101090008072C3F88820BFF34F8FBFF36F8F704704
:1010A00000E100E0134B144A1B6C11888B4210B511
:1010B000124C13D1124B198804F0BEFC226892F82E
:1010C0006630013382F86630FFF746FC206809F08D
:1010D00055FBBDE810400020FFF734BB04F0ACFC2A
:1010E0000020FFF730FB20680368BDE810401B6A52
:1010F000184700BF006801406E2600200835012017
:101100006C26002007B5064BADF806001B680548A5
:1011100001220DF1060105F0DAF903B05DF804FBD8
:1011200010000020F837012002490348322205F060
:101130005FBE00BF003901207839012030B5A1B071
:10114000102200210AA81AF075FD1422002103A81C
:101150001AF070FD3022002114A81AF06BFD002453
:10116000224B01941A6C42F080521A641B6C03F0FB
:1011700080530193019B1E4B02941A6842F4404233
:101180001A601B6803F4404302930122029B4FF450
:101190008033CDE9082302254FF480030421CDE9F3
:1011A0000E53B423CDE9101308A80323139312950B
:1011B00004F09CFC04F05EFC0F23CDE903354FF4F2
:1011C000A0504FF48053CDE90603052103A80594F0
:1011D00004F062FE0823149314A8322318931A957E
:1011E0001D9404F033FF21B030BD00BF0038024031
:1011F0000070004080B59AB003F0A6FBFFF79EFF99
:10120000142200210DA800241AF014FDC34B0094F1
:101210001A6BC348C34D42F020021A631A6B02F0E6
:1012200020020092009A01941A6B42F080021A6325
:101230001A6B02F080020192019A02941A6B42F03A
:1012400004021A631A6B02F004020292029A0394D7
:101250001A6B42F001021A631A6B02F00102039248
:10126000039A04941A6B42F002021A631A6B02F09A
:1012700002020492049A05941A6B42F040021A6327
:101280001A6B02F040020592059A06941A6B42F01E
:1012900010021A631A6B02F010020692069A079463
:1012A0001A6B42F008021A631B6B03F008030793E2
:1012B00022460421079B03F0E1FD22469A484FF4A1
:1012C000405103F0DBFD012602274FF0040994484A
:1012D0000F940DA9CDE90D96109703F0E5FC0DA92B
:1012E0004FF440539048CDE90D36CDE90F4703F058
:1012F000DBFC8E488E4B036003F0B8FB8D4A8E4BAF
:101300002C62C5E9002328464FF48043C5E9043424
:10131000C5E90244C5E9064403F092FF10212846BE
:1013200004F0CEF92146284604F0E9F983488449BF
:1013300084624FF48273C0E900134FF400751823E0
:10134000C0E906530A237F4DC362C0E90244C0E9E5
:101350000444C0E9084405F07DF87B4B0D974FF03D
:10136000100CC5E900364023C5E904C34FF4C0732F
:10137000C5E906344FF40063C5E908344FF400535F
:101380004FF00308AB620DA907232846CDE90E39BB
:1013900010934FF0080AC5E90249CDE91187139768
:1013A00004F07EFF4FF6FF7209A92846CDE90AA690
:1013B000089409960C9404F093FF304603F0F0FA79
:1013C0004FF6FF7209A92846CDE9097ACDE90B64E9
:1013D00004F086FF4FF6FF7209A92846CDE9098A75
:1013E000CDE90B9404F07CFF4FF40C730893089B39
:1013F0000C934FF6FF7209A92846CDE9099A0B967E
:1014000004F06EFF40F26A51284604F080FF342257
:1014100021460DEB02001AF00DFC4C4D4C4BAC86F6
:10142000C5E900340923C5E905361D2340F20D1E28
:10143000C5E9073840F24313C5E909E3284640F2FD
:10144000471340F21719C5E90B93C5E902442C6113
:1014500085F8364004F0F8F9FF21F022CDE91214A6
:101460004FF4806A05214FF4A073CDE90E24CDE935
:1014700014A1CDE916420DA922462846CDE9103720
:10148000344D18930D94ADF864408DF8664004F027
:10149000A6FA314B2B601B6898472B682F4DDB68F1
:1014A00098472F4BC5E90A47C5E90C442846C5E9CA
:1014B0000034C5E9027403F0FBFA3146284603F014
:1014C000AFFB284D284A2C614FF4E133C5E90023D6
:1014D00028460C23C5E90534C5E90244EC6105F052
:1014E000FDFBFFF782F821493222284605F080FCF7
:1014F00005F02EFE1E4A3146404605F099FF1D4B71
:101500001D4A186021461D4805F05CFE1C4B1D4A13
:10151000186021461C4805F055FE37E000380240AF
:1015200000080240A4370120000C0240503801207E
:1015300000300240005C0040A0860100F837012026
:1015400000500140BC390120400100A05838012062
:101550000068014070260020140000203839012066
:1015600000B00240783901200044004000390120D9
:1015700024D60108F039012000D60108EF05000843
:10158000343901203CD6010851190008024B18607B
:1015900005F0F8FDFEE700BFB8390120704770473D
:1015A0007FB5094B8DF817201B6802930DF11702C8
:1015B0000123009201930A460146044803F0E8FE25
:1015C00007B05DF804FB00BF0C000020A437012029
:1015D0007FB500238DF81730084B1B6802930A462D
:1015E00001230DF11701009101930146044803F016
:1015F0005FFF9DF8170007B05DF804FB0C000020AA
:10160000A43701201FB5084C24680092CDE90134AD
:101610000A4601230146054803F04AFF003818BF77
:10162000012004B010BD00BF0C000020A437012031
:1016300003F0B6B908B506480022042103F01EFCE9
:10164000BDE8084002480122042103F017BC00BF96
:101650000008024038B50B4D044601220A484FF4F9
:10166000005103F00BFC00220421284603F006FC85
:101670002046FFF747FD28460122BDE838400421F7
:1016800003F0FCBB00080240000C024038B50B4DD3
:10169000044600220A484FF4005103F0EFFB0022F9
:1016A0000421284603F0EAFB2046FFF72BFD2846DD
:1016B0000122BDE83840042103F0E0BB00080240ED
:1016C000000C0240F7B5144E144F05460C46304648
:1016D0000022042103F0D2FB00224FF400513846CF
:1016E00003F0CCFB2846FFF70DFD0D4B0D481B68A2
:1016F000224601A905F07EF8384601224FF4005138
:10170000019C03F0BBFB30460122042103F0B6FB31
:10171000204603B0F0BD00BF00080240000C0240AC
:1017200010000020F837012003F03AB970B50446E4
:10173000FEF75EFD00221346824218DB1D099F2B37
:1017400003F00F0394BF303537350320092B94BFC6
:1017500003F1300403F137041AF04EFAEDB20646F5
:10176000054923462A461AF059FE304670BDA15C51
:101770005B1ADBB20132DFE7D0D5010800B52DEDF1
:10178000028B042083B0B0EE408A1AF035FAFCEEEA
:10179000C87A6421CDED017A9DF80430B3FBF1F3F2
:1017A000037013FB01F300EE103AB8EEC00A0A21F1
:1017B00038EE400AFCEEC07ACDED017A9DF8043097
:1017C000B3FBF1F3437003EB83035B0007EE903A46
:1017D000F8EEE77A30EE670AFCEEC07ACDED017ADA
:1017E0009DF80430837007EE903AF8EEE77A30EE19
:1017F000670AFCEEC07A17EE903A03EB83035B00B6
:10180000C37003B0BDEC028B5DF804FB00B52DED99
:10181000028B022083B0B0EE408A1AF0EDF9FFEEA1
:10182000007AB4EE678AF1EE10FA20D0FCEEC87AA6
:101830006422CDED017A9DF80430B3FBF2F303701E
:1018400013FB02F307EE903AF8EEE77A0A2278EEFD
:10185000677AFCEEE77ACDED017A9DF80430B3FBB0
:10186000F2F3437003B0BDEC028B5DF804FB01485A
:10187000F8E700BFD5D50108F8B50C460546D8B93C
:1018800006201AF0B9F93F27022304460380877027
:1018900003201AF0B1F93B462C4906462A461AF0B5
:1018A000BDFD3046FFF742FF0378E37043782371B4
:1018B000032363712046F8BD012844D191ED000A4D
:1018C000FFF75CFF94ED010A0546FFF79FFF064610
:1018D00006201AF091F902230380542383702B7899
:1018E000C3706B780371AB7843712E238371EB78EF
:1018F000C37146230372337843727378837203464D
:10190000522203F80B2F044600F11B02302103F88A
:10191000011F9A42FBD11B201AF06EF91B22611C99
:1019200007461AF09BFD3846FFF700FF0378237740
:101930004378637703232846A3771AF065F9304686
:101940001AF062F9B6E70024B4E700BFD0D5010869
:1019500030B585B00C4B0D4D0D4C0193002202A902
:10196000286806F00DFC02A9FFF786FF04224FF459
:101970007A730DEB0201204605F0DEF94FF47A7020
:1019800005F076FCEAE700BF64757061E02700208F
:10199000783901200268034B9A4201D102F0EEBF70
:1019A000704700BF0010004082B00E4B0022009232
:1019B000596C41F480415964596C01F480410091A3
:1019C00000990192196C41F0805119641B6C03F06D
:1019D00080530193019B0F216FF0010002B003F0CF
:1019E00005B800BF003802400268094B9A4282B035
:1019F0000BD100230193074B1A6B42F480521A63F8
:101A00001B6B03F480530193019B02B0704700BF2E
:101A1000003002400038024007B50F4B02689A427E
:101A200016D10022A3F5F0430192196B41F4000195
:101A300019631B6B03F40003019305215A20019BDA
:101A400002F0D4FF5A2003B05DF804EB03F000B8B5
:101A500003B05DF804FB00BF00B002402DE9F04385
:101A6000044689B01422002103A81AF0E3F8226882
:101A7000244B9A4243D1244C244800250095236BE3
:101A800043F004032363236B03F004030093009BE0
:101A90000195236B43F001032363236B03F00103E0
:101AA0000193019B4FF012094FF400734FF00108AE
:101AB0000327042603A9CDE90339CDE90587079655
:101AC00003F0F2F84FF480731148079603A9CDE9AB
:101AD0000339CDE9058703F0E7F80295236C43F459
:101AE00000032364236C03F400030293029B236A24
:101AF00043F400032362236A23F40003236209B042
:101B0000BDE8F083005C004000380240000802405D
:101B100000000240F0B504468DB01422002107A851
:101B20001AF088F82268574B9A4240F0A98003F5D2
:101B30005043002400945A6C534842F080625A6427
:101B40005A6C02F080620092009A01941A6B42F083
:101B500020021A631A6B02F020020192019A029489
:101B60001A6B42F001021A631A6B02F00102029230
:101B7000029A03941A6B42F002021A631A6B02F083
:101B800002020392039A04941A6B42F040021A6311
:101B90001A6B02F040020492049A05941A6B42F008
:101BA00004021A631A6B02F004020592059A069465
:101BB0001A6B42F008021A631B6B03F008030693CA
:101BC00002250E26069B0B964FF4806307A9CDE9EC
:101BD0000735CDE9094503F067F841F658032B486E
:101BE0000B9607A9CDE907350927CDE9094503F08B
:101BF0005BF8032326480B9707A9CDE90735CDE904
:101C0000094503F051F84FF4706321480B9607A97A
:101C1000CDE90735CDE9094503F046F84FF40C63EB
:101C20001C480B9607A9CDE90735CDE9094503F016
:101C30003BF8C02318480B9607A9CDE90735CDE935
:101C4000094503F031F8082314480B9607A9CDE99C
:101C50000735CDE9094503F027F84FF4A0530D48A7
:101C60000B9707A9CDE90735CDE9094503F01CF825
:101C700058202246052102F0B9FE582002F0E8FE65
:101C80000DB0F0BD006801400014024000000240A9
:101C9000000402400018024000080240000C02400C
:101CA00010B5044688B01422002103A819F0C2FF21
:101CB0002268154B9A4224D103F568430022019211
:101CC000596C41F480115964596C01F480110191EF
:101CD00001990292196B41F0200119631B6B059267
:101CE00003F0200302934FF46071029B0223CDE9BD
:101CF000031303200523CDE9060303A9034802F0DB
:101D0000D3FF08B010BD00BF0050014000140240D6
:101D1000F0B5044689B01422002103A819F08AFF07
:101D20002268224B9A423FD103F5FA3300240094F3
:101D30001A6C1F4842F400321A641A6C02F4003222
:101D40000092009A01941A6B42F001021A631A6B16
:101D500002F001020192019A02941A6B42F0080209
:101D60001A631B6B059403F008030293029B02277E
:101D700004230326072503A9CDE90337CDE906652A
:101D800002F092FF40230B48079503A9CDE90337E2
:101D9000CDE9054602F088FF26202246052102F003
:101DA00025FE262002F054FE09B0F0BD004400409C
:101DB00000000240000C02402DE9F0412C4B1C6851
:101DC00086B0002C50D14FF00108C3F80080294B99
:101DD00000949A6B284842EA08029A639B6B03942A
:101DE00003EA08030093022703260C25009B01A9A0
:101DF0004FF63F03CDE90137CDE9046502F054FF0A
:101E00001E48059501A9CDE90187CDE9034602F0F9
:101E10004BFF48F233131A48059501A9CDE9013764
:101E2000CDE9034602F040FF4FF683731548059550
:101E300001A9CDE90137CDE9034602F035FF4CF2A7
:101E400003731148059501A9CDE90137CDE9034692
:101E500002F02AFF60230D48059501A9CDE901375D
:101E6000CDE9034602F020FF06B0BDE8F08100BFD7
:101E7000742600200038024000140240000802408E
:101E80000018024000100240000C02400004024012
:101E900030B5014689B00022362002F0A7FD362079
:101EA00002F0D6FD0025154B02951A6C144C42F039
:101EB00010021A641B6C03F01003029301A903A81B
:101EC000029B04F0A5F804F083F80E4B236040F267
:101ED000E733E36040000C4BB0FBF3F00138606087
:101EE00020462561A56004F039FE20B9204604F0A3
:101EF00019FD09B030BD0120FBE700BF00380240EA
:101F0000F43901200010004040420F007047FEE706
:101F1000FEE7FEE7FEE77047014804F0CDBF00BFD3
:101F200078390120014804F011BD00BFF4390120C7
:101F3000014803F0F7BC00BF58380120014802F007
:101F4000E5BD00BF383901200120704708B519F000
:101F500017FE162303604FF0FF3008BD08B519F0D7
:101F60000FFE16230360FEE770B50E4614460025EB
:101F7000A54201DB204670BDAFF3008070550135EE
:101F8000F6E770B50E4614460025A54201DB204653
:101F900070BD705DAFF300800135F6E74FF0FF30A4
:101FA00070474FF400534B6000207047012070478A
:101FB0000020704708B50A4B1968024609B909495B
:101FC00019601868694602448A4206D919F0D8FD9A
:101FD0000C2303604FF0FF3008BD1A60FCE700BF20
:101FE00078260020883A0120704710B50421044665
:101FF00019F065FD204610BD08B5062921D8DFE897
:1020000001F004080C1014181C0000F055FC0068C6
:1020100008BD00F051FC4068FAE700F04DFC806814
:10202000F6E700F049FCC068F2E700F045FC006903
:10203000EEE700F041FC4069EAE700F03DFC806912
:10204000E6E70020E4E700000048704774D6010886
:102050001120704713B5002451B1036801948DF825
:10206000034001AA9C680DF10303A04702B010BD14
:102070000846FBE740897047808970478088704731
:1020800083798088184480B27047C07900F07F005F
:102090007047C079C0097047704710B508210446E1
:1020A00019F00DFD204610BD704700F596730868C5
:1020B000496803C370477047704741607047704775
:1020C0000123037270477047704710B4C2684168BB
:1020D0005410034601EB6200D20748BF0A599B68BF
:1020E0005DF8044B48BFD358184743682BB1836849
:1020F0002BB9C06800F001007047184670470120F6
:10210000704710B50C21044619F0D9FC204610BDCB
:1021100010B51021044619F0D2FC204610BD10B5B0
:102120004FF4AC71044619F0CAFC204610BD10B53E
:102130000AF0B4FC0368BDE810401B6B184710B5EB
:102140000446D0F83C0158B10368DB68984738B1C1
:10215000D4F83C0103689B6898470023C4F83C31DD
:1021600010BD0000F8B5044617460E460AF0B6FC4E
:10217000104B0025C4E954760F4E1C60C4E952553B
:102180000E4B306823600E4BC4E9503503680121C3
:102190009B68C4E94E559847284600F041FB3368D8
:1021A00093F876200AB1D86C00B9986812F051FB08
:1021B0002046F8BD543501200835012020DB0108F8
:1021C00008DB0108064BC0F848310023C0F84C3149
:1021D00000F5A073C0F84401C0F83C31704700BF5F
:1021E000252300082DE9F84F07469068DDF828A060
:1021F000994603681B6A88461446984741F20B6368
:10220000984205D8414B424AA321424819F086FC26
:10221000606803681B6A98470F2803D83E4B3C4A06
:10222000A421F2E7E06803681B6A98470B2803D8EB
:102230003A4B374AA521E8E70AF030FC0AF034FCB3
:10224000D9F8000010B10368DB689847D9F800009E
:1022500010B103681B689847386810B103685B6960
:102260009847D8F8000010B103685B689847386851
:1022700010B103681B689847D8F8000010B10368D4
:102280009B689847E068036800215B6A98474FF0B5
:10229000000B234B03600546C0F804B080F808B07B
:1022A000A068036859465B6A9847064602F00CF836
:1022B0006068036859465B6A98473146044601F0F6
:1022C0007BFFC9F80050C8F800403E60E4B1231D10
:1022D000CAF804303368C4F808A03046DB68F463F9
:1022E0009847236820461B689847294630460BF0DC
:1022F000A1FF2B6828461B6998472B6828465B6915
:1023000098472046BDE8F88F2346E1E7D8D7010873
:1023100066D8010870D90108B7D901085ADA01084E
:1023200064DB010807B5D0F854310093D0F8502190
:10233000044B00F59C710448FFF754FF03B05DF8AF
:1023400004FB00BF4835012044350120006A704776
:10235000406A704770478B8880690A68DB0A50F8CA
:1023600023001044704710B5C2B1137BB3B1547B46
:10237000D27A240204F4E0641443C26998B202EBF6
:10238000840213888B4202D192F9020010BD05D855
:10239000013880B204320028F3D1F7E70020F5E7D6
:1023A00010B52821044619F08AFB204610BD000014
:1023B00030B589B00446BDF850500695BDF84C5074
:1023C00005959DF8405004959DF83C5003959DF867
:1023D000385002959DF8345001959DF83050009585
:1023E0000BF088FB064B2360119BA361129BE361FA
:1023F000159B2362169B6362204609B030BD00BF67
:1024000088DB01087047000030B5154D2C78BFF30C
:102410005B8F14F001048DB01FD1284619F051FBD9
:10242000D8B13F2307930F4B06930F4B0F4910482A
:102430000894CDE9044301220423CDE901320C23A1
:102440001A46CDE9094403940094FFF7B1FF2846EA
:1024500019F043FB074819F07FFB05480DB030BD6C
:102460007C2600207828020894280208B425020857
:1024700080260020052400087047000030B5154D67
:102480002C78BFF35B8F14F001048DB01ED1284669
:1024900019F017FBD0B13F2307930F4B06930F4B57
:1024A0000F49104808940422CDE904430123CDE9E3
:1024B0000123CDE909440E2303940094FFF778FF2C
:1024C000284619F00AFB084819F046FB05480DB0EC
:1024D00030BD00BFA82600207C28020898280208EA
:1024E0005C260208AC260020792400087047000012
:1024F00030B5154D2C78BFF35B8F14F001048DB00F
:102500001ED1284619F0DDFAD0B13F2307930F4BB7
:1025100006930F4B0F4910480894CDE90443082354
:10252000CDE9004312221C23CDE90944CDE9024440
:10253000FFF73EFF284619F0D0FA084819F00CFBC7
:1025400005480DB030BD00BFD42600208028020809
:102550009C28020894260208D8260020ED240008B2
:102560007047000030B5164D2C78BFF35B8F14F028
:1025700001048DB020D1284619F0A3FAE0B13F2321
:102580000793104B0693104B104911480894CDE95E
:10259000044301220423CDE90132052300930D22D7
:1025A0001823CDE909440394FFF702FF284619F0E8
:1025B00094FA084819F0D0FA05480DB030BD00BFB4
:1025C0000027002084280208A0280208902702087B
:1025D00004270020612500087047000030B5154D24
:1025E0002C78BFF35B8F14F001048DB01ED1284608
:1025F00019F067FAD0B13F2307930F4B06930F4BA7
:102600000F49104808940122CDE904430423CDE981
:102610000132CDE909440A2303940094FFF7C8FE70
:10262000284619F05AFA084819F096FA05480DB0EC
:1026300030BD00BF2C27002088280208A4280208EB
:102640004828020830270020D925000870470000DC
:1026500030B5154D2C78BFF35B8F14F001048DB0AD
:102660001ED1284619F02DFAD0B13F2307930F4B06
:1026700006930F4B0F49104808940122CDE90443FB
:102680000423CDE90132CDE90944142303940094D5
:10269000FFF78EFE284619F020FA084819F05CFA78
:1026A00005480DB030BD00BF582700208C28020817
:1026B000A8280208582802085C2700204D26000898
:1026C0007047000030B5154D2C78BFF35B8F14F0C8
:1026D00001048DB01ED1284619F0F3F9D0B13F2383
:1026E00007930F4B06930F4B0F4910480894012294
:1026F000CDE904430423CDE90132CDE9094428237F
:1027000003940094FFF754FE284619F0E6F90848B0
:1027100019F022FA05480DB030BD00BF8427002013
:1027200090280208AC2802086828020888270020A0
:10273000C126000800207047002070470EB403B582
:1027400003AB002153F8042B01930BF009F802B0FE
:102750005DF804EB03B070470CB407B504AB53F855
:10276000042B01930AF0FCFF03B05DF804EB02B008
:1027700070470000436C10B5044673B3038F2BB948
:10278000184B194AC021194819F0C8F9C38E00EB3B
:1027900043035B8C0BB30CF0BBFA238F012B03D8E4
:1027A000134B144AC521EEE7E28E531C9BB2092B52
:1027B000194688BFA3F10A0104EB410140F63F101E
:1027C000498C814209D10A2B04EB420228BF002325
:1027D00004EB4303508C588451842046BDE81040DC
:1027E0000CF07AB9D8DB0108E1DB01088CDC0108C8
:1027F000D6DC0108E4DC01080CF026B910B586B07F
:1028000002AC84E806001A460AAB05930193099BC3
:1028100000932146089B09F0B8FC06B010BD0000EB
:1028200038B518BB124B13481B681349B3B11A686B
:102830009C681A4402605A681A440A601C440F4B90
:1028400000221A8000F038F8054600F033F80C4BEF
:102850001C600C4B1D600C4B188007E00B4B036099
:102860000B4B0B600B4B1C68002CE8D138BD00BF34
:10287000B0270020B4270020B8270020BC27002064
:1028800058350120603501205C35012044290208BB
:10289000B0280208E8290208044B1B6853F82100FD
:1028A000034B1B6803EB4000704700BFB8270020B4
:1028B000B42700202520704700487047C02700201B
:1028C00010B5FFF7C5FE0A4C2060FFF7FBFE606005
:1028D000FFF784FEA060FFF70BFEE060FFF742FE0B
:1028E0002061FFF7CBFD6061FFF78EFDA06110BD99
:1028F000C02700200020704781807047C18070474A
:102900000181704741817047704770477047704739
:10291000704710B4C4880368121B84881B6D091BA0
:1029200012B25DF8044B09B218474FF6FF7383816A
:102930004FF0FF3303621368C36110607047806A11
:10294000704790F825201AB190F8242002B1186041
:1029500070477047704710B54FF41A71044619F06C
:10296000AEF8204610BD0000074A02600022C0E910
:102970000122C0E90322C0E90522C0E907224FF481
:1029800080728284704700BFF4F9010870B5036853
:102990000446DB6A154698472368294620461B6B88
:1029A000BDE870401847000038B5262204460D46A1
:1029B000002119F03FF92046FFF7D6FF064B2360B0
:1029C0002B88E384FF23204684F82830294608F02A
:1029D00048FB204638BD00BF30F7010810B526225D
:1029E0000446002119F026F92046FFF7BDFF074BEA
:1029F0002360074BA3624FF6FF73A3854FF47F025A
:102A00000023C4E90C322387204610BD7CF5010861
:102A1000D0D701082DE9F04F2DED048B044683B08B
:102A200026460025FFF7A0FFCE4BA56246F82C3BBB
:102A30004FF6FF7769463046ADF80070FFF7B4FFF8
:102A400004F158036946184608EE103AADF80070D4
:102A5000FFF7AAFF04F184036946184608EE903A8E
:102A6000ADF80070FFF7A0FF04F1B0036946184607
:102A700004F1DC0A09EE103AADF80070FFF794FF9C
:102A80005046FFF7ABFFDFF808B3C4F8DCB004F53D
:102A90008E731846C4F8185104F5AC7909EE903AD3
:102AA00004F5CC78FFF79AFF4846FFF797FF04F547
:102AB000EC77C4F858B1C4F894514046FFF78EFF44
:102AC000C4F898B1C4F8D4513846FFF787FFA64B35
:102AD000C4F8D8B11022A36031213046C4F8145292
:102AE000FFF754FF07236946304684F85150ADF88C
:102AF000003008F0B6FA052218EE100A1E21FFF782
:102B000045FF4FF0060B18EE100A694684F87D5019
:102B1000ADF800B008F0A5FA052218EE900A0F21D2
:102B2000FFF734FF18EE900A694684F8A950ADF813
:102B300000B008F096FA052219EE100A2946FFF7B0
:102B400025FF19EE100A694684F8D550ADF800B09B
:102B500008F087FA0F2231215046FFF717FF4FF098
:102B60007F43C4F80C31814BA4F810511B6804F565
:102B7000067B2BB97E4B7F4AAE217F4818F0CEFFF3
:102B80007E4B1B88222B03D87D4B7A4AAF21F4E77A
:102B90007C4B22211868FFF77FFE7B4A03460A21FF
:102BA00058460CF06FFEC4F818B1504608F0FCF817
:102BB000764B0093694621235046ADF8043008F067
:102BC00010F90F2219EE900A2C21FFF7DFFE6F4B50
:102BD00000934FF07F41202319EE900AC4F84C1166
:102BE000A4F850516946ADF8043008F0FAF81E21F7
:102BF0002A464846FFF7CAFE4FF07F41C4F88811C5
:102C00005A49A4F88C510B6804F50B7B002BB1D00A
:102C10005A4803881F2BB7D95A4A1F211068FFF75B
:102C20003BFE594A03460A2158460CF02BFEC4F8D5
:102C300094B1484608F0B8F8544B009369461E23F7
:102C40004846ADF8043008F0CCF80F212A4640463B
:102C5000FFF79CFE4549A4F8CC510B684FF07F4C20
:102C6000C4F8C8C104F5107B002B83D04348038807
:102C7000242B89D9434A24211068FFF70DFE424ACC
:102C800003460A2158460CF0FDFD4046C4F8D4B175
:102C900008F08AF83D4B009369461D234046ADF885
:102CA000043008F09EF829462A463846FFF76EFEA3
:102CB0002E49A4F80C520B684FF07F4CC4F808C2A0
:102CC00004F51575002B3FF455AF2C480388232BD2
:102CD0007FF65AAF2B4A23211068FFF7DDFD2A4A01
:102CE00003460A2128460CF0CDFD3846C4F814529C
:102CF00008F05AF8254B009369461C233846ADF876
:102D0000043008F06EF83146204606F081FC18EEDB
:102D1000101A204606F07CFC18EE901A204606F0A9
:102D200077FC19EE101A204606F072FC5146204638
:102D300006F06EFC19EE901A204606F069FC494632
:102D4000204606F065FC4146204606F061FC204620
:102D5000394606F05DFC204603B0BDEC048BBDE8AF
:102D6000F08F00BFCCDE010845002100583501205E
:102D7000B6DD0108F8DD010826DE01085C3501201A
:102D80006DDE010864350120BFDE0108D0D70108DF
:102D900088F60108683001F0F7B8000038B5084B34
:102DA0000360084B836604464FF4697563596019E4
:102DB0001B68403D9847B5F5297FF7D1204638BDBF
:102DC0005CDF010874E6010810B50446FFF7E6FF72
:102DD000204640F20C4118F072FE204610BD000063
:102DE0002DE9F341064600252A4A85624FF4807397
:102DF000C0E90155C0E90355C0E90555C0E90755CB
:102E0000838446F82C2BA0F85030234BC3624FF636
:102E1000FF73DFF89080A0F8583000F168074FF496
:102E20007F030446C0E90C55C0E90E55C0E91055B2
:102E3000C0E91255C0F85480C5650366A0F8645017
:102E4000384600F0C5FF154BA36030464421FFF71C
:102E500053FD30460321FFF751FD4FF07F43E365FB
:102E6000694601233046A4F86050ADF80430CDF82F
:102E7000008007F0B6FF0A4BE3663146204606F0B5
:102E8000C7FB2046394606F0C3FB204602B0BDE82A
:102E9000F08100BF5CDF01087CF5010856002400CA
:102EA0000F000200D0D70108704770477047704785
:102EB00030B4C26844685510034604EB6200D20780
:102EC00048BF62599B6830BC48BFD3581847436815
:102ED0002BB183682BB9C06800F001007047184619
:102EE00070470120704790F82D3080F89A3080F8B4
:102EF0005C30704790F82D3080F85C3070470146A8
:102F0000343091F82C3013B1623108F0AAB8603136
:102F1000FBE708B590F82C3033B1D0F8A430C0F8F6
:102F20009430FFF7ECFF08BDD0F8A030F7E710B5FC
:102F30006421044618F0C3FD204610BD10B5A82139
:102F4000044618F0BCFD204610BD10B51021044603
:102F500018F0B5FD204610BD10B5044600F5AC7064
:102F600001F089F804F26450BDE8104001F083B824
:102F700010B50446006B50B10368DB68984730B168
:102F8000206B036821469B68BDE81040184710BDC0
:102F900000F1B0028A4203D10368D3F888301847A1
:102FA00070470B7970B590F82C6004460D469BB9BC
:102FB0008EB9B3FA83F35B0984F82C30236820467A
:102FC000D3F888309847236820465B69984716B144
:102FD0002B79012B03D070BD002EFCD0E9E72368CC
:102FE0002046D3F88430BDE87040184770B50368B8
:102FF00004465B6B154698472368294620469B6B21
:10300000BDE8704018470B8870B5A0F860300546E1
:10301000138825F8623F044628460CF013FD064647
:1030200028460CF049FD31B202B22046FFF7DEFF20
:1030300023682046D3F88830BDE87040184738B57B
:103040000446C025635960191B68403D984715F137
:10305000400FF7D1204638BD70B50B4B0B4E0C4DD1
:1030600003600446C0F86465C0F8CC5500F648001B
:10307000FFF7E5FFC4F85861C4F8C05104F23C40C2
:10308000FFF7DDFF204670BD3CE101085CDF010871
:1030900074E6010810B50446FFF7DEFF20464FF442
:1030A000186118F00CFD204610BD0000F7B504466D
:1030B000FFF75AFC4FF47F432646A38501230025E2
:1030C00084F824301E4BA562256346F8343B4FF646
:1030D000FF7701A93046ADF80470FFF765FC2A467A
:1030E00029463046A4F86070A4F86270FFF74EFCE1
:1030F00031462046264606F08BFA124B46F8643BD2
:1031000026222946304618F095FD3046FFF72CFC64
:103110000D4B63660D4BC4F88C304FF47F03204693
:10312000C4E92855A4F89070C4F89450C4F89830B5
:10313000A4F89C50314606F06BFA204603B0F0BD6F
:10314000ECDF010888E001087CF50108D0D7010810
:103150002DE9F04F044687B027460025FFF704FC11
:10316000614BA56247F82C3B04F158094FF6FF76F6
:1031700004A9384604F18408ADF81060FFF714FC88
:1031800004A94846ADF81060FFF70EFC04A9ADF89D
:103190001060404604F1B006FFF706FC04F5AC7B76
:1031A0003046FFF783FF04F2645A584600F094FF5C
:1031B000504600F091FF4D4BC4F870394C4BC4F8A9
:1031C00078394C4BA3601E2229463846C4F874490E
:1031D000C4F87C59FFF7DAFB082304A93846ADF898
:1031E000103007F03EFF252248466B21FFF7CEFB4B
:1031F0000A2304A94846ADF8103007F032FF252213
:1032000040460721FFF7C2FB092304A94046ADF859
:10321000103007F026FF0B23ADF80C300C230DEB1C
:10322000030104AA3046ADF81030FFF7ECFE2A4641
:10323000294604F1E400FFF7A9FB2F4B049304F5A2
:103240008A70062304A9ADF81430019007F0C9FD77
:10325000B4F9BA20B4F9B8100198FFF7C7FE019885
:103260002A462946FFF792FB01981E22C821FFF744
:10327000BDFE224B3046C4E95433FFF74AFE2A46CE
:1032800029463046FFF782FB30461E22C821FFF751
:10329000ADFE04F51763C4F8E030584625226B21D3
:1032A000FFF774FB252250460721FFF76FFB3946D5
:1032B000204606F0ADF94946204606F0A9F94146F8
:1032C000204606F0A5F93146204606F0A1F95946F8
:1032D000204606F09DF92046514606F099F9204611
:1032E00007B0BDE8F08F00BF3CE1010824E1010810
:1032F000912F0008C8005000D0D701080A0A0AFF21
:103300007047704770477047704770477047704705
:1033100070477047704730B4C26844685510034620
:1033200004EB6200D20748BF62599B6830BC48BFBB
:10333000D358184743682BB183682BB9C06800F095
:1033400001007047184670470120704790F82D30F3
:1033500080F8903080F85C30704710B594210446B6
:1033600018F0ADFB204610BD10B51021044618F032
:10337000A6FB204610BD10B50446683094F82C30EA
:103380003BB104F1660107F06CFE2046FFF7B7FD84
:1033900010BD04F16401F6E710B5044600F53A707B
:1033A00000F0A7FE04F54760BDE8104000F0D3BF71
:1033B00000F19802914202D103689B6B184700F517
:1033C0009672914202D103685B6BF7E700F5E072F9
:1033D000914202D10368DB6AF0E700F51572914271
:1033E00002D103681B6BE9E770470B88B0F908103E
:1033F0002DE9F041A0F864301388A0F86630044647
:1034000001EBD17110461746C1F34F050CF01AFBC2
:10341000B4F90A30804603EBD3733846C3F34F0642
:103420000CF04AFBA5EB5801A6EB500212B204F1D6
:10343000680009B2FFF7AAFA23682046D3F888305B
:10344000BDE8F041184738B504461D46FFF79EFA1F
:10345000BDF9102029462046FFF7C8FD38BD000001
:1034600010B526220446002118F0E4FB2046FFF7A1
:103470007BFA044B2360FF2384F826300023A362E9
:10348000204610BD24F6010870B50B4B0B4E0C4DB9
:1034900003600446C0F8BC64C0F8245500F5F4602D
:1034A000FFF7CDFDC4F8B060C4F8185104F565709D
:1034B000FFF7C5FD204670BD74E30108CCE20108AA
:1034C00074E6010810B5094B0360094BC0F8703C65
:1034D000044600F54760FFF7D7FF064BC4F8E83213
:1034E00004F53A70FFF7B8FD204610BD88E20108E8
:1034F0007CE90108C0E7010810B50446FFF7E2FFC8
:10350000204641F2086118F0DAFA204610BD10B5E5
:103510000446FFF7B9FF20464FF4186118F0CFFAC0
:10352000204610BDF7B50446FFF71EFA4FF47F435F
:103530002646A3850123002784F82430174BA76271
:10354000276346F8343B4FF6FF7501A93046ADF8C6
:103550000450FFF729FA3A4639463046A4F860503D
:10356000A4F86250FFF712FA3146204606F050F8F0
:1035700004F168060A4B236001A9A4F86450A4F87A
:1035800066503046ADF80450FFF70EFA204631463B
:1035900006F03EF8204603B0F0BD00BFECDF0108A6
:1035A000D0E101082DE9F04F2DED048B044687B0E2
:1035B000A24600250AF092FC9B4BE5634AF8403B8B
:1035C0005046FFF74DFF04F16C03184604F19809CB
:1035D00008EE103A04F59678FFF742FF4846FFF7E9
:1035E000A1FF04F5E0774046FFF79CFF04F5157650
:1035F0003846FFF797FF3046FFF794FF04F53A731C
:10360000184608EE903A00F0B7FD04F547631846F7
:1036100009EE103A00F0E0FE41F2F853E21803928E
:10362000824AE250039B824A5C6004F5B0534FF437
:10363000A07B1A6041F20463CDF800B0E5502A4641
:1036400029465046F023FFF7FEFE4FF07F4318EE69
:10365000100AA366CDF800B02A462946F023FFF7EA
:10366000F2FE4FF07F43C4F8943005AA012304A969
:103670004846ADF81430ADF81050FFF7C4FC2A46A8
:10368000294604F1CC00FFF781F90D2305AA04A90E
:103690004846ADF81030ADF814304FF0500BFFF73E
:1036A000A4FE644BC4F80431CDF800B048463C2376
:1036B000DC221421FFF7C7FE039AC4F8C8200223B6
:1036C000ADF8103005AA032304A94046ADF8143024
:1036D000FFF799FC2A46294604F5B070FFF756F922
:1036E00010230DEB030105AA4046ADF81030ADF8EC
:1036F0001430FFF77AFE4F4BC4F89831CDF800B084
:1037000040463C23DC22A021FFF79DFE039BC4F82A
:103710005C314FF0050B4FF0040305AA04A93846AD
:10372000ADF81030ADF814B0FFF76DFC2A4629460D
:1037300004F5FA70FFF72AF90F2305AA04A9384601
:10374000ADF81030ADF81430FFF74FFE1222C4F878
:103750002C222722009238464C23DC225221FFF7EC
:1037600072FE039BC4F8F03105AA4FF0040304A9CC
:103770003046ADF81030ADF814B0FFF744FC2A46DF
:10378000294604F52270FFF701F90E2305AA04A9C2
:103790003046ADF81030ADF81430FFF726FE122396
:1037A000C4F8C0322723009330464C2340F2051260
:1037B0005221FFF748FE039BC4F8843218EE900AAA
:1037C00078221421FFF7E2F814221146251D19EE84
:1037D000100AFFF7DBF85146284605F019FF18EEEE
:1037E000101A284605F014FF4946284605F010FF38
:1037F0004146284605F00CFF3946284605F008FFEB
:103800003146284605F004FF18EE901A284605F0C8
:10381000FFFE284619EE101A05F0FAFE204607B002
:10382000BDEC048BBDE8F08F88E2010870E201086E
:10383000B13300080A001400683000F0A5BB000096
:1038400038B5084B0360084B836604464FF469752E
:10385000635960191B68403D9847B5F5297FF7D13A
:10386000204638BDCCE2010874E6010810B50446D4
:10387000FFF7E6FF204640F20C4118F020F9204601
:1038800010BD00002DE9F34106460025294A856256
:103890004FF48073C0E90155C0E90355C0E90555EF
:1038A000C0E90755838446F82C2BA0F85030224BF2
:1038B000C3624FF6FF73DFF88C80A0F8583000F138
:1038C00068074FF47F030446C0E90C55C0E90E5564
:1038D000C0E91055C0E91255C0F85480C5650366AB
:1038E000A0F86450384600F073FA144BA3603046D9
:1038F0004421FFF701F830460321FEF7FFFF4FF0A8
:103900007F43E36569463046A4F86050CDF80080F7
:10391000ADF8045007F065FA094BE36631462046DE
:1039200005F076FE2046394605F072FE204602B0CC
:10393000BDE8F081CCE201087CF5010856002400C6
:103940000F000200D0D701087047704730B4C2683A
:1039500044685510034604EB6200D20748BF625921
:103960009B6830BC48BFD358184743682BB1836865
:103970002BB9C06800F0010070471846704701205D
:10398000704710B51021044618F099F8204610BD74
:1039900010B50446B03000F0A1FC04F2BC40BDE814
:1039A000104000F09BBC00F6C8028A4203D10368B5
:1039B000D3F88830184770472DE9F04F044687B098
:1039C00027460025FEF7D0FF624BA56247F82C3B47
:1039D00004F158094FF6FF7604A9384604F184082B
:1039E000ADF81060FEF7E0FF04A9484604F1B00B03
:1039F000ADF81060FEF7D8FF04A9404604F2BC4AB7
:103A0000ADF81060FEF7D0FF584604F6C80600F087
:103A100095FC504600F092FC3046FFF747FB4E4BBA
:103A2000C4F870394D4BC4F878394D4BA3601E2251
:103A300029463846C4F87449C4F87C59FEF7A6FFF5
:103A4000082304A93846ADF8103007F00AFB2522F8
:103A500048466B21FEF79AFF0A2304A94846ADF8B1
:103A6000103007F0FEFA252240460721FEF78EFFB0
:103A7000092304A94046ADF8103007F0F2FA584681
:103A800025220721FEF782FF504625226B21FEF7F3
:103A90007DFF0B23ADF80C300C230DEB030104AAC2
:103AA0003046ADF81030FFF7AEFA2A46294604F644
:103AB000FC00FEF76BFF2B4B049304F62C101B232A
:103AC00004A9ADF81430019007F08BF9B4F9D228AD
:103AD000B4F9D0180198FFF789FA01982A462946C7
:103AE000FEF754FF01981E22C821FFF77FFA1E4BF4
:103AF000C4F86839C4F86C393046FFF70AFA2A4628
:103B000029463046FEF742FF1E223046C821FFF705
:103B10006DFA04F51763C4F8F8383946204605F005
:103B200077FD4946204605F073FD4146204605F0E5
:103B30006FFD5946204605F06BFD5146204605F0C5
:103B400067FD2046314605F063FD204607B0BDE81D
:103B5000F08F00BF74E301085CE30108A739000897
:103B6000C8005000D0D701080A0A0AFF704710B5F4
:103B70004FF4AC71044617F0A2FF204610BD10B5FB
:103B80000446D0F8540100F033F82046BDE8104058
:103B900008F058BE10B50446FEF7E4FA014B236066
:103BA000204610BD08E401080248002300681A46B8
:103BB00004F07EB9E02700200A4B002210B5042152
:103BC000044603604260032004F00AF9064B002219
:103BD00018600421032004F003F9044B1860204608
:103BE00010BD00BF4CE40108DC270020E0270020C6
:103BF000024B03491868002204F0C2BADC270020F7
:103C0000E427002038B5074B036004464FF44F7596
:103C1000635960191B68403D9847B5F50F7FF7D190
:103C2000204638BD74E60108036870B50446D3F831
:103C30009C300D469847D4F8981329444B1C03D167
:103C40000023C4F8983303E0042908D0C4F898137B
:103C500023682046D3F89830BDE870401847032306
:103C6000EFE74B1C10D001290AD1B0F8983300EBD4
:103C70008303D3F88023082A02DC0132C3F88023AF
:103C80000368D3F8A0301847B0F8983300EB8303EB
:103C9000D3F88023002AF3DD013AEFE7FDEEC07A86
:103CA00037B517EE901A642391FBF3F14B4307EEFF
:103CB000903AF8EEE77A0A2330EE670AFDEEC07A12
:103CC00017EE902A92FBF3F203FB02F407EE904A00
:103CD000F8EEE77A046830EE670AFDEEC07AB8EED7
:103CE000E77A30EE470ABDEEC00A10EE105A6B4379
:103CF0000093D4F8884017EE903AA04703B030BD47
:103D000010B4C0F88433019BC0F8803303685DF8B9
:103D1000044BD3F8A030C0E9E2211847B0F898333B
:103D200000EB83000123D0F8680280F82530036897
:103D30005B691847B0F8983300EB83000023D0F894
:103D4000680280F8253003685B69184710B504469F
:103D5000FFF758FF20464FF4697117F0B0FE204678
:103D600010BD000010B50446D0F88033174A0A2170
:103D700000F506700BF086FDD4F88433134A0A214F
:103D800004F50B700BF07EFDD4F888330F4A0A213E
:103D900004F510700BF076FDD4F88C330B4A0A2131
:103DA00004F515700BF06EFD04F5EC7009F0F9FDEB
:103DB00004F5CC7009F0F5FD04F5AC7009F0F1FDE7
:103DC00004F1DC00BDE8104009F0EBBD50E401084F
:103DD000F8B504461E4E1F4DFEF71CFE1E4B236019
:103DE0000022A4F8782204F51F7304F55F70012700
:103DF0004FF6FF719A80DA801A815A819A81DA81AE
:103E00001A825A82DA611A845A8483F8242083F849
:103E100025709E6299851A639A8683F8361083F816
:103E2000372083F8382083F839201D60DA63C3E92E
:103E3000052240338342DDD16FF07F43A4F87C2319
:103E4000A4F89023C4F89C33A4F8A0132046F8BD2E
:103E5000D0D7010888F6010874E6010803460A462F
:103E600010B5041DD1E9010184E80300D2E9030182
:103E700003F10C0484E80300D2E90601D961116A58
:103E80001962918C546999840A4919600A499962A6
:103E9000C3E90540918D9985116B1963918E9986BF
:103EA000D18ED986118F198704491960D26BDA63D4
:103EB000184610BD10E60108D0D7010888F60108A1
:103EC00008B5038A032B06D9054B064A06484FF46A
:103ED000C17117F023FE5A1C028240F8231008BD5E
:103EE00053E4010882E40108EAE40108B0F8003173
:103EF000032B10B50A4606D9154B164A16484FF43F
:103F0000C17117F00BFE591CA0F8001100EB8313D0
:103F1000D2E901011C1D84E80300D2E9030103F189
:103F20000C0484E80300D2E90601D961116A196220
:103F3000918C9984918D9985116B54691963516B9A
:103F40005963118FD26B1987C3E90540DA6310BD3D
:103F500053E4010831E50108EAE4010808B5038AE1
:103F6000032B06D9054B064A06484FF4C17117F0DA
:103F7000D5FD5A1C028240F8231008BD53E4010805
:103F8000AAE50108EAE401082DE9F047044692B0E9
:103F9000002504F12C07FEF7DDFC04F1580A04F5B6
:103FA0001A703946C4E9E555019004F18409FFF718
:103FB00087FF01985146FFF783FF04F1B00801988D
:103FC0004946FFF77DFF01984146FFF779FF04F569
:103FD0001F7604F1DC0102A8FFF740FF02A930467A
:103FE000FFF784FF04F5AC7102A8FFF737FF02A9C1
:103FF0003046FFF77BFF04F5CC7102A8FFF72EFFD8
:1040000002A93046FFF772FF04F5EC7102A8FFF732
:1040100025FF02A93046FFF769FF04F56070012112
:104020000190FFF79BFF01980221FFF797FF01988E
:104030000321FFF793FF04210198FFF78FFF236807
:104040002046D3F8A0309847504684F87D5084F835
:10405000A95084F8D55084F8515009F0A2FC484684
:1040600009F09FFC404609F09CFC384609F099FC99
:1040700012B0BDE8F087FEF78DBE6830FFF7F1BDE6
:104080006830FFF7D1BD6830FFF748BE6830FFF7F2
:1040900051BE000038B5084B0360084B83660446E8
:1040A0004FF46975635960191B68403D9847B5F531
:1040B000297FF7D1204638BD5CDF010874E601088E
:1040C00010B50446FFF7E6FF204640F20C4117F01A
:1040D000F6FC204610BD000010B50446FEF780FE39
:1040E000014B2360204610BD20E70108C0F8841969
:1040F000704710B50446FEF72FFF002384F880397F
:1041000010BD00F26450FFF7B8BF00F26450FFF733
:10411000B7BF90F8803983F0010310B580F880397B
:1041200000F264546BB1D0F8840990F880391BB167
:104130000368D3F8883098472046BDE81040FFF761
:10414000A2BF2046BDE81040FFF7A0BF10B5034B4B
:1041500003600446FEF780FF204610BDC0E701085B
:1041600010B50446FFF7F2FF204640F6881117F01D
:10417000A6FC204610BD000010B50446FEF7E8FF7F
:10418000014B2360204610BDC0E70108704704388A
:1041900070477047C0680368DB6B18478068036826
:1041A0001B68184710B51021044617F088FC2046FC
:1041B00010BDA0F10400F5E710B500228260044AAA
:1041C000C16002F1080428320460426010BD00BFE3
:1041D00058E8010870477047C06B03685B6918476F
:1041E00038B5044604F5476504F53A74FFF7D4F88A
:1041F0002146284600F0ACF829462046BDE8384064
:10420000FFF774BF41F2F053C35C23B1012100F505
:10421000476000F0A8B890F8683C23B1012100F590
:104220003A70FFF76EBF704741F2F053C35C2BB199
:104230004FF0FF3100F5476000F095B890F8683C0A
:104240002BB14FF0FF3100F53A70FFF75ABF7047BE
:1042500041F2F053C35C2BB14FF0FF3100F54760E2
:1042600000F084B890F8683C2BB14FF0FF3100F5B6
:104270003A70FFF74ABF704741F2F053C35C23B175
:10428000012100F5476000F071B890F8683C23B157
:10429000012100F53A70FFF738BF704710B5034BA6
:1042A00003600446FFF70EF9204610BD90E80108B0
:1042B00010B50446FFF7F2FF204641F20C6117F0FB
:1042C000FEFB204610BD000010B50446FFF76AF95A
:1042D000014B2360204610BD90E80108FFF7ACBAFF
:1042E0006830FFF7BEBC6830FFF79EBC6830FFF750
:1042F00015BD6830FFF71EBD38B5084B0360084B8D
:10430000836604464FF46975635960191B68403D24
:104310009847B5F5297FF7D1204638BDCCE2010892
:1043200074E6010810B50446FFF7E6FF204640F2A8
:104330000C4117F0C4FB204610BD000010B5044628
:10434000FFF7A0FA014B2360204610BDDCE801080E
:10435000C0F88419704710B50446FFF719FB002315
:1043600084F8803910BDB030FFF7BABFB030FFF726
:10437000BABF90F8803983F0010310B580F8803916
:1043800000F1B0046BB1D0F8840990F880391BB10A
:104390000368D3F8883098472046BDE81040FFF7FF
:1043A000A5BF2046BDE81040FFF7A3BF10B5034BE3
:1043B00003600446FFF768F8204610BD7CE9010859
:1043C00010B50446FFF7F2FF204640F6881117F0BB
:1043D00076FB204610BD000010B50446FFF7ECFA4E
:1043E000014B2360204610BD7CE90108F020704796
:1043F0004FF4A07070472920FDF748B92820FDF739
:1044000045B908B5FDF716F9CA20FDF73FF9C320F5
:10441000FDF720F90820FDF71DF95020FDF71AF9E6
:10442000CF20FDF733F90020FDF714F9C120FDF787
:1044300011F93020FDF70EF9ED20FDF727F9642082
:10444000FDF708F90320FDF705F91220FDF702F941
:104450008120FDF7FFF8E820FDF718F98520FDF72A
:10446000F9F80020FDF7F6F87820FDF7F3F8CB20F7
:10447000FDF70CF93920FDF7EDF82C20FDF7EAF8EF
:104480000020FDF7E7F83420FDF7E4F80220FDF7FF
:10449000E1F8F720FDF7FAF82020FDF7DBF8EA2035
:1044A000FDF7F4F80020FDF7D5F80020FDF7D2F86D
:1044B000B120FDF7EBF80020FDF7CCF81B20FDF74D
:1044C000C9F8B620FDF7E2F80A20FDF7C3F8A220EC
:1044D000FDF7C0F8C020FDF7D9F81020FDF7BAF8B5
:1044E000C120FDF7D3F81020FDF7B4F8C520FDF783
:1044F000CDF84520FDF7AEF81520FDF7ABF8C72045
:10450000FDF7C4F89020FDF7A5F83620FDF7BEF8BA
:10451000C820FDF79FF8F220FDF7B8F80020FDF75E
:1045200099F8B020FDF7B2F8C220FDF793F8B62055
:10453000FDF7ACF80A20FDF78DF8A720FDF78AF803
:104540002720FDF787F80420FDF784F82A20FDF7DF
:104550009DF80020FDF77EF80020FDF77BF8002095
:10456000FDF778F8EF20FDF775F82B20FDF78EF8B2
:104570000020FDF76FF80020FDF76CF80120FDF733
:1045800069F83F20FDF766F8F620FDF77FF8012077
:10459000FDF760F80020FDF75DF80620FDF75AF8FA
:1045A0002C20FDF773F8C820FDF7BEF82620FDF794
:1045B0006DF80120FDF74EF8E020FDF767F80F20B9
:1045C000FDF748F82920FDF745F82420FDF742F8CB
:1045D0000C20FDF73FF80E20FDF73CF80920FDF711
:1045E00039F84E20FDF736F87820FDF733F83C20F7
:1045F000FDF730F80920FDF72DF81320FDF72AF814
:104600000520FDF727F81720FDF724F81120FDF706
:1046100021F80020FDF71EF8E120FDF737F8002013
:10462000FDF718F81620FDF715F81B20FDF712F816
:104630000420FDF70FF81120FDF70CF80720FDF717
:1046400009F83120FDF706F83320FDF703F8422082
:10465000FDF700F80520FCF7FDFF0C20FCF7FAFF42
:104660000A20FCF7F7FF2820FCF7F4FF2F20FCF7C7
:10467000F1FF0F20FCF7EEFF1120FDF707F8C8202F
:10468000FDF752F82920FDF701F8BDE808402C207D
:10469000FCF7FCBF08B5FCF7CDFF0321D320FDF7E5
:1046A00011F880B208BD10B5C4B202220321204621
:1046B000FCF776FF0A20FCF7BBFF2046002203210F
:1046C000FCF76EFFBDE810400220FCF7B1BF38B523
:1046D0000446E4B2FCF762FF00212046FCF778FFB5
:1046E000012105462046FCF773FF40EA052080B211
:1046F00038BD10B5C4B240212046FCF769FF03065F
:1047000007D54C212046FCF763FF003818BF012075
:1047100010BD01224B212046FCF742FF204600221B
:104720004B21FCF73DFF0020F2E773B50423C4B230
:104730000E461546D7210DEB03022046FCF762FF1B
:10474000019B1BBA1A0DC3F30B23328020462B802A
:1047500001224B21FCF724FF00224B212046FCF7CD
:104760001FFF02B070BD000010B50A4B1A789042CE
:1047700004460DD0597888420AD00AB141B90122C5
:104780009C54FCF70BFF2046BDE81040FFF78BBFA1
:1047900010BD00BFEC27002010B5C4B2092120468F
:1047A000FCF716FF40F00100C2B209212046BDE827
:1047B0001040FCF7F5BE10B5C4B209212046FCF745
:1047C00007FF092100F0FE022046BDE81040FCF77B
:1047D000E7BE38B5C4B20D4620460A21FCF7F8FE04
:1047E00040EA0502D2B220460A21BDE83840FCF773
:1047F000D7BE07B50190FCF7D2FE01981F21FFF745
:10480000E8FF019803B05DF804EBFFF7C5BF38B5CA
:10481000C4B20D4620460A21FCF7DAFE20EA050262
:10482000D2B220460A21BDE83840FCF7B9BE10B527
:104830000446FFF7C0FF20461F21BDE81040FFF7E8
:10484000E6BF10B5C0B20C460B21FCF7C1FE2040FC
:1048500010BD1F21FFF7F5BF0A46C0B20B21FCF7C0
:104860009FBE1F21FFF7F8BF38B5C4B20D462046E2
:104870001721FCF7ADFE20EA0502D2B2204617212F
:10488000BDE83840FCF78CBE70B5C4B206460421C2
:104890002046FCF79DFE042100F0FB020546204661
:1048A000FCF77EFE3046F021FFF7DEFF05F0F80250
:1048B00020460421FCF774FE492220212046FCF703
:1048C0006FFE0220FCF7B4FE204601222121FCF7F6
:1048D00067FE20469A224121FCF762FE2046012213
:1048E0004A21FCF75DFE204601224B21FCF758FED1
:1048F000204600224B21FCF753FE20460122562180
:10490000FCF74EFE204601225821FCF749FE2046C6
:1049100001224021FCF744FE2046FF220B21FCF738
:104920003FFEBDE870400220FCF782BE054BD3F885
:10493000882042F47002C3F888204FF000629A6029
:10494000704700BF00ED00E008B50B4B1A6842F459
:1049500000721A601A6842F480621A601A6842F49F
:1049600080721A60032000F02FF80020FDF790FA03
:10497000FDF71AF8002008BD003C0240034A044B32
:1049800011681B780B441360704700BF343A012054
:1049900078000020014B1868704700BF343A0120AE
:1049A00038B50446FFF7F6FF631C1CBF054B1B78A8
:1049B000054618BFE418FFF7EDFF431BA342FAD3E7
:1049C00038BD00BF780000200749CA6822F4E062C1
:1049D0000302120403F4E063120C134343F0BF63B9
:1049E00043F40033CB60704700ED00E0164B30B568
:1049F000DC68C4F30224C4F10705231D042D28BF7D
:104A00000425062B4FF0FF338CBF033C002403FA30
:104A100005F521EA0501A34022EA0302A14000288E
:104A200041EA0203ACBF00F16040084A4FEA0313B9
:104A3000B8BF00F00F00DBB2AABF00F5614013540D
:104A400080F8003330BD00BF00ED00E014ED00E061
:104A5000002808DB4209012300F01F0003FA00F0E0
:104A6000014B43F82200704700E100E010B5044616
:104A700050B1437903F0FF0213B90271FCF7B4FFA0
:104A800001236371002010BD0120FCE790F8353050
:104A9000022B03D080234365012070470268052361
:104AA00080F83530136823F001031360002070474D
:104AB00010B5044630B390F8393003F0FF021BB94B
:104AC00080F83820FCF7A8FF22686168022384F888
:104AD0003930136823F440330B431360536BA168E0
:104AE00023F007030B435363136CE16823F47F53F4
:104AF00023F03F030B43136400200123E06384F899
:104B0000393010BD0120FCE770477047036870B56D
:104B10005E681D68F207044614D5E90512D51A68C7
:104B200022F480721A60C26B42F00102C263012259
:104B30009A60042380F83930002380F838304369C4
:104B400003B19847B20616D5AB0414D523681A688A
:104B500022F400521A6020229A60E36B43F00203B1
:104B6000E363042384F83930002384F83830636920
:104B70000BB120469847300716D5290514D5236870
:104B80001A6822F400621A6008229A60E36B43F00C
:104B90000403E363042384F83930002384F83830B5
:104BA00063690BB12046984772070BD56B0509D591
:104BB00023681A6822F480621A6004229A602046F0
:104BC000FFF7A2FFB00714D5A90512D523681A680C
:104BD00022F400721A6002229A60E36BE3630123FD
:104BE00084F83930002384F8383023690BB120462B
:104BF0009847F20613D5EB0411D523681A6822F4FE
:104C000080521A6010229A60E36BE363012384F8F8
:104C10003930002384F838302046FFF776FF70BD26
:104C2000F0B590F83830012B4FF002032BD0012261
:104C300080F8393080F8382000EB0113D3E90742BF
:104C40005D6A184F44EA0242093C012C9CBF05F002
:104C50007F431A434FEA0116036888BF42EA0562A0
:104C600099B9596A39400A435A62012C82699A619A
:104C700003D8426A22F07F429A62012380F83930D9
:104C8000002380F838301846F0BDD96939400A430E
:104C9000DA618219012C92691A619CBF25F07F4567
:104CA0001D62EAE7F0FFFC002DE9F74FDFF8C48151
:104CB0006E4ADFF8C49100230D6801249C4004EA89
:104CC0000506AC4340F0B8804C6824F0100C4FEA65
:104CD000430E03250CF1FF3705FA0EF5012F6FEA9D
:104CE000050511D8876807EA050ACF6807FA0EF7A5
:104CF00047EA0A078760476827EA060AC4F30017ED
:104D00009F4047EA0A074760C76807EA050A8F68B5
:104D100007FA0EF747EA0A07BCF1020FC76016D17F
:104D20004FEAD30A00EB8A0A03F0070BDAF8207087
:104D30004FEA8B0B4FF00F0C0CFA0BFC27EA0C0C14
:104D40000F6907FA0BF747EA0C07CAF820700768E3
:104D50003D4004F0030707FA0EFE4EEA0505056024
:104D6000E50069D54FF0000BCDF804B0D8F84470D9
:104D70003F4D47F48047C8F84470D8F8447007F4B2
:104D800080470197019F23F0030707F1804707F54C
:104D90009C3703F0030ED7F808A04FEA8E0E4FF0B1
:104DA0000F0C0CFA0EFCA8422AEA0C0C4BD005F5AD
:104DB0008065A84249D005F58065A84247D005F531
:104DC0008065A84245D005F58065A84243D0484596
:104DD00043D005F50065A84241D005F58065A8429D
:104DE0003FD005F58065A8423DD005F58065A84215
:104DF0000CBF09250A2505FA0EF545EA0C05BD602C
:104E00001568F74314F4803F0CBF3D4035431560EF
:104E1000556814F4003F0CBF3D403543556095681C
:104E200014F4801F0CBF3D4035439560D568A40243
:104E300054BF3D403543D5600133102B7FF43CAF68
:104E400003B0BDE8F08F5D46D5E70125D3E7022525
:104E5000D1E70325CFE70425CDE70525CBE70625D8
:104E6000C9E70725C7E70825C5E700BF003C0140A3
:104E70000000024000380240001402400AB1816183
:104E800070470904FBE701684B6913F480634FF036
:104E9000000210D06FF480634B612023026380F81E
:104EA0003D3080F83E20036C80F83C2043F0040342
:104EB000036401207047184670472DE9F04104460D
:104EC0000F46164698462568686927EA000080B2B2
:104ED000B8B16B695A0516D52B6843F400732B6083
:104EE0006FF480636B6120220023236384F83D20EC
:104EF00084F83E30226C42F00402226484F83C3094
:104F00000120BDE8F081731CDED0FFF743FDA0EB6C
:104F10000800B04201D8002ED5D1002320222363FF
:104F200084F83D2084F83E30226C42F02002E4E711
:104F300070B504460D46164623685B695B0701D5CC
:104F4000002070BD2046FFF79EFFA8B96A1CF3D071
:104F5000FFF720FD801BA84201D8002DECD10023D3
:104F60002022236384F83D2084F83E30226C84F8AC
:104F70003C3042F0200222640120E2E770B5044692
:104F80000D46164621684B6913F0400301D00020FE
:104F900010E04A69D2060ED56FF010024A61202255
:104FA000236384F83D2084F83E30226C226484F828
:104FB0003C30012070BDFFF7EDFC801BA84201D8FA
:104FC000002DDFD100232022236384F83D2084F8C4
:104FD0003E30226C42F02002E8E72DE9F846064612
:104FE0000F4691461D464FEA114A3368BAF1010F48
:104FF0000CBF5C699C6927EA0404A4B2B4FA84F487
:105000006409A14501D0002017E06A1CEED0FFF72B
:10501000C1FC089BC01AA84201D8002DE5D100238D
:105020002022336386F83D2086F83E30326C86F8C5
:105030003C3042F0200232640120BDE8F88670B5B1
:1050400004460D46164623685B691B0601D5002001
:1050500070BD2046FFF717FFA8B96A1CF3D0FFF711
:1050600099FC801BA84201D8002DECD100232022FE
:10507000236384F83D2084F83E30226C84F83C3071
:1050800042F0200222640120E2E700002DE9F04313
:105090001546026885B0DDE90C789946136843F43B
:1050A000807313600E463B46CDF8008000224FF01F
:1050B00001110446FFF791FF236838B11B68DB0537
:1050C00002D54FF40073236403200AE006F0FE06C5
:1050D0001E61194943463A462046FFF7EEFE18B1D5
:1050E000012005B0BDE8F083236803905A6903925C
:1050F0009B690393424639462046039BFFF79FFF77
:1051000040B1236C042B01BF2268136843F4007381
:105110001360E5E7B9F1010F236802D1EDB21D611B
:10512000DFE72A0A1A61394642462046FFF787FF21
:105130000028E6D12368F1E7020001002DE9FF47CE
:105140009A46036815461A6842F480621A601A6823
:10515000DDE90C7842F480721A600E463B46CDF8C9
:10516000008000224FF001110446FFF736FF23684C
:1051700048B11B68DB0502D54FF40073236403209C
:1051800004B0BDE8F0875FFA86F906F0FE061E61FE
:105190002A4943463A462046FFF78FFE08B10120D0
:1051A000EEE7236803905A6903929B690393424692
:1051B00039462046039BFFF742FF40B1236C042B86
:1051C00001BF2268136843F400731360E7E7BAF184
:1051D000010F23681AD1EDB21D61424639462046BF
:1051E000FFF72DFF0028E9D12268136843F480738C
:1051F00013604FF001110246CDF800803B46204677
:10520000FFF7EBFE226860B11368B3E72A0A1A6160
:10521000394642462046FFF712FF0028CED12368C8
:10522000D9E749F001031361044943463A46204651
:10523000FFF743FE003818BF0120A1E7020001007C
:1052400070B5044608B9012070BD90F83D3003F0F8
:10525000FF021BB980F83C20FCF700FC242384F8F3
:105260003D3023681A6822F001021A601A6842F47D
:1052700000421A601A6822F400421A6000F0A8FE88
:105280003F4A6368934294BF3E4A3F4A90428CBF74
:1052900000220122002AD6D121683C4E4A68B0FB88
:1052A000F6F622F03F0232434A60354A0D6A9342D5
:1052B00084BF4FF49672724325F03F0591BF721C74
:1052C0004FF47A76B2FBF6F201322A430A62CD69D4
:1052D000421E2B4825F44F45834225F0FF0532D866
:1052E0005B00B2FBF3F340F6FC720133134242D091
:1052F000C3F30B032B43CB61D4E907300A680343A4
:1053000022F0C00213430B608A68D4E9030322F43D
:105310000342034322F0FF0213438B60D4E90530BC
:10532000CA68034322F0FF021343CB600B6843F0CB
:1053300001030B6000202023206484F83D302063AB
:1053400084F83E0080E7A06850B903EB4303B2FB4A
:10535000F3F30133C3F30B037BB143F40043C9E719
:1053600019204343B2FBF3F30133C3F30B0323B11F
:1053700043F44043BEE70423BCE70123BAE700BF80
:10538000A08601007F841E00FF083D0040420F0000
:105390002DE9F743044699460C9E0F469046FFF7C9
:1053A000F9FA94F83D30202B054603D0022003B0D3
:1053B000BDE8F08300903C49192301222046FFF705
:1053C0000CFE0028F2D194F83C30012BEED020687E
:1053D000012384F83C300368D9075EBF036843F0BB
:1053E00001030360036823F400630360212384F84E
:1053F0003D30402384F83E30002323640A9B6362DF
:10540000BDF82C306385638D2385284BE362CDE99D
:1054100000654B46424639462046FFF737FE0028D6
:105420002AD00120C3E7FFF70AFE40B1236C042B0A
:1054300001BF2268136843F400731360F1E7636AE5
:1054400027681A4612F8011B39616262628D218D4C
:10545000013A92B262857A69481E80B2520720856D
:105460000AD548B15A783A6102336362638D013BD1
:1054700002399BB221856385238D2A463146204619
:10548000002BD0D1FFF754FD0028CFD1226813683C
:1054900043F400731360202384F83D3084F83C000B
:1054A00084F83E0083E700BF020010000000FFFF09
:1054B0002DE9F043044687B09946109F0D4690466B
:1054C000FFF768FA94F83D30202B064604D00225F9
:1054D000284607B0BDE8F0830090764919230122E1
:1054E0002046FFF77AFD0028F1D194F83C30012BDB
:1054F000EDD02068012384F83C300368DB075EBFF1
:10550000036843F001030360036823F4006303604E
:10551000222384F83D30402384F83E300023236466
:105520000E9B6362BDF83C306385638D2385624BBF
:10553000E3622946CDE900764B4642462046FFF716
:10554000FDFD054608B10125C2E7228D2368B2B9E9
:1055500002905A6902929A690292029A1A6842F477
:1055600000721A60DFF85481238D002B2CD1202289
:1055700084F83D2084F83C3084F83E30A8E7012AC6
:105580000AD11A6822F480621A6003905A69039261
:105590009A690392039AE1E7022A0ED11A6822F46B
:1055A00080621A601A6842F400621A6004905A69B4
:1055B00004929B690493049BD4E705905A69059271
:1055C0009B690593059BCDE7032B56D8012B15D17D
:1055D000324639462046FFF7D1FC0028B3D1236874
:1055E0001A69636A1A70636A01336362238D013B2F
:1055F0002385638D013B9BB26385B5E7022B009643
:105600003B464FF000024146204619D1FFF7E5FC2A
:10561000002898D123681A6842F400721A601A6947
:10562000636A1A70626A531C6362238D013B23858F
:10563000638D013B9BB2638523681B695370D2E77E
:10564000FFF7CBFC00287FF47EAF23681A6822F4B2
:1056500080621A601A69636A1A70636A009601337D
:105660006362238D013B2385638D013B9BB2638580
:1056700002463B4641462046C8E732463946204668
:10568000FFF77CFC00287FF45EAF23681A69636A29
:105690001A70626A531C6362238D013B2385638DFC
:1056A000013B9BB263852368596949077FF55CAF6D
:1056B000C3E700BF020010000000FFFF040001006C
:1056C00010B590F83D30202BDCB216D1242380F8A1
:1056D0003D3003681A6822F001021A605A6A22F00B
:1056E00010025A625A6A114359621A6842F0010262
:1056F0001A6080F83D40002010BD0220FCE730B564
:1057000090F83D30202BDCB216D10268242380F8BB
:105710003D30136823F001031360556A4FF6F073B0
:105720002B40194389B25162136843F0010313609F
:1057300080F83D40002030BD0220FCE72DE9F04319
:10574000D20104684F68E568D1F800C0D1F818901C
:105750008432A3180CF10106586800F470405860B8
:10576000E068C5F30B45C0F30B4030443D4440EACC
:1057700005405860E068CD68C0F30A0005449868A9
:1057800000F470409860E6688868C6F30A06013045
:10579000304440EA0540986018690E6920F007001F
:1057A00018614FF0000E1E619D6991F8320091F86A
:1057B0003180C3F818E091F8305045EA096545EAB0
:1057C000082545EA00459D61586920F0FF005861B1
:1057D00048695861D86920F4E06020F00700D8617A
:1057E000D1E907500543DD61986A486AC3F828E0AB
:1057F00098621EB3012E23D0B01E022822D9072E94
:105800000CBF02200120DD6A05F0E025DD628D6A13
:10581000C96AA7EB0C0745437843033040EA0540CB
:10582000D862186B20F4FF6020F00700186319633A
:10583000A35843F00103A350BDE8F0830420E2E73E
:105840000320E0E70220DEE738B50446002863D0F5
:1058500090F8A13003F0FF021BB980F8A020FCF7FC
:1058600059F9022384F8A13023689A6922F0704222
:105870009A61D4E901200243E068996902432069F2
:1058800002430A439A619A68244960690A409A600F
:105890009A6842EA0042A06902439A60DA68E069C5
:1058A0000A40DA60DA6842EA0042206A0243DA60BB
:1058B0001A69606A0A401A611A6942EA0042A06ADB
:1058C00002431A615A69114059615A69E16A42EA10
:1058D0000142216B0A435A61D96A94F8360094F860
:1058E000355001F07F41D962D96A94F834200A43D7
:1058F00042EA052242EA0042DA625A6B42F00602AC
:105900005A639A6942F001029A6100200123C4F8A7
:10591000A40084F8A13038BD0120FCE700F800F0B5
:1059200070477047036870B59E6B5D6B72070446E5
:1059300014D5690712D55A6B22F004025A63042267
:10594000DA63D0F8A43043F00103C0F8A430002398
:1059500080F8A12080F8A030FFF7E2FFB20716D54B
:10596000AB0714D523685A6B22F002025A63022255
:10597000DA63D4F8A4301343C4F8A430042384F8C1
:10598000A130002384F8A0302046FFF7C9FFF007BC
:1059900010D5E9070ED523685A6B22F001025A632D
:1059A0000122DA63002384F8A12084F8A030204685
:1059B000FBF778FB320711D52B070FD523685A6BFD
:1059C00022F008025A630822DA63012384F8A13026
:1059D000002384F8A0302046FFF7A3FF70BD2DE917
:1059E000F04190F8A030012B06460F4694464FF048
:1059F00002001FD04FF0010886F8A08086F8A100B1
:105A000034240D4604FB02640FCD38340FC40FCD8F
:105A10000FC40FCD0FC42B68236030466246394651
:105A2000FFF78CFE33680020C3F8248086F8A1803D
:105A300086F8A000BDE8F08190F8A030012B4FF06F
:105A4000020312D080F8A13003685A6B22F00102E1
:105A50005A63074A11645A6B42F001025A630123E8
:105A600080F8A130002380F8A0301846704700BFAE
:105A70000068014037B500230193184B184D1A6C8C
:105A800042F080521A641B6C03F080530193019B17
:105A9000144B01221A60FEF77DFF04466B68DA039F
:105AA0000BD5114B0E4D01221A60FEF773FF044611
:105AB0006B689B030AD5002006E0FEF76BFF001B16
:105AC000B0F57A7FEAD9032003B030BDFEF762FF5C
:105AD000001BB0F57A7FEBD9F5E700BF0038024034
