:020000040800F2
:100000000000032089050008551C0008571C000843
:10001000591C00085B1C00085D1C00080000000063
:10002000000000000000000000000000A1720008B5
:100030005F1C000800000000317300089573000881
:10004000D9050008D9050008D9050008D905000818
:10005000D9050008D9050008D9050008D905000808
:10006000D9050008D9050008D9050008D9050008F8
:10007000D9050008D9050008D9050008D9050008E8
:10008000D9050008D9050008D9050008D9050008D8
:10009000D9050008D9050008D9050008D9050008C8
:1000A000D9050008D9050008D9050008D9050008B8
:1000B000D9050008D9050008D9050008D9050008A8
:1000C000D9050008D9050008D9050008D905000898
:1000D000D9050008D9050008D9050008D905000888
:1000E000D9050008D9050008D9050008D905000878
:1000F000D9050008D9050008D9050008D905000868
:10010000D9050008D9050008D9050008D905000857
:10011000D9050008D9050008611C0008D9050008A8
:10012000D9050008D9050008D9050008D905000837
:10013000D9050008D9050008D9050008D905000827
:10014000D9050008D9050008D9050008D905000817
:10015000D9050008D9050008D9050008D905000807
:10016000D9050008D9050008D9050008D9050008F7
:10017000D9050008D9050008D905000800000000CD
:10018000D9050008D9050008D9050008D9050008D7
:10019000D9050008D9050008D9050008D9050008C7
:0C01A0006D1C0008D9050008791C00083F
:1001B00010B5054C237833B9044B13B10448AFF3A1
:1001C00000800123237010BD6401002000000000A6
:1001D00060C5010808B5034B1BB103490348AFF3E1
:1001E000008008BD000000006801002060C5010813
:1001F00001F0FF01102A2BDB10F0070F08D010F8D8
:10020000013B013A8B422DD010F0070F42B3F6D1DB
:10021000F0B441EA012141EA014122F007047FF0F4
:1002200000070023F0E80256083C85EA010586EA4B
:10023000010685FA47F5A3FA87F586FA47F6A5FA87
:1002400087F68EB9EED1F0BC01F0FF0102F0070293
:1002500032B110F8013B013A83EA010313B1F8D13E
:100260000020704701387047002D06BF354603381F
:10027000073815F0010F07D1013015F4807F02BF58
:10028000013015F4C03F0130F0BC0138704700BFA9
:1002900053B94AB9002908BF00281CBF4FF0FF31ED
:1002A0004FF0FF3000F06EB9ADF1080C6DE904CEEF
:1002B00000F006F8DDF804E0DDE9022304B0704741
:1002C0002DE9F047089D04468C46002B40F08380C2
:1002D0008A42174647D9B2FA82F242B1C2F12000EF
:1002E00024FA00F09140974040EA010C94404FEA14
:1002F0001748230CBCFBF8F61FFA87FE08FB16C153
:1003000043EA014306FB0EF1994209D9FB1806F1B5
:10031000FF3080F01981994240F21681023E3B4441
:100320005B1AA4B2B3FBF8F008FB103344EA0344B1
:1003300000FB0EFEA64509D93C1900F1FF3380F001
:100340000581A64540F2028102383C4440EA06405D
:10035000A4EB0E0400261DB1D4400023C5E90043E0
:100360003146BDE8F08702B9FFDEB2FA82F2002A18
:1003700050D1CB1B4FEA174E1FFA87F80126B3FB6B
:10038000FEFC210C0EFB1C3341EA034108FB0CF37D
:100390008B4207D979180CF1FF3002D28B4200F260
:1003A000E9808446C91AA3B2B1FBFEF00EFB10111E
:1003B00043EA014408FB00F8A04507D93C1900F1C5
:1003C000FF3302D2A04500F2D9801846A4EB0804FE
:1003D00040EA0C40BFE78B4209D9002D00F0B18004
:1003E0000026C5E9000130463146BDE8F087B3FA82
:1003F00083F6002E4AD18B4202D3824200F2B880AB
:10040000841A61EB030101208C46002DA8D0C5E9B8
:10041000004CA5E7C2F1200320FA03F6974001FA49
:1004200002F04FEA174ED9403043030CB1FBFEF601
:100430001FFA87F80EFB161143EA014306FB08F189
:10044000994204FA02F409D9FB1806F1FF3C80F046
:100450008D80994240F28A80023E3B445B1A81B211
:10046000B3FBFEF00EFB103341EA034100FB08F33F
:100470008B4207D9791800F1FF3C73D28B4271D9B6
:1004800002383944CB1A40EA064678E7C6F1200C18
:1004900003FA06F422FA0CF31C4320FA0CF701FAD3
:1004A00006F34FEA144E21FA0CF11F433B0CB1FB4B
:1004B000FEF91FFA84F80EFB191143EA014109FB0A
:1004C00008FA8A4502FA06F200FA06F308D961181A
:1004D00009F1FF3048D28A4546D9A9F102092144E1
:1004E000A1EB0A01BFB2B1FBFEF00EFB101147EA0F
:1004F000014700FB08F8B84507D9E71900F1FF31BB
:100500002ED2B8452CD90238274440EA0940A7EB3F
:100510000807A0FB02894F45C64649461AD317D0A3
:100520005DB1B3EB0E0267EB010707FA0CFCF2407A
:100530004CEA0202F740C5E9002700263146BDE833
:10054000F0872E4628460BE70646E9E61846FDE604
:100550004345E5D2B8EB020E69EB04010138DFE751
:100560000846D2E760468DE78146B9E7664675E7FB
:1005700030464AE7ACF1020C394413E702383C44F8
:1005800024E700BF704700BFDFF834D0002103E04C
:100590000C4B5B58435004310B480C4B42189A42A9
:1005A000F6D30B4A02E0002342F8043B094B9A427F
:1005B000F9D304F023F81AF0A3FF00F069FE7047A6
:1005C000000003201C9905080000002064010020A1
:1005D00064010020F8390120FEE700F06FBC00F054
:1005E000DDBC704710B5042104461AF010FF204608
:1005F00010BD000038B50C4B0C4C18800C4B822001
:1006000019806368984740F6110398420AD1094D52
:1006100023682C60822098472B688220DB689847EB
:10062000002038BD0120FCE7800100204C000020A4
:1006300082010020840100204FF4A071F020FFF718
:10064000D9BF0000F7B52D4D2B6804461B698220E9
:10065000984780B22080002843D02B680DF1060215
:100660005B6901A982209847BDF80620A2F5B47203
:1006700092B20A2A37D90B23B2FBF3F2204B1B8824
:100680009A4201D95A1E92B2BDF8043040F6B831F0
:100690008B422AD8C3F571630E339BB20F21B3FB93
:1006A000F1F3184909888B4201D94B1E9BB2164EB3
:1006B000164D30682F68834281B28CBF591AC91A0F
:1006C000B8B2BA428CBF101A801A89B280B2014403
:1006D0000529C8BF33603368C8BF2A6063802B68B0
:1006E000A38003B0F0BD0022CEE7C3F56D630833ED
:1006F0009BB20E2BD2D80023D9E700BF8401002083
:100700008201002080010020880100208C0100204F
:1007100037B568460D461446FFF794FFBDF8000054
:1007200030B1BDF802302B60BDF8043023600120E9
:1007300003B030BD704770477047012380F87410D4
:1007400080F8753070470020704700207047836B39
:100750000BB10846184770474FF6FF707047406866
:1007600003689B69184770477047704700F0B8BC32
:1007700008B503680446DB6F9847236820465B6F23
:10078000984700F023F923682046DB6E984729201C
:1007900000F096FF00F01AF923682046DB6E9847B8
:1007A000F8E710B5044609F091FC23682046D3F819
:1007B000A430BDE81040184700F084BC00F088BCAD
:1007C00000F0A8BC00F05ABC00F0A6BC00F0AEBC23
:1007D00000F05EBC08B531B90A4B0B4A0B484FF428
:1007E0002B711AF043FEC0E90F12003A0849436426
:1007F00018BF01220A70003B064A18BF012313707C
:1008000008BD00BFD0C5010808C6010856C60108CA
:10081000F2340120F334012008B5094B1B888B42C8
:1008200003D8084B1B88934205D9074B074A084851
:100830009E211AF01BFE074B1980074B1A8008BD3A
:10084000E8340120EA3401209BC60108FEC60108F5
:1008500056C60108EE340120F034012008F0E0BD56
:1008600010B57C2104461AF0D2FD204610BD90F848
:1008700077301BB1406803681B68184718467047FB
:1008800010B590F8341090F874400C4B8C421A78E4
:1008900009D03AB90A4A0B491488088810800C809C
:1008A00001221A7010BD002AFCD0054A054914889F
:1008B000088810800C800022F3E700BFEC34012090
:1008C000E8340120EA340120012108B5002208465D
:1008D00006F0C2F9064B4FF0FF31186006F012FA2D
:1008E00000220421012006F07DFA024B186008BDA9
:1008F000940100209001002008B5074B186828B922
:10090000064B074A074831211AF0B0FDBDE8084000
:100910004FF0FF3106F0F6B99401002014C8010829
:1009200025C8010862C8010808B5064B186828B92F
:10093000054B064A06483A211AF098FDBDE80840E2
:1009400006F01ABA9401002014C80108AFC80108C3
:1009500062C8010808B5074B186828B9064B074A52
:10096000074847211AF082FDBDE80840002106F043
:10097000C9B900BF9401002014C80108ECC80108DF
:1009800062C8010808B5064B186828B9054B064A25
:10099000064854211AF06AFDBDE8084006F0ECB99B
:1009A0009401002014C801082CC9010862C801087C
:1009B000044B186820B1002303491A4606F058BAC0
:1009C000704700BF900100200400002013B5084CC0
:1009D000206858B100231A4601A906F08BFA206856
:1009E0004FF0FF33002201A906F084FA02B010BDD7
:1009F0009001002003685B6C184700207047036873
:100A00009B6A184740F26F307047000010B5074CE2
:100A1000074B2360204603F0F7FE064B2361064B8D
:100A20006361064B4FF080629A6010BDF038012080
:100A300000B002405D0A0008410A000800E100E041
:100A400008B5034A034B044836211AF00FFD00BFD6
:100A500070C90108EAF70108A3C90108024B1B6825
:100A6000586803685B691847F4340120084B10B5D7
:100A700003600446074803F091FF074B4FF0806284
:100A8000C3F88820BFF34F8FBFF36F8F204610BD90
:100A9000F8C90108F038012000E100E010B5044673
:100AA000FFF7E4FF20464FF442611AF0B0FC204605
:100AB00010BD0000044B1B6893F876200AB1D86C77
:100AC00000B99868704700BFF43401202DE9F7435E
:100AD0000D68202D0C4600F0A180402D00F09E8076
:100AE0002A1F56425641B5F5807F00F09980A5F542
:100AF00000735D425D41FFF7DDFF03681B6A9847A5
:100B00002368B3F5807F014600F09C8000F28A8064
:100B1000202B00F09A80402B00F09780042B00F0EF
:100B2000888010290CBF4FF0020C4FF0010C0022FE
:100B30004D4BB4F81480D3F800E0678BDEF80090DA
:100B40005A60102929F440390CBF02200120A7EB7C
:100B5000080749EA02029860DF60CEF80020DEF85C
:100B60003420C3F82CC022F007020243CEF8342010
:100B7000DEF8402022F47F5222F03F023A43CEF8C2
:100B80004020228BA2EB08029A6206B99DB3227F15
:100B9000FF2A15BF4FF0020C4FF0000CC3E90CC246
:100BA000C3F830C00DB310294FEA026E50D1E1688E
:100BB0004FF01F0801EA0802C1F3C42CC2EB022265
:100BC000B2FBF8F242EA0E02CCEB0C2CC1F3451159
:100BD000BCFBF8FC42EA0C42C1EB01214FF03F0C98
:100BE000B1FBFCF142EA01225A63C3E9067000211D
:100BF0001D4803F093FF1C48012103F08FFFA38AD7
:100C0000E28A06B945B3CDE9003223696168164826
:100C10001A4603F043FE03B0BDE8F083012666E701
:100C2000012568E7B3F5007F7FF47BAF4FF0090C37
:100C300005E010280CBF4FF0020C4FF0010C4FF4F0
:100C4000003275E74FF00A0CF9E74FF0000CF6E7B9
:100C5000E2684EEA0202C7E7009261682269024830
:100C600003F0FEFDD7E700BFF0380120F7B50D46D1
:100C7000FFF720FF03681B6A98471028297F68D177
:100C8000EA6802F01F03C3EB03231F20B3FBF0F459
:100C9000C2F3C42344EA0164C3EB0323C2F3451245
:100CA000B3FBF0F344EA0344C2EB02223F230221E8
:100CB000B2FBF3F244EA02242B6828486E8B0268E8
:100CC000082BAB8AA6EB03061368C6600CBF4FF473
:100CD00000374FF4403723F440333B43C0E9017100
:100CE0001360536B23F007030B435363136C23F41C
:100CF0007F5323F03F033343B7F5003F13641CD108
:100D00000123C0E90C340923C0E90661C362002154
:100D100003F004FF0121114803F000FFB7F5003F85
:100D2000AA8AE98A0DD12B690C48CDE900211A461F
:100D3000194603F0B3FD03B0F0BD0023C162836226
:100D4000E8E70091134621462A69044803F088FD2C
:100D5000F1E7EC6844EA01640121ADE7F0380120D5
:100D600070B5044625460A4B0C300026606026729A
:100D7000667245F8203B6022294609F0DDFA04F549
:100D80004263EE602035AB42FBD1204670BD00BF10
:100D9000F8C90108012070470C2070470C2303FBA1
:100DA0000100083070470C2303FB01000830704736
:100DB0000120704741F20C60704741F20C6303FB65
:100DC00001000830704741F20C6303FB010008305A
:100DD0007047012070471020704700EB0110083069
:100DE000704700EB011008307047084601F088B8E2
:100DF00010B5034B0360044608F044F8204610BDCC
:100E0000B0CA010810B50446FFF7F2FF20461421CE
:100E10001AF0FDFA204610BD10B5034B03600446DE
:100E200008F030F8204610BD7CCA010810B5044611
:100E3000FFF7F2FF204641F214611AF0E8FA20466B
:100E400010BD000010B5034B0360044608F01AF80B
:100E5000204610BD48CA010810B50446FFF7F2FF4E
:100E6000204618211AF0D3FA204610BD10B5084BC1
:100E70000360044600F5B250FFF7BAFF04F12C00FE
:100E8000FFF7CAFF04F11400FFF7DCFF204610BD96
:100E9000E4CA010808B50248FFF7E8FF08BD00BF33
:100EA0009C01002010B50446FFF7E0FF204641F208
:100EB000B0711AF0ACFA204610BD00002DE9F341E4
:100EC00000F060FF054600F061FF00240146234664
:100ED0002846224600940EF049FA254B254A264D15
:100EE0001A60204601F03AFB24480EF081F92B7875
:100EF000BFF35B8FDB0734D428461AF08AFA80B33D
:100F00001F4C204B236004F5B25707F1180604F17B
:100F1000140004F12C086060C4F80880E7602661C2
:100F200007F0B2FF184B6361404607F0ADFF174B67
:100F3000E362384607F0A8FF154B3B6007F1140049
:100F400002F0D0FC224607F11401304602F0C0FC4A
:100F5000304600F0D5FF28461AF067FA0D481AF01F
:100F6000A3FA0D4802B0BDE8F041FFF7FFBB00BF98
:100F700050350120EC2500209801002008000020B9
:100F80009C010020E4CA010848CA01087CCA010883
:100F9000B0CA0108950E0008702500200148FFF72F
:100FA000E7BB00BF7025002070B5244C244E254BB4
:100FB000254D23603046FFF7D3FE284611F0A6FAF0
:100FC000224B2348DC6000224FF48071C3E91212E7
:100FD000204C21490360F020C3E9191220804FF012
:100FE00080711E4C59670121C3E90422C3E906221E
:100FF000C3E90822C3E90E22C3E91022C3E914227F
:10100000C3E916221A8583F82A20DA621A861A663C
:1010100083F86C201A67C3E9016583F87810208093
:101020000F4C83F834104FF4A07020800D4C2080BA
:101030000D4802700D4A1A6070BD00BF4C190020A7
:1010400050190020C0C50108F0250020702500209F
:10105000F4340120E834012001000001EE340120C5
:10106000EA340120F0340120EC3401204CC701089F
:101070000148FFF7FBBC00BF50190020034B902232
:1010800083F85A2383F85823704700BF00E100E03B
:10109000094A0A49D3680A48C3F30A03013B9BB2D1
:1010A0000B801169C1F30A01013901801364536B8C
:1010B00043F0010353637047006801406A26002033
:1010C00068260020014B986A704700BF8468014081
:1010D000024B0122996243F8602C704784680140FA
:1010E00038B5044608F0F1F923681D6E0BF07EF95F
:1010F00001462046A8472368054AD3F88450A2F544
:10110000163100232046A847002384F84A3038BD12
:10111000005802D008F08AB9034B4FF080629A6001
:101120004FF080729A60704700E100E0084B4FF08A
:101130008062C3F88820BFF34F8FBFF36F8F4FF0EB
:101140008072C3F88820BFF34F8FBFF36F8F704753
:1011500000E100E0134B144A1B6C11888B4210B560
:10116000124C13D1124B198804F0E4FB226892F858
:101170006630013382F86630FFF71AFC206808F009
:10118000A5FFBDE810400020FFF7D4BA04F0D2FB61
:101190000020FFF7D0FA20680368BDE810401B6A02
:1011A000184700BF006801406A260020F43401207F
:1011B0006826002007B5064BADF806001B680548F9
:1011C00001220DF1060105F0B4F803B05DF804FB4F
:1011D00010000020E4370120F0B5A1B0102200215A
:1011E0000AA81AF0CFF91422002103A81AF0CAF9AC
:1011F0000021302214A81AF0C5F90024224B0194D2
:101200001A6C42F080521A641B6C03F080530193F5
:10121000019B1E4B02941A6842F440421A601B68FC
:1012200003F4404302930122029B4FF48033CDE943
:10123000082302254FF48003CDE90E5308274FF40D
:10124000A873042608A8CDE910731295139604F02C
:101250008FFB0F23CDE903354FF4A0514FF480539A
:10126000CDE9061303A80521059404F057FDC0231A
:10127000189314A84FF4003314971A961D9304F092
:1012800017FE21B0F0BD00BF0038024000700040E2
:1012900080B59AB003F0C0F9FFF79EFF1422002139
:1012A0000DA800241AF06EF9B44B00941A6BB448E0
:1012B000B44D42F020021A631A6B02F02002009231
:1012C000009A01941A6B42F080021A631A6B02F0C2
:1012D00080020192019A02941A6B42F004021A638E
:1012E0001A6B02F004020292029A03941A6B42F003
:1012F00001021A631A6B02F001020392039A04942A
:101300001A6B42F002021A631A6B02F00202049294
:10131000049A05941A6B42F040021A631A6B02F0A9
:1013200040020592059A06941A6B42F010021A6365
:101330001A6B02F010020692069A07941A6B42F09A
:1013400008021A631B6B03F008030793224604216B
:10135000079B03F011FD22468B484FF4405103F0E8
:101360000BFD012602274FF0040885480F940DA9B4
:10137000CDE90D86109703F015FC0DA94FF44053ED
:101380008148CDE90D36CDE90F4703F00BFC7F48CE
:101390007F4B036003F0E6F97E4A7F4B2C62C5E980
:1013A000002328464FF48043C5E90434C5E90244CC
:1013B000C5E9064403F0C2FE1021284604F0FEF8F9
:1013C0002146284604F019F97448754984624FF49F
:1013D0008273C0E900134FF400751823C0E9065367
:1013E0000A23704DC362C0E90244C0E90444C0E965
:1013F000084404F061FF6C4B0D974FF0100CC5E9E9
:1014000000364023C5E904C34FF4C073C5E9063470
:101410004FF40063C5E908344FF40053AB624FF05A
:10142000030A07230DA92846CDE90E3810934FF083
:101430000809C5E90248CDE911A7139704F062FE37
:101440004FF6FF7209A92846CDE90A960894099635
:101450000C9404F077FE304603F00AF94FF6FF7261
:1014600009A92846CDE90979CDE90B6404F06AFEA3
:101470004FF6FF7209A92846CDE909A9CDE90B84E9
:1014800004F060FE4FF40C730893089B0C934FF626
:10149000FF7209A92846CDE909890B9604F052FE8E
:1014A00040F26A51284604F064FE342221460DEBD6
:1014B00002001AF067F83D4D3D4BAC86C5E900349B
:1014C0000923C5E905361D2340F20D1EC5E9073A7B
:1014D00040F24313C5E909E3284640F2471340F2BE
:1014E0001718C5E90B83C5E902442C6185F836401D
:1014F00004F028F9FF21F022CDE912144FF480699D
:1015000005214FF4A073CDE90E24CDE91491CDE966
:1015100016420DA922462846CDE91037254D1893CD
:101520000D94ADF864408DF8664004F0D6F9224B76
:101530002B601B6898472B68204DDB689847204B31
:10154000C5E90A47C5E90C442846C5E90034C5E9A0
:10155000027403F059F93146284603F0DFFAFFF729
:101560003CF805F0E9FA174A1748214605F01EFB3A
:10157000164B186005F0FAFAFEE700BF003802408B
:101580000008024090370120000C02403C38012046
:1015900000300240005C0040A0860100E4370120DA
:1015A0000050014030390120400100A044380120A2
:1015B000006801406C26002014000020F038012053
:1015C00000B00240FCCA0108DF050008EC38012029
:1015D000704770477FB5094B8DF817201B68029341
:1015E0000DF117020123009201930A4601460448B7
:1015F00003F04CFE07B05DF804FB00BF0C000020B8
:10160000903701207FB500238DF81730084B1B68F9
:1016100002930A4601230DF117010091019301463F
:10162000044803F0C3FE9DF8170007B05DF804FB03
:101630000C000020903701201FB5084C2468009250
:10164000CDE901340A4601230146054803F0AEFE08
:10165000003818BF012004B010BD00BF0C000020EE
:101660009037012003F004B808B506480022042191
:1016700003F082FBBDE8084002480122042103F088
:101680007BBB00BF0008024038B50B4D0446012269
:101690000A484FF4005103F06FFB00220421284652
:1016A00003F06AFB2046FFF785FD28460122BDE8CE
:1016B0003840042103F060BB00080240000C0240E7
:1016C00038B50B4D044600220A484FF4005103F090
:1016D00053FB00220421284603F04EFB2046FFF76F
:1016E00069FD28460122BDE83840042103F044BBCF
:1016F00000080240000C0240F7B5144E144F054696
:101700000C4630460022042103F036FB00224FF441
:101710000051384603F030FB2846FFF74BFD0D4BD8
:101720000D481B68224601A904F096FF38460122A5
:101730004FF40051019C03F01FFB304601220421AD
:1017400003F01AFB204603B0F0BD00BF00080240C2
:10175000000C024010000020E437012002F088BF96
:101760000268034B9A4201D102F070BF704700BF7C
:101770000010004082B00E4B00220092596C41F4E0
:1017800080415964596C01F48041009100990192A3
:10179000196C41F0805119641B6C03F08053019364
:1017A000019B0F216FF0010002B002F087BF00BF64
:1017B000003802400268094B9A4282B00BD10023E4
:1017C0000193074B1A6B42F480521A631B6B03F4AC
:1017D00080530193019B02B0704700BF003002406C
:1017E0000038024007B50F4B02689A4216D100221A
:1017F000A3F5F0430192196B41F4000119631B6BCF
:1018000003F40003019305215A20019B02F056FFC7
:101810005A2003B05DF804EB02F082BF03B05DF81C
:1018200004FB00BF00B002400268064B9A4207D199
:10183000054A136B23F4000313635A2002F07EBFA2
:10184000704700BF00B00240003802402DE9F0436D
:10185000044689B01422002103A819F093FE2268DF
:10186000244B9A4243D1244C244800250095236BF5
:1018700043F004032363236B03F004030093009BF2
:101880000195236B43F001032363236B03F00103F2
:101890000193019B4FF012094FF400734FF00108C0
:1018A0000327042603A9CDE90339CDE90587079667
:1018B00003F078F94FF480731148079603A9CDE936
:1018C0000339CDE9058703F06DF90295236C43F4E4
:1018D00000032364236C03F400030293029B236A36
:1018E00043F400032362236A23F40003236209B054
:1018F000BDE8F083005C0040003802400008024070
:1019000000000240F0B504468DB01422002107A863
:1019100019F038FE2268574B9A4240F0A98003F52F
:101920005043002400945A6C534842F080625A6439
:101930005A6C02F080620092009A01941A6B42F095
:1019400020021A631A6B02F020020192019A02949B
:101950001A6B42F001021A631A6B02F00102029242
:10196000029A03941A6B42F002021A631A6B02F095
:1019700002020392039A04941A6B42F040021A6323
:101980001A6B02F040020492049A05941A6B42F01A
:1019900004021A631A6B02F004020592059A069477
:1019A0001A6B42F008021A631B6B03F008030693DC
:1019B00002250E26069B0B964FF4806307A9CDE9FE
:1019C0000735CDE9094503F0EDF841F658032B48FA
:1019D0000B9607A9CDE907350927CDE9094503F09D
:1019E000E1F8032326480B9707A9CDE90735CDE990
:1019F000094503F0D7F84FF4706321480B9607A907
:101A0000CDE90735CDE9094503F0CCF84FF40C6377
:101A10001C480B9607A9CDE90735CDE9094503F028
:101A2000C1F8C02318480B9607A9CDE90735CDE9C1
:101A3000094503F0B7F8082314480B9607A9CDE928
:101A40000735CDE9094503F0ADF84FF4A0530D4833
:101A50000B9707A9CDE90735CDE9094503F0A2F8B1
:101A600058202246052102F029FE582002F058FE97
:101A70000DB0F0BD006801400014024000000240BB
:101A8000000402400018024000080240000C02401E
:101A900010B5044688B01422002103A819F072FD85
:101AA0002268154B9A4224D103F568430022019223
:101AB000596C41F480115964596C01F48011019101
:101AC00001990292196B41F0200119631B6B059279
:101AD00003F0200302934FF46071029B0223CDE9CF
:101AE000031303200523CDE9060303A9034803F0EC
:101AF00059F808B010BD00BF00500140001402406A
:101B00002DE9F0412C4B1C6886B0002C50D14FF0D1
:101B10000108C3F80080294B00949A6B284842EAD8
:101B200008029A639B6B039403EA0803009302275D
:101B300003260C25009B01A94FF63F03CDE9013791
:101B4000CDE9046503F02EF81E48059501A9CDE9FD
:101B50000187CDE9034603F025F848F233131A480C
:101B6000059501A9CDE90137CDE9034603F01AF83F
:101B70004FF683731548059501A9CDE90137CDE9E5
:101B8000034603F00FF84CF203731148059501A9C1
:101B9000CDE90137CDE9034603F004F860230D4891
:101BA000059501A9CDE90137CDE9034602F0FAFF19
:101BB00006B0BDE8F08100BF70260020003802406A
:101BC00000140240000802400018024000100240C9
:101BD000000C02400004024030B5014689B00022EA
:101BE000362002F06BFD362002F09AFD0025154BE1
:101BF00002951A6C144C42F010021A641B6C03F02C
:101C00001003029301A903A8029B04F033F904F026
:101C100021F90E4B236040F2E733E36040000C4BA8
:101C2000B0FBF3F00138606020462561A56004F048
:101C3000C7FE20B9204604F0A7FD09B030BD012041
:101C4000FBE700BF0038024064390120001000406B
:101C500040420F007047FEE7FEE7FEE7FEE77047F1
:101C6000014804F0A5BD00BF64390120014803F01C
:101C7000D7BD00BF44380120014802F0C5BE00BFF7
:101C8000F03801200120704708B519F021FC162317
:101C900003604FF0FF3008BD08B519F019FC16239A
:101CA0000360FEE770B50E4614460025A54201DB31
:101CB000204670BDAFF3008070550135F6E770B572
:101CC0000E4614460025A54201DB204670BD705D1E
:101CD000AFF300800135F6E74FF0FF3070474FF467
:101CE00000534B6000207047012070470020704770
:101CF00008B50A4B1968024609B9094919601868FC
:101D0000694602448A4206D919F0E2FB0C230360BB
:101D10004FF0FF3008BD1A60FCE700BF74260020BA
:101D2000F8390120704710B50421044619F06FFB03
:101D3000204610BD08B5062921D8DFE801F00408C7
:101D40000C1014181C0000F055FC006808BD00F0D1
:101D500051FC4068FAE700F04DFC8068F6E700F0BF
:101D600049FCC068F2E700F045FC0069EEE700F0CE
:101D700041FC4069EAE700F03DFC8069E6E70020AD
:101D8000E4E700000048704734CB01081120704799
:101D900013B5002451B1036801948DF8034001AAE2
:101DA0009C680DF10303A04702B010BD0846FBE795
:101DB0004089704780897047808870478379808820
:101DC000184480B27047C07900F07F007047C07936
:101DD000C0097047704710B50821044619F017FB79
:101DE000204610BD704700F596730868496803C324
:101DF0007047704770474160704770470123037216
:101E000070477047704710B4C26841685410034669
:101E100001EB6200D20748BF0A599B685DF8044B8A
:101E200048BFD358184743682BB183682BB9C068A3
:101E300000F001007047184670470120704710B548
:101E40000C21044619F0E3FA204610BD10B510210C
:101E5000044619F0DCFA204610BD10B54FF4AC7101
:101E6000044619F0D4FA204610BD10B50AF0BEFAA7
:101E70000368BDE810401B6B184710B50446D0F846
:101E80003C0158B10368DB68984738B1D4F83C018D
:101E900003689B6898470023C4F83C3110BD0000DC
:101EA000F8B5044617460E460AF0C0FA104B002556
:101EB000C4E954760F4E1C60C4E952550E4B30688D
:101EC00023600E4BC4E95035036801219B68C4E9C7
:101ED0004E559847284600F041FB336893F876202A
:101EE0000AB1D86C00B9986812F05BF92046F8BDC9
:101EF00040350120F4340120E0CF0108C8CF0108AB
:101F0000064BC0F848310023C0F84C3100F5A073EF
:101F1000C0F84401C0F83C31704700BF61200008A0
:101F20002DE9F84F07469068DDF828A09946036828
:101F30001B6A88461446984741F20B63984205D8BD
:101F4000414B424AA321424819F090FA6068036865
:101F50001B6A98470F2803D83E4B3C4AA421F2E75E
:101F6000E06803681B6A98470B2803D83A4B374A46
:101F7000A521E8E70AF03AFA0AF03EFAD9F800009B
:101F800010B10368DB689847D9F8000010B1036806
:101F90001B689847386810B103685B699847D8F8A0
:101FA000000010B103685B689847386810B1036897
:101FB0001B689847D8F8000010B103689B689847E1
:101FC000E068036800215B6A98474FF0000B234BE1
:101FD00003600546C0F804B080F808B0A068036844
:101FE00059465B6A9847064601F0D6FF6068036869
:101FF00059465B6A98473146044601F049FFC9F8E3
:102000000050C8F800403E60E4B1231DCAF800301B
:102010003368C4F808A03046DB68F4639847236847
:1020200020461B689847294630460BF0ABFD2B68CD
:1020300028461B6998472B6828465B6998472046C5
:10204000BDE8F88F2346E1E798CC010826CD0108CA
:1020500030CE010877CE01081ACF010824D001083C
:1020600007B5D0F854310093D0F85021044B00F557
:102070009C710448FFF754FF03B05DF804FB00BFF8
:102080003435012030350120006A7047406A7047BE
:1020900070478B8880690A68DB0A50F82300104477
:1020A000704710B5C2B1137BB3B1547BD27A24020E
:1020B00004F4E0641443C26998B202EB840213880A
:1020C0008B4202D192F9020010BD05D8013880B2CE
:1020D00004320028F3D1F7E70020F5E710B52821F6
:1020E000044619F094F9204610BD000030B589B0BF
:1020F0000446BDF850500695BDF84C5005959DF826
:10210000405004959DF83C5003959DF83850029539
:102110009DF8345001959DF8305000950BF092F9E0
:10212000064B2360119BA361129BE361159B236205
:10213000169B6362204609B030BD00BF48D001083D
:102140007047000030B5154D2C78BFF35B8F14F04D
:1021500001048DB01FD1284619F05BF9D8B13F2397
:1021600007930F4B06930F4B0F4910480894CDE986
:10217000044301220423CDE901320C231A46CDE9A0
:10218000094403940094FFF7B1FF284619F04DF974
:10219000074819F089F905480DB030BD78260020B0
:1021A0001C1D0208381D0208581A02087C2600204F
:1021B000412100087047000030B5154D2C78BFF361
:1021C0005B8F14F001048DB01ED1284619F021F95F
:1021D000D0B13F2307930F4B06930F4B0F49104885
:1021E00008940422CDE904430123CDE90123CDE97C
:1021F00009440E2303940094FFF778FF284619F052
:1022000014F9084819F050F905480DB030BD00BF69
:10221000A4260020201D02083C1D0208001B020805
:10222000A8260020B52100087047000030B5154DE4
:102230002C78BFF35B8F14F001048DB01ED12846BB
:1022400019F0E7F8D0B13F2307930F4B06930F4BDC
:102250000F4910480894CDE904430823CDE9004311
:1022600012221C23CDE90944CDE90244FFF73EFFC9
:10227000284619F0DAF8084819F016F905480DB0A3
:1022800030BD00BFD0260020241D0208401D0208DA
:10229000381B0208D42600202922000870470000BD
:1022A00030B5164D2C78BFF35B8F14F001048DB060
:1022B00020D1284619F0ADF8E0B13F230793104B29
:1022C0000693104B104911480894CDE904430122AC
:1022D0000423CDE90132052300930D221823CDE913
:1022E00009440394FFF702FF284619F09EF80848B6
:1022F00019F0DAF805480DB030BD00BFFC2600200B
:10230000281D0208441D0208341C02080027002072
:102310009D2200087047000030B5154D2C78BFF3A2
:102320005B8F14F001048DB01ED1284619F071F8AE
:10233000D0B13F2307930F4B06930F4B0F49104823
:1023400008940122CDE904430423CDE90132CDE90B
:1023500009440A2303940094FFF7C8FE284619F0A5
:1023600064F8084819F0A0F805480DB030BD00BF6A
:10237000282700202C1D0208481D0208EC1C02081A
:102380002C270020152300087047000030B5154D9C
:102390002C78BFF35B8F14F001048DB01ED128465A
:1023A00019F037F8D0B13F2307930F4B06930F4B2B
:1023B0000F49104808940122CDE904430423CDE9D4
:1023C0000132CDE90944142303940094FFF78EFEF3
:1023D000284619F02AF8084819F066F805480DB0A3
:1023E00030BD00BF54270020301D02084C1D0208DC
:1023F000FC1C0208582700208923000870470000B1
:1024000030B5154D2C78BFF35B8F14F001048DB0FF
:102410001ED1284618F0FDFFD0B13F2307930F4B84
:1024200006930F4B0F49104808940122CDE904434D
:102430000423CDE90132CDE9094428230394009413
:10244000FFF754FE284618F0F0FF084819F02CF862
:1024500005480DB030BD00BF80270020341D0208A4
:10246000501D02080C1D020884270020FD230008CF
:1024700000207047002070470EB403B503AB002165
:1024800053F8042B01930AF013FE02B05DF804EB3D
:1024900003B070470CB407B504AB53F8042B019399
:1024A0000AF006FE03B05DF804EB02B070470000CE
:1024B000436C10B5044673B3038F2BB9184B194AFC
:1024C000C021194818F0D2FFC38E00EB43035B8C88
:1024D0000BB30CF0C5F8238F012B03D8134B144A10
:1024E000C521EEE7E28E531C9BB2092B194688BF2B
:1024F000A3F10A0104EB410140F63F10498C8142EF
:1025000009D10A2B04EB420228BF002304EB43034A
:10251000508C588451842046BDE810400BF084BF95
:1025200098D00108A1D001084CD1010896D101082A
:10253000A4D101080BF030BF10B586B002AC84E81E
:1025400006001A460AAB05930193099B00932146A6
:10255000089B09F0C2FA06B010BD000038B518BBE0
:10256000124B13481B681349B3B11A689C681A448C
:1025700002605A681A440A601C440F4B00221A80F9
:1025800000F038F8054600F033F80C4B1C600C4B9B
:102590001D600C4B188007E00B4B03600B4B0B606E
:1025A0000B4B1C68002CE8D138BD00BFAC270020C5
:1025B000B0270020B4270020B82700204435012090
:1025C0004C35012048350120E81D0208541D020841
:1025D0008C1E0208044B1B6853F82100034B1B6838
:1025E00003EB4000704700BFB4270020B027002055
:1025F0002520704700487047BC27002010B5FFF722
:10260000C5FE0A4C2060FFF7FBFE6060FFF784FE0A
:10261000A060FFF70BFEE060FFF742FE2061FFF7CE
:10262000CBFD6061FFF78EFDA06110BDBC270020CF
:102630000020704781807047C180704701817047DA
:10264000418170477047704770477047704710B4BA
:10265000C4880368121B84881B6D091B12B25DF8C5
:10266000044B09B218474FF6FF7383814FF0FF33D5
:1026700003621368C36110607047806A704790F806
:1026800025201AB190F8242002B1186070477047D5
:10269000704710B54FF41A71044618F0B8FE204682
:1026A00010BD0000074A02600022C0E90122C0E913
:1026B0000322C0E90522C0E907224FF48072828418
:1026C000704700BF98EE010870B503680446DB6AE6
:1026D000154698472368294620461B6BBDE8704085
:1026E0001847000038B5262204460D46002118F090
:1026F00049FF2046FFF7D6FF064B23602B88E38473
:10270000FF23204684F82830294608F052F9204655
:1027100038BD00BFD4EB010810B5262204460021C5
:1027200018F030FF2046FFF7BDFF074B2360074B33
:10273000A3624FF6FF73A3854FF47F020023C4E921
:102740000C322387204610BD20EA010890CC0108F6
:102750002DE9F04F2DED048B044683B0264600256D
:10276000FFF7A0FFCE4BA56246F82C3B4FF6FF7754
:1027700069463046ADF80070FFF7B4FF04F1580326
:102780006946184608EE103AADF80070FFF7AAFF48
:1027900004F184036946184608EE903AADF80070DB
:1027A000FFF7A0FF04F1B0036946184604F1DC0A04
:1027B00009EE103AADF80070FFF794FF5046FFF7AE
:1027C000ABFFDFF808B3C4F8DCB004F58E7318462D
:1027D000C4F8185104F5AC7909EE903A04F5CC78B8
:1027E000FFF79AFF4846FFF797FF04F5EC77C4F828
:1027F00058B1C4F894514046FFF78EFFC4F898B121
:10280000C4F8D4513846FFF787FFA64BC4F8D8B1B7
:102810001022A36031213046C4F81452FFF754FF50
:1028200007236946304684F85150ADF8003008F06F
:10283000C0F8052218EE100A1E21FFF745FF4FF0E1
:10284000060B18EE100A694684F87D50ADF800B00A
:1028500008F0AFF8052218EE900A0F21FFF734FFB9
:1028600018EE900A694684F8A950ADF800B008F057
:10287000A0F8052219EE100A2946FFF725FF19EEE8
:10288000100A694684F8D550ADF800B008F091F808
:102890000F2231215046FFF717FF4FF07F43C4F856
:1028A0000C31814BA4F810511B6804F5067B2BB941
:1028B0007E4B7F4AAE217F4818F0D8FD7E4B1B88A7
:1028C000222B03D87D4B7A4AAF21F4E77C4B22219F
:1028D0001868FFF77FFE7B4A03460A2158460CF032
:1028E00079FCC4F818B1504607F006FF764B009308
:1028F000694621235046ADF8043007F01AFF0F2235
:1029000019EE900A2C21FFF7DFFE6F4B00934FF07A
:102910007F41202319EE900AC4F84C11A4F85051BD
:102920006946ADF8043007F004FF1E212A464846E8
:10293000FFF7CAFE4FF07F41C4F888115A49A4F846
:102940008C510B6804F50B7B002BB1D05A480388DF
:102950001F2BB7D95A4A1F211068FFF73BFE594A6F
:1029600003460A2158460CF035FCC4F894B1484699
:1029700007F0C2FE544B009369461E234846ADF84B
:10298000043007F0D6FE0F212A464046FFF79CFE92
:102990004549A4F8CC510B684FF07F4CC4F8C8C12E
:1029A00004F5107B002B83D043480388242B89D95E
:1029B000434A24211068FFF70DFE424A03460A21CC
:1029C00058460CF007FC4046C4F8D4B107F094FE1A
:1029D0003D4B009369461D234046ADF8043007F097
:1029E000A8FE29462A463846FFF76EFE2E49A4F86F
:1029F0000C520B684FF07F4CC4F808C204F51575F3
:102A0000002B3FF455AF2C480388232B7FF65AAF99
:102A10002B4A23211068FFF7DDFD2A4A03460A21CD
:102A200028460CF0D7FB3846C4F8145207F064FE71
:102A3000254B009369461C233846ADF8043007F057
:102A400078FE3146204606F097FA18EE101A204616
:102A500006F092FA18EE901A204606F08DFA19EE5A
:102A6000101A204606F088FA5146204606F084FAED
:102A700019EE901A204606F07FFA4946204606F0E5
:102A80007BFA4146204606F077FA2046394606F0A2
:102A900073FA204603B0BDEC048BBDE8F08F00BF95
:102AA0008CD30108450021004435012076D201086D
:102AB000B8D20108E6D20108483501202DD301081B
:102AC000503501207FD3010890CC01082CEB010880
:102AD000683001F0CDB8000038B5084B0360084BF2
:102AE000836604464FF46975635960191B68403D5D
:102AF0009847B5F5297FF7D1204638BD1CD4010889
:102B000028DB010810B50446FFF7E6FF204640F237
:102B10000C4118F07CFC204610BD00002DE9F3416B
:102B2000064600252A4A85624FF48073C0E90155A4
:102B3000C0E90355C0E90555C0E90755838446F847
:102B40002C2BA0F85030234BC3624FF6FF73DFF8F5
:102B50009080A0F8583000F168074FF47F030446D6
:102B6000C0E90C55C0E90E55C0E91055C0E9125531
:102B7000C0F85480C5650366A0F86450384600F07C
:102B80009BFF154BA36030464421FFF753FD3046B1
:102B90000321FFF751FD4FF07F43E36569460123B1
:102BA0003046A4F86050ADF80430CDF8008007F04E
:102BB000C0FD0A4BE3663146204606F0DDF92046AB
:102BC000394606F0D9F9204602B0BDE8F08100BFD1
:102BD0001CD4010820EA0108560024000F0002005E
:102BE00090CC0108704770477047704730B4C26896
:102BF00044685510034604EB6200D20748BF62598F
:102C00009B6830BC48BFD358184743682BB18368D2
:102C10002BB9C06800F001007047184670470120CA
:102C2000704790F82D3080F89A3080F85C3070470B
:102C300090F82D3080F85C3070470146343091F8C0
:102C40002C3013B1623107F0B4BE6031FBE708B538
:102C500090F82C3033B1D0F8A430C0F89430FFF79E
:102C6000ECFF08BDD0F8A030F7E710B564210446AA
:102C700018F0CDFB204610BD10B5A821044618F071
:102C8000C6FB204610BD10B51021044618F0BFFB4E
:102C9000204610BD10B5044600F5AC7001F05FF899
:102CA00004F26450BDE8104001F059B810B5044674
:102CB000006B50B10368DB68984730B1206B036844
:102CC00021469B68BDE81040184710BD00F1B002D6
:102CD0008A4203D10368D3F88830184770470B79CC
:102CE00070B590F82C6004460D469BB98EB9B3FAC6
:102CF00083F35B0984F82C3023682046D3F88830AE
:102D00009847236820465B69984716B12B79012BB9
:102D100003D070BD002EFCD0E9E723682046D3F82D
:102D20008430BDE87040184770B5036804465B6B9B
:102D3000154698472368294620469B6BBDE870409E
:102D400018470B8870B5A0F860300546138825F841
:102D5000623F044628460CF01DFB064628460CF050
:102D600053FB31B202B22046FFF7DEFF2368204654
:102D7000D3F88830BDE87040184738B50446C02500
:102D8000635960191B68403D984715F1400FF7D112
:102D9000204638BD70B50B4B0B4E0C4D03600446FE
:102DA000C0F86465C0F8CC5500F64800FFF7E5FFB1
:102DB000C4F85861C4F8C05104F23C40FFF7DDFF8D
:102DC000204670BDFCD501081CD4010828DB010891
:102DD00010B50446FFF7DEFF20464FF4186118F0E7
:102DE00016FB204610BD0000F7B50446FFF75AFC5D
:102DF0004FF47F432646A3850123002584F8243021
:102E00001E4BA562256346F8343B4FF6FF7701A9B8
:102E10003046ADF80470FFF765FC2A462946304677
:102E2000A4F86070A4F86270FFF74EFC31462046AB
:102E3000264606F0A1F8124B46F8643B26222946A6
:102E4000304618F09FFB3046FFF72CFC0D4B6366B5
:102E50000D4BC4F88C304FF47F032046C4E928554D
:102E6000A4F89070C4F89450C4F89830A4F89C501A
:102E7000314606F081F8204603B0F0BDACD401081D
:102E800048D5010820EA010890CC01082DE9F04F4F
:102E9000044687B027460025FFF704FC614BA56276
:102EA00047F82C3B04F158094FF6FF7604A9384641
:102EB00004F18408ADF81060FFF714FC04A948463B
:102EC000ADF81060FFF70EFC04A9ADF810604046A5
:102ED00004F1B006FFF706FC04F5AC7B3046FFF7C3
:102EE00083FF04F2645A584600F06AFF504600F02F
:102EF00067FF4D4BC4F870394C4BC4F878394C4BD4
:102F0000A3601E2229463846C4F87449C4F87C5987
:102F1000FFF7DAFB082304A93846ADF8103007F0B4
:102F200048FD252248466B21FFF7CEFB0A2304A962
:102F30004846ADF8103007F03CFD252240460721F9
:102F4000FFF7C2FB092304A94046ADF8103007F093
:102F500030FD0B23ADF80C300C230DEB030104AA5C
:102F60003046ADF81030FFF7ECFE2A46294604F152
:102F7000E400FFF7A9FB2F4B049304F58A700623A6
:102F800004A9ADF81430019007F0D3FBB4F9BA20CE
:102F9000B4F9B8100198FFF7C7FE01982A462946F0
:102FA000FFF792FB01981E22C821FFF7BDFE224BBE
:102FB0003046C4E95433FFF74AFE2A4629463046D4
:102FC000FFF782FB30461E22C821FFF7ADFE04F555
:102FD0001763C4F8E030584625226B21FFF774FBD5
:102FE000252250460721FFF76FFB3946204605F0A2
:102FF000C3FF4946204605F0BFFF4146204605F085
:10300000BBFF3146204605F0B7FF5946204605F084
:10301000B3FF2046514605F0AFFF204607B0BDE89C
:10302000F08F00BFFCD50108E4D50108CD2C0008C5
:10303000C800500090CC01080A0A0AFF7047704788
:1030400070477047704770477047704770477047C8
:10305000704730B4C26844685510034604EB620000
:10306000D20748BF62599B6830BC48BFD358184745
:1030700043682BB183682BB9C06800F0010070472A
:10308000184670470120704790F82D3080F8903036
:1030900080F85C30704710B59421044618F0B7F9F9
:1030A000204610BD10B51021044618F0B0F9204696
:1030B00010BD10B50446683094F82C303BB104F1D3
:1030C000660107F076FC2046FFF7B7FD10BD04F15E
:1030D0006401F6E710B5044600F53A7000F07DFE95
:1030E00004F54760BDE8104000F09DBF00F1980274
:1030F000914202D103689B6B184700F5967291428A
:1031000002D103685B6BF7E700F5E072914202D1F0
:103110000368DB6AF0E700F51572914202D103689B
:103120001B6BE9E770470B88B0F908102DE9F041F7
:10313000A0F864301388A0F86630044601EBD17122
:1031400010461746C1F34F050CF024F9B4F90A30C4
:10315000804603EBD3733846C3F34F060CF054F9A3
:10316000A5EB5801A6EB500212B204F1680009B2B7
:10317000FFF7AAFA23682046D3F88830BDE8F0416B
:10318000184738B504461D46FFF79EFABDF91020D2
:1031900029462046FFF7C8FD38BD000010B526229D
:1031A0000446002118F0EEF92046FFF77BFA044BA5
:1031B0002360FF2384F826300023A362204610BD3D
:1031C000C8EA010870B50B4B0B4E0C4D036004466A
:1031D000C0F8BC64C0F8245500F5F460FFF7CDFDDD
:1031E000C4F8B060C4F8185104F56570FFF7C5FD68
:1031F000204670BD34D801088CD7010828DB0108AF
:1032000010B5094B0360094BC0F8703C044600F54B
:103210004760FFF7D7FF064BC4F8E83204F53A7071
:10322000FFF7B8FD204610BD48D7010820DE010891
:1032300074DC010810B50446FFF7E2FF204641F2B6
:10324000086118F0E4F8204610BD10B50446FFF7F9
:10325000B9FF20464FF4186118F0D9F8204610BD88
:10326000F7B50446FFF71EFA4FF47F432646A385C1
:103270000123002784F82430174BA762276346F800
:10328000343B4FF6FF7501A93046ADF80450FFF707
:1032900029FA3A4639463046A4F86050A4F86250FC
:1032A000FFF712FA3146204605F066FE04F1680683
:1032B0000A4B236001A9A4F86450A4F86650304674
:1032C000ADF80450FFF70EFA2046314605F054FEE3
:1032D000204603B0F0BD00BFACD4010890D6010871
:1032E0002DE9F04F2DED048B044687B0A246002552
:1032F0000AF09CFA9B4BE5634AF8403B5046FFF7C7
:103300004DFF04F16C03184604F1980908EE103AD9
:1033100004F59678FFF742FF4846FFF7A1FF04F552
:10332000E0774046FFF79CFF04F515763846FFF737
:1033300097FF3046FFF794FF04F53A73184608EEFE
:10334000903A00F08DFD04F54763184609EE103AF7
:1033500000F0AAFE41F2F853E2180392824AE250CA
:10336000039B824A5C6004F5B0534FF4A07B1A6063
:1033700041F20463CDF800B0E5502A462946504694
:10338000F023FFF7FEFE4FF07F4318EE100AA3660E
:10339000CDF800B02A462946F023FFF7F2FE4FF0A1
:1033A0007F43C4F8943005AA012304A94846ADF828
:1033B0001430ADF81050FFF7C4FC2A46294604F13A
:1033C000CC00FFF781F90D2305AA04A94846ADF802
:1033D0001030ADF814304FF0500BFFF7A4FE644BE3
:1033E000C4F80431CDF800B048463C23DC22142157
:1033F000FFF7C7FE039AC4F8C8200223ADF81030C7
:1034000005AA032304A94046ADF81430FFF799FC40
:103410002A46294604F5B070FFF756F910230DEB44
:10342000030105AA4046ADF81030ADF81430FFF79F
:103430007AFE4F4BC4F89831CDF800B040463C239B
:10344000DC22A021FFF79DFE039BC4F85C314FF006
:10345000050B4FF0040305AA04A93846ADF8103057
:10346000ADF814B0FFF76DFC2A46294604F5FA7052
:10347000FFF72AF90F2305AA04A93846ADF8103042
:10348000ADF81430FFF74FFE1222C4F82C22272289
:10349000009238464C23DC225221FFF772FE039B38
:1034A000C4F8F03105AA4FF0040304A93046ADF882
:1034B0001030ADF814B0FFF744FC2A46294604F555
:1034C0002270FFF701F90E2305AA04A93046ADF8D2
:1034D0001030ADF81430FFF726FE1223C4F8C032C6
:1034E0002723009330464C2340F205125221FFF768
:1034F00048FE039BC4F8843218EE900A7822142107
:10350000FFF7E2F814221146251D19EE100AFFF705
:10351000DBF85146284605F02FFD18EE101A284614
:1035200005F02AFD4946284605F026FD4146284675
:1035300005F022FD3946284605F01EFD3146284695
:1035400005F01AFD18EE901A284605F015FD2846DC
:1035500019EE101A05F010FD204607B0BDEC048BE3
:10356000BDE8F08F48D7010830D70108ED300008DA
:103570000A001400683000F07BBB000038B5084B2F
:103580000360084B836604464FF4697563596019FC
:103590001B68403D9847B5F5297FF7D1204638BDD7
:1035A0008CD7010828DB010810B50446FFF7E6FFB9
:1035B000204640F20C4117F02AFF204610BD0000C3
:1035C0002DE9F34106460025294A85624FF48073B0
:1035D000C0E90155C0E90355C0E90555C0E90755E3
:1035E000838446F82C2BA0F85030224BC3624FF650
:1035F000FF73DFF88C80A0F8583000F168074FF4B3
:103600007F030446C0E90C55C0E90E55C0E91055CA
:10361000C0E91255C0F85480C5650366A0F864502F
:10362000384600F049FA144BA36030464421FFF7B6
:1036300001F830460321FEF7FFFF4FF07F43E365BB
:1036400069463046A4F86050CDF80080ADF80450CB
:1036500007F06FF8094BE3663146204605F08CFC15
:103660002046394605F088FC204602B0BDE8F081CE
:103670008CD7010820EA0108560024000F00020040
:1036800090CC01087047704730B4C2684468551048
:10369000034604EB6200D20748BF62599B6830BC06
:1036A00048BFD358184743682BB183682BB9C0680B
:1036B00000F001007047184670470120704710B5B0
:1036C0001021044617F0A3FE204610BD10B5044695
:1036D000B03000F06BFC04F2BC40BDE8104000F0DC
:1036E00065BC00F6C8028A4203D10368D3F888306B
:1036F000184770472DE9F04F044687B0274600254C
:10370000FEF7D0FF624BA56247F82C3B04F1580945
:103710004FF6FF7604A9384604F18408ADF810602E
:10372000FEF7E0FF04A9484604F1B00BADF81060C5
:10373000FEF7D8FF04A9404604F2BC4AADF8106079
:10374000FEF7D0FF584604F6C80600F05FFC50466E
:1037500000F05CFC3046FFF747FB4E4BC4F8703975
:103760004D4BC4F878394D4BA3601E22294638468C
:10377000C4F87449C4F87C59FEF7A6FF082304A9CD
:103780003846ADF8103007F014F9252248466B2171
:10379000FEF79AFF0A2304A94846ADF8103007F057
:1037A00008F9252240460721FEF78EFF092304A9C8
:1037B0004046ADF8103007F0FCF8584625220721A6
:1037C000FEF782FF504625226B21FEF77DFF0B237B
:1037D000ADF80C300C230DEB030104AA3046ADF814
:1037E0001030FFF7AEFA2A46294604F6FC00FEF731
:1037F0006BFF2B4B049304F62C101B2304A9ADF88C
:103800001430019006F095FFB4F9D228B4F9D0181D
:103810000198FFF789FA01982A462946FEF754FFD6
:1038200001981E22C821FFF77FFA1E4BC4F86839A1
:10383000C4F86C393046FFF70AFA2A462946304662
:10384000FEF742FF1E223046C821FFF76DFA04F54D
:103850001763C4F8F8383946204605F08DFB494611
:10386000204605F089FB4146204605F085FB594678
:10387000204605F081FB5146204605F07DFB2046A1
:10388000314605F079FB204607B0BDE8F08F00BF58
:1038900034D801081CD80108E3360008C8005000DD
:1038A00090CC01080A0A0AFF704710B54FF4AC71BA
:1038B000044617F0ACFD204610BD10B50446D0F804
:1038C000540100F012F82046BDE8104008F062BC38
:1038D00010B50446FEF7E4FA014B2360204610BD04
:1038E000C8D80108002202607047704738B5074BFE
:1038F000036004464FF44F75635960191B68403DDF
:103900009847B5F50F7FF7D1204638BD28DB010871
:10391000036870B50446D3F89C300D469847D4F838
:10392000981329444B1C03D10023C4F8983303E0B7
:10393000042908D0C4F8981323682046D3F8983097
:10394000BDE8704018470323EFE74B1C10D0012956
:103950000AD1B0F8983300EB8303D3F88023082A08
:1039600002DC0132C3F880230368D3F8A030184783
:10397000B0F8983300EB8303D3F88023002AF3DDFB
:10398000013AEFE7FDEEC07A37B517EE901A6423DF
:1039900091FBF3F14B4307EE903AF8EEE77A0A23F6
:1039A00030EE670AFDEEC07A17EE902A92FBF3F232
:1039B00003FB02F407EE904AF8EEE77A046830EE73
:1039C000670AFDEEC07AB8EEE77A30EE470ABDEE40
:1039D000C00A10EE105A6B430093D4F8884017EEDB
:1039E000903AA04703B030BD10B4C0F88433019BB7
:1039F000C0F8803303685DF8044BD3F8A030C0E909
:103A0000E2211847B0F8983300EB83000123D0F887
:103A1000680280F8253003685B691847B0F898336E
:103A200000EB83000023D0F8680280F8253003689B
:103A30005B69184710B50446FFF758FF20464FF45E
:103A4000697117F0E4FC204610BD000010B5044673
:103A5000D0F88033174A0A2100F506700BF0BAFB44
:103A6000D4F88433134A0A2104F50B700BF0B2FB2F
:103A7000D4F888330F4A0A2104F510700BF0AAFB22
:103A8000D4F88C330B4A0A2104F515700BF0A2FB15
:103A900004F5EC7009F02DFC04F5CC7009F029FC5C
:103AA00004F5AC7009F025FC04F1DC00BDE8104021
:103AB00009F01FBC04D90108F8B504461E4E1F4D7D
:103AC000FEF746FE1E4B23600022A4F8782204F580
:103AD0001F7304F55F7001274FF6FF719A80DA803B
:103AE0001A815A819A81DA811A825A82DA611A8499
:103AF0005A8483F8242083F825709E6299851A637E
:103B00009A8683F8361083F8372083F8382083F8B4
:103B100039201D60DA63C3E9052240338342DDD1D9
:103B20006FF07F43A4F87C23A4F89023C4F89C335F
:103B3000A4F8A0132046F8BD90CC01082CEB010896
:103B400028DB010803460A4610B5041DD1E901012E
:103B500084E80300D2E9030103F10C0484E80300C4
:103B6000D2E90601D961116A1962918C546999846C
:103B70000A4919600A499962C3E90540918D9985FE
:103B8000116B1963918E9986D18ED986118F198701
:103B900004491960D26BDA63184610BDC4DA010813
:103BA00090CC01082CEB010808B5038A032B06D939
:103BB000054B064A06484FF4C17117F057FC5A1CD2
:103BC000028240F8231008BD07D9010836D9010840
:103BD0009ED90108B0F80031032B10B50A4606D96A
:103BE000154B164A16484FF4C17117F03FFC591C8B
:103BF000A0F8001100EB8313D2E901011C1D84E839
:103C00000300D2E9030103F10C0484E80300D2E9C4
:103C10000601D961116A1962918C9984918D9985F7
:103C2000116B54691963516B5963118FD26B1987EA
:103C3000C3E90540DA6310BD07D90108E5D90108D9
:103C40009ED9010808B5038A032B06D9054B064AFD
:103C500006484FF4C17117F009FC5A1C028240F863
:103C6000231008BD07D901085EDA01089ED90108B2
:103C70002DE9F047044692B0002504F12C07FEF729
:103C800007FD04F1580A04F51A703946C4E9E555F0
:103C9000019004F18409FFF787FF01985146FFF76F
:103CA00083FF04F1B00801984946FFF77DFF0198B2
:103CB0004146FFF779FF04F51F7604F1DC0102A805
:103CC000FFF740FF02A93046FFF784FF04F5AC710F
:103CD00002A8FFF737FF02A93046FFF77BFF04F584
:103CE000CC7102A8FFF72EFF02A93046FFF772FF42
:103CF00004F5EC7102A8FFF725FF02A93046FFF793
:103D000069FF04F5607001210190FFF79BFF0198A6
:103D10000221FFF797FF01980321FFF793FF04218A
:103D20000198FFF78FFF23682046D3F8A03098470B
:103D3000504684F87D5084F8A95084F8D55084F812
:103D4000515009F0D6FA484609F0D3FA404609F036
:103D5000D0FA384609F0CDFA12B0BDE8F087FEF788
:103D6000B7BE6830FFF7F1BD6830FFF7D1BD6830EE
:103D7000FFF748BE6830FFF751BE000038B5084B6A
:103D80000360084B836604464FF4697563596019F4
:103D90001B68403D9847B5F5297FF7D1204638BDCF
:103DA0001CD4010828DB010810B50446FFF7E6FF24
:103DB000204640F20C4117F02AFB204610BD0000BF
:103DC00010B50446FEF7AAFE014B2360204610BD45
:103DD000D4DB0108C0F88419704710B50446FEF71B
:103DE00059FF002384F8803910BD00F26450FFF7BA
:103DF000B8BF00F26450FFF7B7BF90F8803983F086
:103E0000010310B580F8803900F264546BB1D0F82A
:103E1000840990F880391BB10368D3F8883098473B
:103E20002046BDE81040FFF7A2BF2046BDE8104085
:103E3000FFF7A0BF10B5034B03600446FEF7AAFFCF
:103E4000204610BD74DC010810B50446FFF7F2FFF0
:103E5000204640F6881117F0DAFA204610BD00001F
:103E600010B50446FFF712F8014B2360204610BD41
:103E700074DC0108704704387047704710B5102192
:103E8000044617F0C4FA204610BDA0F10400F5E77F
:103E900010B500228260044AC16002F10804203299
:103EA0000460426010BD00BF0CDD0108704738B5EA
:103EB000044604F5476504F53A74FFF70BF921460B
:103EC000284600F0ADF829462046BDE83840FFF707
:103ED00081BF41F2F053C35C23B1012100F547607B
:103EE00000F0A9B890F8683C23B1012100F53A70C0
:103EF000FFF77BBF704741F2F053C35C2BB14FF02B
:103F0000FF3100F5476000F096B890F8683C2BB19F
:103F10004FF0FF3100F53A70FFF767BF704741F28D
:103F2000F053C35C2BB14FF0FF3100F5476000F058
:103F300085B890F8683C2BB14FF0FF3100F53A702E
:103F4000FFF757BF704741F2F053C35C23B1012123
:103F500000F5476000F072B890F8683C23B1012189
:103F600000F53A70FFF745BF7047000010B5034BEE
:103F700003600446FFF744F9204610BD3CDD01080C
:103F800010B50446FFF7F2FF204641F20C6117F02E
:103F90003EFA204610BD000010B50446FFF7A0F918
:103FA000014B2360204610BD3CDD0108FFF7E2BA5B
:103FB0006830FFF7CABC6830FFF7AABC6830FFF76B
:103FC00021BD6830FFF72ABD38B5084B0360084BA8
:103FD000836604464FF46975635960191B68403D58
:103FE0009847B5F5297FF7D1204638BD8CD7010811
:103FF00028DB010810B50446FFF7E6FF204640F233
:104000000C4117F004FA204610BD000010B504461C
:10401000FFF7D6FA014B2360204610BD80DD010872
:10402000C0F88419704710B50446FFF74FFB002312
:1040300084F8803910BDB030FFF7BABFB030FFF759
:10404000BABF90F8803983F0010310B580F8803949
:1040500000F1B0046BB1D0F8840990F880391BB13D
:104060000368D3F8883098472046BDE81040FFF732
:10407000A5BF2046BDE81040FFF7A3BF10B5034B16
:1040800003600446FFF79EF8204610BD20DE0108BD
:1040900010B50446FFF7F2FF204640F6881117F0EE
:1040A000B6F9204610BD000010B50446FFF722FB0C
:1040B000014B2360204610BD20DE0108F020704730
:1040C0004FF4A07070472920FDF7FABA2820FDF7B9
:1040D000F7BA08B5FDF7C8FACA20FDF7F1FAC32010
:1040E000FDF7D2FA0820FDF7CFFA5020FDF7CCFA01
:1040F000CF20FDF7E5FA0020FDF7C6FAC120FDF755
:10410000C3FA3020FDF7C0FAED20FDF7D9FA64209C
:10411000FDF7BAFA0320FDF7B7FA1220FDF7B4FA5B
:104120008120FDF7B1FAE820FDF7CAFA8520FDF7F6
:10413000ABFA0020FDF7A8FA7820FDF7A5FACB200E
:10414000FDF7BEFA3920FDF79FFA2C20FDF79CFA07
:104150000020FDF799FA3420FDF796FA0220FDF7CA
:1041600093FAF720FDF7ACFA2020FDF78DFAEA204C
:10417000FDF7A6FA0020FDF787FA0020FDF784FA84
:10418000B120FDF79DFA0020FDF77EFA1B20FDF718
:104190007BFAB620FDF794FA0A20FDF775FAA22003
:1041A000FDF772FAC020FDF78BFA1020FDF76CFACC
:1041B000C120FDF785FA1020FDF766FAC520FDF74E
:1041C0007FFA4520FDF760FA1520FDF75DFAC7205C
:1041D000FDF776FA9020FDF757FA3620FDF770FAD2
:1041E000C820FDF751FAF220FDF76AFA0020FDF72A
:1041F0004BFAB020FDF764FAC220FDF745FAB6206D
:10420000FDF75EFA0A20FDF73FFAA720FDF73CFA1A
:104210002720FDF739FA0420FDF736FA2A20FDF7AA
:104220004FFA0020FDF730FA0020FDF72DFA0020AC
:10423000FDF72AFAEF20FDF727FA2B20FDF740FAC9
:104240000020FDF721FA0020FDF71EFA0120FDF7FE
:104250001BFA3F20FDF718FAF620FDF731FA01208E
:10426000FDF712FA0020FDF70FFA0620FDF70CFA11
:104270002C20FDF725FAC820FDF770FA2620FDF75F
:104280001FFA0120FDF700FAE020FDF719FA0F20D0
:10429000FDF7FAF92920FDF7F7F92420FDF7F4F9E5
:1042A0000C20FDF7F1F90E20FDF7EEF90920FDF7DE
:1042B000EBF94E20FDF7E8F97820FDF7E5F93C2011
:1042C000FDF7E2F90920FDF7DFF91320FDF7DCF92E
:1042D0000520FDF7D9F91720FDF7D6F91120FDF7D4
:1042E000D3F90020FDF7D0F9E120FDF7E9F900202E
:1042F000FDF7CAF91620FDF7C7F91B20FDF7C4F931
:104300000420FDF7C1F91120FDF7BEF90720FDF7E4
:10431000BBF93120FDF7B8F93320FDF7B5F942209C
:10432000FDF7B2F90520FDF7AFF90C20FDF7ACF968
:104330000A20FDF7A9F92820FDF7A6F92F20FDF79F
:10434000A3F90F20FDF7A0F91120FDF7B9F9C82056
:10435000FDF704FA2920FDF7B3F9BDE808402C2049
:10436000FDF7AEB908B5FDF77FF90321D320FDF7BE
:10437000C3F980B208BD10B5C4B2022203212046A1
:10438000FDF728F90A20FDF76DF9204600220321E8
:10439000FDF720F9BDE810400220FDF763B938B5FC
:1043A0000446E4B2FDF714F900212046FDF72AF98E
:1043B000012105462046FDF725F940EA052080B297
:1043C00038BD10B5C4B240212046FDF71BF90306E5
:1043D00007D54C212046FDF715F9003818BF0120FC
:1043E00010BD01224B212046FDF7F4F820460022A3
:1043F0004B21FDF7EFF80020F2E773B50423C4B2B8
:104400000E461546D7210DEB03022046FDF714F9A1
:10441000019B1BBA1A0DC3F30B23328020462B805D
:1044200001224B21FDF7D6F800224B212046FDF753
:10443000D1F802B070BD000010B50A4B1A78904256
:1044400004460DD0597888420AD00AB141B90122F8
:104450009C54FDF7BDF82046BDE81040FFF78BBF28
:1044600010BD00BFD827002010B5C4B209212046D6
:10447000FDF7C8F840F00100C2B209212046BDE8AE
:104480001040FDF7A7B810B5C4B209212046FDF7CA
:10449000B9F8092100F0FE022046BDE81040FDF702
:1044A00099B838B5C4B20D4620460A21FDF7AAF8DE
:1044B00040EA0502D2B220460A21BDE83840FDF7A5
:1044C00089B807B50190FDF784F801981F21FFF71F
:1044D000E8FF019803B05DF804EBFFF7C5BF38B5FE
:1044E000C4B20D4620460A21FDF78CF820EA0502E9
:1044F000D2B220460A21BDE83840FDF76BB810B5AE
:104500000446FFF7C0FF20461F21BDE81040FFF71B
:10451000E6BF10B5C0B20C460B21FDF773F8204082
:1045200010BD1F21FFF7F5BF0A46C0B20B21FDF7F2
:1045300051B81F21FFF7F8BF38B5C4B20D46204669
:104540001721FDF75FF820EA0502D2B220461721B5
:10455000BDE83840FDF73EB870B5C4B20646042148
:104560002046FDF74FF8042100F0FB0205462046E7
:10457000FDF730F83046F021FFF7DEFF05F0F802D6
:1045800020460421FDF726F8492220212046FDF788
:1045900021F80220FDF766F8204601222121FDF7CF
:1045A00019F820469A224121FDF714F820460122ED
:1045B0004A21FDF70FF8204601224B21FDF70AF8AA
:1045C000204600224B21FDF705F820460122562106
:1045D000FDF700F8204601225821FCF7FBFF20469A
:1045E00001224021FCF7F6FF2046FF220B21FCF7B9
:1045F000F1FFBDE870400220FDF734B8054BD3F859
:10460000882042F47002C3F888204FF000629A605C
:10461000704700BF00ED00E008B50B4B1A6842F48C
:1046200000721A601A6842F480621A601A6842F4D2
:1046300080721A60032000F02FF80020FDF7CCFAFA
:10464000FDF798F8002008BD003C0240034A044BE7
:1046500011681B780B441360704700BFA439012018
:1046600078000020014B1868704700BFA439012072
:1046700038B50446FFF7F6FF631C1CBF054B1B78DB
:10468000054618BFE418FFF7EDFF431BA342FAD31A
:1046900038BD00BF780000200749CA6822F4E062F4
:1046A0000302120403F4E063120C134343F0BF63EC
:1046B00043F40033CB60704700ED00E0164B30B59B
:1046C000DC68C4F30224C4F10705231D042D28BFB0
:1046D0000425062B4FF0FF338CBF033C002403FA64
:1046E00005F521EA0501A34022EA0302A1400028C2
:1046F00041EA0203ACBF00F16040084A4FEA0313ED
:10470000B8BF00F00F00DBB2AABF00F56140135440
:1047100080F8003330BD00BF00ED00E014ED00E094
:10472000002808DB4209012300F01F0003FA00F013
:10473000014B43F82200704700E100E000280DDB48
:104740004309012200F01F0002FA00F02033044A5E
:1047500042F82300BFF34F8FBFF36F8F704700BF46
:1047600000E100E010B5044650B1437903F0FF02C8
:1047700013B90271FDF71EF801236371002010BD0B
:104780000120FCE770B50468049D666C45EA0343AC
:1047900006F04046334363644368E263B3F5403F49
:1047A00030D186681EB1012E03D121F07F41A16373
:1047B00070BD022E01F47F0301F47F45C8B207D11A
:1047C000DB0CAD0ADB0243EA451343EAD001EEE716
:1047D000032E01F07F420AD1DB0CED0A9B0243EA73
:1047E000451343EAD003D10F43EAC131DFE7190D86
:1047F0002D0B090241EA051141EA1011130F41EA9C
:104800000331D4E7E160D3E710B5044630B390F844
:10481000393003F0FF021BB980F83820FCF7E2FFC3
:1048200022686168022384F83930136823F4403326
:104830000B431360536BA16823F007030B435363CF
:10484000136CE16823F47F5323F03F030B4313649D
:1048500000200123E06384F8393010BD0120FCE71B
:1048600073B590F83850012D04464FF0020513D06F
:1048700080F839500126069D80F838600095FFF7D2
:1048800081FF23681A6842F40C521A601A68324396
:104890001A60002002B070BD2846FBE773B51646CB
:1048A0001A4690F83830012B04464FF0020517D015
:1048B000012380F83830036880F839505E61079B27
:1048C0000093069BFFF75EFF23681A6842F40C52C0
:1048D0001A601A6842F001021A60002002B070BD2E
:1048E0002846FBE7026838B5136823F0050343F058
:1048F000040313600446FFF7B5FE054622681368FB
:1049000013F0010309D1116821F40C511160012247
:1049100084F8392084F838300FE0FFF7A3FE401BFD
:10492000B0F57A7FEAD9E36B43F02003E36300221A
:10493000032384F8393084F83820184638BD70B520
:1049400005682A6842F004022A600129044614BF5F
:1049500024351C35FFF786FE06462B6813F020032E
:104960000AD121680A6822F464520A60012284F89C
:10497000392084F838300FE0FFF774FE801BB0F563
:104980007A7FEAD9E36B43F02003E3630022032339
:1049900084F8393084F83820184670BD38B505469B
:1049A00008B9012038BD164B1B6B190213D42B68B4
:1049B00000243F221C6028469A601C619C61DC61D7
:1049C0005C625C63FCF730FFEC6385F8384085F887
:1049D00039402046E6E70368196811F0010104D068
:1049E000FFF780FF0028E2D0DBE75A6A920602D583
:1049F000FFF7A5FFF6E7DB699B06D8D50121F7E7AE
:104A00000038024070477047036870B55E681D68E3
:104A1000F207044614D5E90512D51A6822F480720B
:104A20001A60C26B42F00102C26301229A60042341
:104A300080F83930002380F83830436903B1984753
:104A4000B20616D5AB0414D523681A6822F40052B6
:104A50001A6020229A60E36B43F00203E3630423AD
:104A600084F83930002384F8383063690BB120466C
:104A70009847300716D5290514D523681A6822F4FB
:104A800000621A6008229A60E36B43F00403E36358
:104A9000042384F83930002384F8383063690BB17B
:104AA0002046984772070BD56B0509D523681A680D
:104AB00022F480621A6004229A602046FFF7A2FF67
:104AC000B00714D5A90512D523681A6822F400721C
:104AD0001A6002229A60E36BE363012384F83930A1
:104AE000002384F8383023690BB120469847F2063A
:104AF00013D5EB0411D523681A6822F480521A608A
:104B000010229A60E36BE363012384F839300023B9
:104B100084F838302046FFF776FF70BDF0B590F886
:104B20003830012B4FF002032BD0012280F83930AE
:104B300080F8382000EB0113D3E907425D6A184F73
:104B400044EA0242093C012C9CBF05F07F431A4312
:104B50004FEA0116036888BF42EA056299B9596AAB
:104B600039400A435A62012C82699A6103D8426A29
:104B700022F07F429A62012380F83930002380F8C6
:104B800038301846F0BDD96939400A43DA618219D4
:104B9000012C92691A619CBF25F07F451D62EAE7EE
:104BA000F0FFFC002DE9F74FDFF8C4816E4ADFF813
:104BB000C49100230D6801249C4004EA0506AC431F
:104BC00040F0B8804C6824F0100C4FEA430E0325E7
:104BD0000CF1FF3705FA0EF5012F6FEA050511D824
:104BE000876807EA050ACF6807FA0EF747EA0A0757
:104BF0008760476827EA060AC4F300179F4047EA20
:104C00000A074760C76807EA050A8F6807FA0EF7C0
:104C100047EA0A07BCF1020FC76016D14FEAD30A70
:104C200000EB8A0A03F0070BDAF820704FEA8B0BCF
:104C30004FF00F0C0CFA0BFC27EA0C0C0F6907FA6B
:104C40000BF747EA0C07CAF8207007683D4004F0EC
:104C5000030707FA0EFE4EEA05050560E50069D573
:104C60004FF0000BCDF804B0D8F844703F4D47F436
:104C70008047C8F84470D8F8447007F4804701971B
:104C8000019F23F0030707F1804707F59C3703F0E6
:104C9000030ED7F808A04FEA8E0E4FF00F0C0CFA57
:104CA0000EFCA8422AEA0C0C4BD005F58065A84200
:104CB00049D005F58065A84247D005F58065A84232
:104CC00045D005F58065A84243D0484543D005F559
:104CD0000065A84241D005F58065A8423FD005F5A2
:104CE0008065A8423DD005F58065A8420CBF092526
:104CF0000A2505FA0EF545EA0C05BD601568F7436F
:104D000014F4803F0CBF3D4035431560556814F4E2
:104D1000003F0CBF3D4035435560956814F4801F3B
:104D20000CBF3D4035439560D568A40254BF3D405B
:104D30003543D5600133102B7FF43CAF03B0BDE8A1
:104D4000F08F5D46D5E70125D3E70225D1E703259E
:104D5000CFE70425CDE70525CBE70625C9E70725DD
:104D6000C7E70825C5E700BF003C0140000002403E
:104D700000380240001402400AB181617047090402
:104D8000FBE701684B6913F480634FF0000210D019
:104D90006FF480634B612023026380F83D3080F81C
:104DA0003E20036C80F83C2043F0040303640120A0
:104DB0007047184670472DE9F04104460F461646E5
:104DC00098462568686927EA000080B2B8B16B6927
:104DD0005A0516D52B6843F400732B606FF480637B
:104DE0006B6120220023236384F83D2084F83E3049
:104DF000226C42F00402226484F83C300120BDE8B9
:104E0000F081731CDED0FFF72DFCA0EB0800B04250
:104E100001D8002ED5D100232022236384F83D2021
:104E200084F83E30226C42F02002E4E770B504467C
:104E30000D46164623685B695B0701D5002070BDEF
:104E40002046FFF79EFFA8B96A1CF3D0FFF70AFCC3
:104E5000801BA84201D8002DECD10023202223631F
:104E600084F83D2084F83E30226C84F83C3042F0D7
:104E7000200222640120E2E770B504460D46164682
:104E800021684B6913F0400301D0002010E04A690B
:104E9000D2060ED56FF010024A612022236384F8F7
:104EA0003D2084F83E30226C226484F83C3001209E
:104EB00070BDFFF7D7FB801BA84201D8002DDFD1C2
:104EC00000232022236384F83D2084F83E30226CA6
:104ED00042F02002E8E72DE9F84606460F469146E3
:104EE0001D464FEA114A3368BAF1010F0CBF5C69E5
:104EF0009C6927EA0404A4B2B4FA84F46409A145C5
:104F000001D0002017E06A1CEED0FFF7ABFB089B36
:104F1000C01AA84201D8002DE5D100232022336316
:104F200086F83D2086F83E30326C86F83C3042F000
:104F3000200232640120BDE8F88670B504460D46B3
:104F4000164623685B691B0601D5002070BD20460C
:104F5000FFF717FFA8B96A1CF3D0FFF783FB801B8C
:104F6000A84201D8002DECD100232022236384F82D
:104F70003D2084F83E30226C84F83C3042F0200220
:104F800022640120E2E700002DE9F04315460268A3
:104F900085B0DDE90C789946136843F4807313609B
:104FA0000E463B46CDF8008000224FF0011104462A
:104FB000FFF791FF236838B11B68DB0502D54FF47A
:104FC0000073236403200AE006F0FE061E611949FF
:104FD00043463A462046FFF7EEFE18B1012005B0E1
:104FE000BDE8F083236803905A6903929B69039399
:104FF000424639462046039BFFF79FFF40B1236C92
:10500000042B01BF2268136843F400731360E5E7C3
:10501000B9F1010F236802D1EDB21D61DFE72A0A61
:105020001A61394642462046FFF787FF0028E6D13D
:105030002368F1E7020001002DE9FF479A46036863
:1050400015461A6842F480621A601A68DDE90C7825
:1050500042F480721A600E463B46CDF80080002272
:105060004FF001110446FFF736FF236848B11B6873
:10507000DB0502D54FF400732364032004B0BDE8C0
:10508000F0875FFA86F906F0FE061E612A4943465C
:105090003A462046FFF78FFE08B10120EEE723686D
:1050A00003905A6903929B6903934246394620460E
:1050B000039BFFF742FF40B1236C042B01BF226822
:1050C000136843F400731360E7E7BAF1010F236834
:1050D0001AD1EDB21D61424639462046FFF72DFF39
:1050E0000028E9D12268136843F4807313604FF0FD
:1050F00001110246CDF800803B462046FFF7EBFE4B
:10510000226860B11368B3E72A0A1A613946424639
:105110002046FFF712FF0028CED12368D9E749F0D7
:1051200001031361044943463A462046FFF743FE14
:10513000003818BF0120A1E70200010070B5044645
:1051400008B9012070BD90F83D3003F0FF021BB993
:1051500080F83C20FCF77AFB242384F83D30236858
:105160001A6822F001021A601A6842F400421A60BA
:105170001A6822F400421A6000F06CFE3F4A63682D
:10518000934294BF3E4A3F4A90428CBF0022012284
:10519000002AD6D121683C4E4A68B0FBF6F622F0D0
:1051A0003F0232434A60354A0D6A934284BF4FF44E
:1051B0009672724325F03F0591BF721C4FF47A76C8
:1051C000B2FBF6F201322A430A62CD69421E2B4835
:1051D00025F44F45834225F0FF0532D85B00B2FB32
:1051E000F3F340F6FC720133134242D0C3F30B03D6
:1051F0002B43CB61D4E907300A68034322F0C00295
:1052000013430B608A68D4E9030322F40342034387
:1052100022F0FF0213438B60D4E90530CA680343D0
:1052200022F0FF021343CB600B6843F001030B60D5
:1052300000202023206484F83D30206384F83E0061
:1052400080E7A06850B903EB4303B2FBF3F30133EB
:10525000C3F30B037BB143F40043C9E71920434375
:10526000B2FBF3F30133C3F30B0323B143F4404325
:10527000BEE70423BCE70123BAE700BFA086010014
:105280007F841E00FF083D0040420F002DE9F743D8
:10529000044699460C9E0F469046FFF7E3F994F8B2
:1052A0003D30202B054603D0022003B0BDE8F0833B
:1052B00000903C49192301222046FFF70CFE0028EC
:1052C000F2D194F83C30012BEED02068012384F811
:1052D0003C300368D9075EBF036843F001030360F5
:1052E000036823F400630360212384F83D304023E6
:1052F00084F83E30002323640A9B6362BDF82C309F
:105300006385638D2385284BE362CDE900654B46B9
:10531000424639462046FFF737FE00282AD00120B2
:10532000C3E7FFF70AFE40B1236C042B01BF2268DC
:10533000136843F400731360F1E7636A27681A4641
:1053400012F8011B39616262628D218D013A92B2BD
:1053500062857A69481E80B2520720850AD548B115
:105360005A783A6102336362638D013B02399BB222
:1053700021856385238D2A4631462046002BD0D1D6
:10538000FFF754FD0028CFD12268136843F400735F
:105390001360202384F83D3084F83C0084F83E00FC
:1053A00083E700BF020010000000FFFF2DE9F0437B
:1053B000044687B09946109F0D469046FFF752F974
:1053C00094F83D30202B064604D00225284607B02D
:1053D000BDE8F08300907649192301222046FFF7AB
:1053E0007AFD0028F1D194F83C30012BEDD02068F3
:1053F000012384F83C300368DB075EBF036843F099
:1054000001030360036823F400630360222384F82C
:105410003D30402384F83E30002323640E9B6362BA
:10542000BDF83C306385638D2385624BE36229467A
:10543000CDE900764B4642462046FFF7FDFD054686
:1054400008B10125C2E7228D2368B2B902905A69DA
:1054500002929A690292029A1A6842F400721A60E1
:10546000DFF85481238D002B2CD1202284F83D209D
:1054700084F83C3084F83E30A8E7012A0AD11A6843
:1054800022F480621A6003905A6903929A69039227
:10549000039AE1E7022A0ED11A6822F480621A60A8
:1054A0001A6842F400621A6004905A6904929B6977
:1054B0000493049BD4E705905A6905929B69059370
:1054C000059BCDE7032B56D8012B15D13246394623
:1054D0002046FFF7D1FC0028B3D123681A69636A1C
:1054E0001A70636A01336362238D013B2385638DE8
:1054F000013B9BB26385B5E7022B00963B464FF01C
:1055000000024146204619D1FFF7E5FC002898D15A
:1055100023681A6842F400721A601A69636A1A7082
:10552000626A531C6362238D013B2385638D013BBB
:105530009BB2638523681B695370D2E7FFF7CBFCEE
:1055400000287FF47EAF23681A6822F480621A6014
:105550001A69636A1A70636A009601336362238D65
:10556000013B2385638D013B9BB2638502463B462D
:1055700041462046C8E7324639462046FFF77CFCC4
:1055800000287FF45EAF23681A69636A1A70626A42
:10559000531C6362238D013B2385638D013B9BB2CA
:1055A00063852368596949077FF55CAFC3E700BF8E
:1055B000020010000000FFFF0400010010B590F889
:1055C0003D30202BDCB216D1242380F83D30036817
:1055D0001A6822F001021A605A6A22F010025A6216
:1055E0005A6A114359621A6842F001021A6080F83F
:1055F0003D40002010BD0220FCE730B590F83D3062
:10560000202BDCB216D10268242380F83D301368C9
:1056100023F001031360556A4FF6F0732B401943D2
:1056200089B25162136843F00103136080F83D4072
:10563000002030BD0220FCE72DE9F043D2010468D0
:105640004F68E568D1F800C0D1F818908432A318EB
:105650000CF10106586800F470405860E068C5F32A
:105660000B45C0F30B4030443D4440EA05405860D0
:10567000E068CD68C0F30A000544986800F4704003
:105680009860E6688868C6F30A060130304440EA4C
:105690000540986018690E6920F0070018614FF006
:1056A000000E1E619D6991F8320091F83180C3F8B7
:1056B00018E091F8305045EA096545EA082545EAC1
:1056C00000459D61586920F0FF00586148695861A4
:1056D000D86920F4E06020F00700D861D1E90750D4
:1056E0000543DD61986A486AC3F828E098621EB3F2
:1056F000012E23D0B01E022822D9072E0CBF022073
:105700000120DD6A05F0E025DD628D6AC96AA7EB3C
:105710000C0745437843033040EA0540D862186BD4
:1057200020F4FF6020F0070018631963A35843F0CA
:105730000103A350BDE8F0830420E2E70320E0E783
:105740000220DEE738B50446002863D090F8A13087
:1057500003F0FF021BB980F8A020FCF7D3F8022366
:1057600084F8A13023689A6922F070429A61D4E9E2
:1057700001200243E06899690243206902430A4319
:105780009A619A68244960690A409A609A6842EA74
:105790000042A06902439A60DA68E0690A40DA6070
:1057A000DA6842EA0042206A0243DA601A69606AF3
:1057B0000A401A611A6942EA0042A06A02431A6169
:1057C0005A69114059615A69E16A42EA0142216B02
:1057D0000A435A61D96A94F8360094F8355001F0BA
:1057E0007F41D962D96A94F834200A4342EA0522FB
:1057F00042EA0042DA625A6B42F006025A639A6940
:1058000042F001029A6100200123C4F8A40084F848
:10581000A13038BD0120FCE700F800F07047704768
:10582000036870B59E6B5D6B7207044614D56907FB
:1058300012D55A6B22F004025A630422DA63D0F8BC
:10584000A43043F00103C0F8A430002380F8A12065
:1058500080F8A030FFF7E2FFB20716D5AB0714D5EA
:1058600023685A6B22F002025A630222DA63D4F8E8
:10587000A4301343C4F8A430042384F8A1300023D7
:1058800084F8A0302046FFF7C9FFF00710D5E907DC
:105890000ED523685A6B22F001025A630122DA63A3
:1058A000002384F8A12084F8A0302046FBF752FCA6
:1058B000320711D52B070FD523685A6B22F0080247
:1058C0005A630822DA63012384F8A130002384F8A4
:1058D000A0302046FFF7A3FF70BD2DE9F04190F8FE
:1058E000A030012B06460F4694464FF002001FD011
:1058F0004FF0010886F8A08086F8A10034240D46F8
:1059000004FB02640FCD38340FC40FCD0FC40FCD8C
:105910000FC42B682360304662463946FFF78CFE81
:1059200033680020C3F8248086F8A18086F8A000A0
:10593000BDE8F08190F8A030012B4FF0020312D0A7
:1059400080F8A13003685A6B22F001025A63074ABB
:1059500011645A6B42F001025A63012380F8A130AE
:10596000002380F8A0301846704700BF006801404F
:105970002DE9F341044640B30368DD0710D42368E2
:1059800098075ED423681A0700F1A08023685B079C
:1059900000F1BE80A069002840F01F8100202BE0AC
:1059A000A64B9A6802F00C02042A07D09A6802F00B
:1059B0000C02082A0BD15A68510208D59F4B1B686C
:1059C0009A03DCD56368002BD9D1012014E062680A
:1059D000B2F5803F13D11A6842F480321A60FEF7A4
:1059E00041FE964E054633689B03C8D4FEF73AFE47
:1059F000401B6428F7D9032002B0BDE8F0818F4D29
:105A0000B2F5A02F2B6807D143F480232B602B68BD
:105A100043F480332B60E2E723F480332B602B6860
:105A200023F480232B60002AD9D1FEF71BFE064603
:105A30002B689F03A3D5FEF715FE801B6428F7D9BA
:105A4000D9E77E4B9A6812F00C0F07D09A6802F0E3
:105A50000C02082A11D15B685E020ED4774B1A68DB
:105A6000950702D5E268012AAFD11A68216922F0B0
:105A7000F80242EAC1021A6084E7E268704BB2B1F0
:105A800001221A60FEF7EEFD6C4D06462B68980762
:105A900007D52B68226923F0F80343EAC2032B6081
:105AA00070E7FEF7DFFD801B0228EFD9A3E71A603D
:105AB000FEF7D8FD614E0546336899077FF562AF62
:105AC000FEF7D0FD401B0228F6D994E762695D4BD2
:105AD0007AB101221A60FEF7C5FD584E0546736F74
