:020000040800F2
:1000000000000320BD0F0008152A0008172A000869
:10001000192A00081B2A00081D2A000800000000F9
:1000200000000000000000000000000071880008CF
:100030001F2A0008000000000189000865890008E7
:100040000D1000080D1000080D1000080D1000081C
:100050000D1000080D1000080D1000080D1000080C
:100060000D1000080D1000080D1000080D100008FC
:100070000D1000080D1000080D1000080D100008EC
:100080000D1000080D1000080D1000080D100008DC
:100090000D1000080D1000080D1000080D100008CC
:1000A0000D1000080D1000080D1000080D100008BC
:1000B0000D1000080D1000080D1000080D100008AC
:1000C0000D1000080D1000080D1000080D1000089C
:1000D0000D100008212A00080D1000080D1000085E
:1000E0000D1000080D1000080D1000080D1000087C
:1000F0000D1000080D1000080D1000080D1000086C
:100100000D1000080D1000080D1000080D1000085B
:100110000D1000080D1000082D2A00080D10000811
:100120000D1000080D1000080D1000080D1000083B
:100130000D1000080D1000080D1000080D1000082B
:100140000D1000080D1000080D1000080D1000081B
:100150000D1000080D1000080D1000080D1000080B
:100160000D1000080D1000080D1000080D100008FB
:100170000D1000080D1000080D1000080000000010
:100180000D1000080D1000080D1000080D100008DB
:100190000D1000080D1000080D1000080D100008CB
:0C01A000392A00080D100008452A00084C
:1001B00010B5054C237833B9044B13B10448AFF3A1
:1001C00000800123237010BDDC020020000000002D
:1001D000280D020808B5034B1BB103490348AFF3D0
:1001E000008008BD00000000E0020020280D020889
:1001F000034613F8012B002AFBD1181A0138704767
:1002000001F0FF01102A2BDB10F0070F08D010F8C7
:10021000013B013A8B422DD010F0070F42B3F6D1CB
:10022000F0B441EA012141EA014122F007047FF0E4
:1002300000070023F0E80256083C85EA010586EA3B
:10024000010685FA47F5A3FA87F586FA47F6A5FA77
:1002500087F68EB9EED1F0BC01F0FF0102F0070283
:1002600032B110F8013B013A83EA010313B1F8D12E
:100270000020704701387047002D06BF354603380F
:10028000073815F0010F07D1013015F4807F02BF48
:10029000013015F4C03F0130F0BC0138704700BF99
:1002A00081F0004102E000BF83F0004330B54FEA27
:1002B00041044FEA430594EA050F08BF90EA020F94
:1002C0001FBF54EA000C55EA020C7FEA645C7FEA27
:1002D000655C00F0E2804FEA5454D4EB5555B8BF4A
:1002E0006D420CDD2C4480EA020281EA030382EABB
:1002F000000083EA010180EA020281EA0303362D4D
:1003000088BF30BD11F0004F4FEA01314FF4801C1F
:100310004CEA113102D0404261EB410113F0004F31
:100320004FEA03334CEA133302D0524263EB4303E8
:1003300094EA050F00F0A780A4F10104D5F1200E86
:100340000DDB02FA0EFC22FA05F2801841F10001E1
:1003500003FA0EF2801843FA05F359410EE0A5F1B5
:1003600020050EF1200E012A03FA0EFC28BF4CF0E6
:10037000020C43FA05F3C01851EBE37101F000459C
:1003800007D54FF0000EDCF1000C7EEB00006EEBA9
:100390000101B1F5801F1BD3B1F5001F0CD3490833
:1003A0005FEA30004FEA3C0C04F101044FEA44528A
:1003B00012F5800F80F09A80BCF1004F08BF5FEA11
:1003C000500C50F1000041EB045141EA050130BDF1
:1003D0005FEA4C0C404141EB0101013C28BFB1F503
:1003E000801FE9D291F0000F04BF01460020B1FA4E
:1003F00081F308BF2033A3F10B03B3F120020CDA21
:100400000C3208DD02F1140CC2F10C0201FA0CF0FE
:1004100021FA02F10CE002F11402D8BFC2F1200C63
:1004200001FA02F120FA0CFCDCBF41EA0C01904019
:10043000E41AA2BF01EB0451294330BD6FEA040462
:100440001F3C1CDA0C340EDC04F11404C4F120024D
:1004500020FA04F001FA02F340EA030021FA04F35F
:1004600045EA030130BDC4F10C04C4F1200220FAB6
:1004700002F001FA04F340EA0300294630BD21FAF4
:1004800004F0294630BD94F0000F83F4801306BFBA
:1004900081F480110134013D4EE77FEA645C18BFAE
:1004A0007FEA655C29D094EA050F08BF90EA020F45
:1004B00005D054EA000C04BF1946104630BD91EA3D
:1004C000030F1EBF0021002030BD5FEA545C05D140
:1004D0004000494128BF41F0004130BD14F580047F
:1004E0003CBF01F5801130BD01F0004545F0FE41F3
:1004F00041F470014FF0000030BD7FEA645C1ABF28
:10050000194610467FEA655C1CBF0B46024650EA5E
:10051000013406BF52EA033591EA030F41F400218A
:1005200030BD00BF90F0000F04BF0021704730B510
:100530004FF4806404F132044FF000054FF00001E5
:1005400050E700BF90F0000F04BF0021704730B5A6
:100550004FF4806404F1320410F0004548BF40427B
:100560004FF000013EE700BF42004FEAE2014FEAD0
:1005700031014FEA02701FBF12F07F4393F07F4FAB
:1005800081F06051704732F07F4208BF704793F0AE
:100590007F4F04BF41F40021704730B54FF46074C1
:1005A00001F0004521F000411CE700BF50EA0102C4
:1005B00008BF704730B54FF000050AE050EA01026D
:1005C00008BF704730B511F0004502D5404261EBDD
:1005D00041014FF4806404F132045FEA915C3FF41E
:1005E000D8AE4FF003025FEADC0C18BF03325FEABB
:1005F000DC0C18BF033202EBDC02C2F1200300FA6C
:1006000003FC20FA02F001FA03FE40EA0E0021FA90
:1006100002F11444BDE600BF70B54FF0FF0C4CF47E
:10062000E06C1CEA11541DBF1CEA135594EA0C0F30
:1006300095EA0C0F00F0DEF82C4481EA030621EA6B
:100640004C5123EA4C5350EA013518BF52EA0335A6
:1006500041F4801143F4801338D0A0FB02CE4FF058
:100660000005E1FB02E506F00042E0FB03E54FF088
:100670000006E1FB03569CF0000F18BF4EF0010E80
:10068000A4F1FF04B6F5007F64F5407404D25FEA7C
:100690004E0E6D4146EB060642EAC62141EA55512F
:1006A0004FEAC52040EA5E504FEACE2EB4F1FD0C71
:1006B00088BFBCF5E06F1ED8BEF1004F08BF5FEAEF
:1006C000500E50F1000041EB045170BD06F00046A1
:1006D00046EA010140EA020081EA0301B4EB5C044E
:1006E000C2BFD4EB0C0541EA045170BD41F4801146
:1006F0004FF0000E013C00F3AB8014F1360FDEBF6B
:10070000002001F0004170BDC4F10004203C35DA46
:100710000C341BDC04F11404C4F1200500FA05F3C9
:1007200020FA04F001FA05F240EA020001F000426A
:1007300021F0004110EBD37021FA04F642EB0601E0
:100740005EEA430E08BF20EAD37070BDC4F10C040A
:10075000C4F1200500FA04F320FA05F001FA04F2CE
:1007600040EA020001F0004110EBD37041F10001BA
:100770005EEA430E08BF20EAD37070BDC4F12005C5
:1007800000FA05F24EEA020E20FA04F301FA05F22D
:1007900043EA020321FA04F001F0004121FA04F2D5
:1007A00020EA020000EBD3705EEA430E08BF20EAA5
:1007B000D37070BD94F0000F0FD101F000464000DF
:1007C00041EB010111F4801F08BF013CF7D041EA61
:1007D000060195F0000F18BF704703F00046520065
:1007E00043EB030313F4801F08BF013DF7D043EA36
:1007F0000603704794EA0C0F0CEA135518BF95EAEC
:100800000C0F0CD050EA410618BF52EA4306D1D172
:1008100081EA030101F000414FF0000070BD50EA91
:10082000410606BF1046194652EA430619D094EA1B
:100830000C0F02D150EA013613D195EA0C0F05D105
:1008400052EA03361CBF104619460AD181EA030159
:1008500001F0004141F0FE4141F470014FF0000011
:1008600070BD41F0FE4141F4780170BD70B54FF0AC
:10087000FF0C4CF4E06C1CEA11541DBF1CEA13552C
:1008800094EA0C0F95EA0C0F00F0A7F8A4EB05040E
:1008900081EA030E52EA03354FEA013100F0888005
:1008A0004FEA03334FF0805545EA131343EA1263CE
:1008B0004FEA022245EA111545EA10654FEA002683
:1008C0000EF000419D4208BF964244F1FD0404F53C
:1008D000407402D25B084FEA3202B61A65EB030598
:1008E0005B084FEA32024FF480104FF4002CB6EB55
:1008F000020E75EB030E22BFB61A754640EA0C00D5
:100900005B084FEA3202B6EB020E75EB030E22BF14
:10091000B61A754640EA5C005B084FEA3202B6EB55
:10092000020E75EB030E22BFB61A754640EA9C0014
:100930005B084FEA3202B6EB020E75EB030E22BFE4
:10094000B61A754640EADC0055EA060E18D04FEAA2
:10095000051545EA16754FEA06164FEAC30343EA42
:1009600052734FEAC2025FEA1C1CC0D111F4801F0F
:100970000BD141EA00014FF000004FF0004CB6E708
:1009800011F4801F04BF01430020B4F1FD0C88BFA7
:10099000BCF5E06F3FF6AFAEB5EB030C04BFB6EBB2
:1009A000020C5FEA500C50F1000041EB045170BDA5
:1009B0000EF0004E4EEA113114EB5C04C2BFD4EBD2
:1009C0000C0541EA045170BD41F480114FF0000E56
:1009D000013C90E645EA060E8DE60CEA135594EAD2
:1009E0000C0F08BF95EA0C0F3FF43BAF94EA0C0FD5
:1009F0000AD150EA01347FF434AF95EA0C0F7FF44A
:100A000025AF104619462CE795EA0C0F06D152EA9D
:100A100003353FF4FDAE1046194622E750EA410681
:100A200018BF52EA43067FF4C5AE50EA41047FF492
:100A30000DAF52EA43057FF4EBAE12E74FF0FF3CF7
:100A400006E000BF4FF0010C02E000BF4FF0010CC8
:100A50004DF804CD4FEA410C7FEA6C5C4FEA430C41
:100A600018BF7FEA6C5C1BD001B050EA410C0CBF90
:100A700052EA430C91EA030F02BF90EA020F0020F2
:100A8000704710F1000F91EA030F58BF994208BF59
:100A900090422CBFD8176FEAE37040F00100704716
:100AA0004FEA410C7FEA6C5C02D150EA013C07D16D
:100AB0004FEA430C7FEA6C5CD6D152EA033CD3D0B8
:100AC0005DF8040B704700BF8446104662468C46B2
:100AD0001946634600E000BF01B5FFF7B7FF0028E5
:100AE00048BF10F1000F01BD4DF808EDFFF7F4FF0E
:100AF0000CBF012000205DF808FB00BF4DF808ED99
:100B0000FFF7EAFF34BF012000205DF808FB00BFBB
:100B10004DF808EDFFF7E0FF94BF012000205DF8DD
:100B200008FB00BF4DF808EDFFF7CEFF94BF012092
:100B300000205DF808FB00BF4DF808EDFFF7C4FF8B
:100B400034BF012000205DF808FB00BF4FEA410CD4
:100B50007FEA6C5C02D150EA013C0AD14FEA430CB7
:100B60007FEA6C5C02D152EA033C02D14FF00000F4
:100B700070474FF0010070474A0011D212F5001281
:100B800011D20DD56FF47873B3EB62520ED44FEAE5
:100B9000C12343F0004343EA505323FA02F0704765
:100BA0004FF00000704750EA013002D14FF0FF30A3
:100BB00070474FF0000070474FEA4102B2F1E04346
:100BC00024BFB3F5001CDCF1FE5C0DD901F0004C34
:100BD0004FEAC0024CEA5070B2F1004F40EB830084
:100BE00008BF20F00100704711F0804F21D113F1B0
:100BF0003872BCBF01F00040704741F480114FEAE9
:100C00005252C2F11802C2F1200C10FA0CF320FA71
:100C100002F018BF40F001004FEAC1234FEAD3238E
:100C200003FA0CFC40EA0C0023FA02F34FEA4303F8
:100C3000CCE77FEA625307D150EA01331EBF4FF081
:100C4000FE4040F44000704701F0004040F0FE409C
:100C500040F40000704700BF53B94AB9002908BFEB
:100C600000281CBF4FF0FF314FF0FF3000F0A4B957
:100C7000ADF1080C6DE904CE00F03CF8DDF804E0BD
:100C8000DDE9022304B0704738B500220023044692
:100C90000D46FFF733FF28B920462946BDE8384006
:100CA00000F00AB8204605F1004100F005F8404286
:100CB00061EB410138BD00BFD0B50C4B00220646A8
:100CC0000F46FFF7A9FCFFF757FF0446FFF72AFC82
:100CD000074B0022FFF7A0FC02460B463046394680
:100CE000FFF7E2FAFFF748FF2146D0BD0000F03DD4
:100CF0000000F0412DE9F047089D04468C46002B8A
:100D000040F083808A42174647D9B2FA82F242B154
:100D1000C2F1200024FA00F09140974040EA010C13
:100D200094404FEA1748230CBCFBF8F61FFA87FEE5
:100D300008FB16C143EA014306FB0EF1994209D9AB
:100D4000FB1806F1FF3080F01981994240F21681BC
:100D5000023E3B445B1AA4B2B3FBF8F008FB10332D
:100D600044EA034400FB0EFEA64509D93C1900F1F4
:100D7000FF3380F00581A64540F2028102383C44F1
:100D800040EA0640A4EB0E0400261DB1D440002327
:100D9000C5E900433146BDE8F08702B9FFDEB2FA8B
:100DA00082F2002A50D1CB1B4FEA174E1FFA87F868
:100DB0000126B3FBFEFC210C0EFB1C3341EA034170
:100DC00008FB0CF38B4207D979180CF1FF3002D2E3
:100DD0008B4200F2E9808446C91AA3B2B1FBFEF04F
:100DE0000EFB101143EA014408FB00F8A04507D9A7
:100DF0003C1900F1FF3302D2A04500F2D980184619
:100E0000A4EB080440EA0C40BFE78B4209D9002D4F
:100E100000F0B1800026C5E9000130463146BDE84A
:100E2000F087B3FA83F6002E4AD18B4202D3824276
:100E300000F2B880841A61EB030101208C46002D7A
:100E4000A8D0C5E9004CA5E7C2F1200320FA03F6BB
:100E5000974001FA02F04FEA174ED9403043030C95
:100E6000B1FBFEF61FFA87F80EFB161143EA0143A9
:100E700006FB08F1994204FA02F409D9FB1806F1BD
:100E8000FF3C80F08D80994240F28A80023E3B44D4
:100E90005B1A81B2B3FBFEF00EFB103341EA034153
:100EA00000FB08F38B4207D9791800F1FF3C73D29D
:100EB0008B4271D902383944CB1A40EA064678E7AA
:100EC000C6F1200C03FA06F422FA0CF31C4320FAB4
:100ED0000CF701FA06F34FEA144E21FA0CF11F4306
:100EE0003B0CB1FBFEF91FFA84F80EFB191143EA23
:100EF000014109FB08FA8A4502FA06F200FA06F3F4
:100F000008D9611809F1FF3048D28A4546D9A9F1BC
:100F100002092144A1EB0A01BFB2B1FBFEF00EFBB6
:100F2000101147EA014700FB08F8B84507D9E7194F
:100F300000F1FF312ED2B8452CD90238274440EABF
:100F40000940A7EB0807A0FB02894F45C646494662
:100F50001AD317D05DB1B3EB0E0267EB010707FAA6
:100F60000CFCF2404CEA0202F740C5E900270026DB
:100F70003146BDE8F0872E4628460BE70646E9E6EF
:100F80001846FDE64345E5D2B8EB020E69EB0401D5
:100F90000138DFE70846D2E760468DE78146B9E7CA
:100FA000664675E730464AE7ACF1020C394413E770
:100FB00002383C4424E700BF704700BFDFF834D05C
:100FC000002103E00C4B5B58435004310B480C4BA1
:100FD00042189A42F6D30B4A02E0002342F8043B3F
:100FE000094B9A42F9D304F02FFD1CF077FE00F074
:100FF0000BFE704700000320ACEC05080000002049
:10100000DC020020DC020020543F0020FEE700F05C
:101010000BBC00F079BC704710B5042104461BF0EE
:1010200032FD204610BD000038B50C4B0C4C18802A
:101030000C4B822019806368984740F61103984250
:101040000AD1094D23682C60822098472B688220A2
:10105000DB689847002038BD0120FCE7F80200203B
:1010600050000020FA020020FC0200204FF4A07182
:10107000F020FFF7D9BF0000F7B52D4D2B680446CF
:101080001B698220984780B22080002843D02B68BB
:101090000DF106025B6901A982209847BDF8062080
:1010A000A2F5B47292B20A2A37D90B23B2FBF3F23B
:1010B000204B1B889A4201D95A1E92B2BDF80430C7
:1010C00040F6B8318B422AD8C3F571630E339BB218
:1010D0000F21B3FBF1F3184909888B4201D94B1E4C
:1010E0009BB2164E164D30682F68834281B28CBF7A
:1010F000591AC91AB8B2BA428CBF101A801A89B2EA
:1011000080B201440529C8BF33603368C8BF2A6074
:1011100063802B68A38003B0F0BD0022CEE7C3F547
:101120006D6308339BB20E2BD2D80023D9E700BFE2
:10113000FC020020FA020020F80200200003002038
:101140000403002037B568460D461446FFF794FFA8
:10115000BDF8000030B1BDF802302B60BDF804309E
:101160002360012003B030BD7047704770470123F2
:1011700080F8741080F875307047002070470020A8
:101180007047836B0BB10846184770474FF6FF70E6
:101190007047406803689B691847704770477047FD
:1011A00000F054BC08B503680446DB6F9847236819
:1011B00020465B6F984700F0EDF823682046DB6E11
:1011C0009847292000F06CFF00F0E4F823682046DF
:1011D000DB6E9847F8E710B504460AF0B3FA2368C7
:1011E0002046D3F8A430BDE81040184700F020BCDA
:1011F00000F024BC00F048BC00F0F6BB00F048BC96
:1012000000F050BC00F0FABB08B531B90A4B0B4AEC
:101210000B484FF42B711CF01DFCC0E90F12003A73
:101220000849436418BF01220A70003B064A18BFF0
:101230000123137008BD00BF980D0208D00D0208ED
:101240001E0E02088E3900208F39002008B5094B88
:101250001B888B4203D8084B1B88934205D9074B48
:10126000074A08489E211CF0F5FB074B1980074BE5
:101270001A8008BD8439002086390020630E0208D8
:10128000C60E02081E0E02088A3900208C39002082
:1012900009F0F6BB10B57C2104461BF0F4FB204698
:1012A00010BD90F877301BB1406803681B68184781
:1012B0001846704710B590F8341090F874400C4BF5
:1012C0008C421A7809D03AB90A4A0B49148808881E
:1012D00010800C8001221A7010BD002AFCD0054A33
:1012E00005491488088810800C800022F3E700BFAD
:1012F000883900208439002086390020012108B572
:101300000022084607F05AF80A4B186028B90A4B21
:101310000A4A29210A481CF09DFB002204210120D1
:1013200007F012F9074B186018B9074B034A2D2133
:10133000F0E708BD0C030020DC0F020825100208AE
:101340005410020808030020A4100208024B4FF0BA
:10135000FF31186807F088B80C030020014B1868AB
:1013600007F0BCB80C030020024B0021186807F0FE
:101370007BB800BF0C030020FFF7F0BF034804490F
:10138000006800231A4607F025B900BF08030020B3
:101390000400002013B5084C00231A4601A9206858
:1013A00007F05AF920684FF0FF33002201A907F037
:1013B00053F902B010BD00BF0803002003685B6C46
:1013C00018470120704703689B6A184782B00023C2
:1013D00001930D4B1A6B42F400021A631A6B02F46C
:1013E00000020192019A1A6942F400021A611A6914
:1013F00022F400021A61054B054A1A61054B4FF0B1
:1014000080629A6002B0704700380240EC3D0020D4
:101410002114000800E100E040F2EF3070470000C6
:10142000024B1B68586803685B69184790390020B5
:1014300008B50B280BD8DFE800F01206100A0A0ADC
:101440000A0808080808012008BD0520FCE7054B2C
:10145000054A064867211CF0FDFA0020F4E7022047
:10146000F2E700BFE6100208011102084B11020862
:1014700008B50A2809D8DFE800F010060E080808A9
:10148000080606060600012008BD054B054A064869
:1014900088211CF0DFFA0020F6E70220F4E700BF05
:1014A000E6100208991102084B1102082DE9F843D1
:1014B00091F81D800C464046FFF7BAFFA77F05460E
:1014C0003846FFF7B5FF06463846FFF7D1FFA18A39
:1014D000628B4B4B521A1A649A61228B521A1A6110
:1014E000E28A586342EA01425A6421696268D96318
:1014F000DA60D4F800C094F81C90BCF1800F4FEA79
:1015000009629E4630D014D8BCF1200F45EA020093
:1015100068D0BCF1400F65D0BCF1040F20D0384B2F
:101520002A4342F40032B845DA6148D140F2012240
:1015300014E0BCF5807F07D0BCF5007FEFD142F40A
:10154000003242F0090203E042F4003242F00A02A3
:10155000DA61E2681A625E6259612A4A1A604CE0F6
:1015600040F40030D861F6E7A0682A4342F4003224
:10157000041DDC62DA6102785E62596142B1012ABF
:101580001FD0214B214A22484FF489711CF062FA86
:101590004288D969501E21F47F4222F0100242EAAB
:1015A0000022DA610124164BDA6942F02002DA6186
:1015B000DA699206FCD410229A60002CCDD1154A2B
:1015C000CCE74288D969501E21F47F4222F01002F4
:1015D00042EA0022B9F1FF0442F0100218BF0124D0
:1015E000DA61E0E7074B40F40030CEF81C00CEF89B
:1015F0002460CEF81410CEF80030BDE8F88300BFA8
:1016000000B0024001020200E4110208FE110208CB
:101610004B1102080102010038B50C46887FFFF724
:1016200027FFA58AE18A164B628B586341EA054180
:101630005964521B2169D9631A642568082D0ED19B
:101640009A611A615862207F0E4A42EA0062DA61AA
:10165000E2681A620C4A5961D9601A6038BD0022EA
:10166000D8611A61E1680A0A480902F4784200F474
:10167000FC600243C1F3C4010A439A63034AECE7E6
:1016800000B0024009000100010202000102030053
:10169000054B0360054B4FF08062C3F88820BFF311
:1016A0004F8FBFF36F8F70474412020800E100E0D4
:1016B00010B50446FFF7ECFF20464FF442611BF0E3
:1016C000E2F9204610BD000070B5044625460A4BDD
:1016D0000C30002660602672667245F8203B60225E
:1016E00029460AF065F904F54263EE602035AB4205
:1016F000FBD1204670BD00BF441202080120704794
:101700000C2070470C2303FB0100083070470C23AA
:1017100003FB0100083070470120704741F6680064
:10172000704741F6680303FB01000830704741F63B
:10173000680303FB01000830704701207047102048
:10174000704700EB01100830704700EB01100830C3
:101750007047084601F0A0BA10B5034B0360044679
:1017600008F0C0FE204610BDFC12020810B5044669
:10177000FFF7F2FF204614211BF085F9204610BD2B
:1017800010B5034B0360044608F0ACFE204610BDC4
:10179000C812020810B50446FFF7F2FF204641F6D2
:1017A00070011BF070F9204610BD000010B5034B0E
:1017B0000360044608F096FE204610BD941202080D
:1017C00010B50446FFF7F2FF204618211BF05BF925
:1017D000204610BD10B5094B0360044600F5C45007
:1017E0001C30FFF7B9FF04F12C00FFF7C9FF04F12B
:1017F0001400FFF7DBFF204610BD00BF30130208C6
:1018000008B50248FFF7E6FF08BD00BF140300203B
:1018100010B50446FFF7DEFF204641F610211BF00D
:1018200032F9204610BD00002DE9F34101F076F9B0
:10183000054601F077F90024014623462846224652
:1018400000940FF0CFF8244B244A254D1A6020460F
:1018500001F050FD23480FF007F82B78BFF35B8FA2
:10186000DB0733D428461BF010F978B31E4C1F4F0A
:101870001F4B236007F11C0604F1140004F12C082F
:101880006060C4F80880E760266108F02DFE194BFF
:101890006361404608F028FE174BE362384608F0C3
:1018A00023FE164B3B6007F1140003F043F8224679
:1018B00007F11401304603F021F8304601F0ECF94D
:1018C00028461BF0EEF80E481CF0E2F80D4802B076
:1018D000BDE8F041FFF764BCEC390020C4290020CA
:1018E000100300200800002014030020B01B00207B
:1018F0003013020894120208C8120208FC120208EF
:1019000001180008482900200148FFF74BBC00BF20
:101910004829002070B5244C244E254B254D2360CA
:101920003046FFF7D1FE284612F02CF9224B23480F
:10193000DC6000224FF48071C3E91212204C21496F
:101940000360F020C3E9191220804FF080711E4C13
:1019500059670121C3E90422C3E90622C3E9082229
:10196000C3E90E22C3E91022C3E91422C3E91622F7
:101970001A8583F82A20DA621A861A6683F86C20A0
:101980001A67C3E9016583F8781020800F4C83F84B
:1019900034104FF4A07020800D4C20800D48027050
:1019A0000D4A1A6070BD00BF241D0020281D0020B4
:1019B000880D0208C82900204829002090390020FD
:1019C00084390020010000018A3900208639002076
:1019D0008C39002088390020140F02080148FFF7D5
:1019E00057BE00BF281D0020034B902283F85A23C6
:1019F00083F85823704700BF00E100E0094A0A4914
:101A0000D3680A48C3F30A03013B9BB20B801169F8
:101A1000C1F30A01013901801364536B43F00103E0
:101A20005363704700680140422A0020402A00208A
:101A3000014B986A704700BF84680140024B012245
:101A4000996243F8602C70478468014070B5044681
:101A500009F06BF823681D6E0CF004F8014620466F
:101A6000A8472368054AD3F884502046AC46002393
:101A7000BDE87040A2F51631604700BF005802D0A3
:101A800009F03AB809F044B809F000B809F05BB9B8
:101A9000034B4FF080629A604FF080729A607047FB
:101AA00000E100E0084B4FF08062C3F88820BFF3EC
:101AB0004F8FBFF36F8F4FF08072C3F88820BFF352
:101AC0004F8FBFF36F8F704700E100E0134B144A54
:101AD0001B6C11888B4210B5124C13D1124B198814
:101AE00005F038F8226892F86630013382F86630E3
:101AF000FFF744FC206809F025FEBDE810400020F7
:101B0000FFF732BB05F026F80020FFF72EFB206818
:101B10000368BDE810401B6A184700BF0068014019
:101B2000422A002090390020402A002007B5064BA9
:101B3000ADF806001B68054801220DF1060105F00D
:101B400018FD03B05DF804FB10000020843C002069
:101B5000F0B5A1B0102200210AA81CF005F914224A
:101B6000002103A81CF000F90021302214A81CF069
:101B7000FBF80024224B01941A6C42F080521A6444
:101B80001B6C03F080530193019B1E4B02941A6857
:101B900042F440421A601B6803F44043029301225E
:101BA000029B4FF48033CDE9082302254FF48003D4
:101BB000CDE90E5308274FF4A873042608A8CDE9F1
:101BC00010731295139604F0E3FF0F23CDE903354C
:101BD0004FF4A0514FF48053CDE9061303A805211B
:101BE000059405F0ABF9C023189314A84FF4003303
:101BF00014971A961D9305F07BFA21B0F0BD00BF33
:101C0000003802400070004080B59AB003F02AFF0F
:101C1000FFF79EFF142200210DA800241CF0A4F859
:101C2000C34B00941A6BC348C34D42F020021A63A1
:101C30001A6B02F020020092009A01941A6B42F093
:101C400080021A631A6B02F080020192019A0294D8
:101C50001A6B42F004021A631A6B02F00402029239
:101C6000029A03941A6B42F001021A631A6B02F093
:101C700001020392039A04941A6B42F002021A635F
:101C80001A6B02F002020492049A05941A6B42F055
:101C900040021A631A6B02F040020592059A0694FC
:101CA0001A6B42F010021A631A6B02F010020692CD
:101CB000069A07941A6B42F008021A631B6B03F032
:101CC0000803079322460421079B04F065F9224686
:101CD0009A484FF4405104F05FF9012602274FF073
:101CE000040894480F940DA9CDE90D86109704F0CF
:101CF00069F80DA94FF440539048CDE90D36CDE970
:101D00000F4704F05FF88E488E4B036003F03CFFF2
:101D10008D4A8E4B2C62C5E9002328464FF4804340
:101D2000C5E90434C5E90244C5E9064404F016FBDC
:101D30001021284604F052FD2146284604F06DFD8E
:101D40008348844984624FF48273C0E900134FF4DE
:101D500000751823C0E906530A237F4DC362C0E90A
:101D60000244C0E90444C0E9084405F0C5FB7B4BCC
:101D70000D974FF0100CC5E900364023C5E904C3A8
:101D80004FF4C073C5E906344FF40063C5E9083465
:101D90004FF400534FF0030AAB620DA90723284606
:101DA000CDE90E3810934FF00809C5E90248CDE996
:101DB00011A7139705F0C6FA4FF6FF7209A9284636
:101DC000CDE90A96089409960C9405F0DBFA3046A2
:101DD00003F074FE4FF6FF7209A92846CDE9097990
:101DE000CDE90B6405F0CEFA4FF6FF7209A928463B
:101DF000CDE909A9CDE90B8405F0C4FA4FF40C73C1
:101E00000893089B0C934FF6FF7209A92846CDE969
:101E100009890B9605F0B6FA40F26A51284605F09A
:101E2000C8FA342221460DEB02001BF09DFF4C4DF9
:101E30004C4BAC86C5E900340923C5E905361D23A2
:101E400040F20D1EC5E9073A40F24313C5E909E324
:101E5000284640F2471340F21718C5E90B83C5E93D
:101E600002442C6185F8364004F07CFDFF21F0220D
:101E7000CDE912144FF4806905214FF4A073CDE928
:101E80000E24CDE91491CDE916420DA9224628462B
:101E9000CDE91037344D18930D94ADF864408DF8AA
:101EA000664004F02AFE314B2B601B68DFF8E4A08B
:101EB00098472B682E4DDB6898472E4BC5E90A479B
:101EC000C5E90C442846C5E90034C5E9027403F0AD
:101ED0007DFE3146284603F031FF27484FF4165364
:101EE0000C21C0E900A3C0E90514C0E90244046163
:101EF000C46105F045FFFFF78AF806F0B5F9224600
:101F00000C21304606F02CFF1C4B224618600C2199
:101F1000304606F025FF1A4B1A4A186021461A4827
:101F200006F0DCF9194B1A4A1860214634E000BF6C
:101F30000038024000080240303C0020000C024003
:101F4000DC3C002000300240005C0040A086010024
:101F5000843C002000500140603E0020400100A071
:101F6000EC3C002000680140442A002018000020BA
:101F7000EC3D002000B00240943D0020AC2B00203E
:101F8000B02B00209C130208A5230008E43C00208D
:101F90007813020800100140034806F09FF9034B34
:101FA000186006F07BF9FEE713100008E83D0020FA
:101FB000704770477FB5094B8DF817201B68029357
:101FC0000DF117020123009201930A4601460448CD
:101FD00004F06CFA07B05DF804FB00BF0C000020B1
:101FE000303C00207FB500238DF81730084B1B686C
:101FF00002930A4601230DF1170100910193014656
:10200000044804F0E3FA9DF8170007B05DF804FBFC
:102010000C000020303C00201FB5084C24680092C2
:10202000CDE901340A4601230146054804F0CEFA01
:10203000003818BF012004B010BD00BF0C00002004
:10204000303C002003F03ABD08B5064800220421C8
:1020500003F0A2FFBDE8084002480122042103F07A
:102060009BBF00BF0008024038B50B4D044601225B
:102070000A484FF4005103F08FFF00220421284644
:1020800003F08AFF2046FFF751FD28460122BDE8F4
:102090003840042103F080BF00080240000C0240D9
:1020A00038B50B4D044600220A484FF4005103F0A6
:1020B00073FF00220421284603F06EFF2046FFF73D
:1020C00035FD28460122BDE83840042103F064BFF5
:1020D00000080240000C0240F7B5144E144F0546AC
:1020E0000C4630460022042103F056FF00224FF434
:1020F0000051384603F050FF2846FFF717FD0D4BFF
:102100000D481B68224601A905F0C6FB384601228E
:102110004FF40051019C03F03FFF3046012204219F
:1021200003F03AFF204603B0F0BD00BF00080240B4
:10213000000C024010000020843C002003F0BEBCD4
:1021400070B50446FEF754F800221346824218DBAD
:102150001D099F2B03F00F0394BF30353735032043
:10216000092B94BF03F1300403F137041BF0DEFDAB
:10217000EDB20646054923462A461CF053FA30467E
:1021800070BDA15C5B1ADBB20132DFE73C130208D1
:1021900038B5FDEEC07A642317EE905A95FBF3F53F
:1021A0006B432DED028B08EE103AB8EEC88A0A2375
:1021B00030EE480A0420FDEEC07A303517EE904A22
:1021C00094FBF3F4634308EE103AB8EEC88A303457
:1021D00030EE488A1BF0AAFDFDEEC88AF2EE047AC2
:1021E00018EE903AF8EEE88A303338EE688A837059
:1021F00028EE278A0570BDEEC88A447018EE103AA2
:102200003033C370BDEC028B38BD38B5FDEEC07AFB
:10221000642317EE902A92FBF3F253432DED028BC9
:1022200008EE103AB8EEC88A022030EE488A0A2436
:10223000FDEEC87A17EE905A1BF078FD95FBF4F589
:1022400005F13003037004FB05F300EE103AB8EE1D
:10225000C00A38EE408ABDEEC88A18EE103A303314
:102260004370BDEC028B38BDF0B585B004AC04E919
:102270000700019D1C46C5B902233F2723706570E6
:10228000A77003201BF052FD3B46294906462A460B
:102290001CF0C8F93046FFF753FF0378E37043782A
:1022A00023710323637105B0F0BD012DFBD19DEDBA
:1022B000020AFFF76DFF9DED030A0546FFF7A5FF34
:1022C00002232370002363705423A3702B78E370E0
:1022D0006B782371AB7863712E23A371EB78E37174
:1022E00046232372037863724378A37223465222F3
:1022F00003F80B2F064604F11B02302103F8011FDF
:102300009A42FBD11B201BF011FD1B22611C1CF00B
:10231000ECF932232377637703232846A3771BF056
:102320000DFD304605B0BDE8F0401BF007BD00BF15
:102330003C130208F7B5074606200C461BF0F6FCD6
:10234000064603201BF0F2FCE37901936379E278FF
:10235000009305462379114930461CF063F9A37AAE
:10236000627A0F4928461CF05DF930461BF096FB57
:1023700051EC100BFEF720FC786028461BF08EFB1A
:1023800051EC100BFEF718FCB86030461BF0D6FC81
:10239000284603B0BDE8F0401BF0D0BC4113020852
:1023A0003C1302082DE9F74F3D4E3E4CDFF80CA1DF
:1023B00000254FF0FF3333602560A846AB46374613
:1023C0003849DAF80000DFF8F890002206F098FEAD
:1023D000354B94E80700FFF747FF23687BBB324982
:1023E00032484FF4FA73062205F0F8FC33223049E4
:1023F0002E484FF4FA7305F04DFD2E4A1060A0B937
:10240000306001902A493846FFF794FF019B1D4632
:10241000D9F8000000234FF4FA72394606F008FD9F
:102420004FF47A7005F0B0FFCAE70135092DEFDDF2
:102430004FF0FF33336000237360B360E8E7012B94
:10244000E6D1194919484FF47A731F2205F0C6FCEA
:10245000194916484FF4FA63062205F01BFD08F1EE
:10246000010815493846FFF765FFB8F10A0F0ADD84
:102470006FF0EF033360D9F8000000234FF4FA72D5
:10248000394606F0D5FC0C4B9B78062BC0D10023B7
:10249000C4F800B06360A3604FF00008B8E700BF65
:1024A000DC3D0020B43E0020943E0020943D0020FE
:1024B0002C3E0020E83C0020D43D0020B02B002022
:1024C000AC2B00200268034B9A4201D103F0E4BA1E
:1024D000704700BF0010004082B00E4B00220092F7
:1024E000596C41F480415964596C01F48041009168
:1024F00000990192196C41F0805119641B6C03F032
:1025000080530193019B0F216FF0010002B003F093
:10251000FBBA00BF003802400268094B9A4282B001
:102520000BD100230193074B1A6B42F480521A63BC
:102530001B6B03F480530193019B02B0704700BFF3
:10254000003002400038024007B50F4B02689A4243
:1025500016D10022A3F5F0430192196B41F400015A
:1025600019631B6B03F40003019305215A20019B9F
:1025700003F0CAFA5A2003B05DF804EB03F0F6BA90
:1025800003B05DF804FB00BF00B002402DE9F0434A
:10259000044689B01422002103A81BF0E5FB226841
:1025A000244B9A4243D1244C244800250095236BA8
:1025B00043F004032363236B03F004030093009BA5
:1025C0000195236B43F001032363236B03F00103A5
:1025D0000193019B4FF012094FF400734FF0010873
:1025E0000327042603A9CDE90339CDE9058707961A
:1025F00003F0E8FB4FF480731148079603A9CDE977
:102600000339CDE9058703F0DDFB0295236C43F424
:1026100000032364236C03F400030293029B236AE8
:1026200043F400032362236A23F40003236209B006
:10263000BDE8F083005C0040003802400008024022
:1026400000000240F0B504468DB01422002107A816
:102650001BF08AFB2268574B9A4240F0A98003F591
:102660005043002400945A6C534842F080625A64EC
:102670005A6C02F080620092009A01941A6B42F048
:1026800020021A631A6B02F020020192019A02944E
:102690001A6B42F001021A631A6B02F001020292F5
:1026A000029A03941A6B42F002021A631A6B02F048
:1026B00002020392039A04941A6B42F040021A63D6
:1026C0001A6B02F040020492049A05941A6B42F0CD
:1026D00004021A631A6B02F004020592059A06942A
:1026E0001A6B42F008021A631B6B03F0080306938F
:1026F00002250E26069B0B964FF4806307A9CDE9B1
:102700000735CDE9094503F05DFB41F658032B4839
:102710000B9607A9CDE907350927CDE9094503F04F
:1027200051FB032326480B9707A9CDE90735CDE9CF
:10273000094503F047FB4FF4706321480B9607A946
:10274000CDE90735CDE9094503F03CFB4FF40C63B7
:102750001C480B9607A9CDE90735CDE9094503F0DB
:1027600031FBC02318480B9607A9CDE90735CDE901
:10277000094503F027FB082314480B9607A9CDE968
:102780000735CDE9094503F01DFB4FF4A0530D4873
:102790000B9707A9CDE90735CDE9094503F012FBF1
:1027A00058202246052103F0AFF9582003F0DEF946
:1027B0000DB0F0BD0068014000140240000002406E
:1027C000000402400018024000080240000C0240D1
:1027D00010B5044688B01422002103A81BF0C4FAE7
:1027E0002268154B9A4224D103F5684300220192D6
:1027F000596C41F480115964596C01F480110191B4
:1028000001990292196B41F0200119631B6B05922B
:1028100003F0200302934FF46071029B0223CDE981
:10282000031303200523CDE9060303A9034803F09E
:10283000C9FA08B010BD00BF0050014000140240AA
:1028400010B5044688B01422002103A81BF08CFAAE
:102850002268194B9A422CD103F594330024019439
:102860005A6C164842F010025A645A6C02F0100278
:102870000192019A02941A6B42F001021A631B6BD7
:10288000059403F0010302934FF4C062029B0223FC
:10289000CDE9032303210723CDE9061303A903F0A0
:1028A00091FA25202246052103F02EF9252003F078
:1028B0005DF908B010BD00BF0010014000000240EB
:1028C0002DE9F0412C4B1C6886B0002C50D14FF004
:1028D0000108C3F80080294B00949A6B284842EA0B
:1028E00008029A639B6B039403EA08030093022790
:1028F00003260C25009B01A94FF63F03CDE90137C4
:10290000CDE9046503F05EFA1E48059501A9CDE9FD
:102910000187CDE9034603F055FA48F233131A480C
:10292000059501A9CDE90137CDE9034603F04AFA3F
:102930004FF683731548059501A9CDE90137CDE917
:10294000034603F03FFA4CF203731148059501A9C1
:10295000CDE90137CDE9034603F034FA60230D4891
:10296000059501A9CDE90137CDE9034603F02AFA1F
:1029700006B0BDE8F08100BF482A002000380240C0
:1029800000140240000802400018024000100240FB
:10299000000C02400004024030B5014689B000221C
:1029A000362003F0B1F8362003F0E0F80025154B8F
:1029B00002951A6C144C42F010021A641B6C03F05E
:1029C0001003029301A903A8029B04F073FB04F017
:1029D00051FB0E4B236040F2E733E36040000C4BA9
:1029E000B0FBF3F00138606020462561A56005F07A
:1029F00007F920B9204604F0E7FF09B030BD0120F7
:102A0000FBE700BF00380240C03E0020001000403D
:102A100040420F007047FEE7FEE7FEE7FEE7704723
:102A2000014805F0D5BA00BF943D0020014804F0EC
:102A3000DFBF00BFC03E0020014804F001B800BF66
:102A4000EC3C0020014803F0EFB800BFEC3D002053
:102A50000120704708B51BF033F8162303604FF0D0
:102A6000FF3008BD08B51BF02BF816230360FEE706
:102A700070B50E4614460025A54201DB204670BD08
:102A8000AFF3008070550135F6E770B50E46144679
:102A90000025A54201DB204670BD705DAFF30080CC
:102AA0000135F6E74FF0FF3070474FF400534B60AD
:102AB000002070470120704700207047704710B514
:102AC0000421044619F0DFFF204610BD08B5062991
:102AD00021D8DFE801F004080C1014181C0000F0E5
:102AE00055FC006808BD00F051FC4068FAE700F0B2
:102AF0004DFC8068F6E700F049FCC068F2E700F0A2
:102B000045FC0069EEE700F041FC4069EAE700F0AF
:102B10003DFC8069E6E70020E4E7000000487047DC
:102B2000D41302081120704713B5002451B1036873
:102B300001948DF8034001AA9C680DF10303A0479E
:102B400002B010BD0846FBE7408970478089704796
:102B50008088704783798088184480B27047C07934
:102B600000F07F007047C079C0097047704710B50A
:102B70000821044619F087FF204610BD704700F574
:102B800096730868496803C370477047704741608F
:102B9000704770470123037270477047704710B445
:102BA000C26841685410034601EB6200D20748BF77
:102BB0000A599B685DF8044B48BFD35818474368CF
:102BC0002BB183682BB9C06800F00100704718462C
:102BD00070470120704710B50C21044619F053FFCF
:102BE000204610BD10B51021044619F04CFF2046B8
:102BF00010BD10B54FF4AC71044619F044FF2046E7
:102C000010BD10B50AF02EFF0368BDE810401B6B25
:102C1000184710B50446D0F83C0158B10368DB688A
:102C2000984738B1D4F83C0103689B689847002363
:102C3000C4F83C3110BD0000F8B5044617460E46F6
:102C40000AF030FF104B0025C4E954760F4E1C608B
:102C5000C4E952550E4B306823600E4BC4E9503521
:102C6000036801219B68C4E94E559847284600F047
:102C700041FB336893F876200AB1D86C00B99868A4
:102C800012F0CBFD2046F8BDDC3900209039002041
:102C90008018020868180208064BC0F84831002363
:102CA000C0F84C3100F5A073C0F84401C0F83C31C5
:102CB000704700BFF92D00082DE9F84F07469068CE
:102CC000DDF828A0994603681B6A88461446984791
:102CD00041F66703984205D8414B424AA321424836
:102CE0001AF0B8FE606803681B6A98470F2803D87B
:102CF0003E4B3C4AA421F2E7E06803681B6A984710
:102D00000B2803D83A4B374AA521E8E70AF0AAFE78
:102D10000AF0AEFED9F8000010B10368DB689847EE
:102D2000D9F8000010B103681B689847386810B1E3
:102D300003685B699847D8F8000010B103685B68C6
:102D40009847386810B103681B689847D8F80000A6
:102D500010B103689B689847E068036800215B6ACC
:102D600098474FF0000B234B03600546C0F804B0B2
:102D700080F808B0A068036859465B6A9847064621
:102D800002F0C0FA6068036859465B6A98473146AA
:102D9000044602F0B1F9C9F80050C8F800403E609E
:102DA000E4B1231DCAF804303368C4F808A03046E3
:102DB000DB68F4639847236820461B6898472946D8
:102DC00030460CF01BFA2B6828461B6998472B6885
:102DD00028465B6998472046BDE8F88F2346E1E71F
:102DE00038150208C6150208D0160208171702087F
:102DF000BA170208C418020807B5D0F85431009376
:102E0000D0F85021044B00F59C710448FFF754FFA3
:102E100003B05DF804FB00BFD0390020CC3900209E
:102E2000006A7047406A704770478B8880690A68FB
:102E3000DB0A50F823001044704710B5C2B1137B71
:102E4000B3B1547BD27A240204F4E0641443C2691F
:102E500098B202EB840213888B4202D192F90200ED
:102E600010BD05D8013880B204320028F3D1F7E74D
:102E70000020F5E710B52821044619F004FE20468D
:102E800010BD000030B589B00446BDF8505006951D
:102E9000BDF84C5005959DF8405004959DF83C5068
:102EA00003959DF8385002959DF8345001959DF892
:102EB000305000950BF002FE064B2360119BA3617E
:102EC000129BE361159B2362169B6362204609B047
:102ED00030BD00BFE81802087047000030B5154D3E
:102EE0002C78BFF35B8F14F001048DB01FD12846FE
:102EF00019F0CBFDD8B13F2307930F4B06930F4B2F
:102F00000F4910480894CDE9044301220423CDE978
:102F10000132CDE909440C23192203940094FFF7F0
:102F2000B1FF284619F0BDFD07481AF0B1FD05486C
:102F30000DB030BD4C2A0020147002083070020819
:102F4000FC6B0208502A0020D92E000870470000B0
:102F500030B5154D2C78BFF35B8F14F001048DB0A4
:102F60001FD1284619F091FDD8B13F2307930F4B8D
:102F700006930F4B0F4910480894CDE904430122F2
:102F80000423CDE90132CDE909440E230B22039439
:102F90000094FFF777FF284619F083FD07481AF0E1
:102FA00077FD05480DB030BD782A00201870020862
:102FB000347002085C6D02087C2A00204D2F000846
:102FC0007047000030B5154D2C78BFF35B8F14F0BF
:102FD00001048DB01ED1284619F057FDD0B13F2312
:102FE00007930F4B06930F4B0F4910480894CDE9F8
:102FF00004430823CDE9004313221C23CDE90944EF
:10300000CDE90244FFF73EFF284619F04AFD084883
:103010001AF03EFD05480DB030BD00BFA42A0020C7
:103020001C70020838700208F86D0208A82A0020F7
:10303000C12F00087047000030B5164D2C78BFF343
:103040005B8F14F001048DB020D1284619F01DFDCE
:10305000E0B13F230793104B0693104B10491148E2
:103060000894CDE9044301220423CDE9013205236C
:10307000009310221823CDE909440394FFF702FFBF
:10308000284619F00EFD08481AF002FD05480DB05B
:1030900030BD00BFD02A0020207002083C7002081A
:1030A000046F0208D42A0020353000087047000061
:1030B00030B5154D2C78BFF35B8F14F001048DB043
:1030C0001ED1284619F0E1FCD0B13F2307930F4BE6
:1030D00006930F4B0F49104808940122CDE9044391
:1030E0000423CDE90132CDE909440A230394009475
:1030F000FFF7C8FE284619F0D4FC08481AF0C8FCAF
:1031000005480DB030BD00BFFC2A00202470020825
:1031100040700208E46F0208002B0020AD30000868
:103120007047000030B5154D2C78BFF35B8F14F05D
:1031300001048DB01ED1284619F0A7FCD0B13F2361
:1031400007930F4B06930F4B0F4910480894012229
:10315000CDE904430423CDE90132CDE90944142328
:1031600003940094FFF78EFE284619F09AFC084855
:103170001AF08EFC05480DB030BD00BF282B002092
:103180002870020844700208F46F02082C2B0020FB
:10319000213100087047000030B5154D2C78BFF381
:1031A0005B8F14F001048DB01ED1284619F06DFC20
:1031B000D0B13F2307930F4B06930F4B0F49104895
:1031C00008940122CDE904430423CDE90132CDE97D
:1031D0000944282303940094FFF754FE284619F06D
:1031E00060FC08481AF054FC05480DB030BD00BF23
:1031F000542B00202C70020848700208047002084A
:10320000582B00209531000800207047002070479F
:103210000EB403B503AB002153F8042B01930BF05C
:1032200083FA02B05DF804EB03B070470CB407B545
:1032300004AB53F8042B01930BF076FA03B05DF85E
:1032400004EB02B070470000436C10B5044673B342
:10325000038F2BB9184B194AC02119481AF0FAFBF1
:10326000C38E00EB43035B8C0BB30CF035FD238F57
:10327000012B03D8134B144AC521EEE7E28E531CF1
:103280009BB2092B194688BFA3F10A0104EB410147
:1032900040F63F10498C814209D10A2B04EB4202CF
:1032A00028BF002304EB4303508C588451842046EC
:1032B000BDE810400CF0F4BB3819020841190208AF
:1032C000EC190208361A0208441A02080CF0A0BBD6
:1032D00010B586B002AC84E806001A460AAB059326
:1032E0000193099B00932146089B09F032FF06B029
:1032F00010BD000038B518BB124B13481B681349AA
:10330000B3B11A689C681A4402605A681A440A6089
:103310001C440F4B00221A8000F038F8054600F0DC
:1033200033F80C4B1C600C4B1D600C4B188007E0F5
:103330000B4B03600B4B0B600B4B1C68002CE8D154
:1033400038BD00BF802B0020842B0020882B00205C
:103350008C2B0020E0390020E8390020E4390020DF
:10336000F47002084C7002081C720208044B1B68BF
:1033700053F82100034B1B6803EB4000704700BF6C
:10338000882B0020842B00202A207047004870479B
:10339000902B002010B5FFF7C5FE0A4C2060FFF708
:1033A000FBFE6060FFF784FEA060FFF70BFEE060AD
:1033B000FFF742FE2061FFF7CBFD6061FFF78EFD56
:1033C000A06110BD902B00200020704781807047C5
:1033D000C1807047018170474181704770477047D5
:1033E00070477047704710B4C4880368121B848804
:1033F0001B6D091B12B25DF8044B09B218474FF65A
:10340000FF7383814FF0FF3303621368C361106061
:103410007047806A704790F825201AB190F82420F0
:1034200002B1186070477047704710B54FF42971AA
:10343000044619F028FB204610BD0000074A026030
:103440000022C0E90122C0E90322C0E90522C0E947
:1034500007224FF480728284704700BFA8390208A7
:1034600070B503680446DB6A154698472368294609
:1034700020461B6BBDE870401847000038B5262277
:1034800004460D4600211AF06FFC2046FFF7D6FFD8
:10349000064B23602B88E384FF23204684F82830E2
:1034A000294608F0C2FD204638BD00BFE4360208B8
:1034B00010B52622044600211AF056FC2046FFF7DC
:1034C000BDFF074B2360074BA3624FF6FF73A38535
:1034D0004FF47F020023C4E90C322387204610BD3D
:1034E00030350208301502082DE9F04F2DED068B1E
:1034F000044683B026460025FFF7A0FF5D4BA5627A
:1035000046F82C3B4FF6FF7769463046ADF8007021
:10351000FFF7B4FF04F158036946184608EE103A65
:10352000ADF80070FFF7AAFF04F18403694618465E
:1035300008EE903AADF80070FFF7A0FF04F1B00379
:103540006946184604F1DC0A09EE103AADF800703D
:10355000FFF794FF5046FFF7ABFFDFF838B1C4F830
:10356000DCB004F58E731846C4F8185104F5AC7934
:1035700009EE903A04F5CC78FFF79AFF4846FFF73A
:1035800097FF04F5EC77C4F858B1C4F8945140465D
:10359000FFF78EFFC4F898B1C4F8D4513846FFF74E
:1035A00087FF04F50673C4F8D8B11846C4F814525E
:1035B0000AEE103AFFF77CFF2F4BA3601022402148
:1035C0003046FFF74DFF07236946304684F85150D7
:1035D000ADF8003008F029FD052218EE100A2D2163
:1035E000FFF73EFF4FF0060B18EE100A694684F80D
:1035F0007D50ADF800B008F018FD052218EE900AD5
:103600001E21FFF72DFF18EE900A694684F8A95095
:10361000ADF800B008F009FD052219EE100A0F21DF
:10362000FFF71EFF19EE100A694684F8D550ADF871
:1036300000B008F0FAFC0F2240215046FFF710FFBF
:103640004FF07F43C4F80C310C4BA4F810511B68A9
:1036500004F5157B2BB90A4B0A4AAE210A481AF029
:10366000F9F90A4B1B88222B16D8094B054AAF21C2
:10367000F4E700BF2C1C020854002100E0390020B0
:10368000161B0208581B0208861B0208E43900209A
:10369000CD1B02083C360208844B22211868FFF734
:1036A00065FE834A03460A2158460DF0CFF8C4F858
:1036B00018B1504608F05CFB7E4B0093694621230D
:1036C0005046ADF8043008F070FB0F2219EE900A56
:1036D0003B21FFF7C5FE774B00934FF07F4120233E
:1036E00019EE900AC4F84C11A4F850516946ADF88F
:1036F000043008F05AFB2D212A464846FFF7B0FE59
:103700004FF07F41C4F888116B49A4F88C510B68C5
:1037100004F51A7B002B9ED0684803881F2BA4D980
:10372000624A1F211068FFF721FE614A03460A2101
:1037300058460DF08BF8C4F894B1484608F018FBD1
:103740004FF01E0B5B4B009369464846ADF804B042
:1037500008F02BFB59462A464046FFF781FE5649A2
:10376000A4F8CC510B684FF07F4CC4F8C8C104F5E5
:103770001F7B002B3FF46FAF50480388242B7FF64C
:1037800074AF4A4A24211068FFF7F0FD484A034607
:103790000A2158460DF05AF8C4F8D4B1404608F052
:1037A000E7FA444B009369461D234046ADF80430C8
:1037B00008F0FBFA0F212A463846FFF751FE3E4932
:1037C000A4F80C520B684FF07F4CC4F808C204F503
:1037D000247B002B3FF43FAF38480388232B7FF630
:1037E00044AF324A23211068FFF7C0FD304A034638
:1037F0000A2158460DF02AF83846C4F814B208F0E9
:10380000B7FA2C4B009369461C233846ADF80430B8
:1038100008F0CBFA1AEE100A2A462946FFF720FED6
:103820004FF07F42234BC4F848221AEE100A00934F
:103830006946292384F83D52A4F84C52ADF804306F
:1038400008F0B3FA3146204606F0C6FE18EE101A0C
:10385000204606F0C1FE18EE901A204606F0BCFE87
:1038600019EE101A204606F0B7FE5146204606F023
:10387000B3FE19EE901A204606F0AEFE49462046E9
:1038800006F0AAFE4146204606F0A6FE394620462E
:1038900006F0A2FE20461AEE101A06F09DFE204603
:1038A00003B0BDEC068BBDE8F08F00BFEC39002003
:1038B0001F1C020830150208E0390020E4390020FE
:1038C0007047704710B5D021044619F0DCF8204647
:1038D00010BD00002DE9F74F04462546FFF7AEFD69
:1038E0000026344BA66245F82C3B4FF026094A4689
:1038F000314628461AF038FA2846FFF79FFD2E4B2E
:10390000E36204F15808FF2304F1940784F852306D
:1039100066654046FFF7CCFD3846FFF7C9FD274BEB
:10392000A360324631462846FFF79AFD2846F0212B
:10393000FFF750FD28464FF4A071FFF74DFD4FF003
:10394000FF33DFF87CB06365682240465721FFF7FC
:1039500087FDDFF870A0C4F888B02523694640468B
:10396000A4F88C60ADF80430CDF800A008F01DFA82
:10397000852249463846FFF773FD69463846C4F844
:10398000C4B0A4F8C860CDF800A0ADF8049008F069
:103990000CFA2946204606F01FFE4146204606F056
:1039A0001BFE2046394606F017FE204603B0BDE850
:1039B000F08F00BFBC1C0208D8350208F00040019F
:1039C0000000FFFF30150208683001F019BA00004E
:1039D00038B5084B0360084B836604464FF478758E
:1039E000635960191B68403D9847B5F5387FF7D19A
:1039F000204638BD4C1D02089824020810B5044624
:103A0000FFF7E6FF204640F2444119F03CF820461B
:103A100010BD00002DE9F341064600252A4A8562C3
:103A20004FF48073C0E90155C0E90355C0E905555D
:103A3000C0E90755838446F82C2BA0F85030234B5F
:103A4000C3624FF6FF73DFF88C80A0F8583000F1A6
:103A500068074FF47F030446C0E90C55C0E90E55D2
:103A6000C0E91055C0E91255C0F85480C565036619
:103A7000A0F86450384601F0FFF8154BA3603046BB
:103A80004421FFF7A3FC30460321FFF7A1FC4FF0D0
:103A90007F43E365694601233046A4F86050ADF8E2
:103AA0000430CDF8008008F080F94FF40033E3666D
:103AB0003146204606F090FD2046394606F08CFD42
:103AC000204602B0BDE8F0814C1D020830350208E6
:103AD0005600240030150208704770477047704741
:103AE00030B4C26844685510034604EB6200D20744
:103AF00048BF62599B6830BC48BFD35818474368D9
:103B00002BB183682BB9C06800F0010070471846DC
:103B100070470120704790F82D3080F89A3080F877
:103B20005C30704790F82D3080F85C30704701466B
:103B3000343091F82C3013B1623108F076BA60312C
:103B4000FBE708B590F82C3033B1D0F8A430C0F8BA
:103B50009430FFF7ECFF08BDD0F8A030F7E710B5C0
:103B60006421044618F08FFF204610BD10B5A8212F
:103B7000044618F088FF204610BD10B510210446F9
:103B800018F081FF204610BD10B5044600F5AC705A
:103B900001F0B2F904F29C50BDE8104001F0ACB95C
:103BA00010B50446006B50B10368DB68984730B12C
:103BB000206B036821469B68BDE81040184710BD84
:103BC00000F1B0028A4203D10368D3F88830184765
:103BD00070470B7970B590F82C6004460D469BB980
:103BE0008EB9B3FA83F35B0984F82C30236820463E
:103BF000D3F888309847236820465B69984716B108
:103C00002B79012B03D070BD002EFCD0E9E723688F
:103C10002046D3F88430BDE87040184770B503687B
:103C200004465B6B154698472368294620469B6BE4
:103C3000BDE8704018470B8870B5A0F860300546A5
:103C4000138825F8623F044628460CF0DFFE06463E
:103C500028460CF015FF31B202B22046FFF7DEFF16
:103C600023682046D3F88830BDE87040184738B53F
:103C70000446C025635960191B68403D984715F1FB
:103C8000400FF7D1204638BD70B50B4B0B4E0C4D95
:103C900003600446C0F89C65C0F8045600F6BC00FA
:103CA000FFF7E5FFC4F85861C4F8C05104F58F6010
:103CB000FFF7DDFF204670BD2C1F02084C1D0208D7
:103CC0009824020810B50446FFF7DEFF20464FF4A3
:103CD0001F6118F0D8FE204610BD0000F7B504465D
:103CE000FFF7ACFB4FF47F432646A3850123002555
:103CF00084F824301E4BA562256346F8343B4FF60A
:103D0000FF7701A93046ADF80470FFF7B7FB2A46EC
:103D100029463046A4F86070A4F86270FFF7A0FB53
:103D200031462046264606F057FC124B46F8643BC7
:103D30002622294630461AF017F83046FFF77EFB58
:103D40000D4B63660D4BC4F88C304FF47F03204657
:103D5000C4E92855A4F89070C4F89450C4F8983079
:103D6000A4F89C50314606F037FC204603B0F0BD65
:103D7000DC1D0208781E02083035020830150208E2
:103D80002DE9F04F044687B027460025FFF756FB84
:103D9000614BA56247F82C3B04F158094FF6FF76BA
:103DA00004A9384604F18408ADF81060FFF766FBFB
:103DB00004A94846ADF81060FFF760FB04A9ADF810
:103DC0001060404604F1B006FFF758FB04F5AC7BE9
:103DD0003046FFF783FF04F29C5A584601F0DAF8A8
:103DE000504601F0D7F84D4BC4F8E0394C4BC4F8BD
:103DF000E8394C4BA3601E2229463846C4F8E449F2
:103E0000C4F8EC59FFF72CFB082304A93846ADF899
:103E1000103008F00AF9252248466B21FFF720FBF5
:103E20000A2304A94846ADF8103008F0FEF8252210
:103E300040460721FFF714FB092304A94046ADF8CB
:103E4000103008F0F2F80B23ADF80C300C230DEB1A
:103E5000030104AA3046ADF81030FFF7ECFE2A4605
:103E6000294604F1E400FFF7FBFA2F4B049304F515
:103E70008A70062304A9ADF81430019007F095FF6D
:103E8000B4F9BA20B4F9B8100198FFF7C7FE019849
:103E90002A462946FFF7E4FA01981E22C821FFF7B7
:103EA000BDFE224B3046C4E95433FFF74AFE2A4692
:103EB00029463046FFF7D4FA30461E22C821FFF7C4
:103EC000ADFE04F51E63C4F8E030584625226B2190
:103ED000FFF7C6FA252250460721FFF7C1FA3946F7
:103EE000204606F079FB4946204606F075FB414620
:103EF000204606F071FB3146204606F06DFB594620
:103F0000204606F069FB2046514606F065FB204638
:103F100007B0BDE8F08F00BF2C1F0208141F020875
:103F2000C13B0008C8005000301502080A0A0AFF09
:103F300070477047704770477047704770477047C9
:103F400070477047704730B4C268446855100346E4
:103F500004EB6200D20748BF62599B6830BC48BF7F
:103F6000D358184743682BB183682BB9C06800F059
:103F700001007047184670470120704790F82D30B7
:103F800080F8903080F85C30704710B5942104467A
:103F900018F079FD204610BD10B51021044618F028
:103FA00072FD204610BD10B50446683094F82C30E0
:103FB0003BB104F1660108F038F82046FFF7B7FD81
:103FC00010BD04F16401F6E710B5044600F53A703F
:103FD00000F0F0FF04F6E44001F02AFA04F5B750CF
:103FE00000F077FF04F5BD501030BDE8104001F03F
:103FF00094B900F19802914202D103689B6B184773
:1040000000F59672914202D103685B6BF7E700F509
:10401000E072914202D10368DB6AF0E700F51572A5
:10402000914202D103681B6BE9E770470B88B0F936
:1040300008102DE9F041A0F864301388A0F866302C
:10404000044601EBD17110461746C1F34F050CF041
:10405000DDFCB4F90A30804603EBD3733846C3F372
:104060004F060CF00DFDA5EB5801A6EB500212B265
:1040700004F1680009B2FFF7F3F923682046D3F88A
:104080008830BDE8F041184738B504461D46FFF7B3
:10409000E7F9BDF9102029462046FFF7BFFD38BDDE
:1040A00010B526220446002119F05EFE2046FFF7D7
:1040B000C5F9044B2360FF2384F826300023A36254
:1040C000204610BDD835020870B50B4B0B4E0C4D79
:1040D00003600446C0F8F464C0F85C5500F61400B0
:1040E000FFF7C5FDC4F8B060C4F8185104F574704A
:1040F000FFF7BDFD204670BDF42102084C210208E7
:104100009824020810B5094B0360094BC0F8E43C41
:10411000044600F6E440FFF7D7FF064BC4F8E83248
:1041200004F53A70FFF7B0FD204610BD7820020874
:10413000202902089026020810B50446FFF7E2FF86
:10414000204641F6640118F09EFC204610BD10B5D3
:104150000446FFF7B9FF20464FF41F6118F093FCA7
:10416000204610BDF7B50446FFF768F94FF47F43CA
:104170002646A3850123002784F82430174BA76225
:10418000276346F8343B4FF6FF7501A93046ADF87A
:104190000450FFF773F93A4639463046A4F86050A8
:1041A000A4F86250FFF75CF93146204606F014FA95
:1041B00004F168060A4B236001A9A4F86450A4F82E
:1041C00066503046ADF80450FFF758F920463146A6
:1041D00006F002FA204603B0F0BD00BFDC1D020865
:1041E000C01F02082DE9F04F2DED048B044687B067
:1041F000A34600250AF056FEAF4BE5634BF8403B63
:104200005846FFF74DFF04F16C03184604F1980976
:1042100008EE103A04F59678FFF742FF4846FFF79C
:10422000A1FF04F5E0774046FFF79CFF04F5157603
:104230003846FFF797FF3046FFF794FF04F53A73CF
:10424000184608EE903A00F01BFF04F6E4431846C7
:1042500009EE103A04F5BD5A01F04CF904F5B753D4
:104260000AF1100A184609EE903A00F03BFE50465B
:1042700001F076F841F65403E21803928F4AE250B7
:10428000039B8F4A5C6041F65C032946E25004F5CB
:10429000C3532A461D604FF4A07300935846F02381
:1042A000FFF7F2FE4FF07F43A3664FF4A07318EEC2
:1042B000100A00932A462946F023FFF7E5FE4FF047
:1042C0007F43C4F8943005AA012304A94846ADF8F9
:1042D0001430ADF81050FFF7AEFC2A46294604F121
:1042E000CC00FFF7BDF80D2305AA04A94846ADF898
:1042F0001030ADF81430FFF799FE724BC4F804315A
:104300005022009248463C23DC221421FFF7BCFED9
:10431000039AC4F8C8200223ADF8103005AA03237D
:1043200004A94046ADF81430FFF785FC2A4629461B
:1043300004F5B070FFF794F810230DEB030105AA04
:104340004046ADF81030ADF81430FFF76FFE5D4B0E
:10435000C4F898315023009340463C23DC22A0212E
:10436000FFF792FE039BC4F85C3105A94FF00502EC
:104370004FF00403ADF8142038460A4604A9ADF8FE
:104380001030FFF758FC2A46294604F5FA70FFF76B
:1043900067F805A90F230A46384604A9ADF810307E
:1043A000ADF81430FFF742FE1221C4F82C12272179
:1043B000009138464C23DC225221FFF765FE039B17
:1043C000C4F8F0314FF005024FF00403ADF81420AB
:1043D00004A905AA3046ADF81030FFF72CFC2A4698
:1043E000294604F52270FFF73BF80E2305AA04A91D
:1043F0003046ADF81030ADF81430FFF717FE122339
:10440000C4F8C0322723009330464C2340F20512F3
:104410005221FFF739FE039BC4F8843218EE900A4C
:1044200078221421FFF71CF8142219EE100A114605
:10443000FFF716F819EE900A2A462946FFF710F8FA
:1044400041F205732A46E5545046251D3C21FFF7ED
:1044500007F85946284606F0BFF818EE101A284605
:1044600006F0BAF84946284606F0B6F8414628460E
:1044700006F0B2F83946284606F0AEF8314628462E
:1044800006F0AAF818EE901A284606F0A5F819EEDC
:10449000101A284606F0A0F819EE901A284606F0E1
:1044A0009BF82846514606F097F8204607B0BDEC29
:1044B000048BBDE8F08F00BF78200208602002085E
:1044C000F33F00080A0014007047704710B5A4219C
:1044D000044618F0D8FA204610BD00002DE9F3413B
:1044E0004FF48073064600258384274B8562C0E91C
:1044F0000155C0E90355C0E90555C0E9075546F81F
:104500002C3B044604F168073046FEF7D1FF3846DD
:10451000FEF7CEFF1D4BA36030460A21FEF756FF83
:1045200030460121FEF754FF194BDFF87080E36538
:1045300069462723304684F85150A4F86050ADF8FE
:104540000430CDF8008007F030FC124BE366124BCC
:10455000C4F8983069462823384684F88D50A4F86A
:104560009C50ADF80430CDF8008007F01EFC3146B9
:10457000204606F031F82046394606F02DF8204650
:1045800002B0BDE8F08100BFBC2002087800130033
:104590000000FFFF0A00010037CF00FF30150208BE
:1045A000683000F02DBC000038B5084B0360084BA4
:1045B000836604464FF47875635960191B68403D63
:1045C0009847B5F5387FF7D1204638BD4C21020811
:1045D0009824020810B50446FFF7E6FF204640F293
:1045E000444118F050FA204610BD00002DE9F34177
:1045F000064600252A4A85624FF48073C0E90155BA
:10460000C0E90355C0E90555C0E90755838446F85C
:104610002C2BA0F85030234BC3624FF6FF73DFF80A
:104620008C80A0F8583000F168074FF47F030446EF
:10463000C0E90C55C0E90E55C0E91055C0E9125546
:10464000C0F85480C5650366A0F86450384600F091
:1046500013FB154BA36030464421FEF7B7FE3046EE
:104660000321FEF7B5FE4FF07F43E3656946304610
:10467000A4F86050CDF80080ADF8045007F095FB29
:104680004FF40033E3663146204605F0A5FF20468F
:10469000394605F0A1FF204602B0BDE8F08100BF19
:1046A0004C2102083035020856002400301502085B
:1046B0007047704730B4C26844685510034604EB35
:1046C0006200D20748BF62599B6830BC48BFD358CC
:1046D000184743682BB183682BB9C06800F001000C
:1046E0007047184670470120704710B510210446E6
:1046F00018F0C9F9204610BD10B50446B03000F0DE
:1047000039FE04F2F440BDE8104000F033BE00F67C
:1047100038128A4203D10368D3F8883018477047AB
:104720002DE9F04F044687B027460025FEF786FEA8
:10473000624BA56247F82C3B04F158094FF6FF760F
:1047400004A9384604F18408ADF81060FEF796FE1F
:1047500004A9484604F1B00BADF81060FEF78EFED8
:1047600004A9404604F2F44AADF81060FEF786FE54
:10477000584604F6381600F04BFE504600F048FE4E
:104780003046FFF7ABFA4E4BC4F8E0394D4BC4F856
:10479000E8394D4BA3601E2229463846C4F8E44947
:1047A000C4F8EC59FEF75CFE082304A93846ADF8BE
:1047B000103007F03AFC252248466B21FEF750FEE8
:1047C0000A2304A94846ADF8103007F02EFC252234
:1047D00040460721FEF744FE092304A94046ADF8F0
:1047E000103007F022FC584625220721FEF738FE3C
:1047F000504625226B21FEF733FE0B23ADF80C301B
:104800000C230DEB030104AA3046ADF81030FFF77E
:1048100012FA2A46294604F66C10FEF721FE2B4BAD
:10482000049304F69C101B2304A9ADF814300190E6
:1048300007F0BBFAB4F94229B4F940190198FFF71F
:10484000EDF901982A462946FEF70AFE01981E2234
:10485000C821FFF7E3F91E4BC4F8D839C4F8DC3996
:104860003046FFF76EF92A4629463046FEF7F8FD36
:104870001E223046C821FFF7D1F904F51E63C4F8A3
:1048800068393946204605F0A7FE4946204605F01E
:10489000A3FE4146204605F09FFE5946204605F0FE
:1048A0009BFE5146204605F097FE2046314605F016
:1048B00093FE204607B0BDE8F08F00BFF421020848
:1048C000DC2102080F470008C8005000301502081C
:1048D0000A0A0AFF704710B54FF4AC71044618F08D
:1048E000D2F8204610BD10B50446D0F8540100F0AF
:1048F0002FF82046BDE8104008F088BF10B50446E8
:10490000FEF79AF9014B2360204610BD8822020869
:104910000B460649064801220A601A684A605B682D
:104920008B60002300681A4604F082BAC02B002076
:10493000B02B0020044A054B0260002242604FF079
:10494000FF321A60704700BFCC220208B42B00204F
:10495000F7B5154B154C054621461868002204F0A2
:10496000CFFB216811F1F00F03D1686803681B6960
:1049700098470F4E6368326868680093012AA368FD
:104980000193036807D127682FB9DB686946984708
:10499000376003B0F0BD69469B6898476868216836
:1049A00003685B699847F4E7AC2B0020B42B002028
:1049B0001400002038B5074B036004464FF45E75C1
:1049C000635960191B68403D9847B5F51E7FF7D1C4
:1049D000204638BD98240208036870B50446D3F811
:1049E00098300D469847D4F8D013D4F8C8332944EA
:1049F0005A1E9142C4F8D01302D1C4F8D03304E057
:104A0000D4F8CC335A1C9142F7D023682046D3F80F
:104A10009430BDE8704018474A1C10B5036804463E
:104A20000BD0012902D1D3F8AC3098472368204637
:104A3000D3F8B430BDE810401847D3F8B030F4E7ED
:104A4000036880EDF10AD3F8B4301847B0F8D033DA
:104A500000EB83000123D0F8A40280F8253003681E
:104A60005B691847B0F8D03300EB83000023D0F81F
:104A7000A40280F8253003685B691847B0F8D0338A
:104A800000EB830310B50446D3F8A402002380F89A
:104A9000253003685B699847D4F8C833C4F8D0332D
:104AA00010BD90EDF10A70470029C8BF0023C0E98E
:104AB000F212C0F8D013C4BF80F8413180F8013140
:104AC0007047C0EDF00A80EDEF0A704710B504465C
:104AD000FFF770FF20464FF4777117F0D4FF2046A0
:104AE00010BD00000000000010B50446D0F8D0034F
:104AF0000138FBF727FD9FED0E0B41EC110B17F072
:104B0000EBFF51EC100BFCF757F894EDF17A07EE40
:104B1000900A77EE677A94EDEF7AF4EEC77AF1EEC9
:104B200010FAA8BFC4EDF17A10BD00BFAFF300804A
:104B30000000000000002440D0EDF17AB0EEE77AEA
:104B4000FDEEC77AF8B517EE903A6422B3FBF2F7A0
:104B50007A4307EE902AF8EEE77A6FF0630277EE79
:104B6000677A0A21BDEEE77A02FB073317EE105A87
:104B70006FF0090695FBF1F506FB053601FB05F321
:104B800007EE103AB8EEC77A044677EEC77A07EE1A
:104B9000106AB8EEC77A224A77EEC77AB2EE047A84
:104BA00067EE877A00F51570FDEEE77A17EE903A1A
:104BB0000BF04CFE33461A4A0A2104F51A700BF02A
:104BC00045FE2B46164A0A2104F51F700BF03EFEE7
:104BD0003B46134A0A2104F524700BF037FED4ED4E
:104BE000F17AF5EEC07AF1EE10FA4CBF0123002302
:104BF00084F83D3204F5EC7009F0B7FE04F5CC7092
:104C000009F0B3FE04F5AC7009F0AFFE04F1DC006E
:104C100009F0ABFE04F50670BDE8F84009F0A5BE4A
:104C2000D02202080000000010B50446D0F8D003DE
:104C30000138FBF787FC9FED0E0B41EC110B17F0D1
:104C40004BFF51EC100BFBF7B7FFD4EDF17A07EEF9
:104C5000100A77EE277A94EDF07AF4EEC77AF1EE47
:104C600010FA98BFC4EDF17A10BD00BFAFF3008019
:104C70000000000000002440F8B504461D4E1E4D03
:104C8000FEF732FC1D4B23600022A4F8B42204F589
:104C90002E7304F56E7001274FF6FF719A80DA804B
:104CA0001A815A819A81DA811A825A82DA611A84C7
:104CB0005A8483F8242083F825709E6299851A63AC
:104CC0009A8683F8361083F8372083F8382083F8E3
:104CD00039201D60DA63C3E9052240338342DDD108
:104CE0006FF07F43A4F8B823C4F8D433A4F8D813E2
:104CF0002046F8BD301502083C3602089824020808
:104D000003460A4610B5041DD1E9010184E80300F9
:104D1000D2E9030103F10C0484E80300D2E906019F
:104D2000D961116A1962918C546999840A49196090
:104D30000A499962C3E90540918D9985116B196300
:104D4000918E9986D18ED986118F19870449196061
:104D5000D26BDA63184610BD3424020830150208FD
:104D60003C36020808B5038A032B06D9054B064AD0
:104D700006484FF4C17118F06DFE5A1C028240F8CB
:104D8000231008BDD3220208022302086A23020866
:104D9000B0F80031032B10B50A4606D9154B164A58
:104DA00016484FF4C17118F055FE591CA0F80011B7
:104DB00000EB8313D2E901011C1D84E80300D2E952
:104DC000030103F10C0484E80300D2E90601D96170
:104DD000116A1962918C9984918D9985116B54692E
:104DE0001963516B5963118FD26B1987C3E9054061
:104DF000DA6310BDD3220208B12302086A23020835
:104E00002DE9F047044692B0002504F12C07FEF787
:104E10000BFB04F1580A04F529703946C4F8D05345
:104E2000019004F18409FFF79DFF01985146FFF7B7
:104E300099FF04F1B00801984946FFF793FF0198E4
:104E40004146FFF78FFF04F52E7604F1DC0102A83E
:104E5000FFF756FF02A93046FFF79AFF04F5AC7141
:104E600002A8FFF74DFF02A93046FFF791FF04F5B6
:104E7000CC7102A8FFF744FF02A93046FFF788FF74
:104E800004F5EC7102A8FFF73BFF02A93046FFF7DB
:104E90007FFF0023C4F8C43323682046D3F8B4301E
:104EA0009847504684F87D5084F8A95084F8D5502E
:104EB00084F8515009F059FD484609F056FD404626
:104EC00009F053FD384609F050FD12B0BDE8F087F7
:104ED0007047FEF7F6BC10B5D021044617F0D3FD9D
:104EE000204610BD10B50446FEF7F4FC014B2360CC
:104EF000204610BD5825020813B50446FEF764FD90
:104F000004F16800032201210190FFF7CDFDDFEDE0
:104F1000050A9FED050A019802B0BDE81040FFF7B1
:104F2000D0BD00BF0000C842000000006830FFF79D
:104F300073BD6830FFF750BD6830FFF787BD68303C
:104F4000FFF79CBD6830FFF77BBD6830FFF7A9BD58
:104F500038B5084B0360084B836604464FF47875F8
:104F6000635960191B68403D9847B5F5387FF7D104
:104F7000204638BD4C1D02089824020810B504468E
:104F8000FFF7E6FF204640F2444117F07CFD204643
:104F900010BD000010B50446FEF73CFD014B236038
:104FA000204610BDE8250208C0F8F4197047C0F883
:104FB000F819704710B50446FEF7E6FD002384F8A3
:104FC000F03910BD00F29C50FFF7B0BF00F29C50CA
:104FD000FFF7AFBF00F5AC70FFF7B4BF10B52DED14
:104FE000028B0446B0EE408A00F29C50FFF7AAFF05
:104FF000B0EE480ABDEC028B04F5AC70BDE8104081
:10500000FFF7A0BF00F29C50FFF79FBF90F8F03968
:1050100083F0010370B5044680F8F03900F29C5526
:105020006BB1D0F8F40990F8F0391BB10368D3F8EC
:10503000883098472846BDE87040FFF77DBF284676
:10504000FFF77DFFD4F8F8090368BDE870405B6C9A
:105050001847000010B5034B03600446FEF714FE2A
:10506000204610BD9026020810B50446FFF7F2FF57
:10507000204640F6FC1117F006FD204610BD00004A
:1050800010B50446FEF77CFE014B2360204610BDA0
:10509000902602087047043870477047C06803685C
:1050A000DB6B1847A0F10400FFF7F8BFC068036886
:1050B0001B6C1847A0F10400FFF7F8BF8068036875
:1050C0001B681847C06803689B6C1847A0F1040070
:1050D000FFF7F8BFC0680368DB6C1847A0F1040055
:1050E000FFF7F8BF10B51021044617F0CCFC20469E
:1050F00010BDA0F10400F5E710B500228260044A5B
:10510000C16002F1080434320460426010BD00BF87
:1051100038270208704770B5044604F6E44604F5E3
:105120003A75FEF751FF2946304600F07BF93146CB
:105130002846FFF739FF2146304600F076F9214630
:105140002846BDE87040FFF732BF38B591ED000A40
:1051500004460D4600F6E44000F07CF995ED010AA6
:1051600004F53A70BDE83840FFF738BF38B591ED27
:10517000000A04460D4600F6E44000F067F995ED9C
:10518000010A04F53A70BDE83840FFF723BF1FB5A8
:10519000044600F6E44000F070F904F53A708DED35
:1051A000010AFFF72FFFE06B8DED020A036801A9EA
:1051B0009B69984704B010BD41F2D572002310B529
:1051C00080F8913080F80D3380F8093D80F8513136
:1051D00080F8BD3080F8E53180F87932835441F2AF
:1051E000057301220446C2546C3009F0BEFB04F57D
:1051F0003A7009F0BAFB04F6E44009F0B6FB04F596
:10520000967009F0B2FB04F1980009F0AEFB04F5CA
:10521000E07009F0AAFB04F5157009F0A6FB04F58F
:10522000BD50103009F0A1FB04F5B750BDE81040A7
:1052300009F09BBB00F5BD50103000F070B841F292
:10524000D463C35C23B1012100F6E44000F0F8B858
:1052500090F8D83C23B1012100F53A70FFF7B2BEB7
:10526000704741F2D463C35C2BB14FF0FF3100F6BD
:10527000E44000F0E5B890F8D83C2BB14FF0FF3196
:1052800000F53A70FFF79EBE704741F2D463C35CED
:105290002BB14FF0FF3100F6E44000F0D4B890F8A5
:1052A000D83C2BB14FF0FF3100F53A70FFF78EBEBE
:1052B000704741F2D463C35C23B1012100F6E4409E
:1052C00000F0C1B890F8D83C23B1012100F53A7044
:1052D000FFF77CBE7047000010B5034B0360044627
:1052E000FEF710FF204610BD8C27020810B50446BB
:1052F000FFF7F2FF204641F6680117F0C4FB204695
:1053000010BD000010B50446FEF76CFF014B236092
:10531000204610BD8C2702087047FFF7D6B84B1CFB
:1053200010B504460FD021B980F85110012384F83C
:105330008D3004F12C0009F018FB04F16800BDE881
:10534000104009F012BB012380F851300023EEE732
:1053500010B5A421044617F096FB204610BD0000AE
:1053600010B50446FFF7BAF8014B2360204610BD84
:10537000E427020813B50446FFF712F904F16800A8
:10538000032200210190FFF78FFBDFED050A9FED5F
:10539000050A019802B0BDE81040FFF792BB00BFBC
:1053A000000048430000C8C26830FFF735BB6830D2
:1053B000FFF712BB6830FFF749BB6830FFF75EBBF1
:1053C0006830FFF73DBB6830FFF76BBB38B5084B63
:1053D0000360084B836604464FF47875635960197F
:1053E0001B68403D9847B5F5387FF7D1204638BD5A
:1053F0004C2102089824020810B50446FFF7E6FF86
:10540000204640F2444117F03EFB204610BD00000C
:1054100010B50446FFF7EAF8014B2360204610BDA3
:1054200078280208C0F8F4197047C0F8F8197047D6
:1054300010B50446FFF760F9002384F8F03910BD79
:10544000B030FFF7B1BFB030FFF7B1BF00F2F440AA
:10545000FFF7B6BF10B52DED028B0446B0EE408AC3
:10546000B030FFF7ADFFB0EE480ABDEC028B04F29E
:10547000F440BDE81040FFF7A3BFB030FFF7A3BF73
:1054800090F8F03983F0010370B5044680F8F039E4
:1054900000F1B0056BB1D0F8F40990F8F0391BB108
:1054A0000368D3F8883098472846BDE87040FFF776
:1054B00081BF2846FFF781FFD4F8F8090368BDE8EB
:1054C00070405B6C1847000010B5034B0360044646
:1054D000FEF7FAFD204610BD2029020810B504464B
:1054E000FFF7F2FF204640F6FC1117F0CCFA2046F9
:1054F00010BD000010B50446FFF712F9014B236000
:10550000204610BD20290208F02070474FF4A070FB
:1055100070472920FCF7C4BD2820FCF7C1BD08B5A1
:10552000FCF792FDCA20FCF7BBFDC320FCF79CFDF5
:105530000820FCF799FD5020FCF796FDCF20FCF7E2
:10554000AFFD0020FCF790FDC120FCF78DFD302061
:10555000FCF78AFDED20FCF7A3FD6420FCF784FD39
:105560000320FCF781FD1220FCF77EFD8120FCF773
:105570007BFDE820FCF794FD8520FCF775FD0020FD
:10558000FCF772FD7820FCF76FFDCB20FCF788FD5F
:105590003920FCF769FD2C20FCF766FD0020FCF7A4
:1055A00063FD3420FCF760FD0220FCF75DFDF72071
:1055B000FCF776FD2020FCF757FDEA20FCF770FD94
:1055C0000020FCF751FD0020FCF74EFDB120FCF758
:1055D00067FD0020FCF748FD1B20FCF745FDB620C9
:1055E000FCF75EFD0A20FCF73FFDA220FCF73CFD26
:1055F000C020FCF755FD1020FCF736FDC120FCF75C
:105600004FFD1020FCF730FDC520FCF749FD45207B
:10561000FCF72AFD1520FCF727FDC720FCF740FD0D
:105620009020FCF721FD3620FCF73AFDC820FCF75E
:105630001BFDF220FCF734FD0020FCF715FDB02027
:10564000FCF72EFDC220FCF70FFDB620FCF728FD6D
:105650000A20FCF709FDA720FCF706FD2720FCF730
:1056600003FD0420FCF700FD2A20FCF719FD0020B3
:10567000FCF7FAFC0020FCF7F7FC0020FCF7F4FC38
:10568000EF20FCF7F1FC2B20FCF70AFD0020FCF7D3
:10569000EBFC0020FCF7E8FC0120FCF7E5FC3F20D8
:1056A000FCF7E2FCF620FCF7FBFC0120FCF7DCFC3D
:1056B0000020FCF7D9FC0620FCF7D6FC2C20FCF7D8
:1056C000EFFCC820FCF73AFD2620FCF7E9FC01209E
:1056D000FCF7CAFCE020FCF7E3FC0F20FCF7C4FC5D
:1056E0002920FCF7C1FC2420FCF7BEFC0C20FCF7B1
:1056F000BBFC0E20FCF7B8FC0920FCF7B5FC4E20E3
:10570000FCF7B2FC7820FCF7AFFC3C20FCF7ACFCCB
:105710000920FCF7A9FC1320FCF7A6FC0520FCF7E8
:10572000A3FC1720FCF7A0FC1120FCF79DFC002037
:10573000FCF79AFCE120FCF7B3FC0020FCF794FC9A
:105740001620FCF791FC1B20FCF78EFC0420FCF7D4
:105750008BFC1120FCF788FC0720FCF785FC31202E
:10576000FCF782FC3320FCF77FFC4220FCF77CFC3A
:105770000520FCF779FC0C20FCF776FC0A20FCF7EE
:1057800073FC2820FCF770FC2F20FCF76DFC0F2029
:10579000FCF76AFC1120FCF783FCC820FCF7CEFC68
:1057A0002920FCF77DFCBDE808402C20FCF778BCE4
:1057B00008B5FCF749FC0321D320FCF78DFC80B22F
:1057C00008BD10B5C4B2022203212046FCF7F2FB4B
:1057D0000A20FCF737FC204600220321FCF7EAFBF5
:1057E000BDE810400220FCF72DBC38B50446E4B2F9
:1057F000FCF7DEFB00212046FCF7F4FB0121054607
:105800002046FCF7EFFB40EA052080B238BD10B51A
:10581000C4B240212046FCF7E5FB030607D54C2126
:105820002046FCF7DFFB003818BF012010BD012225
:105830004B212046FCF7BEFB204600224B21FCF703
:10584000B9FB0020F2E773B50423C4B20E46154637
:10585000D7210DEB03022046FCF7DEFB019B1BBAB0
:105860001A0DC3F30B23328020462B8001224B21DB
:10587000FCF7A0FB00224B212046FCF79BFB02B06B
:1058800070BD000010B50A4B1A78904204460DD046
:10589000597888420AD00AB141B901229C54FCF7D8
:1058A00087FB2046BDE81040FFF78BBF10BD00BF4F
:1058B000CC2B002010B5C4B209212046FCF792FB86
:1058C00040F00100C2B209212046BDE81040FCF7BB
:1058D00071BB10B5C4B209212046FCF783FB092136
:1058E00000F0FE022046BDE81040FCF763BB38B56F
:1058F000C4B20D4620460A21FCF774FB40EA0502BB
:10590000D2B220460A21BDE83840FCF753BB07B5A8
:105910000190FCF74EFB01981F21FFF7E8FF01986B
:1059200003B05DF804EBFFF7C5BF38B5C4B20D4650
:1059300020460A21FCF756FB20EA0502D2B2204697
:105940000A21BDE83840FCF735BB10B50446FFF727
:10595000C0FF20461F21BDE81040FFF7E6BF10B58D
:10596000C0B20C460B21FCF73DFB204010BD1F21AF
:10597000FFF7F5BF0A46C0B20B21FCF71BBB1F2186
:10598000FFF7F8BF38B5C4B20D4620461721FCF723
:1059900029FB20EA0502D2B220461721BDE8384093
:1059A000FCF708BB70B5C4B2064604212046FCF7DC
:1059B00019FB042100F0FB0205462046FCF7FAFA29
:1059C0003046F021FFF7DEFF05F0F8022046042103
:1059D000FCF7F0FA492220212046FCF7EBFA0220DE
:1059E000FCF730FB204601222121FCF7E3FA204698
:1059F0009A224121FCF7DEFA204601224A21FCF7D7
:105A0000D9FA204601224B21FCF7D4FA2046002285
:105A10004B21FCF7CFFA204601225621FCF7CAFAA7
:105A2000204601225821FCF7C5FA204601224021D8
:105A3000FCF7C0FA2046FF220B21FCF7BBFABDE8B9
:105A400070400220FCF7FEBA054BD3F8882042F4E0
:105A50007002C3F888204FF000629A60704700BF60
:105A600000ED00E008B50B4B1A6842F400721A60B2
:105A70001A6842F480621A601A6842F480721A60EE
:105A8000032000F02FF80020FCF786FFFCF724FD30
:105A9000002008BD003C0240034A044B11681B78FB
:105AA0000B441360704700BF003F00207C000020C3
:105AB000014B1868704700BF003F002038B504460E
:105AC000FFF7F6FF631C1CBF054B1B78054618BF8C
:105AD000E418FFF7EDFF431BA342FAD338BD00BF24
