:020000040800F2
:1000000000000320E98E0008113C0008133C0008A2
:10001000153C0008173C0008193C000800000000CF
:10002000000000000000000000000000F186000851
:100030001B3C00080000000081870008E5870008DD
:10004000398F0008398F0008398F0008398F000870
:10005000398F0008398F0008398F0008398F000860
:10006000398F0008398F0008398F0008398F000850
:10007000398F0008398F0008398F0008398F000840
:10008000398F0008398F0008398F0008398F000830
:10009000398F0008398F0008398F0008398F000820
:1000A000398F0008398F0008398F0008398F000810
:1000B000398F0008398F0008398F0008398F000800
:1000C000398F0008398F0008398F0008398F0008F0
:1000D000398F0008398F0008398F0008398F0008E0
:1000E000398F0008398F0008398F0008398F0008D0
:1000F000398F0008398F0008398F0008398F0008C0
:10010000398F0008398F0008398F0008398F0008AF
:10011000398F0008398F00081D3C0008398F00080E
:10012000398F0008398F0008398F0008398F00088F
:10013000398F0008398F0008398F0008398F00087F
:10014000398F0008398F0008398F0008398F00086F
:10015000398F0008398F0008398F0008398F00085F
:10016000398F0008398F0008398F0008398F00084F
:10017000398F0008398F0008398F0008000000000F
:10018000398F0008398F0008398F0008398F00082F
:10019000398F0008398F0008398F0008398F00081F
:0C01A000293C0008398F0008353C00089D
:1001B00010B5054C237833B9044B13B10448AFF3A1
:1001C00000800123237010BD6001002000000000AA
:1001D0003CC5010808B5034B1BB103490348AFF305
:1001E000008008BD00000000640100203CC501083B
:1001F00053B94AB9002908BF00281CBF4FF0FF318E
:100200004FF0FF3000F072B9ADF1080C6DE904CE8B
:1002100000F006F8DDF804E0DDE9022304B07047E1
:100220002DE9F047089E04468846002B4BD18A42B0
:10023000154667D9B2FA82F24AB1C2F1200701FA33
:1002400002F320FA07F7954047EA030894404FEA83
:10025000154E230CB8FBFEF71FFA85FC0EFB178822
:1002600043EA084307FB0CF1994209D9EB1807F15F
:10027000FF3080F01B81994240F21881023F2B44ED
:100280005B1AA4B2B3FBFEF00EFB103344EA034446
:1002900000FB0CFCA44509D92C1900F1FF3380F0B8
:1002A0000781A44540F2048102382C4440EA07400B
:1002B000A4EB0C0400271EB1D4400023C6E9004380
:1002C0003946BDE8F0878B4209D9002E00F0EB805B
:1002D0000027C6E9000138463946BDE8F087B3FA81
:1002E00083F7002F47D18B4202D3824200F2FA807B
:1002F000841A61EB030301209846002EE0D0C6E982
:100300000048DDE702B9FFDEB2FA82F2002A40F0CF
:100310008F80491B4FEA154E1FFA85F80127B1FB64
:10032000FEFC230C0EFB1C1143EA014308FB0CF1FD
:10033000994207D9EB180CF1FF3002D2994200F232
:10034000CD808446591AA3B2B1FBFEF00EFB101407
:1003500043EA044408FB00F8A04507D92C1900F132
:10036000FF3302D2A04500F2B6801846A4EB080481
:1003700040EA0C409FE7C7F1200CBB4022FA0CFE7C
:100380004EEA030E01FA07F420FA0CF521FA0CF3F9
:100390004FEA1E482543B3FBF8F92C0C08FB193330
:1003A0001FFA8EFA44EA034309FB0AF49C4202FA5C
:1003B00007F200FA07F10BD91EEB030309F1FF3036
:1003C00080F087809C4240F28480A9F10209734446
:1003D0001B1BADB2B3FBF8F008FB103345EA034436
:1003E00000FB0AFAA24508D91EEB040400F1FF3312
:1003F0006BD2A24569D90238744440EA0940A0FB97
:100400000289A4EB0A044C45C2464B4654D351D052
:10041000002E69D0B1EB0A0564EB030404FA0CFC6E
:10042000FD40FC404CEA0505C6E90054002747E7BB
:10043000C2F1200320FA03F7954001FA02F021FAF5
:1004400003F34FEA154E3843010CB3FBFEF71FFAD6
:1004500085F80EFB173341EA034107FB08F38B4293
:1004600004FA02F407D9691807F1FF3C2FD28B4236
:100470002DD9023F2944CB1A81B2B3FBFEF00EFB0B
:10048000103341EA034100FB08F38B4207D9691896
:1004900000F1FF3C17D28B4215D902382944C91A02
:1004A00040EA07473BE73746304609E70746E7E6B5
:1004B0001846FBE64145ABD2B8EB020A69EB0E02E7
:1004C00001381346A4E76046E9E7184695E7674612
:1004D000D1E781467CE702382C4447E7ACF1020CB7
:1004E0002B442FE7384608E73746E9E6704700BF58
:1004F00001F0FF01102A2BDB10F0070F08D010F8D5
:10050000013B013A8B422DD010F0070F42B3F6D1D8
:10051000F0B441EA012141EA014122F007047FF0F1
:1005200000070023F0E80256083C85EA010586EA48
:10053000010685FA47F5A3FA87F586FA47F6A5FA84
:1005400087F68EB9EED1F0BC01F0FF0102F0070290
:1005500032B110F8013B013A83EA010313B1F8D13B
:100560000020704701387047002D06BF354603381C
:10057000073815F0010F07D1013015F4807F02BF55
:10058000013015F4C03F0130F0BC0138704700BFA6
:1005900081807047C18070470181704741817047F9
:1005A00070477047704770477047C38810B4D21ABD
:1005B00083885DF8044BC91A036812B21B6D09B237
:1005C0001847806A704710B5044600F0A3FF002367
:1005D00084F8B03A10BD90F8B03A83F0010380F887
:1005E000B03AB0300BB100F0E5B800F0E6B8B0308A
:1005F00000F0DAB8B03000F0DAB80000114B70B596
:100600000360044600F5477600F21C439E4208D082
:10061000A3F1400553F8403C28461B6898472B46F9
:10062000F4E704F51A7604F546739E4208D0A3F168
:100630002C0553F82C3C28461B6898472B46F4E7BA
:10064000204670BD90C8010810B50446FFF7D6FFDC
:10065000204640F23C411AF0D1FF204610BD000078
:1006600010B5044B044640F8683BFFF7C7FF20462F
:1006700010BD00BF28CB010810B5064B036004462F
:1006800000F25450FFF7ECFF04F1B000FFF7E8FF71
:10069000204610BDA0CE010810B50446FFF7ECFFC0
:1006A000204640F6B4211AF0A9FF204610BD10B52F
:1006B0000446FFF7D5FF204640F2A4411AF09EFF02
:1006C000204610BD10B5044601F006F8014B23602A
:1006D000204610BD9CC5010890F8B03A83F0010394
:1006E00080F8B03A704710B5044601F0F7F80023DF
:1006F00084F8B03A10BD00F5AC7000F043B800F5D6
:10070000AC7000F042B8000010B5044B044640F84D
:10071000683BFFF773FF204610BD00BFE0CF010824
:1007200010B5064B0360044600F2FC50FFF7ECFFE7
:1007300004F5AC70FFF7E8FF204610BD4CCF010870
:1007400010B50446FFF7ECFF204640F6B4211AF03E
:1007500055FF204610BD10B50446FFF7D5FF2046D3
:1007600040F2A4411AF04AFF204610BD10B50446DD
:1007700001F0CAF8014B2360204610BD38C60108BD
:1007800001F0A0B9683000F04AB8683000F037B81E
:1007900010B5044601F0B2F9014B2360204610BDAC
:1007A000D4C6010800F0EABB683000F038B8683001
:1007B00000F025B8683000F0AFB8683000F0B6B887
:1007C00010B5044600F0F6FB014B2360204610BD37
:1007D0006CC70108002070474FF6FF7383814FF00C
:1007E000FF3303621368C3611060704790F82520DF
:1007F0001AB190F8242002B1186070477047D0F801
:10080000383419444B1C03D10023C0F838347047E6
:10081000042902D0C0F8381470470323F5E74B1CB5
:1008200030B41CD001290DD1D0F8383409251C1D55
:100830009AB200EB8202D2F8201401310A2906D0C4
:10084000C2F82014036830BCD3F8A0301847022B3C
:10085000C2F82054F6D80133A342E9D1F2E7D0F828
:10086000381400228DB20139AB189BB200EB830320
:10087000D3F82044013CC3F82044013406D18C183D
:10088000022C03D90022C3F82024DBE70132042A1A
:10089000EAD1D7E7FDEEC07A37B517EE901A642398
:1008A00091FBF3F14B4307EE903AF8EEE77A0A2317
:1008B00070EE677ABDEEE77A17EE102A92FBF3F23C
:1008C00003FB02F400EE104AB8EEC00A046837EEEB
:1008D000C00AFDEEC07AB8EEE77A30EE470ABDEE08
:1008E000C00A10EE105A6B430093D4F8884017EEFC
:1008F000903AA04703B030BD10B4C0F82434019B37
:10090000C0F820340368C0F82C14C0F82824D3F8A9
:10091000A0305DF8044B1847B0F838342C2202FBA5
:1009200003004FF0FF33C0F8903270470023C0F847
:1009300038344FF07F43C0F89032704710B508212B
:1009400004461AF05BFE204610BD00F0A8BB000074
:1009500010B5712304460C4A0A2100F506700EF00A
:1009600017FD04F5EC700CF0A2FD04F5CC700CF052
:100970009EFD04F5AC700CF09AFD04F1DC00BDE8BE
:1009800010400CF094BD00BF14C8010810B5044617
:100990000A46164944F8041B111D034603C984E89E
:1009A000030002F10C0103C903F10C0484E8030005
:1009B0005169596191699961D169D961B2F9201080
:1009C0001984B2F92210598492F8241083F8241063
:1009D00092F8251083F825100549196092F8261021
:1009E00083F82610926A9A62184610BD68ED0108D5
:1009F00098E9010810B504460A46224944F8041B48
:100A0000111D034603C984E8030002F10C0103C968
:100A100003F10C0484E803005169596191699961FB
:100A2000D169D961B2F920101984B2F92210598420
:100A300092F8241083F8241092F8251083F82510DA
:100A40001149196011499962918D9985116B19634A
:100A5000B2F93410998692F8361083F8361092F86D
:100A6000371083F8371092F8381083F8381092F85E
:100A7000391083F8391006491960D26BDA631846C9
:100A800010BD00BF68ED0108F0E801080CC80108BE
:100A9000FCE9010810B5B0F8B030032B0A4606D9BE
:100AA000184B194A19484FF4C1711AF0B3FD591C7B
:100AB000A0F8B0102C2101FB0303111D03C91C1D5C
:100AC00084E8030002F10C0103C903F10C0484E87B
:100AD00003005169596191699961D169D961118C9A
:100AE0001984518C598492F8241083F8241092F8B8
:100AF000251083F8251092F82610926A83F82610A4
:100B00009A6210BD17C80108ADC9010846C801089E
:100B100010B5B0F80031032B0A4606D9214B224A02
:100B200022484FF4C1711AF075FD591CA0F800114C
:100B3000111D00EB831303C91C1D84E8030002F19F
:100B40000C0103C903F10C0484E8030051695961E5
:100B500091699961D169D961118C1984518C598439
:100B600092F8241083F8241092F8251083F82510A9
:100B7000918D9985116B1963918E998692F8361033
:100B800083F8361092F8371083F8371092F838103F
:100B900083F8381092F83910D26B83F83910DA6381
:100BA00010BD00BF17C8010834C9010846C80108B4
:100BB00008B5038A032B06D9054B064A06484FF4AD
:100BC000C1711AF027FD5A1C028240F8231008BD9B
:100BD00017C8010812CA010846C80108F0B5044642
:100BE00091B000F0D1FA04F51A765C4B5C4D2360AD
:100BF00004F54671334600220127FF209A80DA80EF
:100C00001A815A819A81DA811A825A82DA611A84A7
:100C10005A8483F8242083F825701D6083F8260009
:100C20009A62C3E905222C338B42E7D104F547755C
:100C3000DFF834C14B4FA4F818232B4604F21C40B4
:100C400000224FF0010E4FF6FF719A80DA801A8170
:100C50005A819A81DA811A825A82DA611A845A8414
:100C600083F8242083F825E0C3F828C099851A6307
:100C70009A8683F8361083F8372083F8382083F873
:100C800039201F60DA63C3E9052240338342DCD197
:100C9000A4F81C24A4F83024C4F83424C4F838245C
:100CA00004F12C016846FFF771FE69463046FFF7F4
:100CB000F1FE04F158016846FFF768FE69463046C8
:100CC000FFF7E8FE04F184016846FFF75FFE69461E
:100CD0003046FFF7DFFE04F1B0016846FFF756FE2D
:100CE00069463046FFF7D6FE04F1DC016846FFF79F
:100CF00081FE69462846FFF70BFF04F5AC71684694
:100D0000FFF778FE69462846FFF702FF04F5CC712D
:100D10006846FFF76FFE69462846FFF7F9FE04F5BF
:100D2000EC71684604F58467FFF764FE694628465F
:100D3000FFF7EEFE38460021FFF73AFF3846002164
:100D4000FFF736FF38460021FFF732FF3846002113
:100D5000FFF72EFF204611B0F0BD00BF90C801087C
:100D600098E90108FCE901080CC8010870477047C0
:100D70007047704700F07FBF41F64C03C35C23B15E
:100D8000012100F69C50FFF732BC90F8983D23B14A
:100D9000012100F53A70FFF7AEBC704741F64C03F5
:100DA000C35C23B1012100F69C50FFF723BC90F8EF
:100DB000983D002BF6D1704741F64C03C35C2BB134
:100DC0004FF0FF3100F69C50FFF714BC90F8983DAF
:100DD0002BB14FF0FF3100F53A70FFF790BC704730
:100DE00038B50446084B094D0360C0F8FC5500F2C5
:100DF0006460FFF703FCC4F8585104F5E070FFF796
:100E0000FDFB204638BD00BF4CCF0108E0CF0108F4
:100E100010B50446FFF7E4FF20464FF42B611AF0AB
:100E2000EDFB204610BD000038B50446084B094DC7
:100E30000360C0F8545500F2BC50FFF7DFFBC4F864
:100E4000B05004F58C70FFF7D9FB204638BD00BFC9
:100E5000A0CE010828CB010810B5094B0360094B4F
:100E6000C0F89C3D044600F69C50FFF7DDFF064BA2
:100E7000C4F8E83204F53A70FFF7B2FF204610BD1F
:100E800028D101089CC5010838C6010810B50446E0
:100E9000FFF7E2FF204641F664011AF0AFFB20465F
:100EA00010BD10B50446FFF7BFFF20464FF42B617D
:100EB0001AF0A4FB204610BD10B5044600F0A0FFB8
:100EC000014B2360204610BD78CA010870470438E2
:100ED0007047704710B5102104461AF08FFB20466A
:100EE00010BDA0F10400F5E710B500228260044AAD
:100EF000C16002F1080420320460426010BD00BFEE
:100F0000B4CA01080022026070477047704700F5BC
:100F100096730868496803C37047704710B54FF46B
:100F2000AC7104461AF06AFB204610BD10B50446A9
:100F3000D0F85401FFF7E9FF2046BDE810400BF060
:100F400007BA10B50446D0F83C0158B10368DB6815
:100F5000984738B1D4F83C0103689B689847002350
:100F6000C4F83C3110BD000010B5044601F0C8F8CB
:100F7000014B2360204610BDE4CA01086830FFF72A
:100F8000E4BC000010B5044B044640F8683BFFF792
:100F900035FB204610BD00BF28CB010810B5044624
:100FA000FFF7F0FF204640F2A4411AF027FB20464D
:100FB00010BD00002DE9F34106460025324A858028
:100FC0000123C580058145818581C58105824582D2
:100FD000C0E90555C5610584458480F8245080F832
:100FE0002530856246F82C2B058645868586C58684
:100FF000058745878587C587C0E910558564A0F8B2
:101000004C50A0F84E5080F8505080F851301F4B93
:10101000C3624FF6FF73DFF88080A0F8583000F10C
:1010200068074FF47F030446C0F85480C565036623
:1010300080F8645080F865503846FFF7CFFD144BB8
:10104000A36030464421FFF7A3FA30460321FFF79F
:10105000A1FA4FF07F43E36569463046A4F860503B
:10106000CDF80080ADF8045009F041FC094BE3666F
:101070003146204608F05EF82046394608F05AF816
:10108000204602B0BDE8F08128CB0108F0E8010855
:10109000560024000F0002000CC80108704770477A
:1010A00010B54FF41A7104461AF0A8FA204610BD84
:1010B0000A4A026000228280C280028142818281CB
:1010C000C28102824282C0E90522C2610284428456
:1010D00080F82420012280F82520704768ED01085F
:1010E00070B503680446DB6A1546984723682946AD
:1010F00020461B6BBDE87040184770B504461E467D
:10110000BDF91050FFF7ECFF2368314620465A6BBB
:1011100090472368294620469B6BBDE870401847DE
:1011200010B52622044600211AF0EFFA2046FFF7F8
:10113000BFFF044B2360FF2384F826300023A36203
:10114000204610BD98E9010810B52622044600216A
:101150001AF0DBFA2046FFF7ABFF094B2360094B7F
:10116000A3624FF6FF73A3854FF47F020023C4E907
:101170000C3284F8383084F83930204610BD00BF76
:10118000F0E801080CC801082DE9F04F04468BB0C7
:101190002746FFF78DFF0025A54BA56247F82C3B9E
:1011A0003846FFF7BDFF04F1580318460493FFF7D4
:1011B000B7FF04F1840318460593FFF7B1FF04F16C
:1011C000B003184604F1DC060693FFF7A9FF30468A
:1011D000FFF7BAFFDFF88082C4F8DC8004F58E7375
:1011E0001846C4F818510393FFF7AEFF04F5AC732B
:1011F000184604F5CC7B029304F5EC7AFFF7A4FFC4
:10120000C4F85881C4F894515846FFF79DFFC4F8BC
:101210009881C4F8D4515046FFF796FF854BA360E0
:101220000C234FF01909C4F8D8810093DFF82C8201
:10123000C4F814520723102231213846FFF75DFF0E
:10124000C4F85480CDF800900F2304221E21049886
:10125000FFF753FF0F231946C4F88080CDF80090A4
:1012600004220598FFF749FF0F23C4F8AC80CDF89E
:101270000090042229460698FFF73FFFC4F8D88063
:101280000F2231213046FFF72BFF6B4BA4F8105192
:101290001B684FF07F49C4F80C9104F506782BB910
:1012A000664B674AAE2167481AF0B4F9664B1B8853
:1012B000222B03D8654B624AAF21F4E7644B22210D
:1012C000186801F041FB634A03460A2140460EF0CC
:1012D0005FF8C4F81881304609F0ECFADFF8808135
:1012E000CDF82080212308A93046ADF8243009F03C
:1012F000FEFA0F222C210398FFF7F2FE20230DEBBC
:1013000003010398C4F84C91A4F85051ADF824306F
:10131000CDF8208009F0EBFA2A461E210298FFF74B
:10132000DFFE04F50B720792434AC4F888911368F4
:10133000A4F88C51002BB3D0434A13881F2BB9D982
:10134000434B1F21186801F0FFFA424A03460A2165
:1013500007980EF01DF8079BC4F89431029809F025
:10136000A9FA1E2308A90298ADF82430CDF82080F0
:1013700009F0BDFA2A460F215846FFF7B1FE04F5E1
:101380001073C4F8D4315846C4F8C891A4F8CC51AD
:10139000A4F8405209F08EFA1D2308A95846ADF86A
:1013A0002430CDF8208009F0A2FA2A46294650467A
:1013B000FFF796FE04F51573C4F814325046C4F8CE
:1013C0000892A4F80C52A4F8545209F073FA1C23A2
:1013D00008A95046ADF82430CDF8208009F087FAEE
:1013E0003946204607F0A6FE0499204607F0A2FEE3
:1013F0000599204607F09EFE0699204607F09AFEC2
:101400003146204607F096FE0399204607F092FEEB
:101410000299204607F08EFE5946204607F08AFEC4
:101420002046514607F086FE20460BB0BDE8F08FFF
:1014300090CC01084500210098370120B0CB01086D
:1014400018CD0108F2CB01089C37012033CC0108EC
:10145000A437012014C80108FCE90108999999FFF3
:101460000CC80108704770477047704730B4C568B2
:1014700044686A100346ED0704EB02009B6848BF0E
:10148000A25830BC48BFD358184743682BB1836873
:101490002BB9C06800F00100704718467047012062
:1014A000704790F82D3080F89A3080F85C307047A3
:1014B00090F82D3080F85C3070470146343091F858
:1014C0002C3013B1623109F052BB6031FBE708B533
:1014D00090F82C3033B1D0F8A430C0F89430FFF736
:1014E000ECFF08BDD0F8A030F7E710B56421044642
:1014F0001AF084F8204610BD10B5A82104461AF051
:101500007DF8204610BD10B5102104461AF076F87B
:10151000204610BD10B50446B030FFF743F904F281
:101520005450BDE81040FFF73DB910B50446006BBC
:1015300050B10368DB68984730B1206B03682146DF
:101540009B68BDE81040184710BD00F6F8128A42AB
:1015500003D10368D3F888301847704770B50B790A
:1015600090F82C5004460E4653B955B13379012BEF
:1015700017D123682046D3F88430BDE8704018475F
:101580007DB1B3FA83F35B0984F82C3023682046DD
:10159000D3F888309847236820465B699847002D28
:1015A000E4D170BD70B5036804465B6B154698477F
:1015B0002368294620469B6BBDE87040184770B5EC
:1015C0000B88A0F860300546138825F8623F044672
:1015D00028460DF0BDFF064628460DF0F3FF31B258
:1015E00002B22046FFF7DEFF23682046D3F888309A
:1015F000BDE870401847000038B5262204460D4665
:1016000000211AF082F82046FFF752FD064B2360B6
:101610002B88E384FF23204684F82830294609F0EC
:10162000A6FA204638BD00BFA4EA0108F7B5044673
:10163000FFF73EFDFF23264684F82D3001230025C9
:1016400084F82430204BA56202A984F82C5025632D
:1016500046F8343B4FF6FF7721F8047D3046FFF71C
:10166000CBFF2A4629463046A4F86070A4F8627081
:10167000FFF736FD31462046264607F05BFD134B4B
:1016800046F8643B2622294630461AF03EF830469A
:10169000FFF70EFD0E4B63660E4BC4F88C304FF413
:1016A0007F032046A4F89070C4F89450C4F8983092
:1016B00084F89C5084F89D50C4E92855314607F0C1
:1016C00039FD204603B0F0BD50CD0108ECCD010836
:1016D000F0E801080CC801082DE9F04F044687B076
:1016E00006ADA0460026FFF7E3FC4FF6FF77634BFD
:1016F00025F8087DA66248F82C3B04F1580A2946D3
:101700004046FFF779FF04F1840929465046ADF8B9
:101710001070FFF771FF29464846ADF81070FFF7CB
:101720006BFF04F1B00318460193FFF749F804F288
:101730005453184604F6F8170093FFF741F838465B
:10174000FFF774FF4E4AC4F8A02A4E4AC4F8A82AEC
:101750004D4AA26031464046C4F8A44AC4F8AC6A77
:101760001E22FFF7BDFC062229464046ADF8102098
:1017700009F0FDF9504625226B21FFF7B1FC082244
:1017800029465046ADF8102009F0F1F925224846C7
:101790000721FFF7A5FC4FF0070B29464846ADF897
:1017A00010B009F0E4F9019B594618462522FFF7CD
:1017B00097FC009825226B21FFF792FC0922ADF8D7
:1017C0000C200A22ADF8102003A92A463846FFF75C
:1017D000F6FE3246314604F62C20FFF781FC04F673
:1017E0005C2B2A4A049229461B225846ADF8142045
:1017F00009F07DF8B4F9022AB4F9001A5846FFF747
:10180000D1FE324631465846FFF76AFCC821584699
:101810001E22FFF7C7FE1E4AC4F8982AC4F89C2A65
:101820003846FFF754FE324631463846FFF758FC3B
:1018300038461E22C821FFF7B5FE04F52A62C4F817
:10184000282A4146204607F075FC5146204607F0FD
:1018500071FC4946204607F06DFC019B2046194665
:1018600007F068FC0099204607F064FC20463946E2
:1018700007F060FC204607B0BDE8F08FA0CE01085D
:1018800088CE01084B150008C80050000CC801089C
:101890000A0A0AFF7047704730B4C56844686A1086
:1018A0000346ED0704EB02009B6848BFA25830BC1A
:1018B00048BFD358184743682BB183682BB9C06819
:1018C00000F001007047184670470120704710B5BE
:1018D0001021044619F092FE204610BD10B50446B2
:1018E00000F5AC70FEF74CFF04F2FC50BDE8104070
:1018F000FEF746BF00F1B0028A4203D10368D3F875
:1019000088301847704700002DE9F04F044689B031
:1019100008ADA0460026FFF7CBFB4FF6FF77634BE1
:1019200025F8087DA66248F82C3B04F1580A2946A0
:101930004046FFF761FE04F1840929465046ADF8A0
:101940001870FFF759FE2946ADF81870484604F1A3
:10195000B007FFF751FE3846FFF768FE04F5AC7399
:1019600018460193FEF714FF04F2FC531846029345
:10197000FEF70EFF4E4BC4F8A03A4E4BC4F8A83AFF
:101980004D4BA3601E2231464046C4F8A44AC4F819
:10199000AC6AFFF7A5FB4FF0060B29464046ADF8B1
:1019A00018B009F0E4F8252250466B21FFF798FBA8
:1019B000082329465046ADF8183009F0D8F82522FA
:1019C00048460721FFF78CFB072329464846ADF818
:1019D0001830039309F0CBF80922ADF814200A223D
:1019E000ADF8182005A92A463846FFF7E8FD32462B
:1019F000314604F1E400FFF773FBADF81CB004F5C9
:101A00008A7B2E4A06922946584608F070FFB4F9A0
:101A1000BA20B4F9B8105846FFF7C4FD3246314633
:101A20005846FFF75DFBC82158461E22FFF7BAFD56
:101A3000234AC4F85021C4F854213846FFF747FD23
:101A4000324631463846FFF74BFB38461E22C82146
:101A5000FFF7A8FD04F52A62C4F8E02001982522CA
:101A60006B21FFF73DFB039B029819462522FFF7E8
:101A700037FB4146204607F05DFB5146204607F004
:101A800059FB4946204607F055FB3946204607F0EA
:101A900051FB0199204607F04DFB2046029907F0C3
:101AA00049FB204609B0BDE8F08F00BF4CCF0108CC
:101AB00034CF0108F5180008C80050000CC8010810
:101AC0000A0A0AFF6830FEF740BF000010B5044B59
:101AD000044640F8683BFEF791FD204610BD00BF6C
:101AE000E0CF010810B50446FFF7F0FF204640F2B2
:101AF000A44119F083FD204610BD00002DE9F743F5
:101B0000064600250127324B8580C5800581458129
:101B10008581C58105824582C0E90555C561058479
:101B2000458480F8245080F82570856246F82C3B67
:101B3000284B058645868586C58605874587858722
:101B4000C587C0E910558564A0F84C50A0F84E50E8
:101B500080F8505080F85170C3624FF6FF73DFF881
:101B60008090A0F8583000F168084FF47F030446D5
:101B7000C0F85490C565036680F8645080F86550DD
:101B80004046FFF72BF8144BA36030464421FEF784
:101B9000FFFC30460321FEF7FDFC4FF07F43E36579
:101BA00069463046A4F86050CDF80090ADF8047056
:101BB00008F09DFE094BE3663146204607F0BAFA6D
:101BC0002046414607F0B6FA204603B0BDE8F08350
:101BD000E0CF0108F0E80108560024000F000200E1
:101BE0000CC80108704770477047704770477047CE
:101BF0007047704730B4C56844686A100346ED0703
:101C000004EB02009B6848BFA25830BC48BFD358C1
:101C1000184743682BB183682BB9C06800F00100F6
:101C20007047184670470120704790F82D3080F8B3
:101C3000903080F85C30704710B59421044619F05C
:101C4000DDFC204610BD10B51021044619F0D6FC6D
:101C5000204610BD10B50446683094F82C303BB1D6
:101C600004F1660108F083FF2046FFF726FC10BD53
:101C700004F16401F6E710B5044600F53A70FEF78A
:101C800032FD04F69C50BDE81040FEF79CBC00F10C
:101C90009802914202D103689B6B184700F5967237
:101CA000914202D103685B6BF7E700F5E072914265
:101CB00002D10368DB6AF0E700F51572914202D1A8
:101CC00003681B6BE9E770472DE9F0470B88A0F824
:101CD00064301388A0F866300446B0F90850104606
:101CE00017460DF035FC81463846B4F90A600DF010
:101CF00069FC4FF0020895FBF8F596FBF8F6ADB2DB
:101D0000B6B2A6EB5002A5EB590104F1680012B27D
:101D100009B2FFF7E5F923682046D3F88830BDE81B
:101D2000F047184710B5094B0360094BC0F89C3DBC
:101D3000044600F69C50FFF777F8064BC4F8E832EB
:101D400004F53A70FFF74CF8204610BD28D1010881
:101D50009CC5010838C6010810B50446FFF7E2FF2C
:101D600020464FF4C35119F049FC204610BD000035
:101D70002DE9F3410446FFF79BF9FF23264684F83B
:101D80002D3002AF01234FF6FF754FF0000884F8A5
:101D90002430194B27F8045DC4F8288084F82C807F
:101DA000C4F8308046F8343B39463046FFF724FC0F
:101DB000424641463046A4F86050A4F86250FFF70E
:101DC0008FF93146204607F0B5F904F168060B4B50
:101DD00023603946A4F86450A4F866503046ADF844
:101DE0000450FFF709FC2046314607F0A3F92046CE
:101DF00002B0BDE8F08100BF50CD010870D00108ED
:101E00002DE9F04F04468BB0274600250BF0ECFD82
:101E1000954BE56347F8403B3846FFF781F904F1FD
:101E20006C0318460593FFF77BF904F1980304F55A
:101E300096791846039304F5E07BFFF799FF48462F
:101E4000FFF796FF04F5157A5846FFF791FF5046C5
:101E5000FFF78EFF04F53A7318460693FEF786FCEB
:101E600004F69C5318460793FEF72CFC41F65003EA
:101E7000E21804927D4AE250049B7D4A5C6041F680
:101E800058034FF4A078E25041F65C03CDF800808F
:101E9000E5502A46294638464FF07F46F023FFF7A3
:101EA0002CF9A666CDF800802A4629460598F0232D
:101EB000FFF723F9C4F894600AAE012326F8043D25
:101EC00008A932460398ADF82050FFF778FB2A4660
:101ED000294604F1CC00FFF703F90B23324608A989
:101EE0000398ADF82030ADF824304FF05008FFF7DC
:101EF000EBFE604BC4F80431CDF8008003983C231E
:101F0000DC221421FFF7F9F8049AC4F8C820022350
:101F1000ADF820303246032308A94846ADF82430F6
:101F2000FFF74DFB2A46294604F5B070FFF7D8F8B5
:101F30000E23324608A94846ADF82030ADF82430CB
:101F4000FFF7C2FE4B4BC4F89831CDF800804846ED
:101F50003C23DC22A021FFF7D0F8049BC4F85C31BD
:101F60004FF005084FF00403324608A95846ADF873
:101F70002030ADF82480FFF722FB2A46294604F5DD
:101F8000FA70FFF7ADF80D23324608A95846ADF8B0
:101F90002030ADF82430FFF797FE1222C4F82C222F
:101FA0002722009258464C23DC225221FFF7A5F845
:101FB000049BC4F8F03132464FF0040308A95046A0
:101FC000ADF82030ADF82480FFF7F9FA2A4629460B
:101FD00004F52270FFF784F80C23324608A9504616
:101FE000ADF82030ADF82430FFF76EFE1223C4F8B0
:101FF000C0322723009350464C2340F20512522151
:10200000FFF77BF8049BC4F88432069878221421E9
:10201000FFF766F814221146251D0798FFF760F8B0
:102020003946284607F086F80599284607F082F8D1
:102030000399284607F07EF84946284607F07AF8C3
:102040005946284607F076F85146284607F072F8B8
:102050000699284607F06EF82846079907F06AF8AF
:1020600020460BB0BDE8F08F28D1010810D101083F
:102070008F1C00080A0014007047704741607047C9
:1020800070470123037270477047704710B4C468EB
:10209000416862100346E40701EB02009B6848BFF9
:1020A0008A585DF8044B48BFD358184743682BB192
:1020B00083682BB9C06800F001007047184670476C
:1020C0000120704710B50C21044619F097FA2046FC
:1020D00010BD10B54FF4AC71044619F08FFA2046CC
:1020E00010BD10B51021044619F088FA204610BD25
:1020F00010B50AF059FA0368BDE810401B6B184789
:10210000F8B5044617460E460AF06EFA144BC4F8AA
:1021100054611C60134E144B236000253068134B30
:10212000C4F83851C4F83C51C4F84031C4F84451A3
:10213000C4F84851C4F84C51C4F8507103680121E7
:102140009B689847284600F0C5FB336893F87620D3
:102150000AB1D86C00B9986812F0F7F82046F8BDBB
:10216000943701204837012084D101086CD101083F
:10217000064BC0F848310023C0F84C3100F5A0737D
:10218000C0F84401C0F83C31704700BFD1220008BC
:102190002DE9F04707469068DDF820A099460368CE
:1021A0001B6A88461546984741F66303984205D84E
:1021B000414B424AA321424819F02CFA686803684F
:1021C0001B6A98470F2803D83E4B3C4AA421F2E7EC
:1021D000E86803681B6A98470B2803D83A4B374ACC
:1021E000A521E8E70AF0E0F90AF0E4F9D9F80000DF
:1021F00010B10368DB689847D9F8000010B1036894
:102200001B689847386810B103685B699847D8F82D
:10221000000010B103685B689847386810B1036824
:102220001B689847D8F8000010B103689B6898476E
:10223000E868036800215B6A9847044620B10023E0
:1022400043600372214B0360A868036800215B6A46
:102250009847064608B1FEF72FFE6868036800211C
:102260005B6A9847054610B13146FEF73DFEC9F856
:102270000040C8F800503E60E5B12B1DCAF80030A0
:10228000C5F808A03368F5633046DB6898472B68CB
:1022900028461B689847214630460BF051FD2368BD
:1022A00020461B699847236820465B699847284663
:1022B000BDE8F0872B46E1E7E4D10108F9D3010836
:1022C00072D20108B3D2010856D30108C8D101085F
:1022D00007B5D0F854310093D0F85021044B00F5E5
:1022E0009C710448FFF754FF03B05DF804FB00BF86
:1022F000883701208437012013B5002249B102AB91
:10230000019203F8052D0268946801AAA04702B063
:1023100010BD0846FBE74089704780897047808878
:10232000704783798088184480B27047C07900F084
:102330007F007047C079C0097047006A7047406AE3
:10234000704770478B8880690A68DB0A50F8230061
:102350001044704710B5C2B1137BB3B1547BD27A2D
:10236000240204F4E0641443C26998B202EB8402CC
:1023700013888B4202D192F9020010BD05D80138B2
:1023800080B204320028F3D1F7E70020F5E710B55A
:102390002821044619F032F9204610BD30B589B025
:1023A0000446BDF850500695BDF84C5005959DF873
:1023B000405004959DF83C5003959DF83850029587
:1023C0009DF8345001959DF8305000950BF018F9A8
:1023D000064B2360119BA361129BE361159B236253
:1023E000169B6362204609B030BD00BF0CD50108C2
:1023F00030B5164D2C78BFF35B8F14F001048DB00F
:1024000021D1284619F0D2F8E8B13F230793104BA9
:102410000693104B10490894CDE90443012204238C
:10242000CDE90132CDE9094403220C230394009441
:102430000A48FFF7B3FF284619F0C4F8084A0949CB
:10244000064819F0D6F805480DB030BD7C010020D3
:1024500010130208E812020860040208800100203C
:10246000000000204323000830B5164D2C78BFF340
:102470005B8F14F001048DB020D1284619F096F836
:10248000E0B13F230793104B0693104B104908947B
:102490000122CDE904430423CDE90132CDE9094409
:1024A0000A23039400940B48FFF778FF284619F09D
:1024B00089F8094A0949074819F09BF805480DB001
:1024C00030BD00BFA8010020F4120208F01202087B
:1024D0008C040208AC010020000000204323000807
:1024E00030B5164D2C78BFF35B8F14F001048DB01E
:1024F00020D1284619F05AF8E0B13F230793104B3A
:102500000693104B10490894CDE9044308230A228E
:10251000CDE90043CDE909441C23CDE902440B4831
:10252000FFF73CFF284619F04DF8094A09490748CA
:1025300019F05FF805480DB030BD00BFD401002090
:10254000E012020800130208F0040208D80100207B
:10255000000000204323000830B5174D2C78BFF34E
:102560005B8F14F001048DB022D1284619F01EF8BB
:10257000F0B13F230793114B0693114B1149089477
:10258000CDE9044301220423CDE9013205230D22C4
:102590000093CDE90944182303940B48FFF7FEFE8E
:1025A000284619F00FF8094A0949074819F021F897
:1025B00005480DB030BD00BF00020020E412020843
:1025C000041302087C050208040200200000002019
:1025D0004323000830B5164D2C78BFF35B8F14F001
:1025E00001048DB020D1284618F0E0FFE0B13F2370
:1025F0000793104B0693104B104908940122CDE924
:1026000004430423CDE90132CDE90944282303948E
:1026100000940B48FFF7C2FE284618F0D3FF094A82
:102620000949074818F0E5FF05480DB030BD00BF67
:102630002C020020EC12020808130208881202087B
:1026400030020020000000204323000830B5164D62
:102650002C78BFF35B8F14F001048DB020D1284695
:1026600018F0A4FFE0B13F230793104B0693104BE3
:10267000104908940122CDE904430423CDE9013235
:10268000CDE909441423039400940B48FFF786FE18
:10269000284618F097FF094A0949074818F0A9FF8A
:1026A00005480DB030BD00BF58020020F8120208E6
:1026B0000C130208981202085C020020000000209F
:1026C00043230008704710B50421044618F096FF14
:1026D000204610BD08B5062921D8DFE801F004081E
:1026E0000C1014181C0000F061F8006808BD00F020
:1026F0005DF84068FAE700F059F88068F6E700F006
:1027000055F8C068F2E700F051F80069EEE700F014
:102710004DF84069EAE700F049F88069E6E70020F3
:10272000E4E7000030B5164D2C78BFF35B8F14F052
:1027300001048DB020D1284618F038FFE0B13F23C6
:102740000793104B0693104B104908940422CDE9CF
:1027500004430123CDE90123CDE909440E23039469
:1027600000940B48FFF71AFE284618F02BFF094A81
:102770000949074818F03DFF05480DB030BD00BFBE
:1027800084020020FC12020814130208A812020896
:102790008802002000000020432300080048704702
:1027A00070D501080F2070472320704700487047FC
:1027B000B002002010B5FFF749FF0A4C2060FFF778
:1027C00009FF6060FFF750FEA060FFF789FEE06040
:1027D000FFF7C2FE2061FFF7A5FF6061FFF708FE6B
:1027E000A06110BDB002002000207047002070479B
:1027F0000EB403B503AB002153F8042B01930AF088
:1028000035FD02B05DF804EB03B070470CB407B5BA
:1028100004AB53F8042B01930AF028FD03B05DF8D4
:1028200004EB02B07047000010B5436C044673B36C
:10283000038F2BB9184B194AC021194818F0EAFE2A
:10284000C38E00EB43035B8C0BB30BF0E7FF238FCE
:10285000012B03D8134B144AC521EEE7E28E531C1B
:102860009BB2092B194688BFA3F10A0104EB410171
:1028700040F63F10498C814209D10A2B04EB4202F9
:1028800028BF002304EB4303508C58845184204616
:10289000BDE810400BF0A6BE9CD60108C9D70108C0
:1028A000A5D60108E9D60108F7D601080BF052BEFB
:1028B00010B586B002AC84E806001A460AAB059350
:1028C0000193099B00932146089B09F0E4F906B0A7
:1028D00010BD000038B5D8B9114B12481B68124919
:1028E000BBB11A689C681A4402605A681A440A60AC
:1028F0001C446CB10D4B00221A80FFF757FF0546B0
:10290000FFF752FF0A4B1C600A4B1D600A4B1880F0
:1029100038BD0A4B03600A4B0B600A4B1C68E8E7A2
:10292000CC020020D0020020D4020020D8020020D7
:1029300098370120A03701209C370120C08A050864
:10294000E8890508BC8A0508044B1B6853F8210078
:10295000034B1B6803EB4000704700BFD40200200C
:10296000D0020020012380F8741080F87530704781
:102970000020704700207047836B0BB10846184752
:1029800070474FF6FF707047406803689B691847AF
:1029900070477047034B902283F85A2383F85823DB
:1029A000704700BF00E100E0094A0A49D3680A48BD
:1029B000C3F30A03013B9BB20B801169C1F30A0107
:1029C000013901801364536B43F001035363704773
:1029D00000680140DC020020DA020020014B986A06
:1029E000704700BF84680140024B0122996243F89E
:1029F000602C70478468014038B5044606F043FEF9
:102A000023681D6E09F0D0FD01462046A8472368C3
:102A1000054AD3F88450A2F5163100232046A84772
:102A2000002384F84A3038BD005802D008B531B9C7
:102A30000A4B0B4A0B484FF42B7118F0EBFDC0E921
:102A40000F1200320849436418BF01220A70003394
:102A5000064A18BF0123137008BD00BFD7D801086C
:102A600091D901080FD901084437012045370120C9
:102A700008B5094B1B888B4203D8084B1B8893422F
:102A800005D9074B074A08489E2118F0C3FD074B9C
:102A90001980074B1A8008BD3A3701203C370120C6
:102AA00074D801084ED901080FD901084037012018
:102AB0004237012006F098BD10B5044607F0E4FB4C
:102AC00023682046D3F8A430BDE81040184790F89A
:102AD00077301BB1406803681B6818471846704779
:102AE00010B590F8744090F834100C4B8C421A7862
:102AF00009D03AB90A4A0B491488088810800C801A
:102B000001221A7010BD002AFCD0054A054914881C
:102B1000088810800C800022F3E700BF3E370120B8
:102B20003A3701203C370120034B4FF080629A6016
:102B30004FF080729A60704700E100E0084B4FF060
:102B40008062C3F88820BFF34F8FBFF36F8F4FF0C1
:102B50008072C3F88820BFF34F8FBFF36F8F704729
:102B600000E100E010B5134B134A1B6C1188134CA5
:102B70008B4213D1124B198803F048FC226892F85B
:102B80006630013382F8663000F06AFA206807F098
:102B90007BFB0020BDE8104000F06FBC03F036FC6A
:102BA000002000F06BFC20680368BDE810401B6A41
:102BB000184700BF00680140DC02002048370120B0
:102BC000DA02002003685B6C184700207047036836
:102BD0009B6A184740F26F307047000010B5074CF1
:102BE000074B2360204603F083F8064B2361064B16
:102BF0006361064B4FF080629A6010BDEC39012092
:102C000000B002402D2C0008112C000800E100E06B
:102C100008B5034A034B0448362118F0FBFC00BFFB
:102C200058DA0108BAF60108DFD90108024B1B681F
:102C3000586803685B69184748370120084B10B58E
:102C400003600446074803F021F9074B4FF0806208
:102C5000C3F88820BFF34F8FBFF36F8F204610BD9E
:102C600010DA0108EC39012000E100E010B504465B
:102C7000FFF7E4FF20464FF4426118F0BFFC204606
:102C800010BD0000044B1B6893F876200AB1D86C85
:102C900000B99868704700BF483701202DE9F3411B
:102CA0000D68202D0C4600F0A180402D00F09E8084
:102CB0002A1F56425641B5F5807F00F09980A5F550
:102CC00000735D425D41FFF7DDFF03681B6A9847B3
:102CD0002368402B00F0A48000F28C80042B00F0CD
:102CE0009880202B00F09C80102814BF4FF0010C1E
:102CF0004FF0020C0021514BA28AB4F81A80D3F88D
:102D000000E059601028A8EB020814BF0127022731
:102D10009F60C3F80C80DEF8002022F4403211439B
:102D2000CEF80010D3F800E0C3F82CC0DEF8341061
:102D300021F007013943CEF83410DEF8402022F4A8
:102D40007F5222F03F0242EA0802CEF84020228B56
:102D5000A18A521A9A620EB9002D34D0227FFF2A1E
:102D60001FBF02221A63227F5A6304BF00221A6324
:102D700005B3227FE16810284FEA026053D14FF07B
:102D80001F0EC1F3C422C2EB0222B2FBFEFC01EA19
:102D90000E02C2EB0222B2FBFEF2024342EA0C42F6
:102DA000C1F34511C1EB01213F20B1FBF0F142EA33
:102DB00001225A63A18A628B2048521AC3E906276E
:102DC000002103F02FF901211C4803F02BF9A38AFD
:102DD000E28A06B955B3CDE9003223696168174824
:102DE0001A4602F0D2FF02B0BDE8F081012666E784
:102DF000012568E7B3F5807F06D0B3F5007F7FF447
:102E000073AF4FF0090C01E04FF00A0C4FF40031A2
:102E100071E7102814BF4FF0010C4FF0020CF5E7DA
:102E20004FF0000CF2E701435963C3E70092616879
:102E30002269024802F08AFFD5E700BFEC39012081
:102E4000F7B50D46FFF71EFF03681B6A9847102869
:102E5000EB68297F6FD103F01F02C2EB02221F2013
:102E6000B2FBF0F4C3F3C42244EA0164C2EB0222D1
:102E7000C3F34513B2FBF0F244EA0244C3EB03236D
:102E80003F22B3FBF2F3022244EA03242B682C48CE
:102E90006F8B082B08BF4FF40036AB8A18BF4FF476
:102EA0004036C0E90162FF1A0368C760196821F45F
:102EB000403131431960D0F800C0DCF8341021F003
:102EC00007011143CCF83410DCF8403023F47F5371
:102ED00023F03F033B43B6F5003FCCF840301FD111
:102EE0000123C0E90C340923C362A98A6B8B5B1AE6
:102EF000C0E90632002103F095F80121104803F0E3
:102F000091F8B6F5003FAB8AEA8A0DD129690C48E1
:102F1000CDE900320B460A4602F037FF03B0F0BDA0
:102F20000023C2628362E8E7009221462A690448CE
:102F300002F00CFFF2E743EA01640122A6E700BFBA
:102F4000EC39012070B505462C460A4B0C300026A2
:102F500068602E726E7244F8203B6022214607F0B2
:102F6000C9FA05F54263E6602034A342FBD1284646
:102F700070BD00BF10DA0108012108B50022084623
:102F800005F0C8F8064B4FF0FF31186005F018F94E
:102F900000220421012005F087F9024B186008BDCA
:102FA000E4020020E002002008B5074B186828B9A9
:102FB000064B074A0748312118F02CFB4FF0FF3130
:102FC000BDE8084005F0FCB8E40200208BDA0108F7
:102FD00002DB01089CDA010808B5064B186828B91D
:102FE000054B064A06483A2118F014FBBDE8084094
:102FF00005F022B9E40200208BDA0108C5DA0108E5
:103000009CDA010808B5074B186828B9064B074A2F
:103010000748472118F0FEFA0021BDE8084005F0F6
:10302000CFB800BFE40200208BDA01083FDB0108C3
:103030009CDA010808B5064B186828B9054B064A02
:103040000648542118F0E6FABDE8084005F0F4B847
:10305000E40200208BDA01087FDB01089CDA01081A
:10306000044B186820B100231A46034905F062B9E1
:10307000704700BFE00200200400002013B5084C98
:10308000206858B100231A4601A905F095F94FF0C0
:10309000FF33002201A9206805F08EF902B010BDAF
:1030A000E0020020704770477047012070470C20F5
:1030B00070470C2303FB0100083070470C2303FB0F
:1030C0000100083070470120704741F664007047E6
:1030D00041F6640303FB01000830704741F66403C6
:1030E00003FB010008307047012070471020704733
:1030F00000EB01100830704700EB011008307047FA
:103100000846FFF735B8000010B5034B03600446CE
:1031100005F096FF204610BD34DC010810B50446CA
:10312000FFF7F2FF2046142118F068FA204610BD80
:1031300010B5034B0360044605F082FF204610BD26
:1031400000DC010810B50446FFF7F2FF204641F607
:103150006C0118F053FA204610BD000010B5034B67
:103160000360044605F06CFF204610BDCCDB01086F
:1031700010B50446FFF7F2FF2046182118F03EFA7A
:10318000204610BD10B5094B0360044600F5C4503D
:103190001830FFF7B9FF04F12C00FFF7C9FF04F165
:1031A0001400FFF7DBFF204610BD00BF68DC0108FC
:1031B00010B50446FFF7E6FF204641F6082118F057
:1031C0001DFA204610BD00002DE9F341FFF7E6FA95
:1031D0000546FFF7E7FA0024014623462846224623
:1031E00000940CF0A1F9264B264A274D1A60204680
:1031F000FFF770FB25480CF0D9F82B78BFF35B8FF5
:10320000DB0736D4284618F0D1F9002831D0204CFD
:10321000204F214BE76007F1180604F1140004F178
:103220002C086060C4F808802661236005F00AFF5E
:103230001A4B6361404605F005FF194BE3623846BF
:1032400005F000FF174B3B6007F11400FDF75AFE35
:10325000224607F114013046FDF786FE3046FEF7A0
:1032600087FF284618F0AEF90F4A1049204618F09B
:10327000C0F90F4802B0BDE8F04100F0D3B800BF7C
:10328000A437012094290020E80200200800002033
:10329000EC020020841B002068DC0108CCDB010864
:1032A00000DC010834DC0108000000208531000842
:1032B00018290020014800F0B7B800BF18290020E5
:1032C00010B50421044618F099F9204610BD10B538
:1032D0007821044618F092F9204610BD10B57C21E3
:1032E000044618F08BF9204610BD0000F8B5394CA3
:1032F000394D3A4F3A4B3B492B602246284618F04D
:1033000078F9394E3846FFF71DFE224637493846D0
:1033100018F06FF930460FF0CDF9224634493046A7
:1033200018F067F922463349334818F062F93348F8
:10333000334941663349C56000230122324D03857C
:10334000C0E90176C0E90433C0E90633C0E90833B7
:1033500080F82A30C3620386C0E90E33C0E9103317
:1033600080F8483080F8492080F84A3080F84B30A7
:10337000C0E91333C0E91533C0E9173380F868306A
:1033800080F8693080F86A3080F86B3080F86C30F3
:103390000860F02129801D4D036729801C4D80F8AD
:1033A00074304FF4A07129801A4D80F8753029804F
:1033B000194980F876300B70184B80F8772080F828
:1033C000782080F83420036022461549BDE8F84093
:1033D00018F00FB900000020F41C0020F81C002099
:1033E0004CDD0108A5300008982900203D2C00087C
:1033F000A7300008C5260008080000201829002072
:1034000001000001483701203A37012040370120F0
:103410003C370120423701203E3701207CDC010887
:10342000A9300008FFF7E8BA08B503680446DB6F67
:103430009847236820465B6F9847FFF71FFE236875
:103440002046DB6E9847292000F088FBFFF716FE28
:1034500023682046DB6E9847F8E7FFF7BFBAFFF70F
:10346000C3BAFFF727BBFFF795BAFFF75DBBFFF7BE
:1034700065BBFFF799BA06F0B1B87047704770475F
:1034800038B50C4B0C4C18800C4B822019806368AB
:10349000984740F6110398420AD1094D23682C60E1
:1034A000822098472B688220DB689847002038BD2F
:1034B0000120FCE7102A002024000020122A00200E
:1034C000142A00204FF4A071F020FFF7D9BF0000AC
:1034D000F7B52C4D2B6804461B698220984780B2B3
:1034E000208000284BD02B680DF106025B6901A9F2
:1034F00082209847BDF80630A3F5B4739BB20B2227
:10350000B3FBF2F333B1204A12889A423CBF02F176
:10351000FF339BB2BDF8042040F6B8318A4295BF14
:10352000C2F57162C2F56D620E320832ADF8042048
:10353000BDF804100F22B1FBF2F131B1134A128829
:103540008A423CBF02F1FF3189B2114E114D306801
:103550002F6882B2814288BF8A1AB8B298BF521AC5
:10356000BB428CBF181AC01A92B280B20244052A1C
:10357000C4BF31602B60336863802B68A38003B0C5
:10358000F0BD00BF142A0020122A0020102A0020BB
:10359000182A00201C2A002037B568460D4614461C
:1035A000FFF796FFBDF8000030B1BDF802302B6088
:1035B000BDF804302360012003B030BD054BD3F8C3
:1035C000882042F47002C3F888204FF000629A60AD
:1035D000704700BF00ED00E030B5014689B0002221
:1035E000362001F059FE362001F08AFE0025154BE9
:1035F00002951A6C144C42F010021A641B6C03F012
:103600001003029301A903A8029B01F06BF801F0DB
:1036100059F80E4B236040F2E733E36040000C4B57
:10362000B0FBF3F00138606020462561A56001F031
:1036300099F920B9204601F074F809B030BD012095
:10364000FBE700BF003802404C380120001000406A
:1036500040420F0007B5064B02A91B6821F8020D76
:103660000122044802F0CEF803B05DF804FB00BF6D
:1036700014000020E0380120F0B53024A1B022462B
:10368000002108A818F041F81422002103A818F01E
:103690003CF82246002114A818F037F80024224BE9
:1036A00001941A6C42F080521A641B6C03F0805330
:1036B0000193019B1D4B02941A6842F440421A6028
:1036C0001B6803F4404302930122029B4FF48033B2
:1036D000CDE9082302254FF48003CDE90E530827D6
:1036E0004FF4A873042608A8CDE910731295139619
:1036F00000F076FD0F23CDE903354FF4A0514FF4D0
:103700008053CDE9061303A80521059400F03CFF82
:10371000C023189314A84FF4003314971A961D93DE
:1037200002F0D4FE21B0F0BD00380240007000402D
:1037300080B59AB002F08AFEFFF79EFF14220021A6
:103740000DA8002417F0E1FFB44B00941A6BB448A5
:10375000B44D42F020021A631A6B02F0200200926C
:10376000009A01941A6B42F080021A631A6B02F0FD
:1037700080020192019A02941A6B42F004021A63C9
:103780001A6B02F004020292029A03941A6B42F03E
:1037900001021A631A6B02F001020392039A049465
:1037A0001A6B42F002021A631A6B02F002020492D0
:1037B000049A05941A6B42F040021A631A6B02F0E5
:1037C00040020592059A06941A6B42F010021A63A1
:1037D0001A6B02F010020692069A07941A6B42F0D6
:1037E00008021A631B6B03F00803079322460421A7
:1037F000079B01F02BFF22464FF440518A4801F00D
:1038000025FF012602274FF004080DA984480F94D4
:10381000CDE90D86109701F033FE0DA94FF440530A
:103820008148CDE90D36CDE90F4701F029FE7F48EB
:103830007F4B036002F078FF7E4A7F4B2C62C5E924
:10384000002328464FF48043C5E90434C5E9024407
:10385000C5E9064401F076FA1021284601F0C4FCBF
:103860002146284601F0E2FC7448754984624FF411
:103870008273C0E900134FF400751823C0E90653A2
:103880000A23704DC362C0E90244C0E90444C0E9A0
:10389000084401F077FF6C4B0D974FF0100CC5E911
:1038A00000364023C5E904C34FF4C073C5E90634AC
:1038B0004FF40063C5E908344FF40053AB624FF096
:1038C000030A07230DA92846CDE90E3810934FF0BF
:1038D0000809C5E90248CDE911A7139700F036FCA5
:1038E0004FF6FF7209A92846CDE90A960894099671
:1038F0000C9400F04BFC304602F0D4FD4FF6FF7202
:1039000009A92846CDE90979CDE90B6400F03EFC10
:103910004FF6FF7209A92846CDE909A9CDE90B8424
:1039200000F034FC4FF40C730893089B0C934FF693
:10393000FF7209A92846CDE909890B9600F026FCFB
:1039400040F26A51284600F038FC342221460DEB43
:10395000020017F0DAFE3D4D3D4B2C61C5E9003405
:103960000923C5E905361D2340F20D1EC5E9073AB6
:1039700040F24313C5E909E340F2171840F2471338
:10398000C5E90B83C5E90244AC8685F83640284674
:1039900002F036FCFF21F022CDE912144FF48069C9
:1039A00005214FF4A073CDE90E24CDE91491CDE9A2
:1039B00016420DA922462846CDE91037254D189309
:1039C0000D94ADF864408DF8664002F0F6FC224B91
:1039D0002B601B6898472B68204DDB689847204B6D
:1039E000C5E90A47C5E90C442846C5E90034C5E9DC
:1039F000027402F07DF93146284602F013FB02F012
:103A0000A3FE04F0F7FA174A1748214604F02CFBEE
:103A1000164B186004F008FBFEE700BF00380240B8
:103A2000000802408C380120000C02403839012087
:103A300000300240005C0040A0860100E038012018
:103A4000005001402C3A0120400100A040390120E3
:103A500000680140202A00204C000020EC390120A1
:103A600000B0024074DD01084D670008E83901200C
:103A70007047704710B586B006AC074B04F8012DAF
:103A80001B68029301230A46CDE90043014603481F
:103A900001F008FA06B010BD100000208C3801209B
:103AA0007FB506AA002302F8013D084B1B6802936C
:103AB0000123CDE900230A460146054801F086FAB4
:103AC0009DF8170007B05DF804FB00BF1000002050
:103AD0008C3801201FB5084C24680092CDE90134D0
:103AE0000A4601230146054801F070FA003018BF6C
:103AF000012004B010BD00BF100000208C38012050
:103B000002F0D0BC10B5064C00222046042101F082
:103B10009DFD204601220421BDE8104001F096BD24
:103B20000008024038B50B4C054601224FF4005105
:103B3000094801F08BFD00220421204601F086FD9A
:103B40002846FFF787FD204601220421BDE83840C2
:103B500001F07CBD00080240000C024038B50B4C5F
:103B6000054600224FF40051094801F06FFD002284
:103B70000421204601F06AFD2846FFF76BFD204630
:103B800001220421BDE8384001F060BD0008024078
:103B9000000C0240F7B5144C144D07460E46204663
:103BA0000022042101F052FD00224FF4005128466A
:103BB00001F04CFD3846FFF74DFD0D4B0D481B68DD
:103BC000324601A901F0B6FF284601224FF4005108
:103BD000019E01F03BFD20460122042101F036FD4B
:103BE000304603B0F0BD00BF00080240000C0240A8
:103BF00014000020E038012002F054BC0268034B9E
:103C00009A4201D102F03CBC704700BF0010004056
:103C10007047FEE7FEE7FEE7FEE77047014800F069
:103C200095BD00BF4C380120014802F065BB00BFC4
:103C300040390120014802F065B900BFEC3901208C
:103C400008B50A4B1968024609B90949196018688C
:103C5000694602448A4206D917F008FD0C23036026
:103C60004FF0FF3008BD1A60FCE700BF242A002097
:103C7000A83A012082B00E4B00220092596C41F408
:103C800080415964596C01F480410091009901927E
:103C9000196C41F0805119641B6C03F0805301933F
:103CA000019B0F216FF0010002B001F0F5BA00BFD7
:103CB000003802400268094B9A4282B00BD10023BF
:103CC0000193074B1A6B42F480521A631B6B03F487
:103CD00080530193019B02B0704700BF0030024047
:103CE0000038024007B50F4B02689A4216D10022F5
:103CF000A3F5F0430192196B41F4000119631B6BAA
:103D000003F40003019305215A20019B01F0C4FA3A
:103D10005A2003B05DF804EB01F0F2BA03B05DF88D
:103D200004FB00BF00B002400268064B9A4207D174
:103D3000054A136B23F4000313635A2001F0EEBA13
:103D4000704700BF00B00240003802402DE9F04348
:103D5000044689B01422002103A817F0D6FC22687B
:103D6000244B9A4243D1244C244800250095236BD0
:103D700043F004032363236B03F004030093009BCD
:103D80000195236B43F001032363236B03F00103CD
:103D90000193019B4FF012094FF400734FF001089B
:103DA0000327042603A9CDE90339CDE90587079642
:103DB00001F066FB4FF4807303A911480796CDE923
:103DC0000339CDE9058701F05BFB0295236C43F4D1
:103DD00000032364236C03F400030293029B236A11
:103DE00043F400032362236A23F40003236209B02F
:103DF000BDE8F083005C004000380240000802404B
:103E000000000240F0B504468DB01422002107A83E
:103E100017F07BFC2268574B9A4240F0A88003F5CC
:103E20005043002500955A6C534842F080625A6412
:103E30005A6C02F080620092009A01951A6B42F06F
:103E400020021A631A6B02F020020192019A029575
:103E50001A6B42F001021A631A6B02F0010202921D
:103E6000029A03951A6B42F002021A631A6B02F06F
:103E700002020392039A04951A6B42F040021A63FD
:103E80001A6B02F040020492049A05951A6B42F0F4
:103E900004021A631A6B02F004020592059A069551
:103EA0001A6B42F008021A631B6B03F008030693B7
:103EB00002240E26069B0A944FF4806307A9CDE9DD
:103EC00007340B9601F0DCFA41F6580307A92B489A
:103ED0000B96CDE907340927CDE9095401F0D0FA52
:103EE000032307A926480B97CDE90734CDE90954E8
:103EF00001F0C6FA4FF4706307A921480B96CDE98B
:103F00000734CDE9095401F0BBFA4FF40C6307A95B
:103F10001C480B96CDE90734CDE9095401F0B0FAFD
:103F2000C02307A918480B96CDE90734CDE90954F9
:103F300001F0A6FA082307A914480B96CDE9073427
:103F4000CDE9095401F09CFA4FF4A05307A90D489C
:103F50000B97CDE90734CDE9095401F091FA5820C7
:103F60002A46052101F098F9582001F0C9F90DB051
:103F7000F0BD00BF00680140001402400000024094
:103F8000000402400018024000080240000C0240F9
:103F900010B5044688B01422002103A817F0B5FB21
:103FA0002268144B9A4223D103F568430021019102
:103FB0005A6C114842F480125A645A6C02F480120E
:103FC0000192019A02911A6B42F020021A631B6B54
:103FD00003F020030293029B4FF46072022303213B
:103FE000CDE903230523CDE9061303A901F048FA1F
:103FF00008B010BD00500140001402402DE9F0410E
:1040000086B01422002101A817F07FFB2B4B1C68FF
:10401000002C4FD14FF00108C3F80080284B0094CA
:104020009A6B284842EA08029A639B6B03EA0803EA
:104030000093022703260C25009B01A94FF63F039E
:10404000CDE90137CDE9046501F01AFA01A91E484E
:104050000595CDE90187CDE9034601F011FA48F253
:10406000331301A919480595CDE90137CDE9034678
:1040700001F006FA4FF6837301A915480595CDE9BD
:104080000137CDE9034601F0FBF94CF2037301A9B6
:1040900010480595CDE90137CDE9034601F0F0F967
:1040A000602301A90C480595CDE90137CDE9034608
:1040B00001F0E6F906B0BDE8F08100BF282A002033
:1040C000003802400014024000080240001802407C
:1040D00000100240000C0240000402400120704722
:1040E00008B517F0C3FA162303604FF0FF3008BD80
:1040F00008B517F0BBFA16230360FEE770B50E464D
:1041000015460C46A31B9D4201DC284670BDAFF34B
:10411000008004F8010BF5E770B50E4615460C4615
:10412000A31B9D4201DC284670BD14F8010BAFF3C0
:104130000080F5E74FF0FF3070474FF400534B60BD
:1041400000207047012070470020704738B50D46A9
:104150000446C8B190F82C3003F0FF021BB980F878
:104160002D20FFF74BFF022384F82C30211D2068FF
:1041700001F0E8F862682068294601F019F9012386
:1041800084F82C30002038BD0120FCE738B5044607
:1041900090F82C00C0B202280D460DD0022384F8FE
:1041A0002C30206801F041F92B68022B0CBF05234D
:1041B000012384F82C30002038BD10B5044690F857
:1041C0002C00C0B2022809D0022384F82C302068C9
:1041D00001F050F9012384F82C30002010BD0000BC
:1041E0002DE9F341044608B9012041E00368DD07E9
:1041F00010D4236898075AD423681A0700F19C80CA
:1042000023685B0700F1BA80A069002840F01C8198
:1042100000202DE0A44B9A6802F00C02042A07D07B
:104220009A6802F00C02082A0AD15B68590207D585
:104230009D4B1B689A03DCD56368002BD9D1D3E76B
:104240006268994BB2F5803F15D11A6842F480320A
:104250001A606368F3B102F01FF9934D06462B68AC
:104260009B03C6D402F018F9801B6428F7D90320F9
:1042700002B0BDE8F081B2F5A02F1A6803D142F474
:1042800080221A60E1E722F480321A601A6822F470
:104290008022DDE702F000F9834D06462B689F037C
:1042A000A7D502F0F9F8801B6428F7D9DFE77E4B29
:1042B0009A6812F00C0F07D09A6802F00C02082AD4
:1042C00011D15B685E020ED4774B1A68950702D550
:1042D000E268012A88D11A68216922F0F80242EACC
:1042E000C1021A6088E7E268704BB2B101221A601D
:1042F00002F0D2F86C4D06462B68980707D52B685C
:10430000226923F0F80343EAC2032B6074E702F04A
:10431000C3F8801B0228EFD9A9E71A6002F0BCF8A5
:10432000614D06462B6899077FF566AF02F0B4F839
:10433000801B0228F6D99AE762695D4B7AB10122A7
:104340001A6002F0A9F8584D06466B6F9F073FF5BB
:1043500057AF02F0A1F8801B0228F6D987E71A6050
:1043600002F09AF8504D06466B6F98077FF548AFFC
:1043700002F092F8801B0228F6D978E74A4B1A6CB3
:1043800012F080522BD101921A6C42F080521A64C2
:104390001B6C03F080530193019B0126454D2B6854
:1043A000D9051ED5A268404B012A2AD11A6F42F0C6
:1043B00001021A67A368002B37D002F06DF83A4D5E
:1043C000074641F288382B6F9B0728D5002E3FF413
:1043D0001BAF354A136C23F08053136414E7002697
:1043E000DCE72B6843F480732B6002F055F8074636
:1043F0002B68DA05D6D402F04FF8C01B0228F7D993
:1044000035E7052A1A6F03D142F004021A67CDE797
:1044100022F001021A671A6F22F00402C9E702F0C3
:104420003BF8C01B4045CED921E702F035F81E4DC0
:10443000074641F288382B6F9807C7D502F02CF851
:10444000C01B4045F7D912E7174DAB6803F00C03CA
:10445000082B46D0184E00230228336034D102F0D6
:104460001BF807462B68990128D4D4E90732134377
:10447000626A43EA8213E26A43EA0263A26A0A4C6E
:104480005208013A43EA02436B600123336002F0B1
:1044900003F8054623689A013FF5BAAE01F0FCFF28
:1044A000401B0228F6D9E2E60038024000004742ED
:1044B000800E4742007000406000474201F0ECFF70
:1044C000C01B0228CED9D2E601F0E6FF04462B68D5
:1044D0009B017FF59DAE01F0DFFF001B0228F6D99E
:1044E000C5E601283FF4C4AE6868E36900F48002C1
:1044F0009A427FF479AE226A00F03F0393427FF440
:1045000073AE626A47F6C073034093427FF46CAEA9
:10451000A26A00F4403393427FF466AEE36A00F08F
:104520007060C01A18BF0120A2E600BF08B5134989
:104530008B6803F00C03042B03D0082B03D0104826
:1045400000E0104808BD4A684B68496813F48003CE
:1045500014BF0C480A48C1F3881118BF002302F0A9
:104560003F02A1FB0001FBF743FE044B5B68C3F372
:10457000014301335B00B0FBF3F0E3E70038024096
:104580000024F40000127A002DE9F0410D460446A3
:1045900010B90120BDE8F081454B1A6802F00F0206
:1045A0008A422AD323689E072FD42368D90743D48D
:1045B0003F4B1A6802F00F02AA4268D823685A07D4
:1045C0006ED423681B0707D53A4A2169936823F400
:1045D000604343EAC1039360FFF7A8FF354B364AB7
:1045E0009B68C3F30313D35CD840344B1860344B3F
:1045F0001868FEF7F1FF0020CCE7CAB21A701B68FA
:1046000003F00F038B42C4D1CCE7580741BF294ABE
:10461000936843F4E05393602368264A13F0080F2D
:104620001EBF936843F4604393609368A16823F0CE
:10463000F0030B439360B8E762681E4B012A1CD15C
:104640001B6813F4003FA4D01A4EB36823F0030391
:104650001343B36001F020FF41F288380746B36886
:10466000626803F00C03B3EB820FA1D001F014FFDA
:10467000C01B4045F3D903208CE7911E01291B681C
:1046800002D813F0007FDEE713F0020FDBE7EAB297
:104690001A701B6803F00F03AB427FF47AAF8DE70B
:1046A000044AE168936823F4E0530B43936088E77E
:1046B000003C0240003802405CDD01080C00002094
:1046C0001C000020044B054A9B68C3F38223D35C83
:1046D000034A1068D8407047003802406CDD01087A
:1046E0000C0000200F2303600B4B9A6802F00302BA
:1046F00042609A6802F0F00282609A6802F4E05226
:10470000C2609B68DB0803F4E0530361034B1B6842
:1047100003F00F030B60704700380240003C02407A
:1047200070470268D36843F00103D36003689A6856
:1047300002F00702062A1EBF1A6842F001021A6040
:1047400000207047704770477047704710B5036886
:104750001A69910704460FD5DA6892070CD56FF0F5
:1047600002021A610123037703689B699B077AD0D1
:10477000FFF7E9FF0023237723681A69500711D553
:10478000DA6851070ED56FF004021A61022323770D
:1047900023689B6913F4407F20466AD0FFF7D3FF5C
:1047A0000023237723681A69120710D5DA681007E7
:1047B0000DD56FF008021A61042323772368DB69A3
:1047C000990720465BD0FFF7BEFF002323772368BD
:1047D0001A69D20611D5DA68D0060ED56FF010022C
:1047E0001A61082323772368DB6913F4407F20468E
:1047F0004BD0FFF7A8FF0023237723681A69D1075E
:1048000008D5DA68D20705D56FF001021A61204693
:10481000FFF7F4F923681A69100608D5DA6811065B
:1048200005D56FF080021A61204600F021FD236853
:104830001A69520608D5DA68500605D56FF04002AD
:104840001A612046FFF781FF23681A69910622D575
:10485000DA6892061FD56FF020021A612046BDE883
:10486000104000F004BDFFF76DFF2046FFF76CFF1E
:1048700080E7FFF767FF2046FFF766FF90E7FFF747
:1048800061FF2046FFF760FF9FE7FFF75BFF2046D1
:10489000FFF75AFFAFE710BD304A0368904212D0CD
:1048A000B0F1804F0FD0A2F57C4290420BD002F5C0
:1048B0008062904207D002F58062904203D002F5F8
:1048C0007842904219D14A6823F070031343234A77
:1048D000904229D0B0F1804F26D0A2F57C42904280
:1048E00022D002F5806290421ED002F58062904292
:1048F0001AD002F57842904216D0194A904213D04D
:1049000002F5806290420FD002F5806290420BD097
:10491000A2F59832904207D002F58062904203D00F
:1049200002F58062904203D1CA6823F440731343B6
:104930004A6923F08003134303608B68C3620B68EA
:104940008362064B984203D003F58063984201D1FD
:104950000B69036301234361704700BF00000140FE
:104960000040014010B50446A0B190F83D3003F07E
:10497000FF021BB980F83C20FFF7D2FE022384F827
:104980003D302068211DFFF787FF012384F83D306B
:10499000002010BD0120FCE701684B6913F480631F
:1049A0004FF0000210D06FF480634B61202302634C
:1049B00080F83D3080F83E20036C80F83C2043F0C6
:1049C0000403036401207047184670472DE9F04145
:1049D0000446164698468FB22568686937EA000093
:1049E00018D06B695A0517D52B6843F400732B60F8
:1049F00023686FF480625A6100232022236384F8C5
:104A00003D2084F83E30226C42F00402226484F897
:104A10003C300120BDE8F081731CDED001F03CFD8C
:104A2000A0EB0800B04201D8002ED5D100232022EF
:104A3000236384F83D2084F83E30226C42F020024B
:104A4000E4E770B504460D46164623685B695B07CC
:104A500001D5002070BD2046FFF79EFFA8B96A1C53
:104A6000F3D001F019FD801BA84201D8002DECD134
:104A700000232022236384F83D2084F83E30226CFA
:104A800084F83C3042F0200222640120E2E770B555
:104A900004460D4616462068436913F0400301D0D2
:104AA000002010E04269D2060ED56FF0100242617C
:104AB0002022236384F83D2084F83E30226C226457
:104AC00084F83C30012070BD01F0E6FC801BA84258
:104AD00001D8002DDFD100232022236384F83D205C
:104AE00084F83E30226C42F02002E8E72DE9F843DA
:104AF000089E044690461F464FEA11498DB2216830
:104B0000B9F1010F0CBF4B698B6935EA03030CBF88
:104B100001230023984501D0002016E07B1CEFD034
:104B200001F0BAFC801BB84201D8002FE7D1002366
:104B30002022236384F83D2084F83E30226C84F8E0
:104B40003C3042F0200222640120BDE8F88370B5B9
:104B500004460D46164623685B691B0601D50020F6
:104B600070BD2046FFF718FFA8B96A1CF3D001F00A
:104B700093FC801BA84201D8002DECD100232022F9
:104B8000236384F83D2084F83E30226C84F83C3066
:104B900042F0200222640120E2E700002DE9FF41FB
:104BA000154602680B9E9846136843F480731360A1
:104BB0000F460A9B009600224FF001110446FFF7B2
:104BC00095FF236838B11B68DB0502D54FF40073ED
:104BD000236403200AE007F0FE071F610A9A1949BF
:104BE00033462046FFF7F2FE18B1012004B0BDE8BD
:104BF000F081236803905A6903929B6903933246BC
:104C00000A99039B2046FFF7A2FF40B1236C042BB7
:104C100001BF2268136843F400731360E5E7B8F13D
:104C2000010F236802D1EDB21D61DFE72A0A1A6184
:104C30000A9932462046FFF78AFF0028E6D123680A
:104C4000F1E700BF020001002DE9FF4116460268AE
:104C50000B9D9846136843F48063136002681368E1
:104C600043F4807313600F460A9B009500224FF0B7
:104C700001110446FFF73AFF236848B11B68DB05C2
:104C800002D54FF400732364032004B0BDE8F08123
:104C9000FFB207F0FE021A6129490A9A2B46204604
:104CA000FFF794FE08B10120EFE7236803905A69EB
:104CB00003929B6903932A460A99039B2046FFF7B8
:104CC00046FF40B1236C042B01BF2268136843F4F4
:104CD00000731360E7E7B8F1010F236825D1F6B23E
:104CE0001E612A460A992046FFF731FF0246002836
:104CF000E8D121680B6843F480730B6020460A9B5F
:104D000000954FF00111FFF7F1FE23680028B5D19F
:104D100047F001071F610A9A09492B462046FFF711
:104D200055FE003018BF0120AFE7320A1A610A9918
:104D30002A462046FFF70BFF0028C3D12368CEE7A1
:104D40000200010070B5044608B9012070BD90F85A
:104D50003D3003F0FF021BB980F83C20FEF7F6FF60
:104D60002268242384F83D30136823F00103136084
:104D70002268136843F4004313602268136823F425
:104D800000431360FFF79EFC424B62689A4294BF57
:104D9000414B424B98428CBF00230123002BD4D1BE
:104DA00022683F495368B0FBF1F123F03F030B4306
:104DB00053606668374B25689E4288BF4FF49673F0
:104DC0002A6A8ABF4B434B1C4FF47A7122F03F0290
:104DD00084BFB3FBF1F3013313432B622168636893
:104DE000CA692C4D22F44F42AB4222F0FF0200F17F
:104DF000FF3035D85B00B0FBF3F0431CC3F30B036B
:104E0000042B38BF04231343CB612168D4E9073056
:104E10000A68034322F0C00213430B602168D4E9FF
:104E200003038A6822F40342034322F0FF02134380
:104E30008B602168D4E90530CA68034322F0FF0281
:104E40001343CB602268136843F001031360002012
:104E50002023206484F83D30206384F83E0075E709
:104E6000A56855B903EB4303B0FBF3F0431CC3F350
:104E70000B036BB143F40043C5E719256B43B0FB4B
:104E8000F3F0431CC3F30B0313B143F44043BAE7FD
:104E90000123B8E7A08601007F841E00FF083D00C3
:104EA00040420F002DE9F743044699460F469046CD
:104EB0000C9E01F0F1FA94F83D30202B054603D00A
:104EC000022003B0BDE8F0830090192301223D4980
:104ED0002046FFF70BFE0028F2D194F83C30012B5E
:104EE000EED0012384F83C3023681A68D2075EBFF5
:104EF0001A6842F001021A602268136823F4006302
:104F00001360212384F83D30402384F83E30002391
:104F100023640A9B6362BDF82C306385638D23850F
:104F2000294BE362CDE900654B46424639462046AF
:104F3000FFF734FE00282DD00120C2E7FFF707FE5F
:104F400040B1236C042B01BF2268136843F4007343
:104F50001360F1E7626A236812781A61616A628DF0
:104F60004B1C6362238D013A92B2013B62859BB276
:104F700022682385506940070CD55BB14B781361DB
:104F8000636A01336362238D013B2385638D013B9B
:104F90009BB26385238D2A4631462046002BCDD116
:104FA000FFF74FFD0028CCD12268136843F400734B
:104FB0001360202384F83D3084F83C0084F83E00E0
:104FC0007FE700BF020010000000FFFF2DE9F04363
:104FD000044687B099460D469046109F01F05CFA52
:104FE00094F83D30202B064604D00225284607B011
:104FF000BDE8F08300901923012278492046FFF78D
:1050000075FD0028F1D194F83C30012BEDD001233F
:1050100084F83C3023681A68D0075EBF1A6842F0F3
:1050200001021A602268136823F4006313602223CC
:1050300084F83D30402384F83E30002323640E9BE7
:105040006362BDF83C306385638D2385644BE36206
:105050002946CDE900764B4642462046FFF7F4FD4F
:10506000054608B10125C1E7228D2368B2B9029037
:105070005A6902929A690292029A1A6842F400727C
:105080001A60DFF86081238D002B2FD1202284F855
:105090003D2084F83C3084F83E30A7E7012A0BD14C
:1050A0001A6822F480621A60236803905A69039296
:1050B0009A690392039AE0E7022A10D11A6822F44F
:1050C00080621A602268136843F4006313602368E7
:1050D00004905A6904929B690493049BD1E705905C
:1050E0005A6905929B690593059BCAE7032B58D81B
:1050F000012B15D1324639462046FFF7C8FC00285F
:10510000B0D123681A69636A1A70636A01336362F3
:10511000238D013B2385638D013B9BB26385B2E701
:10512000022B00963B464FF00002414620461AD122
:10513000FFF7DCFC002895D12268136843F4007364
:10514000136023681A69636A1A70626A531C636287
:10515000238D013B2385638D013B9BB263852368CF
:105160001B695370D1E7FFF7C1FC024600287FF4AA
:1051700079AF21680B6823F480630B602368196999
:10518000636A1970636A009601336362238D013B81
:105190002385638D013B9BB2638541463B46204698
:1051A000C6E7324639462046FFF771FC00287FF4F7
:1051B00059AF23681A69636A1A70626A531C636282
:1051C000238D013B2385638D013B9BB2638523685F
:1051D000596949077FF557AFC2E700BF02001000C9
:1051E0000000FFFF0400010010B590F83D30DBB275
:1051F000202B19D10468242280F83D20226822F057
:10520000010222600468626A22F01002626204688D
:10521000626A1143616201680A6842F001020A6031
:1052200080F83D30002010BD0220FCE730B590F83A
:105230003D20D2B2202A18D10568242380F83D30C1
:105240002C6824F001042C600468656A4FF6F07342
:105250002B400B439BB2636201680B6843F0010370
:105260000B6080F83D20002030BD0220FCE7704735
:1052700070470000074AD36823F4E0631B041B0C4B
:1052800043F0BF63000243F4003300F4E0600343E3
:10529000D360704700ED00E070B5174BDC68C4F3D5
:1052A0000224C4F10705042D04F1040328BF0425DA
:1052B0004FF0FF36062B06FA05F38CBF033C0024A3
:1052C00021EA0303A34006FA04F422EA04040028B6
:1052D00043EA0403A8BF00F160404FEA0313BCBFD8
:1052E00000F00F00054ADBB2AABF00F5614013547D
:1052F00080F8003370BD00BF00ED00E014ED00E069
:10530000002808DB4209012300F01F0003FA00F027
:10531000014B43F82200704700E100E000280DDB5C
:105320004309012200F01F0002FA00F02033044A72
:1053300042F82300BFF34F8FBFF36F8F704700BF5A
:1053400000E100E02DE9F041D1E907434A6AD1E9E3
:105350000158D1E903ECD1E905760968012943EA4E
:105360000403124904680FD01A432A4342EA08038F
:1053700043EA0E0343EA0C033B43214033430B4310
:1053800003600020BDE8F08113434268114045EA04
:10539000080242EA0E0242EA0C023A4324F4F844BC
:1053A000324323430A4303604260EAE70080FFFF81
:1053B000F0B5CB680C688E680D695F1E4B6904F10F
:1053C000FF3C4C688969013B1B05013C013E013DE6
:1053D0000139012A4FEA04144FEA06264FEA05452F
:1053E0004FEA016143EA07330CD043EA0C0323433D
:1053F000826833432B4302F070420B4313438360B4
:105400000020F0BD876827F4700727F4704744EA4E
:1054100006023B4342EA0C02C76883602A4307F056
:1054200070470A433A43C260EAE773B50023019329
:105430001546D1E900321343CA6843EA42238A6819
:10544000013A43EA42130193019B0361044601F0D0
:1054500023F80646A06910F0200003D06B1CF9D099
:1054600015B9032002B070BD01F016F8801BA842E8
:10547000F0D9F6E7436943EA4101416100207047F2
:105480002DE9F74FDFF8B8C16B4CDFF8B891DFF8C2
:10549000B881002301250A689D402A40954240F0CA
:1054A000B2804E6826F010065F004FF0030E013EFA
:1054B0000EFA07FE012E6FEA0E0E0FD88568CE6831
:1054C00005EA0E05BE402E4386604E684568C6F369
:1054D000001625EA02059E402E434660C5688E6888
:1054E00005EA0E05BE402E43C6604D6825F0100546
:1054F000022D14D14FEAD30A00EB8A0A03F0070BFE
:10550000DAF820604FEA8B0B0F2505FA0BF526EA37
:1055100005050E6906FA0BF62E43CAF820600568E9
:1055200005EA0E0E4D6805F00305BD4045EA0E057F
:1055300005604D68EE0066D54FF0000BCDF804B065
:10554000DCF844603D4D46F48046CCF84460DCF81D
:10555000446006F480460196019E23F0030606F19E
:10556000804606F59C3603F0030ED6F808A04FEAF5
:105570008E0E0F2707FA0EF7A8422AEA070749D02E
:1055800005F58065A84247D005F58065A84245D05D
:1055900005F58065A84243D0484543D0404543D0F7
:1055A00005F54065A84241D005F58065A8423FD089
:1055B00005F58065A8423DD005F58065A84214BF79
:1055C0000A25092505FA0EF53D43B5604D682768A3
:1055D000D643ED0354BF3740174327604D686768D3
:1055E000AD0354BF3740174367604D68A768ED02AD
:1055F00054BF37401743A7604D68E768AD0254BFFA
:1056000037401743E7600133102B7FF443AF03B0FB
:10561000BDE8F08F5D46D5E70125D3E70225D1E748
:105620000325CFE70425CDE70525CBE70625C9E708
:105630000725C7E70825C5E7003C014000000240F8
:105640000038024000100240001402400AB181619B
:1056500070470904FBE7F8B504460E4615461F4699
:1056600021688A6836EA020301D0002030E06B1C12
:10567000F7D000F011FFC01B8542F1D822685368B3
:1056800023F0E00353606368B3F5827F0BD1A36816
:10569000B3F5004F02D0B3F5806F04D122681368D0
:1056A00023F040031360A36AB3F5005F09D12268B9
:1056B000136823F4005313602268136843F4005303
:1056C0001360012384F85130002384F85030032004
:1056D000F8BD10B513464268B2F5827F04460BD17F
:1056E0008268B2F5004F02D0B2F5806F04D1206815
:1056F000026822F0400202606268B2F5827F0BD13C
:10570000A268B2F5806F0A4607D080212046FFF7D5
:10571000A2FF20B9002010BD0A460121F6E7636D03
:1057200043F0200363650320F5E7000073B51346DB
:10573000124A134E15684268B5FBF6F64FF47A75B7
:105740007543B2F5827F044601950BD10A4680214C
:10575000FFF781FF78B1636D43F020036365032099
:1057600002B070BD019B33B1019B013B01932368E3
:105770009B681B06F6D40020F2E700BF0C00002057
:1057800000366E0110B50446002839D0002383622C
:1057900090F8513003F0FF021BB980F85020FEF75B
:1057A000F7FB2268022384F85130136823F040038A
:1057B0001360D4E90023A1680B43E1680B4321691E
:1057C0000B4361690B43E1690B43216A0B43A16AF7
:1057D0000B43A16901F400710B431360638B616A91
:1057E000226803F004030B4353602268D36923F457
:1057F0000063D36100200123606584F8513010BD3F
:105800000120FCE72DE9F3411D4690F85030012BB3
:1058100004468846174600F09480012380F85030F3
:1058200000F03AFE064694F85100C0B2012840F05C
:105830008680B8F1000F58D0002F56D0032384F88B
:105840005130A368C4F830800020B3F5004FC4E99C
:10585000100008BF22686065A786E786A063A0875E
:10586000E08702BF136843F48043136023681A681B
:1058700052065EBF1A6842F040021A60E26863682E
:10588000B2F5006F3AD10BB1012F0AD12368226B18
:105890001288DA60236B02332363E38E013B9BB2F1
:1058A000E386E38E9BB2A3B9324629462046FFF732
:1058B0003DFF002840D1A36833B901932368DA681B
:1058C00001929B680193019B606D003018BF01201D
:1058D0000BE023689A689007D9D400F0DDFD801BA7
:1058E000A842DED3691CDCD00320012384F85130A8
:1058F000002384F8503002B0BDE8F0810BB1012FD5
:105900000AD12368226B12781A73236B0133236345
:10591000E38E013B9BB2E386E38E9BB2002BC3D0A8
:1059200023689A689207EDD400F0B6FD801BA84268
:10593000F2D36B1CF0D0D7E720236365BBE70220CE
:10594000D3E70220D7E72DE9F7431D4690F8503002
:105950000A9E012B04468846914600F0E980012307
:1059600080F8503000F098FD94F85130DBB2012BF4
:1059700007460BD06268B2F5827F40F0D780A268FC
:10598000002A40F0D380042B40F0D080B8F1000F03
:1059900000F0CA80B9F1000F00F0C680002D00F0C1
:1059A000C38094F85130C4F83890042B1CBF0523F1
:1059B00084F851300023C4E9103363652368E58718
:1059C000A587C4F83080E586A5861A6852065EBFB2
:1059D0001A6842F040021A60E2686368B2F5006F2C
:1059E0005DD10BB1012D0AD1226B23681288DA60D8
:1059F000236B02332363E38E013B9BB2E3860125D5
:105A0000E38E9BB2ABB9E38F9BB293B93A46314672
:105A10002046FFF78BFE002840F08480A368002B0F
:105A200034D123680190DA6801929B680193019B4D
:105A30002CE02268936898070ED5E38E9BB25BB189
:105A400055B1236B1B88D360236B02332363E38E32
:105A5000013B9BB2E386002522689368D9070DD5E8
:105A6000E38F9BB253B1A36BD2681A80A36B02334E
:105A7000A363E38F013B9BB2E387012500F00CFD9C
:105A8000C01B8642BCD8731CBAD00320012384F803
:105A90005130002384F8503003B0BDE8F0830BB1DF
:105AA000012D0AD1226B236812781A73236B0133FC
:105AB0002363E38E013B9BB2E3860125E38E9BB219
:105AC0001BB9E38F9BB2002BA0D022689368980784
:105AD0000ED5E38E9BB25BB155B1236B1B7813736C
