:020000040800F2
:1000000000000320698F00088D3C00088F3C000829
:10001000913C0008933C0008953C0008000000005B
:1000200000000000000000000000000071870008D0
:10003000973C00080000000001880008658800085F
:10004000B98F0008B98F0008B98F0008B98F000870
:10005000B98F0008B98F0008B98F0008B98F000860
:10006000B98F0008B98F0008B98F0008B98F000850
:10007000B98F0008B98F0008B98F0008B98F000840
:10008000B98F0008B98F0008B98F0008B98F000830
:10009000B98F0008B98F0008B98F0008B98F000820
:1000A000B98F0008B98F0008B98F0008B98F000810
:1000B000B98F0008B98F0008B98F0008B98F000800
:1000C000B98F0008B98F0008B98F0008B98F0008F0
:1000D000B98F0008B98F0008B98F0008B98F0008E0
:1000E000B98F0008B98F0008B98F0008B98F0008D0
:1000F000B98F0008B98F0008B98F0008B98F0008C0
:10010000B98F0008B98F0008B98F0008B98F0008AF
:10011000B98F0008B98F0008993C0008B98F000812
:10012000B98F0008B98F0008B98F0008B98F00088F
:10013000B98F0008B98F0008B98F0008B98F00087F
:10014000B98F0008B98F0008B98F0008B98F00086F
:10015000B98F0008B98F0008B98F0008B98F00085F
:10016000B98F0008B98F0008B98F0008B98F00084F
:10017000B98F0008B98F0008B98F0008000000008F
:10018000B98F0008B98F0008B98F0008B98F00082F
:10019000B98F0008B98F0008B98F0008B98F00081F
:0C01A000A53C0008B98F0008B13C000825
:1001B00010B5054C237833B9044B13B10448AFF3A1
:1001C00000800123237010BD6001002000000000AA
:1001D000BCC5010808B5034B1BB103490348AFF385
:1001E000008008BD0000000064010020BCC50108BB
:1001F00053B94AB9002908BF00281CBF4FF0FF318E
:100200004FF0FF3000F072B9ADF1080C6DE904CE8B
:1002100000F006F8DDF804E0DDE9022304B07047E1
:100220002DE9F047089E04468846002B4BD18A42B0
:10023000154667D9B2FA82F24AB1C2F1200701FA33
:1002400002F320FA07F7954047EA030894404FEA83
:10025000154E230CB8FBFEF71FFA85FC0EFB178822
:1002600043EA084307FB0CF1994209D9EB1807F15F
:10027000FF3080F01B81994240F21881023F2B44ED
:100280005B1AA4B2B3FBFEF00EFB103344EA034446
:1002900000FB0CFCA44509D92C1900F1FF3380F0B8
:1002A0000781A44540F2048102382C4440EA07400B
:1002B000A4EB0C0400271EB1D4400023C6E9004380
:1002C0003946BDE8F0878B4209D9002E00F0EB805B
:1002D0000027C6E9000138463946BDE8F087B3FA81
:1002E00083F7002F47D18B4202D3824200F2FA807B
:1002F000841A61EB030301209846002EE0D0C6E982
:100300000048DDE702B9FFDEB2FA82F2002A40F0CF
:100310008F80491B4FEA154E1FFA85F80127B1FB64
:10032000FEFC230C0EFB1C1143EA014308FB0CF1FD
:10033000994207D9EB180CF1FF3002D2994200F232
:10034000CD808446591AA3B2B1FBFEF00EFB101407
:1003500043EA044408FB00F8A04507D92C1900F132
:10036000FF3302D2A04500F2B6801846A4EB080481
:1003700040EA0C409FE7C7F1200CBB4022FA0CFE7C
:100380004EEA030E01FA07F420FA0CF521FA0CF3F9
:100390004FEA1E482543B3FBF8F92C0C08FB193330
:1003A0001FFA8EFA44EA034309FB0AF49C4202FA5C
:1003B00007F200FA07F10BD91EEB030309F1FF3036
:1003C00080F087809C4240F28480A9F10209734446
:1003D0001B1BADB2B3FBF8F008FB103345EA034436
:1003E00000FB0AFAA24508D91EEB040400F1FF3312
:1003F0006BD2A24569D90238744440EA0940A0FB97
:100400000289A4EB0A044C45C2464B4654D351D052
:10041000002E69D0B1EB0A0564EB030404FA0CFC6E
:10042000FD40FC404CEA0505C6E90054002747E7BB
:10043000C2F1200320FA03F7954001FA02F021FAF5
:1004400003F34FEA154E3843010CB3FBFEF71FFAD6
:1004500085F80EFB173341EA034107FB08F38B4293
:1004600004FA02F407D9691807F1FF3C2FD28B4236
:100470002DD9023F2944CB1A81B2B3FBFEF00EFB0B
:10048000103341EA034100FB08F38B4207D9691896
:1004900000F1FF3C17D28B4215D902382944C91A02
:1004A00040EA07473BE73746304609E70746E7E6B5
:1004B0001846FBE64145ABD2B8EB020A69EB0E02E7
:1004C00001381346A4E76046E9E7184695E7674612
:1004D000D1E781467CE702382C4447E7ACF1020CB7
:1004E0002B442FE7384608E73746E9E6704700BF58
:1004F00001F0FF01102A2BDB10F0070F08D010F8D5
:10050000013B013A8B422DD010F0070F42B3F6D1D8
:10051000F0B441EA012141EA014122F007047FF0F1
:1005200000070023F0E80256083C85EA010586EA48
:10053000010685FA47F5A3FA87F586FA47F6A5FA84
:1005400087F68EB9EED1F0BC01F0FF0102F0070290
:1005500032B110F8013B013A83EA010313B1F8D13B
:100560000020704701387047002D06BF354603381C
:10057000073815F0010F07D1013015F4807F02BF55
:10058000013015F4C03F0130F0BC0138704700BFA6
:1005900081807047C18070470181704741817047F9
:1005A00070477047704770477047C38810B4D21ABD
:1005B00083885DF8044BC91A036812B21B6D09B237
:1005C0001847806A7047C0F88419704710B5044610
:1005D00000F0DCFF002384F8803910BDB03000F05B
:1005E00007B9B03000F007B910B590F8803983F042
:1005F000010380F8803900F1B0046BB1D0F88409B0
:1006000090F880391BB10368D3F8883098472046AA
:10061000BDE8104000F0F2B82046BDE8104000F000
:10062000F0B800000A4B70B50360044600F51F7671
:1006300000F55F739E4208D0A3F1400553F8403C9B
:1006400028461B6898472B46F4E7204670BD00BF3C
:1006500020C9010810B50446FFF7E4FF20464FF417
:1006600069711BF00BF8204610BD000010B5044B5B
:10067000044640F8683BFFF7D5FF204610BD00BF99
:10068000B8CB010810B5064B0360044600F2BC402D
:10069000FFF7ECFF04F1B000FFF7E8FF204610BDC4
:1006A00030CF010810B50446FFF7ECFF204640F6B6
:1006B00088111AF0E3FF204610BD10B50446FFF77D
:1006C000D5FF204640F20C411AF0D8FF204610BD5D
:1006D00010B5044601F022F8014B2360204610BDFE
:1006E0001CC60108C0F88419704710B5044601F013
:1006F00017F9002384F8803910BD00F2645000F02F
:100700005FB800F2645000F05EB810B590F8803920
:1007100083F0010380F8803900F264546BB1D0F8A3
:10072000840990F880391BB10368D3F88830984762
:100730002046BDE8104000F049B82046BDE8104012
:1007400000F047B810B5044B044640F8683BFFF78B
:1007500069FF204610BD00BF70D0010810B5064BE0
:100760000360044600F26450FFF7ECFF04F5AC7040
:10077000FFF7E8FF204610BDDCCF010810B50446A6
:10078000FFF7ECFF204640F688111AF077FF20466D
:1007900010BD10B50446FFF7D5FF204640F20C41CE
:1007A0001AF06CFF204610BD10B5044601F0CEF8DB
:1007B000014B2360204610BDBCC6010801F0A4B95E
:1007C000683000F05DB8683000F03DB8683000F087
:1007D000B6B8683000F0C5B810B5044601F0B0F9FD
:1007E000014B2360204610BD5CC7010800F0C6BB6A
:1007F000683000F045B8683000F025B8683000F087
:100800009EB8683000F0ADB810B5044600F0D2FBD9
:10081000014B2360204610BDFCC701080020704733
:100820004FF6FF7383814FF0FF3303621368C36198
:100830001060704790F825201AB190F8242002B17A
:1008400018607047704770B503680446D3F89C3051
:100850000D469847D4F8981329444B1C03D1002324
:10086000C4F8983303E0042908D0C4F89813236827
:100870002046D3F89830BDE8704018470323EFE7CF
:100880004B1C10D001290AD1B0F8983300EB830338
:10089000D3F88023082A02DC0132C3F880230368DE
:1008A000D3F8A0301847B0F8983300EB8303D3F89F
:1008B0008023002AF3DD013AEFE7FDEEC07A37B579
:1008C00017EE901A642391FBF3F14B4307EE903A35
:1008D000F8EEE77A0A2370EE677ABDEEE77A17EE54
:1008E000102A92FBF3F203FB02F400EE104AB8EE7A
:1008F000C00A046837EEC00AFDEEC07AB8EEE77AA7
:1009000030EE470ABDEEC00A10EE105A6B4300935A
:10091000D4F8884017EE903AA04703B030BD10B429
:10092000C0F88433019BC0F880330368C0F88C138F
:10093000C0F88823D3F8A0305DF8044B1847B0F80E
:10094000983300EB83030122D3F8683283F8252023
:10095000B0F8983300EB8300D0F8680203685B6955
:100960001847B0F8983300EB83030022D3F86832BD
:1009700083F82520B0F8983300EB8300D0F86802A4
:1009800003685B69184710B5082104461AF076FE23
:10099000204610BD38B51A4DD0F8803304462A469B
:1009A0000A2100F506700EF033FDD4F884332A4690
:1009B0000A2104F50B700EF02BFDD4F888332A467B
:1009C0000A2104F510700EF023FDD4F88C332A466A
:1009D0000A2104F515700EF01BFD04F5EC700CF007
:1009E000A6FD04F5CC700CF0A2FD04F5AC700CF083
:1009F0009EFD04F1DC00BDE838400CF098BD00BF5E
:100A0000A4C80108F8B504461E4E1F4D00F0B0FB07
:100A10001E4B23600022A4F8782204F51F7304F50E
:100A20005F7001274FF6FF719A80DA801A815A8130
:100A30009A81DA811A825A82DA611A845A8483F896
:100A4000242083F825709E6299851A639A8683F81C
:100A5000361083F8372083F8382083F839201D605A
:100A6000DA63C3E9052240338342DDD16FF07F436F
:100A7000A4F87C23A4F89023C4F89C33A4F8A01312
:100A80002046F8BD9CC80108B4EA010820C9010845
:100A900010B504460A46224944F8041B111D0346BA
:100AA00003C984E8030002F10C0103C903F10C043B
:100AB00084E803005169596191699961D169D961EB
:100AC000B2F920101984B2F92210598492F8241036
:100AD00083F8241092F8251083F825101149196025
:100AE00011499962918D9985116B1963B2F934108E
:100AF000998692F8361083F8361092F8371083F8FA
:100B0000371092F8381083F8381092F8391083F8BB
:100B1000391006491960D26BDA63184610BD00BF60
:100B200020EE0108A8E901089CC80108B4EA010800
:100B300008B5038A032B06D9054B064A06484FF42D
:100B4000C1711AF0A7FD5A1C028240F8231008BD9B
:100B5000A7C801083DCA0108D6C8010810B5B0F8F9
:100B60000031032B0A4606D9214B224A22484FF472
:100B7000C1711AF08FFD591CA0F80011111D00EB76
:100B8000831303C91C1D84E8030002F10C0103C98F
:100B900003F10C0484E8030051695961916999617A
:100BA000D169D961118C1984518C598492F824101F
:100BB00083F8241092F8251083F82510918D9985DB
:100BC000116B1963918E998692F8361083F836105E
:100BD00092F8371083F8371092F8381083F83810ED
:100BE00092F83910D26B83F83910DA6310BD00BF68
:100BF000A7C80108C4C90108D6C8010808B5038AF6
:100C0000032B06D9054B064A06484FF4C1711AF06A
:100C100041FD5A1C028240F8231008BDA7C80108F4
:100C2000A5CA0108D6C801082DE9F047044690B0CE
:100C3000002504F51A7604F12C0700F030FA04F1CF
:100C4000580A39463046C4F89453C4F89853FFF70D
:100C50006FFF04F1840951463046FFF769FF04F144
:100C6000B00849463046FFF763FF41463046FFF77C
:100C70005FFF04F51F7604F1DC016846FFF708FF0B
:100C800069463046FFF76AFF04F5AC716846FFF726
:100C9000FFFE69463046FFF761FF04F5CC716846F8
:100CA000FFF7F6FE69463046FFF758FF04F5EC7192
:100CB0006846FFF7EDFE6946304604F56076FFF7BB
:100CC0004DFF30460121FFF799FF30460221FFF723
:100CD00095FF30460321FFF791FF04213046FFF7CF
:100CE0008DFF23682046D3F8A0309847504684F8FB
:100CF0007D5084F8A95084F8D55084F851500CF0F8
:100D000016FC48460CF013FC40460CF010FC38462C
:100D10000CF00DFC10B0BDE8F087704770477047CD
:100D2000704738B5044604F5476504F53A7400F099
:100D3000C4FF21462846FFF746FC29462046BDE869
:100D40003840FFF7CFBC41F2F053C35C23B101211F
:100D500000F54760FFF742BC90F8683C23B10121E1
:100D600000F53A70FFF7C9BC704741F2F053C35C1D
:100D70002BB14FF0FF3100F54760FFF72FBC90F823
:100D8000683C2BB14FF0FF3100F53A70FFF7B5BC6E
:100D9000704741F2F053C35C2BB14FF0FF3100F5C7
:100DA0004760FFF71EBC90F8683C2BB14FF0FF3155
:100DB00000F53A70FFF7A5BC704741F2F053C35CF1
:100DC00023B1012100F54760FFF70BBC90F8683CA8
:100DD00023B1012100F53A70FFF793BC7047000082
:100DE00038B50446084B094D0360C0F8645500F25D
:100DF000CC50FFF717FCC4F8585104F5E070FFF72A
:100E000011FC204638BD00BFDCCF010870D00108BE
:100E100010B50446FFF7E4FF20464FF418611AF0BE
:100E20002DFC204610BD000038B50446084B094D86
:100E30000360C0F8BC5400F22450FFF7F3FBC4F881
:100E4000B05004F58C70FFF7EDFB204638BD00BFB5
:100E500030CF0108B8CB010810B5094B0360094B2E
:100E6000C0F8703C044600F54760FFF7DDFF064B15
:100E7000C4F8E83204F53A70FFF7B2FF204610BD1F
:100E8000B8D101081CC60108BCC6010810B504464B
:100E9000FFF7E2FF204641F20C611AF0EFFB20461B
:100EA00010BD10B50446FFF7BFFF20464FF4186190
:100EB0001AF0E4FB204610BD10B5044600F0E2FF36
:100EC000014B2360204610BD08CB01087047043851
:100ED0007047704710B5102104461AF0CFFB20462A
:100EE00010BDA0F10400F5E710B500228260044AAD
:100EF000C16002F1080420320460426010BD00BFEE
:100F000044CB01080022026070477047704700F52B
:100F100096730868496803C37047704710B54FF46B
:100F2000AC7104461AF0AAFB204610BD10B5044669
:100F3000D0F85401FFF7E9FF2046BDE810400BF060
:100F400047BA10B50446D0F83C0158B10368DB68D5
:100F5000984738B1D4F83C0103689B689847002350
:100F6000C4F83C3110BD000010B5044601F00AF988
:100F7000014B2360204610BD74CB01086830FFF799
:100F800053BE000010B5044B044640F8683BFFF721
:100F900049FB204610BD00BFB8CB010810B5044680
:100FA000FFF7F0FF204640F20C411AF067FB2046A5
:100FB00010BD00002DE9F34106460025324A858028
:100FC0000123C580058145818581C58105824582D2
:100FD000C0E90555C5610584458480F8245080F832
:100FE0002530856246F82C2B058645868586C58684
:100FF000058745878587C587C0E910558564A0F8B2
:101000004C50A0F84E5080F8505080F851301F4B93
:10101000C3624FF6FF73DFF88080A0F8583000F10C
:1010200068074FF47F030446C0F85480C565036623
:1010300080F8645080F865503846FFF7E3FC144BA5
:10104000A36030464421FFF7A3FA30460321FFF79F
:10105000A1FA4FF07F43E36569463046A4F860503B
:10106000CDF80080ADF8045009F081FC094BE3662F
:101070003146204608F09EF82046394608F09AF896
:10108000204602B0BDE8F081B8CB0108A8E901080C
:10109000560024000F0002009CC8010870477047EA
:1010A00010B54FF41A7104461AF0E8FA204610BD44
:1010B0000A4A026000228280C280028142818281CB
:1010C000C28102824282C0E90522C2610284428456
:1010D00080F82420012280F82520704720EE0108A6
:1010E00070B503680446DB6A1546984723682946AD
:1010F00020461B6BBDE870401847000038B526221B
:1011000004460D4600211AF040FB2046FFF7D0FFB1
:10111000064B23602B88E384FF23204684F8283085
:10112000294609F064FD204638BD00BF5CEB01088C
:1011300010B52622044600211AF027FB2046FFF7AF
:10114000B7FF094B2360094BA3624FF6FF73A385DA
:101150004FF47F020023C4E90C3284F8383084F85D
:101160003930204610BD00BFA8E901089CC801081D
:101170002DE9F04F04468BB00AAE27460025FFF755
:1011800097FF4FF6FF78C94B26F8088DA56247F800
:101190002C3B31463846FFF7B1FF04F15803314686
:1011A00018460393ADF82080FFF7A8FF04F18403ED
:1011B000314618460493ADF82080FFF79FFF04F1F5
:1011C000B003314618460593ADF82080FFF796FF2F
:1011D00004F1DC031846DFF8F8820193FFF7A8FF5B
:1011E00004F58E73C4F8DC801846C4F818510693D1
:1011F000FFF79EFF04F5AC73184604F5CC7B029311
:1012000004F5EC79FFF794FFC4F85881C4F89451C1
:101210005846FFF78DFFC4F89881C4F8D45148466A
:10122000FFF786FFA24BC4F8D8811022A3603121BA
:101230003846C4F81452FFF753FF072331463846A7
:1012400084F85150ADF8203009F0D1FC05221E2160
:101250000398DFF880A2FFF743FF4FF006083146FE
:10126000039884F87D50ADF8208009F0C0FC052279
:101270000F210498FFF734FF3146049884F8A950F1
:10128000ADF8208009F0B3FC052229460598FFF748
:1012900027FF3146059884F8D550ADF8208009F035
:1012A000A6FC0F2231210198FFF71AFF4FF07F4370
:1012B000C4F80C31DAF80030A4F8105104F50678BF
:1012C0002BB97C4B7C4AAE217C481AF0E3F97C4B6D
:1012D0001B88222B03D87B4B774AAF21F4E77A4B4C
:1012E0002221186801F072FB784A03460A21404621
:1012F0000EF08EF8C4F818810198DFF8DC8109F04F
:1013000019FB212331460198ADF82430CDF8208017
:1013100009F02DFB0F222C210698FFF7E1FE4FF07C
:101320007F422023C4F84C2131460698A4F850513E
:10133000ADF82430CDF8208009F019FB2A461E2193
:101340000298FFF7CDFE4FF07F42DAF80030C4F884
:10135000882104F50B72A4F88C510792002BB0D0B1
:10136000574A13881F2BB6D9574B1F21186801F015
:101370002DFB564A03460A2107980EF049F80799B3
:10138000C4F89411029809F0D5FA1E233146029848
:10139000ADF82430CDF8208009F0E9FA0F212A4673
:1013A0005846FFF79DFE4FF07F41DAF80030C4F851
:1013B000C81104F51071A4F8CC510791002B80D00E
:1013C0003F4A1388242B86D93F4B2421186801F00B
:1013D000FDFA3E4A03460A2107980EF019F80799CC
:1013E000C4F8D411584609F0A5FA1D2331465846D1
:1013F000ADF82430CDF8208009F0B9FA29462A4604
:101400004846FFF76DFEDAF80030A4F80C524FF0B2
:101410007F41C4F8081204F51575002B3FF451AF55
:10142000274A1388232B7FF656AF274B23211868B2
:1014300001F0CCFA254A03460A2128460DF0E8FFC0
:101440004846C4F8145209F075FA1C233146484640
:10145000ADF82430CDF8208009F089FA39462046CD
:1014600007F0A8FE0399204607F0A4FE0499204641
:1014700007F0A0FE0599204607F09CFE0199204642
:1014800007F098FE0699204607F094FE0299204640
:1014900007F090FE5946204607F08CFE204649464C
:1014A00007F088FE20460BB0BDE8F08F20CD010884
:1014B0004500210040CC0108A8CD010882CC0108DC
:1014C00044350120C3CC01084C35012015CD01085D
:1014D000B4EA0108403501209CC8010870477047F4
:1014E0007047704730B4C56844686A100346ED071A
:1014F00004EB02009B6848BFA25830BC48BFD358D9
:10150000184743682BB183682BB9C06800F001000D
:101510007047184670470120704790F82D3080F8CA
:101520009A3080F85C30704790F82D3080F85C304D
:1015300070470146343091F82C3013B1623109F014
:1015400056BB6031FBE708B590F82C3033B1D0F8CA
:10155000A430C0F89430FFF7ECFF08BDD0F8A030FD
:10156000F7E710B5642104461AF088F8204610BD4C
:1015700010B5A82104461AF081F8204610BD10B518
:10158000102104461AF07AF8204610BD10B5044622
:10159000B030FFF72BF904F2BC40BDE81040FFF774
:1015A00025B910B50446006B50B10368DB68984755
:1015B00030B1206B036821469B68BDE81040184796
:1015C00010BD00F6C8028A4203D10368D3F8883000
:1015D0001847704770B50B7990F82C5004460E46AA
:1015E00053B955B13379012B17D123682046D3F86D
:1015F0008430BDE8704018477DB1B3FA83F35B09CE
:1016000084F82C3023682046D3F888309847236824
:1016100020465B699847002DE4D170BD70B5036822
:1016200004465B6B154698472368294620469B6B0A
:10163000BDE87040184770B50B88A0F860300546CB
:10164000138825F8623F044628460DF0C1FF064680
:1016500028460DF0F7FF31B202B22046FFF7DEFF59
:1016600023682046D3F88830BDE870401847000052
:10167000F7B50446FFF71CFDFF23264684F82D30FE
:101680000123002584F82430204BA56202A984F8A8
:101690002C50256346F8343B4FF6FF7721F8047D44
:1016A0003046FFF72BFD2A4629463046A4F86070E5
:1016B000A4F86270FFF714FD31462046264607F075
:1016C00079FD134B46F8643B2622294630461AF032
:1016D0005CF83046FFF7ECFC0E4B63660E4BC4F82B
:1016E0008C304FF47F032046A4F89070C4F89450D7
:1016F000C4F8983084F89C5084F89D50C4E928556B
:10170000314607F057FD204603B0F0BDE0CD01089B
:101710007CCE0108A8E901089CC801082DE9F04F1A
:10172000044687B006ADA0460026FFF7C1FC4FF681
:10173000FF77634B25F8087DA66248F82C3B04F13F
:10174000580A29464046FFF7D9FC04F18409294686
:101750005046ADF81070FFF7D1FC29464846ADF869
:101760001070FFF7CBFC04F1B00318460193FFF7AC
:101770004BF804F2BC43184604F6C8070093FFF781
:1017800043F83846FFF774FF4E4AC4F870294E4AB2
:10179000C4F878294D4AA26031464046C4F87449DD
:1017A000C4F87C691E22FFF79BFC082229464046AC
:1017B000ADF8102009F01BFA504625226B21FFF7E7
:1017C0008FFC0A2229465046ADF8102009F00FFA86
:1017D000484625220721FFF783FC0922294648466F
:1017E000ADF8102009F003FA019B252218460721C5
:1017F000FFF776FC009825226B21FFF771FC0B2286
:10180000ADF80C200C22ADF8102003A92A4638466A
:10181000FFF711FF3246314604F6FC00FFF760FC8B
:1018200004F62C1B2A4A049229461B225846ADF87E
:10183000142009F09CF8B4F9D228B4F9D01858460D
:10184000FFF7ECFE324631465846FFF749FCC82107
:1018500058461E22FFF7E2FE1E4AC4F86829C4F863
:101860006C293846FFF76FFE324631463846FFF79F
:1018700037FC38461E22C821FFF7D0FE04F5176258
:10188000C4F8F8284146204607F094FC514620460B
:1018900007F090FC4946204607F08CFC019B20464F
:1018A000194607F087FC0099204607F083FC204684
:1018B000394607F07FFC204607B0BDE8F08F00BF37
:1018C00030CF010818CF0108C3150008C800500028
:1018D0009CC801080A0A0AFF7047704730B4C568FF
:1018E00044686A100346ED0704EB02009B6848BF9A
:1018F000A25830BC48BFD358184743682BB18368FF
:101900002BB9C06800F001007047184670470120ED
:10191000704710B51021044619F0B0FE204610BDE6
:1019200010B5044600F5AC70FEF748FF04F26450B1
:10193000BDE81040FEF742BF00F1B0028A4203D179
:101940000368D3F888301847704700002DE9F04F3E
:10195000044687B006ADA0460026FFF7A9FB4FF668
:10196000FF77634B25F8087DA66248F82C3B04F10D
:10197000580A29464046FFF7C1FB04F1840929466D
:101980005046ADF81070FFF7B9FB2946ADF810705E
:10199000484604F1B007FFF7B1FB3846FFF768FE91
:1019A00004F5AC7318460193FEF716FF04F2645376
:1019B00018460093FEF710FF4E4AC4F870294E4AAD
:1019C000C4F878294D4AA26031464046C4F87449AB
:1019D000C4F87C691E22FFF783FB08222946404693
:1019E000ADF8102009F003F9504625226B21FFF7CE
:1019F00077FB0A2229465046ADF8102009F0F7F887
:101A0000484625220721FFF76BFB09222946484655
:101A1000ADF8102009F0EBF80B22ADF80C200C22E9
:101A2000ADF8102003A92A463846FFF704FE3246D7
:101A3000314604F1E400FFF753FB04F58A7B304A9A
:101A40000492294606225846ADF8142008F08FFF6C
:101A5000B4F9BA20B4F9B8105846FFF7DFFD3246A2
:101A600031465846FFF73CFBC82158461E22FFF777
:101A7000D5FD244AC4F85021C4F854213846FFF754
:101A800062FD324631463846FFF72AFB38461E22B1
:101A9000C821FFF7C3FD019B04F517621846C4F87F
:101AA000E0206B212522FFF71BFB25220098072150
:101AB000FFF716FB4146204607F07CFB51462046C7
:101AC00007F078FB4946204607F074FB394620466C
:101AD00007F070FB019B2046194607F06BFB204680
:101AE000009907F067FB204607B0BDE8F08F00BF04
:101AF000DCCF0108C4CF010839190008C800500024
:101B00009CC801080A0A0AFF6830FFF78DB8000078
:101B100010B5044B044640F8683BFEF783FD2046B1
:101B200010BD00BF70D0010810B50446FFF7F0FFEC
:101B3000204640F20C4119F0A1FD204610BD0000E6
:101B40002DE9F743064600250127324B8580C580E5
:101B5000058145818581C58105824582C0E905559C
:101B6000C5610584458480F8245080F8257085621D
:101B700046F82C3B284B058645868586C586058715
:101B800045878587C587C0E910558564A0F84C5006
:101B9000A0F84E5080F8505080F85170C3624FF654
:101BA000FF73DFF88090A0F8583000F168084FF418
:101BB0007F030446C0F85490C565036680F86450FE
:101BC00080F865504046FEF71DFF144BA360304679
:101BD0004421FEF7DDFC30460321FEF7DBFC4FF02D
:101BE0007F43E36569463046A4F86050CDF8009025
:101BF000ADF8047008F0BBFE094BE36631462046A1
:101C000007F0D8FA2046414607F0D4FA204603B040
:101C1000BDE8F08370D00108A8E90108560024004F
:101C20000F0002009CC8010870477047704770475A
:101C3000704770477047704730B4C56844686A1091
:101C40000346ED0704EB02009B6848BFA25830BC76
:101C500048BFD358184743682BB183682BB9C06875
:101C600000F001007047184670470120704790F857
:101C70002D3080F8903080F85C30704710B594219A
:101C8000044619F0FBFC204610BD10B51021044697
:101C900019F0F4FC204610BD10B50446683094F8E5
:101CA0002C303BB104F1660108F0A1FF2046FFF79C
:101CB00040FC10BD04F16401F6E710B5044600F5E0
:101CC0003A70FEF712FD04F54760BDE81040FEF7DC
:101CD0007DBC00F19802914202D103689B6B1847CA
:101CE00000F59672914202D103685B6BF7E700F54D
:101CF000E072914202D10368DB6AF0E700F51572E9
:101D0000914202D103681B6BE9E770472DE9F04768
:101D10000B88A0F864301388A0F866300446B0F948
:101D20000850104617460DF053FC81463846B4F96A
:101D30000A600DF087FC4FF0020895FBF8F596FB62
:101D4000F8F6ADB2B6B2A6EB5002A5EB590104F11C
:101D5000680012B209B2FFF7C3F923682046D3F82E
:101D60008830BDE8F047184738B504461D46FFF7F0
:101D7000B7F9BDF9102029462046FFF74FFC38BDC2
:101D800010B526220446002119F0FFFC2046FFF77B
:101D90008FF9044B2360FF2384F826300023A362CD
:101DA000204610BD50EA010810B5094B0360094BED
:101DB000C0F8703C044600F54760FFF735F8064B65
:101DC000C4F8E83204F53A70FFF70AF8204610BD6F
:101DD000B8D101081CC60108BCC6010810B50446EC
:101DE000FFF7E2FF204641F2086119F047FC204668
:101DF00010BD00002DE9F3410446FFF759F9FF2318
:101E0000264684F82D3002AF01234FF6FF754FF0C0
:101E1000000884F82430194B27F8045DC4F82880A2
:101E200084F82C80C4F8308046F8343B394630467C
:101E3000FFF764F9424641463046A4F86050A4F8E2
:101E40006250FFF74DF93146204607F0B3F904F12F
:101E500068060B4B23603946A4F86450A4F866501A
:101E60003046ADF80450FFF749F92046314607F0F7
:101E7000A1F9204602B0BDE8F08100BFE0CD010825
:101E800000D101082DE9F04F04468BB0274600250C
:101E90000BF0EAFD954BE56347F8403B3846FFF70A
:101EA0006FFF04F16C0318460593FFF769FF04F117
:101EB000980304F596791846039304F5E07BFFF741
:101EC00099FF4846FFF796FF04F5157A5846FFF745
:101ED00091FF5046FFF78EFF04F53A7318460693BC
:101EE000FEF762FC04F5476318460793FEF7F0FB24
:101EF00041F2F853E21804927D4AE250049B7D4A75
:101F00005C6004F5B0534FF4A0781A6041F20463AA
:101F1000CDF80080E5502A46294638464FF07F46E6
:101F2000F023FFF721FFA666CDF800802A46294658
:101F30000598F023FFF718FFC4F894600AAE012358
:101F400026F8043D08A932460398ADF82050FFF763
:101F500072FB2A46294604F1CC00FFF7C1F80D2395
:101F6000324608A90398ADF82030ADF824304FF080
:101F70005008FFF7CBFE604BC4F80431CDF8008069
:101F800003983C23DC221421FFF7EEFE049AC4F8E8
:101F9000C8200223ADF820303246032308A9484662
:101FA000ADF82430FFF747FB2A46294604F5B07008
:101FB000FFF796F81023324608A94846ADF82030BE
:101FC000ADF82430FFF7A2FE4B4BC4F89831CDF8A2
:101FD000008048463C23DC22A021FFF7C5FE049B7D
:101FE000C4F85C314FF005084FF00403324608A9ED
:101FF0005846ADF82030ADF82480FFF71CFB2A4688
:10200000294604F5FA70FFF76BF80F23324608A94A
:102010005846ADF82030ADF82430FFF777FE122295
:10202000C4F82C222722009258464C23DC2252214D
:10203000FFF79AFE049BC4F8F03132464FF00403D8
:1020400008A95046ADF82030ADF82480FFF7F3FA28
:102050002A46294604F52270FFF742F80E2332463D
:1020600008A95046ADF82030ADF82430FFF74EFEF9
:102070001223C4F8C0322723009350464C2340F269
:1020800005125221FFF770FE049BC4F884320698B3
:1020900078221421FFF724F814221146251D0798F1
:1020A000FFF71EF83946284607F084F805992846B8
:1020B00007F080F80399284607F07CF8494628463F
:1020C00007F078F85946284607F074F85146284634
:1020D00007F070F80699284607F06CF8284607992B
:1020E00007F068F820460BB0BDE8F08FB8D10108C2
:1020F000A0D10108D31C00080A00140070477047E3
:102100004160704770470123037270477047704702
:1021100010B4C468416862100346E40701EB020092
:102120009B6848BF8A585DF8044B48BFD35818478E
:1021300043682BB183682BB9C06800F00100704779
:10214000184670470120704710B50C21044619F05D
:1021500095FA204610BD10B54FF4AC71044619F045
:102160008DFA204610BD10B51021044619F086FAEC
:10217000204610BD10B50AF057FA0368BDE81040BC
:102180001B6B1847F8B5044617460E460AF06CFA62
:10219000144BC4F854611C60134E144B236000258B
:1021A0003068134BC4F83851C4F83C51C4F840317E
:1021B000C4F84451C4F84851C4F84C51C4F85071A3
:1021C000036801219B689847284600F0C5FB3368E7
:1021D00093F876200AB1D86C00B9986812F0F5F837
:1021E0002046F8BD3C350120F034012014D201080E
:1021F000FCD10108064BC0F848310023C0F84C312F
:1022000000F5A073C0F84401C0F83C31704700BF2E
:10221000552300082DE9F04707469068DDF820A017
:10222000994603681B6A88461546984741F20B6336
:10223000984205D8414B424AA321424819F02AFA54
:10224000686803681B6A98470F2803D83E4B3C4ACE
:10225000A421F2E7E86803681B6A98470B2803D8B3
:102260003A4B374AA521E8E70AF0DEF90AF0E2F92D
:10227000D9F8000010B10368DB689847D9F800006E
:1022800010B103681B689847386810B103685B6930
:102290009847D8F8000010B103685B689847386821
:1022A00010B103681B689847D8F8000010B10368A4
:1022B0009B689847E868036800215B6A9847044672
:1022C00020B1002343600372214B0360A8680368B8
:1022D00000215B6A9847064608B1FEF7EDFD686885
:1022E000036800215B6A9847054610B13146FEF746
:1022F000FBFDC9F80040C8F800503E60E5B12B1D59
:10230000CAF80030C5F808A03368F5633046DB68CA
:1023100098472B6828461B689847214630460BF0A3
:102320004FFD236820461B699847236820465B6958
:1023300098472846BDE8F0872B46E1E774D20108AC
:1023400089D4010802D3010843D30108E6D3010868
:1023500058D2010807B5D0F854310093D0F8502175
:10236000044B00F59C710448FFF754FF03B05DF87F
:1023700004FB00BF303501202C35012013B50022AD
:1023800049B102AB019203F8052D0268946801AAD5
:10239000A04702B010BD0846FBE74089704780891E
:1023A00070478088704783798088184480B270476E
:1023B000C07900F07F007047C079C0097047006A9B
:1023C0007047406A704770478B8880690A68DB0AEB
:1023D00050F823001044704710B5C2B1137BB3B15D
:1023E000547BD27A240204F4E0641443C26998B2A4
:1023F00002EB840213888B4202D192F9020010BDD5
:1024000005D8013880B204320028F3D1F7E7002064
:10241000F5E710B52821044619F030F9204610BD23
:1024200030B589B00446BDF850500695BDF84C5003
:1024300005959DF8405004959DF83C5003959DF8F6
:10244000385002959DF8345001959DF83050009514
:102450000BF016F9064B2360119BA361129BE361FD
:10246000159B2362169B6362204609B030BD00BFF6
:102470009CD5010830B5164D2C78BFF35B8F14F056
:1024800001048DB021D1284619F0D0F8E8B13F23DE
:102490000793104B0693104B10490894CDE9044361
:1024A00001220423CDE901320C231A46CDE9094467
:1024B000039400940A48FFF7B3FF284619F0C2F8C6
:1024C000084A0949064819F0D4F805480DB030BD4E
:1024D0007C010020D01C0208A81C02081805020874
:1024E0008001002000000020C723000830B5164DF1
:1024F0002C78BFF35B8F14F001048DB020D12846F7
:1025000019F094F8E0B13F230793104B0693104B5A
:10251000104908940122CDE904430423CDE9013296
:10252000CDE909440A23039400940B48FFF778FF90
:10253000284619F087F8094A0949074819F099F817
:1025400005480DB030BD00BFA8010020B41C020832
:10255000B01C0208C0050208AC01002000000020E9
:10256000C723000830B5164D2C78BFF35B8F14F0ED
:1025700001048DB020D1284619F058F8E0B13F236E
:102580000793104B0693104B10490894CDE9044370
:1025900008231222CDE90043CDE909441C23CDE9EB
:1025A00002440B48FFF73CFF284619F04BF8094A54
:1025B0000949074819F05DF805480DB030BD00BF66
:1025C000D4010020A01C0208C01C02080407020855
:1025D000D801002000000020C723000830B5174DA7
:1025E0002C78BFF35B8F14F001048DB022D1284604
:1025F00019F01CF8F0B13F230793114B0693114BD0
:1026000011490894CDE9044301220423CDE90132A4
:1026100005230D220093CDE90944182303940B48A8
:10262000FFF7FEFE284619F00DF8094A0949074848
:1026300019F01FF805480DB030BD00BF00020020A2
:10264000A41C0208C41C020800080208040200209E
:1026500000000020C723000830B5164D2C78BFF3CA
:102660005B8F14F001048DB020D1284618F0DEFFF6
:10267000E0B13F230793104B0693104B1049089489
:102680000122CDE904430423CDE90132CDE9094417
:102690002823039400940B48FFF7C2FE284618F045
:1026A000D1FF094A0949074818F0E3FF05480DB072
:1026B00030BD00BF2C020020AC1C0208C81C020860
:1026C000481C02083002002000000020C723000838
:1026D00030B5164D2C78BFF35B8F14F001048DB02C
:1026E00020D1284618F0A2FFE0B13F230793104BFA
:1026F0000693104B104908940122CDE904430423AA
:10270000CDE90132CDE909441423039400940B4828
:10271000FFF786FE284618F095FF094A0949074841
:1027200018F0A7FF05480DB030BD00BF58020020CB
:10273000B81C0208CC1C0208581C02085C020020CD
:1027400000000020C7230008704710B5042104468C
:1027500018F094FF204610BD08B5062921D8DFE8FF
:1027600001F004080C1014181C0000F061F8006857
:1027700008BD00F05DF84068FAE700F059F880689D
:10278000F6E700F055F8C068F2E700F051F800698C
:10279000EEE700F04DF84069EAE700F049F880699B
:1027A000E6E70020E4E7000030B5164D2C78BFF3D3
:1027B0005B8F14F001048DB020D1284618F036FF4D
:1027C000E0B13F230793104B0693104B1049089438
:1027D0000422CDE904430123CDE90123CDE90944D5
:1027E0000E23039400940B48FFF71AFE284618F0B6
:1027F00029FF094A0949074818F03BFF05480DB071
:1028000030BD00BF84020020BC1C0208D41C02089A
:10281000681C02088802002000000020C72300086E
:102820000048704700D601081120704725207047E6
:1028300000487047B002002010B5FFF749FF0A4C6E
:102840002060FFF709FF6060FFF750FEA060FFF710
:1028500089FEE060FFF7C2FE2061FFF7A5FF60611F
:10286000FFF708FEA06110BDB002002000207047F5
:10287000002070470EB403B503AB002153F8042BBE
:1028800001930AF033FD02B05DF804EB03B070472A
:102890000CB407B504AB53F8042B01930AF026FDE2
:1028A00003B05DF804EB02B07047000010B5436C54
:1028B000044673B3038F2BB9184B194AC02119482A
:1028C00018F0E8FEC38E00EB43035B8C0BB30BF0F8
:1028D000E5FF238F012B03D8134B144AC521EEE7E4
:1028E000E28E531C9BB2092B194688BFA3F10A0143
:1028F00004EB410140F63F10498C814209D10A2B7B
:1029000004EB420228BF002304EB4303508C58849D
:1029100051842046BDE810400BF0A4BE54D70108F6
:1029200081D801085DD70108A1D70108AFD70108F8
:102930000BF050BE10B586B002AC84E806001A4613
:102940000AAB05930193099B00932146089B09F06C
:10295000E2F906B010BD000038B5D8B9114B1248E5
:102960001B681249BBB11A689C681A4402605A6815
:102970001A440A601C446CB10D4B00221A80FFF708
:1029800057FF0546FFF752FF0A4B1C600A4B1D60BC
:102990000A4B188038BD0A4B03600A4B0B600A4B88
:1029A0001C68E8E7CC020020D0020020D4020020FE
:1029B000D80200204035012048350120443501204F
:1029C000249805084097050820980508044B1B68C3
:1029D00053F82100034B1B6803EB4000704700BF16
:1029E000D4020020D0020020012380F8741080F867
:1029F000753070470020704700207047836B0BB123
:102A00000846184770474FF6FF70704740680368E4
:102A10009B69184770477047034B902283F85A23ED
:102A200083F85823704700BF00E100E0094A0A49D3
:102A3000D3680A48C3F30A03013B9BB20B801169B8
:102A4000C1F30A01013901801364536B43F00103A0
:102A50005363704700680140DC020020DA02002066
:102A6000014B986A704700BF84680140024B012205
:102A7000996243F8602C70478468014038B5044679
:102A800006F041FE23681D6E09F0CEFD014620468A
:102A9000A8472368054AD3F88450A2F516310023CD
:102AA0002046A847002384F84A3038BD005802D099
:102AB00008B531B90A4B0B4A0B484FF42B7118F08B
:102AC000E9FDC0E90F1200320849436418BF012232
:102AD0000A700033064A18BF0123137008BD00BFF7
:102AE0008FD9010849DA0108C7D90108EC3401205F
:102AF000ED34012008B5094B1B888B4203D8084BE5
:102B00001B88934205D9074B074A08489E2118F0B5
:102B1000C1FD074B1980074B1A8008BDE234012024
:102B2000E43401202CD9010806DA0108C7D90108CC
:102B3000E8340120EA34012006F096BD10B50446C1
:102B400007F0E2FB23682046D3F8A430BDE810402C
:102B5000184790F877301BB1406803681B68184726
:102B60001846704710B590F8744090F834100C4B2C
:102B70008C421A7809D03AB90A4A0B491488088855
:102B800010800C8001221A7010BD002AFCD0054A6A
:102B900005491488088810800C800022F3E700BFE4
:102BA000E6340120E2340120E4340120034B4FF0ED
:102BB00080629A604FF080729A60704700E100E096
:102BC000084B4FF08062C3F88820BFF34F8FBFF3EC
:102BD0006F8F4FF08072C3F88820BFF34F8FBFF321
:102BE0006F8F704700E100E010B5134B134A1B6C68
:102BF0001188134C8B4213D1124B198803F044FCFB
:102C0000226892F86630013382F8663000F06AFA82
:102C1000206807F079FB0020BDE8104000F06BBC95
:102C200003F032FC002000F067FC20680368BDE878
:102C300010401B6A184700BF00680140DC020020FA
:102C4000F0340120DA02002003685B6C1847002092
:102C5000704703689B6A184740F26F307047000066
:102C600010B5074C074B2360204603F07FF8064B56
:102C70002361064B6361064B4FF080629A6010BD82
:102C80009437012000B00240B12C0008952C0008B8
:102C900000E100E008B5034A034B0448362118F070
:102CA000F9FC00BF10DB010872F7010897DA010890
:102CB000024B1B68586803685B691847F0340120B1
:102CC000084B10B503600446074803F01DF9074B95
:102CD0004FF08062C3F88820BFF34F8FBFF36F8F30
:102CE000204610BDC8DA01089437012000E100E059
:102CF00010B50446FFF7E4FF20464FF4426118F098
:102D0000BDFC204610BD0000044B1B6893F87620E4
:102D10000AB1D86C00B99868704700BFF034012040
:102D20002DE9F3410D68202D0C4600F0A180402DC7
:102D300000F09E802A1F56425641B5F5807F00F074
:102D40009980A5F500735D425D41FFF7DDFF0368E3
:102D50001B6A98472368402B00F0A48000F28C8007
:102D6000042B00F09880202B00F09C80102814BFCA
:102D70004FF0010C4FF0020C0021514BA28AB4F825
:102D80001A80D3F800E059601028A8EB020814BF9D
:102D9000012702279F60C3F80C80DEF8002022F490
:102DA00040321143CEF80010D3F800E0C3F82CC035
:102DB000DEF8341021F007013943CEF83410DEF884
:102DC000402022F47F5222F03F0242EA0802CEF86D
:102DD0004020228BA18A521A9A620EB9002D34D05B
:102DE000227FFF2A1FBF02221A63227F5A6304BF79
:102DF00000221A6305B3227FE16810284FEA0260BF
:102E000053D14FF01F0EC1F3C422C2EB0222B2FB1A
:102E1000FEFC01EA0E02C2EB0222B2FBFEF202430A
:102E200042EA0C42C1F34511C1EB01213F20B1FB45
:102E3000F0F142EA01225A63A18A628B2048521AB9
:102E4000C3E90627002103F02BF901211C4803F0F8
:102E500027F9A38AE28A06B955B3CDE9003223697E
:102E6000616817481A4602F0CEFF02B0BDE8F08153
:102E7000012666E7012568E7B3F5807F06D0B3F544
:102E8000007F7FF473AF4FF0090C01E04FF00A0CA4
:102E90004FF4003171E7102814BF4FF0010C4FF0D0
:102EA000020CF5E74FF0000CF2E701435963C3E76A
:102EB000009261682269024802F086FFD5E700BFF0
:102EC00094370120F7B50D46FFF71EFF03681B6A14
:102ED00098471028EB68297F6FD103F01F02C2EBDF
:102EE00002221F20B2FBF0F4C3F3C42244EA0164BF
:102EF000C2EB0222C3F34513B2FBF0F244EA0244F0
:102F0000C3EB03233F22B3FBF2F3022244EA032480
:102F10002B682C486F8B082B08BF4FF40036AB8A08
:102F200018BF4FF44036C0E90162FF1A0368C7605A
:102F3000196821F4403131431960D0F800C0DCF841
:102F4000341021F007011143CCF83410DCF8403084
:102F500023F47F5323F03F033B43B6F5003FCCF807
:102F600040301FD10123C0E90C340923C362A98A70
:102F70006B8B5B1AC0E90632002103F091F8012146
:102F8000104803F08DF8B6F5003FAB8AEA8A0DD100
:102F900029690C48CDE900320B460A4602F033FF9E
:102FA00003B0F0BD0023C2628362E8E700922146CD
:102FB0002A69044802F008FFF2E743EA01640122AB
:102FC000A6E700BF9437012070B505462C460A4B92
:102FD0000C30002668602E726E7244F8203B60222E
:102FE000214607F0C7FA05F54263E6602034A342A4
:102FF000FBD1284670BD00BFC8DA0108012108B521
:103000000022084605F0C4F8064B4FF0FF31186067
:1030100005F014F900220421012005F083F9024B88
:10302000186008BDE4020020E002002008B5074B4C
:10303000186828B9064B074A0748312118F02AFBBF
:103040004FF0FF31BDE8084005F0F8B8E402002079
:1030500043DB0108BADB010854DB010808B5064B65
:10306000186828B9054B064A06483A2118F012FBA1
:10307000BDE8084005F01EB9E402002043DB01086A
:103080007DDB010854DB010808B5074B186828B937
:10309000064B074A0748472118F0FCFA0021BDE813
:1030A000084005F0CBB800BFE402002043DB010874
:1030B000F7DB010854DB010808B5064B186828B98E
:1030C000054B064A0648542118F0E4FABDE80840CA
:1030D00005F0F0B8E402002043DB010837DC01080A
:1030E00054DB0108044B186820B100231A46034939
:1030F00005F05EB9704700BFE00200200400002028
:1031000013B5084C206858B100231A4601A905F0F0
:1031100091F94FF0FF33002201A9206805F08AF9E8
:1031200002B010BDE00200207047704770470120D8
:1031300070470C2070470C2303FB010008307047D8
:103140000C2303FB0100083070470120704741F257
:103150000C60704741F20C6303FB010008307047BC
:1031600041F20C6303FB01000830704701207047F7
:103170001020704700EB01100830704700EB011081
:10318000083070470846FFF735B8000010B5034B0C
:103190000360044605F094FF204610BDECDC0108F6
:1031A00010B50446FFF7F2FF2046142118F066FA26
:1031B000204610BD10B5034B0360044605F080FFA8
:1031C000204610BDB8DC010810B50446FFF7F2FF39
:1031D000204641F2146118F051FA204610BD00005B
:1031E00010B5034B0360044605F06AFF204610BD8E
:1031F00084DC010810B50446FFF7F2FF20461821D1
:1032000018F03CFA204610BD10B5084B0360044688
:1032100000F5B250FFF7BAFF04F12C00FFF7CAFF28
:1032200004F11400FFF7DCFF204610BD20DD01088B
:1032300010B50446FFF7E8FF204641F2B07118F0E0
:103240001DFA204610BD00002DE9F341FFF7E8FA12
:103250000546FFF7E9FA00240146234628462246A0
:1032600000940CF0A1F9264B264A274D1A602046FF
:10327000FFF772FB25480CF0D9F82B78BFF35B8F72
:10328000DB0737D4284618F0D1F9002832D0204C7B
:10329000204B236004F5B25707F1180604F114001F
:1032A00004F12C086060C4F80880E760266105F02E
:1032B00009FF194B6361404605F004FF174BE362B9
:1032C000384605F0FFFE164B3B6007F11400FDF792
:1032D00019FE224607F114013046FDF745FE30463F
:1032E000FEF788FF284618F0ADF90E4A0E49204631
:1032F00018F0BFF90D4802B0BDE8F04100F0D0B8B9
:103300004C3501203C270020E80200200800002066
:10331000EC02002020DD010884DC0108B8DC010893
:10332000ECDC01080000002009320008C026002063
:10333000014800F0B7B800BFC026002010B5042136
:10334000044618F09BF9204610BD10B578210446BC
:1033500018F094F9204610BD10B57C21044618F0F1
:103360008DF9204610BD0000F8B5394C394D3A4F63
:103370003A4B3B492B602246284618F07AF9394EE1
:103380003846FFF721FE22463749384618F071F9D2
:1033900030460FF0CFF922463449304618F069F92B
:1033A00022463349334818F064F9334833494166BB
:1033B0003349C56000230122324D0385C0E90176FF
:1033C000C0E90433C0E90633C0E9083380F82A3085
:1033D000C3620386C0E90E33C0E9103380F8483079
:1033E00080F8492080F84A3080F84B30C0E9133328
:1033F000C0E91533C0E9173380F8683080F86930C8
:1034000080F86A3080F86B3080F86C300860F0210A
:1034100029801D4D036729801C4D80F874304FF4BE
:10342000A07129801A4D80F875302980194980F8DB
:1034300076300B70184B80F8772080F8782080F871
:103440003420036022461549BDE8F84018F011B950
:10345000000000209C1A0020A01A002004DE0108B1
:103460002931000840270020C12C00082B3100081A
:103470004927000808000020C026002001000001A4
:10348000F0340120E2340120E8340120E43401204A
:10349000EA340120E634012034DD01082D31000832
:1034A000FFF7ECBA08B503680446DB6F984723685A
:1034B00020465B6F9847FFF723FE23682046DB6EAC
:1034C0009847292000F088FBFFF71AFE2368204662
:1034D000DB6E9847F8E7FFF7C3BAFFF7C7BAFFF705
:1034E0002BBBFFF799BAFFF761BBFFF769BBFFF78B
:1034F0009DBA06F0B3B870477047704738B50C4BAB
:103500000C4C18800C4B822019806368984740F659
:10351000110398420AD1094D23682C6082209847F4
:103520002B688220DB689847002038BD0120FCE72B
:10353000B827002024000020BA270020BC27002044
:103540004FF4A071F020FFF7D9BF0000F7B52C4D64
:103550002B6804461B698220984780B2208000288F
:103560004BD02B680DF106025B6901A982209847B8
:10357000BDF80630A3F5B4739BB20B22B3FBF2F394
:1035800033B1204A12889A423CBF02F1FF339BB20A
:10359000BDF8042040F6B8318A4295BFC2F5716289
:1035A000C2F56D620E320832ADF80420BDF8041089
:1035B0000F22B1FBF2F131B1134A12888A423CBFAB
:1035C00002F1FF3189B2114E114D30682F6882B27D
:1035D000814288BF8A1AB8B298BF521ABB428CBFC8
:1035E000181AC01A92B280B20244052AC4BF3160D0
:1035F0002B60336863802B68A38003B0F0BD00BFED
:10360000BC270020BA270020B8270020C0270020B0
:10361000C427002037B568460D461446FFF796FFCD
:10362000BDF8000030B1BDF802302B60BDF80430A9
:103630002360012003B030BD054BD3F8882042F44D
:103640007002C3F888204FF000629A60704700BF94
:1036500000ED00E030B5014689B00022362001F0CF
:1036600059FE362001F08AFE0025154B02951A6C92
:10367000144C42F010021A641B6C03F01003029306
:1036800001A903A8029B01F06BF801F059F80E4B59
:10369000236040F2E733E36040000C4BB0FBF3F0F3
:1036A0000138606020462561A56001F099F920B9D4
:1036B000204601F074F809B030BD0120FBE700BFDF
:1036C00000380240F43501200010004040420F0055
:1036D00007B5064B02A91B6821F8020D0122044818
:1036E00002F0CEF803B05DF804FB00BF1400002028
:1036F00088360120F0B53024A1B02246002108A868
:1037000018F043F81422002103A818F03EF82246CE
:10371000002114A818F039F80024224B01941A6CE7
:1037200042F080521A641B6C03F080530193019B9A
:103730001D4B02941A6842F440421A601B6803F45D
:10374000404302930122029B4FF48033CDE90823CA
:1037500002254FF48003CDE90E5308274FF4A873D8
:10376000042608A8CDE910731295139600F076FD93
:103770000F23CDE903354FF4A0514FF48053CDE929
:10378000061303A80521059400F03CFFC0231893FD
:1037900014A84FF4003314971A961D9302F0D4FE28
:1037A00021B0F0BD003802400070004080B59AB0F2
:1037B00002F08AFEFFF79EFF142200210DA80024CC
:1037C00017F0E3FFB44B00941A6BB448B44D42F0C9
:1037D00020021A631A6B02F020020092009A0194F0
:1037E0001A6B42F080021A631A6B02F08002019297
:1037F000019A02941A6B42F004021A631A6B02F0E7
:1038000004020292029A03941A6B42F001021A63B4
:103810001A6B02F001020392039A04941A6B42F0AD
:1038200002021A631A6B02F002020492049A0594CF
:103830001A6B42F040021A631A6B02F040020592C2
:10384000059A06941A6B42F010021A631A6B02F082
:1038500010020692069A07941A6B42F008021A6345
:103860001B6B03F00803079322460421079B01F01A
:103870002BFF22464FF440518A4801F025FF0126D4
:1038800002274FF004080DA984480F94CDE90D8656
:10389000109701F033FE0DA94FF440538148CDE954
:1038A0000D36CDE90F4701F029FE7F487F4B0360BD
:1038B00002F078FF7E4A7F4B2C62C5E90023284640
:1038C0004FF48043C5E90434C5E90244C5E9064420
:1038D00001F076FA1021284601F0C4FC2146284662
:1038E00001F0E2FC7448754984624FF48273C0E9C8
:1038F00000134FF400751823C0E906530A23704DD6
:10390000C362C0E90244C0E90444C0E9084401F0CC
:1039100077FF6C4B0D974FF0100CC5E90036402334
:10392000C5E904C34FF4C073C5E906344FF400631E
:10393000C5E908344FF40053AB624FF0030A072384
:103940000DA92846CDE90E3810934FF00809C5E9B6
:103950000248CDE911A7139700F036FC4FF6FF722D
:1039600009A92846CDE90A96089409960C9400F016
:103970004BFC304602F0D4FD4FF6FF7209A92846F1
:10398000CDE90979CDE90B6400F03EFC4FF6FF72FA
:1039900009A92846CDE909A9CDE90B8400F034FC3A
:1039A0004FF40C730893089B0C934FF6FF7209A910
:1039B0002846CDE909890B9600F026FC40F26A51B1
:1039C000284600F038FC342221460DEB020017F0A7
:1039D000DCFE3D4D3D4B2C61C5E900340923C5E9B2
:1039E00005361D2340F20D1EC5E9073A40F2431388
:1039F000C5E909E340F2171840F24713C5E90B8304
:103A0000C5E90244AC8685F83640284602F036FC0B
:103A1000FF21F022CDE912144FF4806905214FF403
:103A2000A073CDE90E24CDE91491CDE916420DA97C
:103A300022462846CDE91037254D18930D94ADF850
:103A400064408DF8664002F0F6FC224B2B601B6848
:103A500098472B68204DDB689847204BC5E90A47FB
:103A6000C5E90C442846C5E90034C5E9027402F0F2
:103A70007DF93146284602F013FB02F0A3FE04F064
:103A8000F7FA174A1748214604F02CFB164B18602A
:103A900004F008FBFEE700BF0038024000080240C7
:103AA00034360120000C0240E03601200030024094
:103AB000005C0040A08601008836012000500140D3
:103AC000D4370120400100A0E83601200068014001
:103AD000C82700204C0000209437012000B002408D
:103AE0002CDE0108C9670008903701207047704735
:103AF00010B586B006AC074B04F8012D1B68029385
:103B000001230A46CDE900430146034801F008FAC3
:103B100006B010BD10000020343601207FB506AA83
:103B2000002302F8013D084B1B6802930123CDE9F5
:103B300000230A460146054801F086FA9DF8170061
:103B400007B05DF804FB00BF1000002034360120F0
:103B50001FB5084C24680092CDE901340A460123C0
:103B60000146054801F070FA003018BF012004B08A
:103B700010BD00BF100000203436012002F0D0BC80
:103B800010B5064C00222046042101F09DFD204680
:103B900001220421BDE8104001F096BD000802405A
:103BA00038B50B4C054601224FF40051094801F08D
:103BB0008BFD00220421204601F086FD2846FFF7F8
:103BC00087FD204601220421BDE8384001F07CBD7C
:103BD00000080240000C024038B50B4C054600229C
:103BE0004FF40051094801F06FFD002204212046E6
:103BF00001F06AFD2846FFF76BFD204601220421F3
:103C0000BDE8384001F060BD00080240000C0240F1
:103C1000F7B5144C144D07460E46204600220421E9
:103C200001F052FD00224FF40051284601F04CFDF6
:103C30003846FFF74DFD0D4B0D481B68324601A974
:103C400001F0B6FF284601224FF40051019E01F019
:103C50003BFD20460122042101F036FD304603B031
:103C6000F0BD00BF00080240000C0240140000201C
:103C70008836012002F054BC0268034B9A4201D1FD
:103C800002F03CBC704700BF001000407047FEE7E8
:103C9000FEE7FEE7FEE77047014800F095BD00BF74
:103CA000F4350120014802F065BB00BFE836012071
:103CB000014802F065B900BF9437012008B50A4BEE
:103CC0001968024609B90949196018686946024429
:103CD0008A4206D917F00AFD0C2303604FF0FF302B
:103CE00008BD1A60FCE700BFCC2700205038012037
:103CF00082B00E4B00220092596C41F4804159640D
:103D0000596C01F48041009100990192196C41F0C5
:103D1000805119641B6C03F080530193019B0F21A8
:103D20006FF0010002B001F0F5BA00BF00380240A8
:103D30000268094B9A4282B00BD100230193074BD2
:103D40001A6B42F480521A631B6B03F48053019385
:103D5000019B02B0704700BF0030024000380240B3
:103D600007B50F4B02689A4216D10022A3F5F04323
:103D70000192196B41F4000119631B6B03F40003FA
:103D8000019305215A20019B01F0C4FA5A2003B087
:103D90005DF804EB01F0F2BA03B05DF804FB00BF7C
:103DA00000B002400268064B9A4207D1054A136BE5
:103DB00023F4000313635A2001F0EEBA704700BFEA
:103DC00000B00240003802402DE9F043044689B0BB
:103DD0001422002103A817F0D8FC2268244B9A4231
:103DE00043D1244C244800250095236B43F0040361
:103DF0002363236B03F004030093009B0195236B63
:103E000043F001032363236B03F001030193019B40
:103E10004FF012094FF400734FF0010803270426F6
:103E200003A9CDE90339CDE90587079601F066FBC3
:103E30004FF4807303A911480796CDE90339CDE902
:103E4000058701F05BFB0295236C43F400032364B8
:103E5000236C03F400030293029B236A43F40003E0
:103E60002362236A23F40003236209B0BDE8F083D0
:103E7000005C0040003802400008024000000240A0
:103E8000F0B504468DB01422002107A817F07DFC80
:103E90002268574B9A4240F0A88003F55043002512
:103EA00000955A6C534842F080625A645A6C02F092
:103EB00080620092009A01951A6B42F020021A6308
:103EC0001A6B02F020020192019A02951A6B42F0DD
:103ED00001021A631A6B02F001020292029A039520
:103EE0001A6B42F002021A631A6B02F0020203928A
:103EF000039A04951A6B42F040021A631A6B02F09F
:103F000040020492049A05951A6B42F004021A6367
:103F10001A6B02F004020592059A06951A6B42F09C
:103F200008021A631B6B03F00803069302240E2693
:103F3000069B0A944FF4806307A9CDE907340B96DA
:103F400001F0DCFA41F6580307A92B480B96CDE99E
:103F500007340927CDE9095401F0D0FA032307A952
:103F600026480B97CDE90734CDE9095401F0C6FA8C
:103F70004FF4706307A921480B96CDE90734CDE9CA
:103F8000095401F0BBFA4FF40C6307A91C480B96C7
:103F9000CDE90734CDE9095401F0B0FAC02307A9EF
:103FA00018480B96CDE90734CDE9095401F0A6FA7B
:103FB000082307A914480B96CDE90734CDE9095425
:103FC00001F09CFA4FF4A05307A90D480B97CDE9D7
:103FD0000734CDE9095401F091FA58202A46052109
:103FE00001F098F9582001F0C9F90DB0F0BD00BFFB
:103FF000006801400014024000000240000402403A
:104000000018024000080240000C024010B50446AF
:1040100088B01422002103A817F0B7FB2268144BC4
:104020009A4223D103F56843002101915A6C11484B
:1040300042F480125A645A6C02F480120192019A7E
:1040400002911A6B42F020021A631B6B03F02003EB
:104050000293029B4FF4607202230321CDE90323F4
:104060000523CDE9061303A901F048FA08B010BDF5
:1040700000500140001402402DE9F04186B01422A6
:10408000002101A817F081FB2B4B1C68002C4FD19D
:104090004FF00108C3F80080284B00949A6B284821
:1040A00042EA08029A639B6B03EA08030093022723
:1040B00003260C25009B01A94FF63F03CDE90137EC
:1040C000CDE9046501F01AFA01A91E480595CDE96C
:1040D0000187CDE9034601F011FA48F2331301A933
:1040E00019480595CDE90137CDE9034601F006FAF7
:1040F0004FF6837301A915480595CDE90137CDE940
:10410000034601F0FBF94CF2037301A91048059531
:10411000CDE90137CDE9034601F0F0F9602301A9AB
:104120000C480595CDE90137CDE9034601F0E6F9E4
:1041300006B0BDE8F08100BFD02700200038024063
:104140000014024000080240001802400010024023
:10415000000C0240000402400120704708B517F02F
:10416000C5FA162303604FF0FF3008BD08B517F0FD
:10417000BDFA16230360FEE770B50E4615460C46E1
:10418000A31B9D4201DC284670BDAFF3008004F8FC
:10419000010BF5E770B50E4615460C46A31B9D4274
:1041A00001DC284670BD14F8010BAFF30080F5E781
:1041B0004FF0FF3070474FF400534B6000207047C2
:1041C000012070470020704738B50D460446C8B13D
:1041D00090F82C3003F0FF021BB980F82D20FFF778
:1041E0004BFF022384F82C30211D206801F0E8F8F1
:1041F00062682068294601F019F9012384F82C30FF
:10420000002038BD0120FCE738B5044690F82C00AA
:10421000C0B202280D460DD0022384F82C3020684D
:1042200001F041F92B68022B0CBF0523012384F810
:104230002C30002038BD10B5044690F82C00C0B2D8
:10424000022809D0022384F82C30206801F050F9AC
:10425000012384F82C30002010BD00002DE9F3412B
:10426000044608B9012041E00368DD0710D4236843
:1042700098075AD423681A0700F19C8023685B07CB
:1042800000F1BA80A069002840F01C8100202DE0D8
:10429000A44B9A6802F00C02042A07D09A6802F034
:1042A0000C02082A0AD15B68590207D59D4B1B688E
:1042B0009A03DCD56368002BD9D1D3E76268994BA8
:1042C000B2F5803F15D11A6842F480321A606368F3
:1042D000F3B102F01FF9934D06462B689B03C6D439
:1042E00002F018F9801B6428F7D9032002B0BDE85A
:1042F000F081B2F5A02F1A6803D142F480221A602F
:10430000E1E722F480321A601A6822F48022DDE7A5
:1043100002F000F9834D06462B689F03A7D502F0F3
:10432000F9F8801B6428F7D9DFE77E4B9A6812F012
:104330000C0F07D09A6802F00C02082A11D15B68B2
:104340005E020ED4774B1A68950702D5E268012AFF
:1043500088D11A68216922F0F80242EAC1021A6083
:1043600088E7E268704BB2B101221A6002F0D2F81D
:104370006C4D06462B68980707D52B68226923F0F9
:10438000F80343EAC2032B6074E702F0C3F8801B12
:104390000228EFD9A9E71A6002F0BCF8614D064681
:1043A0002B6899077FF566AF02F0B4F8801B0228EE
:1043B000F6D99AE762695D4B7AB101221A6002F080
:1043C000A9F8584D06466B6F9F073FF557AF02F0AF
:1043D000A1F8801B0228F6D987E71A6002F09AF844
:1043E000504D06466B6F98077FF548AF02F092F884
:1043F000801B0228F6D978E74A4B1A6C12F08052DB
:104400002BD101921A6C42F080521A641B6C03F09B
:1044100080530193019B0126454D2B68D9051ED57C
:10442000A268404B012A2AD11A6F42F001021A6792
:10443000A368002B37D002F06DF83A4D074641F2E1
:1044400088382B6F9B0728D5002E3FF41BAF354AC9
:10445000136C23F08053136414E70026DCE72B6809
:1044600043F480732B6002F055F807462B68DA0599
:10447000D6D402F04FF8C01B0228F7D935E7052A39
:104480001A6F03D142F004021A67CDE722F001024D
:104490001A671A6F22F00402C9E702F03BF8C01B4A
:1044A0004045CED921E702F035F81E4D074641F2CE
:1044B00088382B6F9807C7D502F02CF8C01B4045F1
:1044C000F7D912E7174DAB6803F00C03082B46D061
:1044D000184E00230228336034D102F01BF807463F
:1044E0002B68990128D4D4E907321343626A43EA5E
:1044F0008213E26A43EA0263A26A0A4C5208013A52
:1045000043EA02436B600123336002F003F805467F
:1045100023689A013FF5BAAE01F0FCFF401B022868
:10452000F6D9E2E60038024000004742800E4742DA
:10453000007000406000474201F0ECFFC01B022801
:10454000CED9D2E601F0E6FF04462B689B017FF549
:104550009DAE01F0DFFF001B0228F6D9C5E6012859
:104560003FF4C4AE6868E36900F480029A427FF4C5
:1045700079AE226A00F03F0393427FF473AE626A21
:1045800047F6C073034093427FF46CAEA26A00F416
:10459000403393427FF466AEE36A00F07060C01A65
:1045A00018BF0120A2E600BF08B513498B6803F0CD
:1045B0000C03042B03D0082B03D0104800E0104854
:1045C00008BD4A684B68496813F4800314BF0C485F
:1045D0000A48C1F3881118BF002302F03F02A1FB73
:1045E0000001FBF705FE044B5B68C3F30143013395
:1045F0005B00B0FBF3F0E3E7003802400024F40076
:1046000000127A002DE9F0410D46044610B9012050
:10461000BDE8F081454B1A6802F00F028A422AD3A6
:1046200023689E072FD42368D90743D43F4B1A68C9
:1046300002F00F02AA4268D823685A076ED4236892
:104640001B0707D53A4A2169936823F4604343EA7C
:10465000C1039360FFF7A8FF354B364A9B68C3F34D
:104660000313D35CD840344B1860344B1868FEF702
:10467000F1FF0020CCE7CAB21A701B6803F00F03E9
:104680008B42C4D1CCE7580741BF294A936843F411
:10469000E05393602368264A13F0080F1EBF936807
:1046A00043F4604393609368A16823F0F0030B43E5
:1046B0009360B8E762681E4B012A1CD11B6813F493
:1046C000003FA4D01A4EB36823F003031343B36032
:1046D00001F020FF41F288380746B368626803F0B2
:1046E0000C03B3EB820FA1D001F014FFC01B4045B7
:1046F000F3D903208CE7911E01291B6802D813F01F
:10470000007FDEE713F0020FDBE7EAB21A701B68E6
:1047100003F00F03AB427FF47AAF8DE7044AE16800
:10472000936823F4E0530B43936088E7003C024016
:104730000038024014DE01080C0000201C0000209C
:10474000044B054A9B68C3F38223D35C034A106879
:10475000D84070470038024024DE01080C000020D9
:104760000F2303600B4B9A6802F0030242609A68C1
:1047700002F0F00282609A6802F4E052C2609B6824
:10478000DB0803F4E0530361034B1B6803F00F03E2
:104790000B60704700380240003C024070470268DE
:1047A000D36843F00103D36003689A6802F00702FC
:1047B000062A1EBF1A6842F001021A6000207047E4
:1047C000704770477047704710B503681A699107C2
:1047D00004460FD5DA6892070CD56FF002021A6111
:1047E0000123037703689B699B077AD0FFF7E9FFF2
:1047F0000023237723681A69500711D5DA68510717
:104800000ED56FF004021A610223237723689B6997
:1048100013F4407F20466AD0FFF7D3FF00232377AD
:1048200023681A69120710D5DA6810070DD56FF0E2
:1048300008021A61042323772368DB69990720465D
:104840005BD0FFF7BEFF0023237723681A69D206E7
:1048500011D5DA68D0060ED56FF010021A61082360
:1048600023772368DB6913F4407F20464BD0FFF7A2
:10487000A8FF0023237723681A69D10708D5DA68CF
:10488000D20705D56FF001021A612046FFF7F4F94F
:1048900023681A69100608D5DA68110605D56FF085
:1048A00080021A61204600F021FD23681A69520631
:1048B00008D5DA68500605D56FF040021A61204627
:1048C000FFF781FF23681A69910622D5DA689206FC
:1048D0001FD56FF020021A612046BDE8104000F09D
:1048E00004BDFFF76DFF2046FFF76CFF80E7FFF781
:1048F00067FF2046FFF766FF90E7FFF761FF20465E
:10490000FFF760FF9FE7FFF75BFF2046FFF75AFFC7
:10491000AFE710BD304A0368904212D0B0F1804F2B
:104920000FD0A2F57C4290420BD002F580629042FB
:1049300007D002F58062904203D002F5784290429F
:1049400019D14A6823F070031343234A904229D0B7
:10495000B0F1804F26D0A2F57C42904222D002F5E1
:10496000806290421ED002F5806290421AD002F519
:104970007842904216D0194A904213D002F58062D4
:1049800090420FD002F5806290420BD0A2F598328F
:10499000904207D002F58062904203D002F5806217
:1049A000904203D1CA6823F4407313434A6923F049
:1049B0008003134303608B68C3620B688362064BFA
:1049C000984203D003F58063984201D10B690363D9
:1049D00001234361704700BF0000014000400140D7
:1049E00010B50446A0B190F83D3003F0FF021BB9AA
:1049F00080F83C20FFF7D2FE022384F83D30206887
:104A0000211DFFF787FF012384F83D30002010BDF2
:104A10000120FCE701684B6913F480634FF000024A
:104A200010D06FF480634B612023026380F83D3027
:104A300080F83E20036C80F83C2043F004030364BC
:104A400001207047184670472DE9F041044616468C
:104A500098468FB22568686937EA000018D06B69FC
:104A60005A0517D52B6843F400732B6023686FF445
:104A700080625A6100232022236384F83D2084F859
:104A80003E30226C42F00402226484F83C30012063
:104A9000BDE8F081731CDED001F03CFDA0EB080006
:104AA000B04201D8002ED5D100232022236384F800
:104AB0003D2084F83E30226C42F02002E4E770B5DD
:104AC00004460D46164623685B695B0701D5002046
:104AD00070BD2046FFF79EFFA8B96A1CF3D001F015
:104AE00019FD801BA84201D8002DECD10023202203
:104AF000236384F83D2084F83E30226C84F83C30F7
:104B000042F0200222640120E2E770B504460D461F
:104B100016462068436913F0400301D0002010E0DE
:104B20004269D2060ED56FF0100242612022236343
:104B300084F83D2084F83E30226C226484F83C30B6
:104B4000012070BD01F0E6FC801BA84201D8002DB9
:104B5000DFD100232022236384F83D2084F83E30F7
:104B6000226C42F02002E8E72DE9F843089E044653
:104B700090461F464FEA11498DB22168B9F1010FE5
:104B80000CBF4B698B6935EA03030CBF012300237B
:104B9000984501D0002016E07B1CEFD001F0BAFC54
:104BA000801BB84201D8002FE7D1002320222363C5
:104BB00084F83D2084F83E30226C84F83C3042F08A
:104BC000200222640120BDE8F88370B504460D463A
:104BD000164623685B691B0601D5002070BD204680
:104BE000FFF718FFA8B96A1CF3D001F093FC801BF3
:104BF000A84201D8002DECD100232022236384F8A1
:104C00003D2084F83E30226C84F83C3042F0200293
:104C100022640120E2E700002DE9FF411546026809
:104C20000B9E9846136843F4807313600F460A9BEB
:104C3000009600224FF001110446FFF795FF23680C
:104C400038B11B68DB0502D54FF4007323640320E1
:104C50000AE007F0FE071F610A9A19493346204609
:104C6000FFF7F2FE18B1012004B0BDE8F08123681F
:104C700003905A6903929B69039332460A99039BF6
:104C80002046FFF7A2FF40B1236C042B01BF22682E
:104C9000136843F400731360E5E7B8F1010F23686C
:104CA00002D1EDB21D61DFE72A0A1A610A99324684
:104CB0002046FFF78AFF0028E6D12368F1E700BF0E
:104CC000020001002DE9FF41164602680B9D98463F
:104CD000136843F4806313600268136843F48073BD
:104CE00013600F460A9B009500224FF00111044605
:104CF000FFF73AFF236848B11B68DB0502D54FF484
:104D000000732364032004B0BDE8F081FFB207F014
:104D1000FE021A6129490A9A2B462046FFF794FEA3
:104D200008B10120EFE7236803905A6903929B6959
:104D300003932A460A99039B2046FFF746FF40B19A
:104D4000236C042B01BF2268136843F400731360C3
:104D5000E7E7B8F1010F236825D1F6B21E612A46B4
:104D60000A992046FFF731FF02460028E8D1216862
:104D70000B6843F480730B6020460A9B00954FF04C
:104D80000111FFF7F1FE23680028B5D147F00107B4
:104D90001F610A9A09492B462046FFF755FE00304D
:104DA00018BF0120AFE7320A1A610A992A46204645
:104DB000FFF70BFF0028C3D12368CEE702000100F4
:104DC00070B5044608B9012070BD90F83D3003F07D
:104DD000FF021BB980F83C20FEF7F6FF226824236F
:104DE00084F83D30136823F00103136022681368D0
:104DF00043F4004313602268136823F400431360F4
:104E0000FFF79EFC424B62689A4294BF414B424B73
:104E100098428CBF00230123002BD4D122683F4944
:104E20005368B0FBF1F123F03F030B435360666816
:104E3000374B25689E4288BF4FF496732A6A8ABF13
:104E40004B434B1C4FF47A7122F03F0284BFB3FBFB
:104E5000F1F3013313432B6221686368CA692C4D57
:104E600022F44F42AB4222F0FF0200F1FF3035D86E
:104E70005B00B0FBF3F0431CC3F30B03042B38BF00
:104E800004231343CB612168D4E907300A68034344
:104E900022F0C00213430B602168D4E903038A683F
:104EA00022F40342034322F0FF0213438B60216884
:104EB000D4E90530CA68034322F0FF021343CB60F4
:104EC0002268136843F0010313600020202320644C
:104ED00084F83D30206384F83E0075E7A56855B935
:104EE00003EB4303B0FBF3F0431CC3F30B036BB1C1
:104EF00043F40043C5E719256B43B0FBF3F0431CB3
:104F0000C3F30B0313B143F44043BAE70123B8E7FB
:104F1000A08601007F841E00FF083D0040420F0074
:104F20002DE9F743044699460F4690460C9E01F042
:104F3000F1FA94F83D30202B054603D0022003B04F
:104F4000BDE8F0830090192301223D492046FFF778
:104F50000BFE0028F2D194F83C30012BEED0012357
:104F600084F83C3023681A68D2075EBF1A6842F0A2
:104F700001021A602268136823F40063136021237E
:104F800084F83D30402384F83E30002323640A9B9C
:104F90006362BDF82C306385638D2385294BE36202
:104FA000CDE900654B46424639462046FFF734FEC0
:104FB00000282DD00120C2E7FFF707FE40B1236C87
:104FC000042B01BF2268136843F400731360F1E7F8
:104FD000626A236812781A61616A628D4B1C63628F
:104FE000238D013A92B2013B62859BB222682385F0
:104FF000506940070CD55BB14B781361636A01338C
:105000006362238D013B2385638D013B9BB26385E6
:10501000238D2A4631462046002BCDD1FFF74FFD88
:105020000028CCD12268136843F400731360202356
:1050300084F83D3084F83C0084F83E007FE700BFF0
:10504000020010000000FFFF2DE9F043044687B086
:1050500099460D469046109F01F05CFA94F83D3059
:10506000202B064604D00225284607B0BDE8F08371
:1050700000901923012278492046FFF775FD00288A
:10508000F1D194F83C30012BEDD0012384F83C3071
:1050900023681A68D0075EBF1A6842F001021A60DE
:1050A0002268136823F400631360222384F83D30E0
:1050B000402384F83E30002323640E9B6362BDF8D6
:1050C0003C306385638D2385644BE3622946CDE9DB
:1050D00000764B4642462046FFF7F4FD054608B1F0
:1050E0000125C1E7228D2368B2B902905A69029264
:1050F0009A690292029A1A6842F400721A60DFF802
:105100006081238D002B2FD1202284F83D2084F84C
:105110003C3084F83E30A7E7012A0BD11A6822F40C
:1051200080621A60236803905A6903929A69039215
:10513000039AE0E7022A10D11A6822F480621A600A
:105140002268136843F400631360236804905A696B
:1051500004929B690493049BD1E705905A690592D8
:105160009B690593059BCAE7032B58D8012B15D1E2
:10517000324639462046FFF7C8FC0028B0D12368E4
:105180001A69636A1A70636A01336362238D013B93
:105190002385638D013B9BB26385B2E7022B0096AA
:1051A0003B464FF00002414620461AD1FFF7DCFC97
:1051B000002895D12268136843F4007313602368B4
:1051C0001A69636A1A70626A531C6362238D013B19
:1051D0002385638D013B9BB2638523681B695370F4
:1051E000D1E7FFF7C1FC024600287FF479AF2168C0
:1051F0000B6823F480630B6023681969636A197074
:10520000636A009601336362238D013B2385638DBE
:10521000013B9BB2638541463B462046C6E732468A
:1052200039462046FFF771FC00287FF459AF236808
:105230001A69636A1A70626A531C6362238D013BA8
:105240002385638D013B9BB26385236859694907B8
:105250007FF557AFC2E700BF020010000000FFFF5C
:105260000400010010B590F83D30DBB2202B19D1BD
:105270000468242280F83D20226822F00102226086
:105280000468626A22F0100262620468626A114372
:10529000616201680A6842F001020A6080F83D30EC
:1052A000002010BD0220FCE730B590F83D20D2B2BE
:1052B000202A18D10568242380F83D302C6824F07A
:1052C00001042C600468656A4FF6F0732B400B43B1
:1052D0009BB2636201680B6843F001030B6080F8C6
:1052E0003D20002030BD0220FCE7704770470000E1
:1052F000074AD36823F4E0631B041B0C43F0BF632D
:10530000000243F4003300F4E0600343D3607047CD
:1053100000ED00E070B5174BDC68C4F30224C4F163
:105320000705042D04F1040328BF04254FF0FF36C0
:10533000062B06FA05F38CBF033C002421EA030385
:10534000A34006FA04F422EA0404002843EA040312
:10535000A8BF00F160404FEA0313BCBF00F00F008C
:10536000054ADBB2AABF00F56140135480F8003350
:1053700070BD00BF00ED00E014ED00E0002808DB88
:105380004209012300F01F0003FA00F0014B43F82B
:105390002200704700E100E000280DDB43090122F4
:1053A00000F01F0002FA00F02033044A42F8230004
:1053B000BFF34F8FBFF36F8F704700BF00E100E076
:1053C0002DE9F041D1E907434A6AD1E90158D1E911
:1053D00003ECD1E905760968012943EA040312497F
:1053E00004680FD01A432A4342EA080343EA0E0333
:1053F00043EA0C033B43214033430B43036000204B
:10540000BDE8F08113434268114045EA080242EAD0
:105410000E0242EA0C023A4324F4F8443243234396
:105420000A4303604260EAE70080FFFFF0B5CB6803
:105430000C688E680D695F1E4B6904F1FF3C4C6877
:105440008969013B1B05013C013E013D0139012AEF
:105450004FEA04144FEA06264FEA05454FEA016178
:1054600043EA07330CD043EA0C03234382683343F7
:105470002B4302F070420B43134383600020F0BDC6
:10548000876827F4700727F4704744EA06023B4315
:1054900042EA0C02C76883602A4307F070470A4358
:1054A0003A43C260EAE773B5002301931546D1E998
:1054B00000321343CA6843EA42238A68013A43EA46
:1054C00042130193019B0361044601F023F8064651
:1054D000A06910F0200003D06B1CF9D015B903208F
:1054E00002B070BD01F016F8801BA842F0D9F6E7B3
:1054F000436943EA41014161002070472DE9F74FBC
:10550000DFF8B8C16B4CDFF8B891DFF8B881002341
:1055100001250A689D402A40954240F0B2804E68BD
:1055200026F010065F004FF0030E013E0EFA07FE54
:10553000012E6FEA0E0E0FD88568CE6805EA0E05BB
:10554000BE402E4386604E684568C6F3001625EAC5
:1055500002059E402E434660C5688E6805EA0E052A
:10556000BE402E43C6604D6825F01005022D14D1B3
:105570004FEAD30A00EB8A0A03F0070BDAF820603F
:105580004FEA8B0B0F2505FA0BF526EA05050E6988
:1055900006FA0BF62E43CAF82060056805EA0E0EDF
:1055A0004D6805F00305BD4045EA0E0505604D68F0
:1055B000EE0066D54FF0000BCDF804B0DCF8446087
:1055C0003D4D46F48046CCF84460DCF8446006F477
:1055D00080460196019E23F0030606F1804606F5FB
:1055E0009C3603F0030ED6F808A04FEA8E0E0F2764
:1055F00007FA0EF7A8422AEA070749D005F58065A1
:10560000A84247D005F58065A84245D005F58065DC
:10561000A84243D0484543D0404543D005F54065B6
:10562000A84241D005F58065A8423FD005F58065C8
:10563000A8423DD005F58065A84214BF0A2509257A
:1056400005FA0EF53D43B5604D682768D643ED0376
:1056500054BF3740174327604D686768AD0354BF98
:105660003740174367604D68A768ED0254BF374065
:105670001743A7604D68E768AD0254BF3740174332
:10568000E7600133102B7FF443AF03B0BDE8F08F28
:105690005D46D5E70125D3E70225D1E70325CFE70E
:1056A0000425CDE70525CBE70625C9E70725C7E78C
:1056B0000825C5E7003C01400000024000380240D8
:1056C00000100240001402400AB1816170470904D1
:1056D000FBE7F8B504460E4615461F4621688A6862
:1056E00036EA020301D0002030E06B1CF7D000F056
:1056F00011FFC01B8542F1D82268536823F0E003F4
:1057000053606368B3F5827F0BD1A368B3F5004F94
:1057100002D0B3F5806F04D12268136823F04003F0
:105720001360A36AB3F5005F09D12268136823F4FC
:10573000005313602268136843F40053136001237D
:1057400084F85130002384F850300320F8BD10B5A0
:1057500013464268B2F5827F04460BD18268B2F5E7
:10576000004F02D0B2F5806F04D12068026822F0A9
:10577000400202606268B2F5827F0BD1A268B2F586
:10578000806F0A4607D080212046FFF7A2FF20B98C
:10579000002010BD0A460121F6E7636D43F02003A7
:1057A00063650320F5E7000073B51346124A134EF4
:1057B00015684268B5FBF6F64FF47A757543B2F595
:1057C000827F044601950BD10A468021FFF781FFB5
:1057D00078B1636D43F020036365032002B070BDB0
:1057E000019B33B1019B013B019323689B681B061E
:1057F000F6D40020F2E700BF0C00002000366E0156
:1058000010B50446002839D00023836290F8513047
:1058100003F0FF021BB980F85020FEF7F7FB226867
:10582000022384F85130136823F040031360D4E955
:105830000023A1680B43E1680B4321690B436169B5
:105840000B43E1690B43216A0B43A16A0B43A16936
:1058500001F400710B431360638B616A226803F0EB
:1058600004030B4353602268D36923F40063D361BC
:1058700000200123606584F8513010BD0120FCE751
:105880002DE9F3411D4690F85030012B044688461F
:10589000174600F09480012380F8503000F03AFE63
:1058A000064694F85100C0B2012840F08680B8F155
:1058B000000F58D0002F56D0032384F85130A3682E
:1058C000C4F830800020B3F5004FC4E9100008BFD1
:1058D00022686065A786E786A063A087E08702BF8D
:1058E000136843F48043136023681A6852065EBF4E
:1058F0001A6842F040021A60E2686368B2F5006F0D
:105900003AD10BB1012F0AD12368226B1288DA60D9
:10591000236B02332363E38E013B9BB2E386E38E6A
:105920009BB2A3B9324629462046FFF73DFF002827
:1059300040D1A36833B901932368DA6801929B6868
:105940000193019B606D003018BF01200BE02368BC
:105950009A689007D9D400F0DDFD801BA842DED301
:10596000691CDCD00320012384F85130002384F823
:10597000503002B0BDE8F0810BB1012F0AD123688D
:10598000226B12781A73236B01332363E38E013B7E
:105990009BB2E386E38E9BB2002BC3D023689A6848
:1059A0009207EDD400F0B6FD801BA842F2D36B1C29
:1059B000F0D0D7E720236365BBE70220D3E70220BE
:1059C000D7E72DE9F7431D4690F850300A9E012B8A
:1059D00004468846914600F0E980012380F8503063
:1059E00000F098FD94F85130DBB2012B07460BD044
:1059F0006268B2F5827F40F0D780A268002A40F04A
:105A0000D380042B40F0D080B8F1000F00F0CA80A2
:105A1000B9F1000F00F0C680002D00F0C38094F8AB
:105A20005130C4F83890042B1CBF052384F8513042
:105A30000023C4E9103363652368E587A587C4F8AC
:105A40003080E586A5861A6852065EBF1A6842F065
:105A500040021A60E2686368B2F5006F5DD10BB175
:105A6000012D0AD1226B23681288DA60236B02337E
:105A70002363E38E013B9BB2E3860125E38E9BB259
:105A8000ABB9E38F9BB293B93A4631462046FFF754
:105A90008BFE002840F08480A368002B34D123685B
:105AA0000190DA6801929B680193019B2CE02268C7
:105AB000936898070ED5E38E9BB25BB155B1236B0B
:105AC0001B88D360236B02332363E38E013B9BB2BD
:105AD000E386002522689368D9070DD5E38F9BB232
